{
  "contractName": "GameController",
  "abi": [
    {
      "constant": true,
      "inputs": [],
      "name": "owner",
      "outputs": [
        {
          "name": "",
          "type": "address"
        }
      ],
      "payable": false,
      "stateMutability": "view",
      "type": "function"
    },
    {
      "constant": true,
      "inputs": [
        {
          "name": "",
          "type": "bytes32"
        }
      ],
      "name": "users",
      "outputs": [
        {
          "name": "gamerID",
          "type": "address"
        },
        {
          "name": "totalGameCount",
          "type": "uint256"
        },
        {
          "name": "isPlaying",
          "type": "bool"
        }
      ],
      "payable": false,
      "stateMutability": "view",
      "type": "function"
    },
    {
      "inputs": [],
      "payable": false,
      "stateMutability": "nonpayable",
      "type": "constructor"
    },
    {
      "anonymous": false,
      "inputs": [
        {
          "indexed": false,
          "name": "difficulty",
          "type": "bytes2"
        },
        {
          "indexed": false,
          "name": "gameHex",
          "type": "bytes32"
        },
        {
          "indexed": false,
          "name": "useItem",
          "type": "bool[3]"
        },
        {
          "indexed": false,
          "name": "totalGameCount",
          "type": "uint256"
        }
      ],
      "name": "START",
      "type": "event"
    },
    {
      "anonymous": false,
      "inputs": [],
      "name": "WIN",
      "type": "event"
    },
    {
      "anonymous": false,
      "inputs": [],
      "name": "LOSE",
      "type": "event"
    },
    {
      "anonymous": false,
      "inputs": [],
      "name": "REGISTER",
      "type": "event"
    },
    {
      "constant": false,
      "inputs": [],
      "name": "buyMagnet",
      "outputs": [
        {
          "name": "",
          "type": "bool"
        }
      ],
      "payable": true,
      "stateMutability": "payable",
      "type": "function"
    },
    {
      "constant": true,
      "inputs": [],
      "name": "getMagnetBalance",
      "outputs": [
        {
          "name": "",
          "type": "uint256"
        }
      ],
      "payable": false,
      "stateMutability": "view",
      "type": "function"
    },
    {
      "constant": true,
      "inputs": [],
      "name": "getMagnetFieldBalance",
      "outputs": [
        {
          "name": "",
          "type": "uint256"
        }
      ],
      "payable": false,
      "stateMutability": "view",
      "type": "function"
    },
    {
      "constant": false,
      "inputs": [
        {
          "name": "_useItems",
          "type": "bool[3]"
        }
      ],
      "name": "useItems",
      "outputs": [
        {
          "name": "",
          "type": "uint256"
        }
      ],
      "payable": false,
      "stateMutability": "nonpayable",
      "type": "function"
    },
    {
      "constant": false,
      "inputs": [
        {
          "name": "_difficulty",
          "type": "bytes2"
        },
        {
          "name": "_gameCost",
          "type": "uint8"
        },
        {
          "name": "_gameHex",
          "type": "bytes32"
        },
        {
          "name": "_useItem",
          "type": "bool[3]"
        }
      ],
      "name": "startGame",
      "outputs": [],
      "payable": false,
      "stateMutability": "nonpayable",
      "type": "function"
    },
    {
      "constant": false,
      "inputs": [
        {
          "name": "_gameHex",
          "type": "bytes32"
        },
        {
          "name": "_isWinner",
          "type": "bool"
        }
      ],
      "name": "endGame",
      "outputs": [],
      "payable": false,
      "stateMutability": "nonpayable",
      "type": "function"
    },
    {
      "constant": true,
      "inputs": [
        {
          "name": "index",
          "type": "uint256"
        }
      ],
      "name": "getGameResults",
      "outputs": [
        {
          "name": "difficulty",
          "type": "bytes2"
        },
        {
          "name": "result",
          "type": "uint8"
        }
      ],
      "payable": false,
      "stateMutability": "view",
      "type": "function"
    },
    {
      "constant": false,
      "inputs": [
        {
          "name": "amount",
          "type": "uint256"
        }
      ],
      "name": "exchangeTokens",
      "outputs": [
        {
          "name": "",
          "type": "bool"
        }
      ],
      "payable": false,
      "stateMutability": "nonpayable",
      "type": "function"
    },
    {
      "constant": true,
      "inputs": [],
      "name": "getUserInfo",
      "outputs": [
        {
          "name": "_gamerID",
          "type": "address"
        },
        {
          "name": "_totalGameCount",
          "type": "uint256"
        }
      ],
      "payable": false,
      "stateMutability": "view",
      "type": "function"
    }
  ],
  "bytecode": "0x60806040523480156200001157600080fd5b5033600260006101000a81548173ffffffffffffffffffffffffffffffffffffffff021916908373ffffffffffffffffffffffffffffffffffffffff160217905550336040516200006290620001ba565b808273ffffffffffffffffffffffffffffffffffffffff1673ffffffffffffffffffffffffffffffffffffffff168152602001915050604051809103906000f080158015620000b5573d6000803e3d6000fd5b5060008060028110620000c457fe5b0160006101000a81548173ffffffffffffffffffffffffffffffffffffffff021916908373ffffffffffffffffffffffffffffffffffffffff160217905550336040516200011290620001c8565b808273ffffffffffffffffffffffffffffffffffffffff1673ffffffffffffffffffffffffffffffffffffffff168152602001915050604051809103906000f08015801562000165573d6000803e3d6000fd5b5060006001600281106200017557fe5b0160006101000a81548173ffffffffffffffffffffffffffffffffffffffff021916908373ffffffffffffffffffffffffffffffffffffffff160217905550620001d6565b6120b5806200208c83390190565b611f8a806200414183390190565b611ea680620001e66000396000f3fe60806040526004361061009c5760003560e01c80638da5cb5b116100645780638da5cb5b14610241578063b6d991cf14610298578063cea6ab98146102c3578063dcef63eb14610350578063dfef09d9146103f6578063f598963e146104215761009c565b8063083c3daa146100a157806340477126146100c35780635d8d15851461011657806378df5b4014610174578063801330aa146101bb575b600080fd5b6100a96104d5565b604051808215151515815260200191505060405180910390f35b3480156100cf57600080fd5b506100fc600480360360208110156100e657600080fd5b8101908080359060200190929190505050610687565b604051808215151515815260200191505060405180910390f35b34801561012257600080fd5b5061012b61091c565b604051808373ffffffffffffffffffffffffffffffffffffffff1673ffffffffffffffffffffffffffffffffffffffff1681526020018281526020019250505060405180910390f35b34801561018057600080fd5b506101b96004803603604081101561019757600080fd5b81019080803590602001909291908035151590602001909291905050506109be565b005b3480156101c757600080fd5b5061022b600480360360608110156101de57600080fd5b8101908080606001906003806020026040519081016040528092919082600360200280828437600081840152601f19601f8201169050808301925050505050509192919290505050610c07565b6040518082815260200191505060405180910390f35b34801561024d57600080fd5b50610256610d4b565b604051808273ffffffffffffffffffffffffffffffffffffffff1673ffffffffffffffffffffffffffffffffffffffff16815260200191505060405180910390f35b3480156102a457600080fd5b506102ad610d71565b6040518082815260200191505060405180910390f35b3480156102cf57600080fd5b506102fc600480360360208110156102e657600080fd5b8101908080359060200190929190505050610e5e565b604051808473ffffffffffffffffffffffffffffffffffffffff1673ffffffffffffffffffffffffffffffffffffffff16815260200183815260200182151515158152602001935050505060405180910390f35b34801561035c57600080fd5b506103896004803603602081101561037357600080fd5b8101908080359060200190929190505050610eb5565b60405180837dffffffffffffffffffffffffffffffffffffffffffffffffffffffffffff19167dffffffffffffffffffffffffffffffffffffffffffffffffffffffffffff191681526020018260028111156103e157fe5b60ff1681526020019250505060405180910390f35b34801561040257600080fd5b5061040b6110ce565b6040518082815260200191505060405180910390f35b34801561042d57600080fd5b506104d3600480360360c081101561044457600080fd5b8101908080357dffffffffffffffffffffffffffffffffffffffffffffffffffffffffffff19169060200190929190803560ff1690602001909291908035906020019092919080606001906003806020026040519081016040528092919082600360200280828437600081840152601f19601f82011690508083019250505050505091929192905050506111bb565b005b600080600080600281106104e557fe5b0160009054906101000a900473ffffffffffffffffffffffffffffffffffffffff1673ffffffffffffffffffffffffffffffffffffffff16634b94f50e6040518163ffffffff1660e01b815260040160206040518083038186803b15801561054c57600080fd5b505afa158015610560573d6000803e3d6000fd5b505050506040513d602081101561057657600080fd5b8101908080519060200190929190505050348161058f57fe5b0490506000806002811061059f57fe5b0160009054906101000a900473ffffffffffffffffffffffffffffffffffffffff1673ffffffffffffffffffffffffffffffffffffffff1663c625e9b182336040518363ffffffff1660e01b8152600401808381526020018273ffffffffffffffffffffffffffffffffffffffff1673ffffffffffffffffffffffffffffffffffffffff16815260200192505050602060405180830381600087803b15801561064757600080fd5b505af115801561065b573d6000803e3d6000fd5b505050506040513d602081101561067157600080fd5b8101908080519060200190929190505050505090565b60008060016002811061069657fe5b0160009054906101000a900473ffffffffffffffffffffffffffffffffffffffff1673ffffffffffffffffffffffffffffffffffffffff1663d92dd1cb83336040518363ffffffff1660e01b8152600401808381526020018273ffffffffffffffffffffffffffffffffffffffff1673ffffffffffffffffffffffffffffffffffffffff16815260200192505050602060405180830381600087803b15801561073e57600080fd5b505af1158015610752573d6000803e3d6000fd5b505050506040513d602081101561076857600080fd5b81019080805190602001909291905050506107ce576040517f08c379a0000000000000000000000000000000000000000000000000000000008152600401808060200182810382526024815260200180611e576024913960400191505060405180910390fd5b600080600281106107db57fe5b0160009054906101000a900473ffffffffffffffffffffffffffffffffffffffff1673ffffffffffffffffffffffffffffffffffffffff1663d92dd1cb83336040518363ffffffff1660e01b8152600401808381526020018273ffffffffffffffffffffffffffffffffffffffff1673ffffffffffffffffffffffffffffffffffffffff16815260200192505050602060405180830381600087803b15801561088357600080fd5b505af1158015610897573d6000803e3d6000fd5b505050506040513d60208110156108ad57600080fd5b8101908080519060200190929190505050610913576040517f08c379a0000000000000000000000000000000000000000000000000000000008152600401808060200182810382526023815260200180611e136023913960400191505060405180910390fd5b60019050919050565b60008060006003600033604051602001808273ffffffffffffffffffffffffffffffffffffffff1673ffffffffffffffffffffffffffffffffffffffff1660601b815260140191505060405160208183030381529060405280519060200120815260200190815260200160002090508060000160009054906101000a900473ffffffffffffffffffffffffffffffffffffffff16925080600101549150509091565b600033604051602001808273ffffffffffffffffffffffffffffffffffffffff1673ffffffffffffffffffffffffffffffffffffffff1660601b81526014019150506040516020818303038152906040528051906020012090506000600360008381526020019081526020016000209050600073ffffffffffffffffffffffffffffffffffffffff168160000160009054906101000a900473ffffffffffffffffffffffffffffffffffffffff1673ffffffffffffffffffffffffffffffffffffffff161415610af6576040517f08c379a00000000000000000000000000000000000000000000000000000000081526004018080602001828103825260158152602001807f4e6f205573657220446174613a20656e6447616d65000000000000000000000081525060200191505060405180910390fd5b600081600301600083600101548152602001908152602001600020905084816000015414610b8c576040517f08c379a000000000000000000000000000000000000000000000000000000000815260040180806020018281038252601d8152602001807f4e6f20737563682047616d6520696e206c6f67733a20656e6447616d6500000081525060200191505060405180910390fd5b8315610bbd5760008160010160026101000a81548160ff02191690836002811115610bb357fe5b0217905550610be4565b60018160010160026101000a81548160ff02191690836002811115610bde57fe5b02179055505b610bff8160010160009054906101000a900460f01b85611803565b505050505050565b6000806000905082600060038110610c1b57fe5b602002015115610c2d57611b58810190505b82600160038110610c3a57fe5b602002015115610c4c57612710810190505b82600260038110610c5957fe5b602002015115610c6b57614e20810190505b60008114610d42576000600160028110610c8157fe5b0160009054906101000a900473ffffffffffffffffffffffffffffffffffffffff1673ffffffffffffffffffffffffffffffffffffffff16631c45202d82336040518363ffffffff1660e01b8152600401808381526020018273ffffffffffffffffffffffffffffffffffffffff1673ffffffffffffffffffffffffffffffffffffffff16815260200192505050600060405180830381600087803b158015610d2957600080fd5b505af1158015610d3d573d6000803e3d6000fd5b505050505b80915050919050565b600260009054906101000a900473ffffffffffffffffffffffffffffffffffffffff1681565b600080600060028110610d8057fe5b0160009054906101000a900473ffffffffffffffffffffffffffffffffffffffff1673ffffffffffffffffffffffffffffffffffffffff166370a08231336040518263ffffffff1660e01b8152600401808273ffffffffffffffffffffffffffffffffffffffff1673ffffffffffffffffffffffffffffffffffffffff16815260200191505060206040518083038186803b158015610e1e57600080fd5b505afa158015610e32573d6000803e3d6000fd5b505050506040513d6020811015610e4857600080fd5b8101908080519060200190929190505050905090565b60036020528060005260406000206000915090508060000160009054906101000a900473ffffffffffffffffffffffffffffffffffffffff16908060010154908060020160009054906101000a900460ff16905083565b600080600073ffffffffffffffffffffffffffffffffffffffff166003600033604051602001808273ffffffffffffffffffffffffffffffffffffffff1673ffffffffffffffffffffffffffffffffffffffff1660601b815260140191505060405160208183030381529060405280519060200120815260200190815260200160002060000160009054906101000a900473ffffffffffffffffffffffffffffffffffffffff1673ffffffffffffffffffffffffffffffffffffffff161480610fe85750826003600033604051602001808273ffffffffffffffffffffffffffffffffffffffff1673ffffffffffffffffffffffffffffffffffffffff1660601b815260140191505060405160208183030381529060405280519060200120815260200190815260200160002060010154105b15611019577f4e410000000000000000000000000000000000000000000000000000000000009150600290506110c9565b60006003600033604051602001808273ffffffffffffffffffffffffffffffffffffffff1673ffffffffffffffffffffffffffffffffffffffff1660601b81526014019150506040516020818303038152906040528051906020012081526020019081526020016000209050600081600301600086815260200190815260200160002090508060010160009054906101000a900460f01b93508060010160029054906101000a900460ff16925050505b915091565b6000806001600281106110dd57fe5b0160009054906101000a900473ffffffffffffffffffffffffffffffffffffffff1673ffffffffffffffffffffffffffffffffffffffff166370a08231336040518263ffffffff1660e01b8152600401808273ffffffffffffffffffffffffffffffffffffffff1673ffffffffffffffffffffffffffffffffffffffff16815260200191505060206040518083038186803b15801561117b57600080fd5b505afa15801561118f573d6000803e3d6000fd5b505050506040513d60208110156111a557600080fd5b8101908080519060200190929190505050905090565b600033604051602001808273ffffffffffffffffffffffffffffffffffffffff1673ffffffffffffffffffffffffffffffffffffffff1660601b81526014019150506040516020818303038152906040528051906020012090506000600360008381526020019081526020016000209050600a60ff168560ff161461128b576040517f08c379a0000000000000000000000000000000000000000000000000000000008152600401808060200182810382526021815260200180611e366021913960400191505060405180910390fd5b600a60ff166000806002811061129d57fe5b0160009054906101000a900473ffffffffffffffffffffffffffffffffffffffff1673ffffffffffffffffffffffffffffffffffffffff166370a08231336040518263ffffffff1660e01b8152600401808273ffffffffffffffffffffffffffffffffffffffff1673ffffffffffffffffffffffffffffffffffffffff16815260200191505060206040518083038186803b15801561133b57600080fd5b505afa15801561134f573d6000803e3d6000fd5b505050506040513d602081101561136557600080fd5b810190808051906020019092919050505010156113ea576040517f08c379a00000000000000000000000000000000000000000000000000000000081526004018080602001828103825260188152602001807f4e6f7420456e6f756768204d61676e657420546f6b656e73000000000000000081525060200191505060405180910390fd5b600073ffffffffffffffffffffffffffffffffffffffff168160000160009054906101000a900473ffffffffffffffffffffffffffffffffffffffff1673ffffffffffffffffffffffffffffffffffffffff16141561144d5761144c82611d61565b5b600073ffffffffffffffffffffffffffffffffffffffff168160000160009054906101000a900473ffffffffffffffffffffffffffffffffffffffff1673ffffffffffffffffffffffffffffffffffffffff161415611514576040517f08c379a00000000000000000000000000000000000000000000000000000000081526004018080602001828103825260188152602001807f4e6f20557365722044617461203a20737461727447616d65000000000000000081525060200191505060405180910390fd5b60018160020160006101000a81548160ff021916908315150217905550600181600101600082825401925050819055506000816003016000836001015481526020019081526020016000209050868160010160006101000a81548161ffff021916908360f01c021790555084816000018190555060018160010160026101000a81548160ff021916908360028111156115a957fe5b021790555060008090505b6003811015611609578481600381106115c957fe5b60200201518260020182600381106115dd57fe5b602091828204019190066101000a81548160ff02191690831515021790555080806001019150506115b4565b506116778160020160038060200260405190810160405280929190826003801561166d576020028201916000905b82829054906101000a900460ff161515815260200190600101906020826000010492830192600103820291508084116116375790505b5050505050610c07565b506000806002811061168557fe5b0160009054906101000a900473ffffffffffffffffffffffffffffffffffffffff1673ffffffffffffffffffffffffffffffffffffffff1663a5233b25336040518263ffffffff1660e01b8152600401808273ffffffffffffffffffffffffffffffffffffffff1673ffffffffffffffffffffffffffffffffffffffff168152602001915050600060405180830381600087803b15801561172557600080fd5b505af1158015611739573d6000803e3d6000fd5b505050507fc7ac18fce2161ed5213e36b291b3e1338d444d67b7fc2a53f66fb1776ff7b5ae878686856001015460405180857dffffffffffffffffffffffffffffffffffffffffffffffffffffffffffff19167dffffffffffffffffffffffffffffffffffffffffffffffffffffffffffff1916815260200184815260200183600360200280838360005b838110156117df5780820151818401526020810190506117c4565b5050505090500182815260200194505050505060405180910390a150505050505050565b60008115611b85576000806002811061181857fe5b0160009054906101000a900473ffffffffffffffffffffffffffffffffffffffff1673ffffffffffffffffffffffffffffffffffffffff166343d2c75284336040518363ffffffff1660e01b815260040180837dffffffffffffffffffffffffffffffffffffffffffffffffffffffffffff19167dffffffffffffffffffffffffffffffffffffffffffffffffffffffffffff191681526020018273ffffffffffffffffffffffffffffffffffffffff1673ffffffffffffffffffffffffffffffffffffffff16815260200192505050602060405180830381600087803b15801561190257600080fd5b505af1158015611916573d6000803e3d6000fd5b505050506040513d602081101561192c57600080fd5b81019080805190602001909291905050506119af576040517f08c379a000000000000000000000000000000000000000000000000000000000815260040180806020018281038252601f8152602001807f5265766572742066726f6d204d61676e6574203a20726577617264557365720081525060200191505060405180910390fd5b60006001600281106119bd57fe5b0160009054906101000a900473ffffffffffffffffffffffffffffffffffffffff1673ffffffffffffffffffffffffffffffffffffffff166343d2c75284336040518363ffffffff1660e01b815260040180837dffffffffffffffffffffffffffffffffffffffffffffffffffffffffffff19167dffffffffffffffffffffffffffffffffffffffffffffffffffffffffffff191681526020018273ffffffffffffffffffffffffffffffffffffffff1673ffffffffffffffffffffffffffffffffffffffff16815260200192505050602060405180830381600087803b158015611aa757600080fd5b505af1158015611abb573d6000803e3d6000fd5b505050506040513d6020811015611ad157600080fd5b8101908080519060200190929190505050611b54576040517f08c379a00000000000000000000000000000000000000000000000000000000081526004018080602001828103825260208152602001807f5265766572742066726f6d204d61676e657446203a207265776172645573657281525060200191505060405180910390fd5b7fa9b48ba7eb46d59a96fea22bbc7e53c3af344d9c75ee09e78b0f32ca4f8c2a8f60405160405180910390a1611d57565b6000600160028110611b9357fe5b0160009054906101000a900473ffffffffffffffffffffffffffffffffffffffff1673ffffffffffffffffffffffffffffffffffffffff166343d2c75284336040518363ffffffff1660e01b815260040180837dffffffffffffffffffffffffffffffffffffffffffffffffffffffffffff19167dffffffffffffffffffffffffffffffffffffffffffffffffffffffffffff191681526020018273ffffffffffffffffffffffffffffffffffffffff1673ffffffffffffffffffffffffffffffffffffffff16815260200192505050602060405180830381600087803b158015611c7d57600080fd5b505af1158015611c91573d6000803e3d6000fd5b505050506040513d6020811015611ca757600080fd5b8101908080519060200190929190505050611d2a576040517f08c379a00000000000000000000000000000000000000000000000000000000081526004018080602001828103825260208152602001807f5265766572742066726f6d204d61676e657446203a207265776172645573657281525060200191505060405180910390fd5b7f8fd268e19e11911908022dbdaf0fb3c386fc668c496b50cdf278bb9ea3c0271260405160405180910390a15b6001905092915050565b6000600360008381526020019081526020016000209050338160000160006101000a81548173ffffffffffffffffffffffffffffffffffffffff021916908373ffffffffffffffffffffffffffffffffffffffff1602179055506000816001018190555060008160020160006101000a81548160ff0219169083151502179055507fe8a28dd752e9fdb6ffdd08908cf27efb2415fd5ddfa28abcf0b87bc7178f0ba860405160405180910390a1505056fe5265766572742066726f6d204d61676e6574203a2065786368616e6765546f6b656e73596f7520446f6573206e6f7420626574203130204d61676e657420546f6b656e735265766572742066726f6d204d61676e657446203a2065786368616e6765546f6b656e73a165627a7a72305820bd78fb02026d3c551eb1dc5c75c74552808b506ecb6839e6f0bd2fef78def30b002960806040523480156200001157600080fd5b50604051602080620020b5833981018060405260208110156200003357600080fd5b8101908080519060200190929190505050806000806101000a81548173ffffffffffffffffffffffffffffffffffffffff021916908373ffffffffffffffffffffffffffffffffffffffff16021790555033600160006101000a81548173ffffffffffffffffffffffffffffffffffffffff021916908373ffffffffffffffffffffffffffffffffffffffff1602179055506040518060400160405280600681526020017f4d61676e657400000000000000000000000000000000000000000000000000008152506002908051906020019062000112929190620001a1565b506040518060400160405280600281526020017f4d470000000000000000000000000000000000000000000000000000000000008152506003908051906020019062000160929190620001a1565b506008600481905550600454600a0a630bebc20002600581905550600454600a0a630bebc20002600681905550655af3107a40006007819055505062000250565b828054600181600116156101000203166002900490600052602060002090601f016020900481019282601f10620001e457805160ff191683800117855562000215565b8280016001018555821562000215579182015b8281111562000214578251825591602001919060010190620001f7565b5b50905062000224919062000228565b5090565b6200024d91905b80821115620002495760008160009055506001016200022f565b5090565b90565b611e5580620002606000396000f3fe608060405234801561001057600080fd5b50600436106101165760003560e01c806395d89b41116100a2578063c4e41b2211610071578063c4e41b22146105e8578063c625e9b114610606578063d92dd1cb1461066c578063dd62ed3e146106d2578063f77c47911461074a57610116565b806395d89b4114610455578063a457c2d7146104d8578063a5233b251461053e578063a9059cbb1461058257610116565b806339509351116100e957806339509351146102a857806343d2c7521461030e5780634b94f50e1461039557806370a08231146103b35780638da5cb5b1461040b57610116565b806306fdde031461011b578063095ea7b31461019e57806323b872dd14610204578063313ce5671461028a575b600080fd5b610123610794565b6040518080602001828103825283818151815260200191508051906020019080838360005b83811015610163578082015181840152602081019050610148565b50505050905090810190601f1680156101905780820380516001836020036101000a031916815260200191505b509250505060405180910390f35b6101ea600480360360408110156101b457600080fd5b81019080803573ffffffffffffffffffffffffffffffffffffffff16906020019092919080359060200190929190505050610832565b604051808215151515815260200191505060405180910390f35b6102706004803603606081101561021a57600080fd5b81019080803573ffffffffffffffffffffffffffffffffffffffff169060200190929190803573ffffffffffffffffffffffffffffffffffffffff16906020019092919080359060200190929190505050610849565b604051808215151515815260200191505060405180910390f35b6102926108fa565b6040518082815260200191505060405180910390f35b6102f4600480360360408110156102be57600080fd5b81019080803573ffffffffffffffffffffffffffffffffffffffff16906020019092919080359060200190929190505050610900565b604051808215151515815260200191505060405180910390f35b61037b6004803603604081101561032457600080fd5b8101908080357dffffffffffffffffffffffffffffffffffffffffffffffffffffffffffff19169060200190929190803573ffffffffffffffffffffffffffffffffffffffff1690602001909291905050506109a5565b604051808215151515815260200191505060405180910390f35b61039d610d36565b6040518082815260200191505060405180910390f35b6103f5600480360360208110156103c957600080fd5b81019080803573ffffffffffffffffffffffffffffffffffffffff169060200190929190505050610d40565b6040518082815260200191505060405180910390f35b610413610d89565b604051808273ffffffffffffffffffffffffffffffffffffffff1673ffffffffffffffffffffffffffffffffffffffff16815260200191505060405180910390f35b61045d610dae565b6040518080602001828103825283818151815260200191508051906020019080838360005b8381101561049d578082015181840152602081019050610482565b50505050905090810190601f1680156104ca5780820380516001836020036101000a031916815260200191505b509250505060405180910390f35b610524600480360360408110156104ee57600080fd5b81019080803573ffffffffffffffffffffffffffffffffffffffff16906020019092919080359060200190929190505050610e4c565b604051808215151515815260200191505060405180910390f35b6105806004803603602081101561055457600080fd5b81019080803573ffffffffffffffffffffffffffffffffffffffff169060200190929190505050610ef1565b005b6105ce6004803603604081101561059857600080fd5b81019080803573ffffffffffffffffffffffffffffffffffffffff16906020019092919080359060200190929190505050611012565b604051808215151515815260200191505060405180910390f35b6105f0611029565b6040518082815260200191505060405180910390f35b6106526004803603604081101561061c57600080fd5b8101908080359060200190929190803573ffffffffffffffffffffffffffffffffffffffff169060200190929190505050611033565b604051808215151515815260200191505060405180910390f35b6106b86004803603604081101561068257600080fd5b8101908080359060200190929190803573ffffffffffffffffffffffffffffffffffffffff169060200190929190505050611324565b604051808215151515815260200191505060405180910390f35b610734600480360360408110156106e857600080fd5b81019080803573ffffffffffffffffffffffffffffffffffffffff169060200190929190803573ffffffffffffffffffffffffffffffffffffffff1690602001909291905050506115a7565b6040518082815260200191505060405180910390f35b61075261162e565b604051808273ffffffffffffffffffffffffffffffffffffffff1673ffffffffffffffffffffffffffffffffffffffff16815260200191505060405180910390f35b60028054600181600116156101000203166002900480601f01602080910402602001604051908101604052809291908181526020018280546001816001161561010002031660029004801561082a5780601f106107ff5761010080835404028352916020019161082a565b820191906000526020600020905b81548152906001019060200180831161080d57829003601f168201915b505050505081565b600061083f338484611654565b6001905092915050565b600061085684848461184b565b6108ef84336108ea85600960008a73ffffffffffffffffffffffffffffffffffffffff1673ffffffffffffffffffffffffffffffffffffffff16815260200190815260200160002060003373ffffffffffffffffffffffffffffffffffffffff1673ffffffffffffffffffffffffffffffffffffffff16815260200190815260200160002054611aeb90919063ffffffff16565b611654565b600190509392505050565b60045481565b600061099b338461099685600960003373ffffffffffffffffffffffffffffffffffffffff1673ffffffffffffffffffffffffffffffffffffffff16815260200190815260200160002060008973ffffffffffffffffffffffffffffffffffffffff1673ffffffffffffffffffffffffffffffffffffffff16815260200190815260200160002054611b7490919063ffffffff16565b611654565b6001905092915050565b60008060009054906101000a900473ffffffffffffffffffffffffffffffffffffffff1673ffffffffffffffffffffffffffffffffffffffff163373ffffffffffffffffffffffffffffffffffffffff161480610a4f5750600160009054906101000a900473ffffffffffffffffffffffffffffffffffffffff1673ffffffffffffffffffffffffffffffffffffffff163373ffffffffffffffffffffffffffffffffffffffff16145b610ac1576040517f08c379a000000000000000000000000000000000000000000000000000000000815260040180806020018281038252601c8152602001807f556e617574686f72697a65642073656e646572203a204d61676e65740000000081525060200191505060405180910390fd5b7f455a0000000000000000000000000000000000000000000000000000000000007dffffffffffffffffffffffffffffffffffffffffffffffffffffffffffff1916837dffffffffffffffffffffffffffffffffffffffffffffffffffffffffffff1916148015610b385750610b376007611bfc565b5b15610b90576007600860008473ffffffffffffffffffffffffffffffffffffffff1673ffffffffffffffffffffffffffffffffffffffff16815260200190815260200160002060008282540192505081905550610d2c565b7f4e4d0000000000000000000000000000000000000000000000000000000000007dffffffffffffffffffffffffffffffffffffffffffffffffffffffffffff1916837dffffffffffffffffffffffffffffffffffffffffffffffffffffffffffff1916148015610c075750610c06600a611bfc565b5b15610c5f57600a600860008473ffffffffffffffffffffffffffffffffffffffff1673ffffffffffffffffffffffffffffffffffffffff16815260200190815260200160002060008282540192505081905550610d2b565b7f48440000000000000000000000000000000000000000000000000000000000007dffffffffffffffffffffffffffffffffffffffffffffffffffffffffffff1916837dffffffffffffffffffffffffffffffffffffffffffffffffffffffffffff1916148015610cd65750610cd56014611bfc565b5b15610d2a576014600860008473ffffffffffffffffffffffffffffffffffffffff1673ffffffffffffffffffffffffffffffffffffffff168152602001908152602001600020600082825401925050819055505b5b5b6001905092915050565b6000600754905090565b6000600860008373ffffffffffffffffffffffffffffffffffffffff1673ffffffffffffffffffffffffffffffffffffffff168152602001908152602001600020549050919050565b6000809054906101000a900473ffffffffffffffffffffffffffffffffffffffff1681565b60038054600181600116156101000203166002900480601f016020809104026020016040519081016040528092919081815260200182805460018160011615610100020316600290048015610e445780601f10610e1957610100808354040283529160200191610e44565b820191906000526020600020905b815481529060010190602001808311610e2757829003601f168201915b505050505081565b6000610ee73384610ee285600960003373ffffffffffffffffffffffffffffffffffffffff1673ffffffffffffffffffffffffffffffffffffffff16815260200190815260200160002060008973ffffffffffffffffffffffffffffffffffffffff1673ffffffffffffffffffffffffffffffffffffffff16815260200190815260200160002054611aeb90919063ffffffff16565b611654565b6001905092915050565b600a60ff16600860008373ffffffffffffffffffffffffffffffffffffffff1673ffffffffffffffffffffffffffffffffffffffff168152602001908152602001600020541015610faa576040517f08c379a00000000000000000000000000000000000000000000000000000000081526004018080602001828103825260128152602001807f4e6f7420656e6f7567682042616c616e6365000000000000000000000000000081525060200191505060405180910390fd5b600a60ff16600860008373ffffffffffffffffffffffffffffffffffffffff1673ffffffffffffffffffffffffffffffffffffffff16815260200190815260200160002060008282540392505081905550600a60ff1660066000828254019250508190555050565b600061101f33848461184b565b6001905092915050565b6000600554905090565b60008060009054906101000a900473ffffffffffffffffffffffffffffffffffffffff1673ffffffffffffffffffffffffffffffffffffffff163373ffffffffffffffffffffffffffffffffffffffff1614806110dd5750600160009054906101000a900473ffffffffffffffffffffffffffffffffffffffff1673ffffffffffffffffffffffffffffffffffffffff163373ffffffffffffffffffffffffffffffffffffffff16145b61114f576040517f08c379a000000000000000000000000000000000000000000000000000000000815260040180806020018281038252601c8152602001807f556e617574686f72697a65642073656e646572203a204d61676e65740000000081525060200191505060405180910390fd5b600860003373ffffffffffffffffffffffffffffffffffffffff1673ffffffffffffffffffffffffffffffffffffffff1681526020019081526020016000205483600860008573ffffffffffffffffffffffffffffffffffffffff1673ffffffffffffffffffffffffffffffffffffffff16815260200190815260200160002054011015611245576040517f08c379a00000000000000000000000000000000000000000000000000000000081526004018080602001828103825260108152602001807f4f766572466c6f77204f6363757265640000000000000000000000000000000081525060200191505060405180910390fd5b8260065410156112bd576040517f08c379a000000000000000000000000000000000000000000000000000000000815260040180806020018281038252601c8152602001807f4e6f7420656e6f75676820537570706c6961626c6520546f6b656e730000000081525060200191505060405180910390fd5b82600860008473ffffffffffffffffffffffffffffffffffffffff1673ffffffffffffffffffffffffffffffffffffffff16815260200190815260200160002060008282540192505081905550826006600082825403925050819055506001905092915050565b60008060009054906101000a900473ffffffffffffffffffffffffffffffffffffffff1673ffffffffffffffffffffffffffffffffffffffff163373ffffffffffffffffffffffffffffffffffffffff1614806113ce5750600160009054906101000a900473ffffffffffffffffffffffffffffffffffffffff1673ffffffffffffffffffffffffffffffffffffffff163373ffffffffffffffffffffffffffffffffffffffff16145b611440576040517f08c379a000000000000000000000000000000000000000000000000000000000815260040180806020018281038252601c8152602001807f556e617574686f72697a65642073656e646572203a204d61676e65740000000081525060200191505060405180910390fd5b82600860008473ffffffffffffffffffffffffffffffffffffffff1673ffffffffffffffffffffffffffffffffffffffff1681526020019081526020016000205410156114f5576040517f08c379a00000000000000000000000000000000000000000000000000000000081526004018080602001828103825260128152602001807f4e6f7420656e6f7567682042616c616e6365000000000000000000000000000081525060200191505060405180910390fd5b612710831015611550576040517f08c379a0000000000000000000000000000000000000000000000000000000008152600401808060200182810382526026815260200180611dbb6026913960400191505060405180910390fd5b82600860008473ffffffffffffffffffffffffffffffffffffffff1673ffffffffffffffffffffffffffffffffffffffff168152602001908152602001600020600082825403925050819055506001905092915050565b6000600960008473ffffffffffffffffffffffffffffffffffffffff1673ffffffffffffffffffffffffffffffffffffffff16815260200190815260200160002060008373ffffffffffffffffffffffffffffffffffffffff1673ffffffffffffffffffffffffffffffffffffffff16815260200190815260200160002054905092915050565b600160009054906101000a900473ffffffffffffffffffffffffffffffffffffffff1681565b600073ffffffffffffffffffffffffffffffffffffffff168373ffffffffffffffffffffffffffffffffffffffff1614156116da576040517f08c379a0000000000000000000000000000000000000000000000000000000008152600401808060200182810382526024815260200180611e066024913960400191505060405180910390fd5b600073ffffffffffffffffffffffffffffffffffffffff168273ffffffffffffffffffffffffffffffffffffffff161415611760576040517f08c379a0000000000000000000000000000000000000000000000000000000008152600401808060200182810382526022815260200180611d996022913960400191505060405180910390fd5b80600960008573ffffffffffffffffffffffffffffffffffffffff1673ffffffffffffffffffffffffffffffffffffffff16815260200190815260200160002060008473ffffffffffffffffffffffffffffffffffffffff1673ffffffffffffffffffffffffffffffffffffffff168152602001908152602001600020819055508173ffffffffffffffffffffffffffffffffffffffff168373ffffffffffffffffffffffffffffffffffffffff167f8c5be1e5ebec7d5bd14f71427d1e84f3dd0314c0f7b2291e5b200ac8c7c3b925836040518082815260200191505060405180910390a3505050565b600073ffffffffffffffffffffffffffffffffffffffff168373ffffffffffffffffffffffffffffffffffffffff1614156118d1576040517f08c379a0000000000000000000000000000000000000000000000000000000008152600401808060200182810382526025815260200180611de16025913960400191505060405180910390fd5b600073ffffffffffffffffffffffffffffffffffffffff168273ffffffffffffffffffffffffffffffffffffffff161415611957576040517f08c379a0000000000000000000000000000000000000000000000000000000008152600401808060200182810382526023815260200180611d766023913960400191505060405180910390fd5b6119a981600860008673ffffffffffffffffffffffffffffffffffffffff1673ffffffffffffffffffffffffffffffffffffffff16815260200190815260200160002054611aeb90919063ffffffff16565b600860008573ffffffffffffffffffffffffffffffffffffffff1673ffffffffffffffffffffffffffffffffffffffff16815260200190815260200160002081905550611a3e81600860008573ffffffffffffffffffffffffffffffffffffffff1673ffffffffffffffffffffffffffffffffffffffff16815260200190815260200160002054611b7490919063ffffffff16565b600860008473ffffffffffffffffffffffffffffffffffffffff1673ffffffffffffffffffffffffffffffffffffffff168152602001908152602001600020819055508173ffffffffffffffffffffffffffffffffffffffff168373ffffffffffffffffffffffffffffffffffffffff167fddf252ad1be2c89b69c2b068fc378daa952ba7f163c4a11628f55a4df523b3ef836040518082815260200191505060405180910390a3505050565b600082821115611b63576040517f08c379a000000000000000000000000000000000000000000000000000000000815260040180806020018281038252601e8152602001807f536166654d6174683a207375627472616374696f6e206f766572666c6f77000081525060200191505060405180910390fd5b600082840390508091505092915050565b600080828401905083811015611bf2576040517f08c379a000000000000000000000000000000000000000000000000000000000815260040180806020018281038252601b8152602001807f536166654d6174683a206164646974696f6e206f766572666c6f77000000000081525060200191505060405180910390fd5b8091505092915050565b6000816006541015611c76576040517f08c379a000000000000000000000000000000000000000000000000000000000815260040180806020018281038252601c8152602001807f4e6f7420656e6f75676820537570706c6961626c6520546f6b656e730000000081525060200191505060405180910390fd5b600860003373ffffffffffffffffffffffffffffffffffffffff1673ffffffffffffffffffffffffffffffffffffffff1681526020019081526020016000205482600860003373ffffffffffffffffffffffffffffffffffffffff1673ffffffffffffffffffffffffffffffffffffffff16815260200190815260200160002054011015611d6c576040517f08c379a00000000000000000000000000000000000000000000000000000000081526004018080602001828103825260108152602001807f4f766572666c6f77204f6363757265640000000000000000000000000000000081525060200191505060405180910390fd5b6001905091905056fe45524332303a207472616e7366657220746f20746865207a65726f206164647265737345524332303a20617070726f766520746f20746865207a65726f20616464726573734e6f74205265616368204d696e696d616c20436f6e646974696f6e3a203130303030204d465445524332303a207472616e736665722066726f6d20746865207a65726f206164647265737345524332303a20617070726f76652066726f6d20746865207a65726f2061646472657373a165627a7a723058209885792999e28342cf62ccb36bd11882cb3143ec8384891f7b58ed726d0f9909002960806040523480156200001157600080fd5b5060405160208062001f8a833981018060405260208110156200003357600080fd5b8101908080519060200190929190505050806000806101000a81548173ffffffffffffffffffffffffffffffffffffffff021916908373ffffffffffffffffffffffffffffffffffffffff16021790555033600160006101000a81548173ffffffffffffffffffffffffffffffffffffffff021916908373ffffffffffffffffffffffffffffffffffffffff1602179055506040518060400160405280600b81526020017f4d61676e65744669656c64000000000000000000000000000000000000000000815250600290805190602001906200011292919062000194565b506040518060400160405280600381526020017f4d47460000000000000000000000000000000000000000000000000000000000815250600390805190602001906200016092919062000194565b506008600481905550600454600a0a630bebc20002600581905550600454600a0a630bebc200026006819055505062000243565b828054600181600116156101000203166002900490600052602060002090601f016020900481019282601f10620001d757805160ff191683800117855562000208565b8280016001018555821562000208579182015b8281111562000207578251825591602001919060010190620001ea565b5b5090506200021791906200021b565b5090565b6200024091905b808211156200023c57600081600090555060010162000222565b5090565b90565b611d3780620002536000396000f3fe608060405234801561001057600080fd5b506004361061010b5760003560e01c806370a08231116100a2578063a9059cbb11610071578063a9059cbb146105b1578063c4e41b2214610617578063d92dd1cb14610635578063dd62ed3e1461069b578063f77c4791146107135761010b565b806370a08231146104265780638da5cb5b1461047e57806395d89b41146104c8578063a457c2d71461054b5761010b565b80632570e31e116100de5780632570e31e146102cd578063313ce5671461031b578063395093511461033957806343d2c7521461039f5761010b565b806306fdde0314610110578063095ea7b3146101935780631c45202d146101f957806323b872dd14610247575b600080fd5b61011861075d565b6040518080602001828103825283818151815260200191508051906020019080838360005b8381101561015857808201518184015260208101905061013d565b50505050905090810190601f1680156101855780820380516001836020036101000a031916815260200191505b509250505060405180910390f35b6101df600480360360408110156101a957600080fd5b81019080803573ffffffffffffffffffffffffffffffffffffffff169060200190929190803590602001909291905050506107fb565b604051808215151515815260200191505060405180910390f35b6102456004803603604081101561020f57600080fd5b8101908080359060200190929190803573ffffffffffffffffffffffffffffffffffffffff169060200190929190505050610812565b005b6102b36004803603606081101561025d57600080fd5b81019080803573ffffffffffffffffffffffffffffffffffffffff169060200190929190803573ffffffffffffffffffffffffffffffffffffffff16906020019092919080359060200190929190505050610928565b604051808215151515815260200191505060405180910390f35b610319600480360360408110156102e357600080fd5b8101908080359060200190929190803573ffffffffffffffffffffffffffffffffffffffff1690602001909291905050506109d9565b005b610323610ba8565b6040518082815260200191505060405180910390f35b6103856004803603604081101561034f57600080fd5b81019080803573ffffffffffffffffffffffffffffffffffffffff16906020019092919080359060200190929190505050610bae565b604051808215151515815260200191505060405180910390f35b61040c600480360360408110156103b557600080fd5b8101908080357dffffffffffffffffffffffffffffffffffffffffffffffffffffffffffff19169060200190929190803573ffffffffffffffffffffffffffffffffffffffff169060200190929190505050610c53565b604051808215151515815260200191505060405180910390f35b6104686004803603602081101561043c57600080fd5b81019080803573ffffffffffffffffffffffffffffffffffffffff169060200190929190505050611023565b6040518082815260200191505060405180910390f35b61048661106c565b604051808273ffffffffffffffffffffffffffffffffffffffff1673ffffffffffffffffffffffffffffffffffffffff16815260200191505060405180910390f35b6104d0611091565b6040518080602001828103825283818151815260200191508051906020019080838360005b838110156105105780820151818401526020810190506104f5565b50505050905090810190601f16801561053d5780820380516001836020036101000a031916815260200191505b509250505060405180910390f35b6105976004803603604081101561056157600080fd5b81019080803573ffffffffffffffffffffffffffffffffffffffff1690602001909291908035906020019092919050505061112f565b604051808215151515815260200191505060405180910390f35b6105fd600480360360408110156105c757600080fd5b81019080803573ffffffffffffffffffffffffffffffffffffffff169060200190929190803590602001909291905050506111d4565b604051808215151515815260200191505060405180910390f35b61061f6111eb565b6040518082815260200191505060405180910390f35b6106816004803603604081101561064b57600080fd5b8101908080359060200190929190803573ffffffffffffffffffffffffffffffffffffffff1690602001909291905050506111f5565b604051808215151515815260200191505060405180910390f35b6106fd600480360360408110156106b157600080fd5b81019080803573ffffffffffffffffffffffffffffffffffffffff169060200190929190803573ffffffffffffffffffffffffffffffffffffffff169060200190929190505050611488565b6040518082815260200191505060405180910390f35b61071b61150f565b604051808273ffffffffffffffffffffffffffffffffffffffff1673ffffffffffffffffffffffffffffffffffffffff16815260200191505060405180910390f35b60028054600181600116156101000203166002900480601f0160208091040260200160405190810160405280929190818152602001828054600181600116156101000203166002900480156107f35780601f106107c8576101008083540402835291602001916107f3565b820191906000526020600020905b8154815290600101906020018083116107d657829003601f168201915b505050505081565b6000610808338484611535565b6001905092915050565b81600860008373ffffffffffffffffffffffffffffffffffffffff1673ffffffffffffffffffffffffffffffffffffffff1681526020019081526020016000205410156108c7576040517f08c379a00000000000000000000000000000000000000000000000000000000081526004018080602001828103825260128152602001807f4e6f7420656e6f7567682042616c616e6365000000000000000000000000000081525060200191505060405180910390fd5b81600860008373ffffffffffffffffffffffffffffffffffffffff1673ffffffffffffffffffffffffffffffffffffffff16815260200190815260200160002060008282540392505081905550816006600082825401925050819055505050565b600061093584848461172c565b6109ce84336109c985600960008a73ffffffffffffffffffffffffffffffffffffffff1673ffffffffffffffffffffffffffffffffffffffff16815260200190815260200160002060003373ffffffffffffffffffffffffffffffffffffffff1673ffffffffffffffffffffffffffffffffffffffff168152602001908152602001600020546119cc90919063ffffffff16565b611535565b600190509392505050565b816006541015610a51576040517f08c379a000000000000000000000000000000000000000000000000000000000815260040180806020018281038252601c8152602001807f4e6f7420656e6f75676820537570706c6961626c6520546f6b656e730000000081525060200191505060405180910390fd5b600860008273ffffffffffffffffffffffffffffffffffffffff1673ffffffffffffffffffffffffffffffffffffffff1681526020019081526020016000205482600860008473ffffffffffffffffffffffffffffffffffffffff1673ffffffffffffffffffffffffffffffffffffffff16815260200190815260200160002054011015610b47576040517f08c379a00000000000000000000000000000000000000000000000000000000081526004018080602001828103825260108152602001807f4f766572666c6f77204f6363757265640000000000000000000000000000000081525060200191505060405180910390fd5b81600860008373ffffffffffffffffffffffffffffffffffffffff1673ffffffffffffffffffffffffffffffffffffffff16815260200190815260200160002060008282540192505081905550816006600082825403925050819055505050565b60045481565b6000610c493384610c4485600960003373ffffffffffffffffffffffffffffffffffffffff1673ffffffffffffffffffffffffffffffffffffffff16815260200190815260200160002060008973ffffffffffffffffffffffffffffffffffffffff1673ffffffffffffffffffffffffffffffffffffffff16815260200190815260200160002054611a5590919063ffffffff16565b611535565b6001905092915050565b60008060009054906101000a900473ffffffffffffffffffffffffffffffffffffffff1673ffffffffffffffffffffffffffffffffffffffff163373ffffffffffffffffffffffffffffffffffffffff161480610cfd5750600160009054906101000a900473ffffffffffffffffffffffffffffffffffffffff1673ffffffffffffffffffffffffffffffffffffffff163373ffffffffffffffffffffffffffffffffffffffff16145b610d6f576040517f08c379a00000000000000000000000000000000000000000000000000000000081526004018080602001828103825260138152602001807f556e617574686f72697a65642073656e6465720000000000000000000000000081525060200191505060405180910390fd5b7f455a0000000000000000000000000000000000000000000000000000000000007dffffffffffffffffffffffffffffffffffffffffffffffffffffffffffff1916837dffffffffffffffffffffffffffffffffffffffffffffffffffffffffffff1916148015610de85750610de76102bc83611add565b5b15610e53576102bc600860008473ffffffffffffffffffffffffffffffffffffffff1673ffffffffffffffffffffffffffffffffffffffff168152602001908152602001600020600082825401925050819055506102bc600660008282540392505081905550611019565b7f4e4d0000000000000000000000000000000000000000000000000000000000007dffffffffffffffffffffffffffffffffffffffffffffffffffffffffffff1916837dffffffffffffffffffffffffffffffffffffffffffffffffffffffffffff1916148015610ecc5750610ecb6103e883611add565b5b15610f37576103e8600860008473ffffffffffffffffffffffffffffffffffffffff1673ffffffffffffffffffffffffffffffffffffffff168152602001908152602001600020600082825401925050819055506103e8600660008282540392505081905550611018565b7f48440000000000000000000000000000000000000000000000000000000000007dffffffffffffffffffffffffffffffffffffffffffffffffffffffffffff1916837dffffffffffffffffffffffffffffffffffffffffffffffffffffffffffff1916148015610fb05750610faf6107d083611add565b5b15611017576107d0600860008473ffffffffffffffffffffffffffffffffffffffff1673ffffffffffffffffffffffffffffffffffffffff168152602001908152602001600020600082825401925050819055506107d06006600082825403925050819055505b5b5b6001905092915050565b6000600860008373ffffffffffffffffffffffffffffffffffffffff1673ffffffffffffffffffffffffffffffffffffffff168152602001908152602001600020549050919050565b6000809054906101000a900473ffffffffffffffffffffffffffffffffffffffff1681565b60038054600181600116156101000203166002900480601f0160208091040260200160405190810160405280929190818152602001828054600181600116156101000203166002900480156111275780601f106110fc57610100808354040283529160200191611127565b820191906000526020600020905b81548152906001019060200180831161110a57829003601f168201915b505050505081565b60006111ca33846111c585600960003373ffffffffffffffffffffffffffffffffffffffff1673ffffffffffffffffffffffffffffffffffffffff16815260200190815260200160002060008973ffffffffffffffffffffffffffffffffffffffff1673ffffffffffffffffffffffffffffffffffffffff168152602001908152602001600020546119cc90919063ffffffff16565b611535565b6001905092915050565b60006111e133848461172c565b6001905092915050565b6000600554905090565b60008060009054906101000a900473ffffffffffffffffffffffffffffffffffffffff1673ffffffffffffffffffffffffffffffffffffffff163373ffffffffffffffffffffffffffffffffffffffff16148061129f5750600160009054906101000a900473ffffffffffffffffffffffffffffffffffffffff1673ffffffffffffffffffffffffffffffffffffffff163373ffffffffffffffffffffffffffffffffffffffff16145b611311576040517f08c379a00000000000000000000000000000000000000000000000000000000081526004018080602001828103825260138152602001807f556e617574686f72697a65642073656e6465720000000000000000000000000081525060200191505060405180910390fd5b82600860008473ffffffffffffffffffffffffffffffffffffffff1673ffffffffffffffffffffffffffffffffffffffff1681526020019081526020016000205410156113c6576040517f08c379a00000000000000000000000000000000000000000000000000000000081526004018080602001828103825260128152602001807f4e6f7420656e6f7567682042616c616e6365000000000000000000000000000081525060200191505060405180910390fd5b612710831015611421576040517f08c379a0000000000000000000000000000000000000000000000000000000008152600401808060200182810382526026815260200180611c9d6026913960400191505060405180910390fd5b82600860008473ffffffffffffffffffffffffffffffffffffffff1673ffffffffffffffffffffffffffffffffffffffff16815260200190815260200160002060008282540392505081905550826006600082825401925050819055506001905092915050565b6000600960008473ffffffffffffffffffffffffffffffffffffffff1673ffffffffffffffffffffffffffffffffffffffff16815260200190815260200160002060008373ffffffffffffffffffffffffffffffffffffffff1673ffffffffffffffffffffffffffffffffffffffff16815260200190815260200160002054905092915050565b600160009054906101000a900473ffffffffffffffffffffffffffffffffffffffff1681565b600073ffffffffffffffffffffffffffffffffffffffff168373ffffffffffffffffffffffffffffffffffffffff1614156115bb576040517f08c379a0000000000000000000000000000000000000000000000000000000008152600401808060200182810382526024815260200180611ce86024913960400191505060405180910390fd5b600073ffffffffffffffffffffffffffffffffffffffff168273ffffffffffffffffffffffffffffffffffffffff161415611641576040517f08c379a0000000000000000000000000000000000000000000000000000000008152600401808060200182810382526022815260200180611c7b6022913960400191505060405180910390fd5b80600960008573ffffffffffffffffffffffffffffffffffffffff1673ffffffffffffffffffffffffffffffffffffffff16815260200190815260200160002060008473ffffffffffffffffffffffffffffffffffffffff1673ffffffffffffffffffffffffffffffffffffffff168152602001908152602001600020819055508173ffffffffffffffffffffffffffffffffffffffff168373ffffffffffffffffffffffffffffffffffffffff167f8c5be1e5ebec7d5bd14f71427d1e84f3dd0314c0f7b2291e5b200ac8c7c3b925836040518082815260200191505060405180910390a3505050565b600073ffffffffffffffffffffffffffffffffffffffff168373ffffffffffffffffffffffffffffffffffffffff1614156117b2576040517f08c379a0000000000000000000000000000000000000000000000000000000008152600401808060200182810382526025815260200180611cc36025913960400191505060405180910390fd5b600073ffffffffffffffffffffffffffffffffffffffff168273ffffffffffffffffffffffffffffffffffffffff161415611838576040517f08c379a0000000000000000000000000000000000000000000000000000000008152600401808060200182810382526023815260200180611c586023913960400191505060405180910390fd5b61188a81600860008673ffffffffffffffffffffffffffffffffffffffff1673ffffffffffffffffffffffffffffffffffffffff168152602001908152602001600020546119cc90919063ffffffff16565b600860008573ffffffffffffffffffffffffffffffffffffffff1673ffffffffffffffffffffffffffffffffffffffff1681526020019081526020016000208190555061191f81600860008573ffffffffffffffffffffffffffffffffffffffff1673ffffffffffffffffffffffffffffffffffffffff16815260200190815260200160002054611a5590919063ffffffff16565b600860008473ffffffffffffffffffffffffffffffffffffffff1673ffffffffffffffffffffffffffffffffffffffff168152602001908152602001600020819055508173ffffffffffffffffffffffffffffffffffffffff168373ffffffffffffffffffffffffffffffffffffffff167fddf252ad1be2c89b69c2b068fc378daa952ba7f163c4a11628f55a4df523b3ef836040518082815260200191505060405180910390a3505050565b600082821115611a44576040517f08c379a000000000000000000000000000000000000000000000000000000000815260040180806020018281038252601e8152602001807f536166654d6174683a207375627472616374696f6e206f766572666c6f77000081525060200191505060405180910390fd5b600082840390508091505092915050565b600080828401905083811015611ad3576040517f08c379a000000000000000000000000000000000000000000000000000000000815260040180806020018281038252601b8152602001807f536166654d6174683a206164646974696f6e206f766572666c6f77000000000081525060200191505060405180910390fd5b8091505092915050565b6000826006541015611b57576040517f08c379a000000000000000000000000000000000000000000000000000000000815260040180806020018281038252601c8152602001807f4e6f7420656e6f75676820537570706c6961626c6520546f6b656e730000000081525060200191505060405180910390fd5b600860008373ffffffffffffffffffffffffffffffffffffffff1673ffffffffffffffffffffffffffffffffffffffff1681526020019081526020016000205483600860008573ffffffffffffffffffffffffffffffffffffffff1673ffffffffffffffffffffffffffffffffffffffff16815260200190815260200160002054011015611c4d576040517f08c379a00000000000000000000000000000000000000000000000000000000081526004018080602001828103825260108152602001807f4f766572666c6f77204f6363757265640000000000000000000000000000000081525060200191505060405180910390fd5b600190509291505056fe45524332303a207472616e7366657220746f20746865207a65726f206164647265737345524332303a20617070726f766520746f20746865207a65726f20616464726573734e6f74205265616368204d696e696d616c20436f6e646974696f6e3a203130303030204d465445524332303a207472616e736665722066726f6d20746865207a65726f206164647265737345524332303a20617070726f76652066726f6d20746865207a65726f2061646472657373a165627a7a723058202699b6bf8c2e069d923696d350272dd189eb6e9ff0e254e7c853104e5d038a610029",
  "source": "pragma solidity ^0.5.0;\r\n\r\nimport './Magnet.sol';\r\nimport './MagnetField.sol';\r\n\r\n// ganache-cli -l 8000000\r\ncontract GameController {\r\n\r\n    // variables\r\n    address[2] private tokensAddr;\r\n    address payable public owner;\r\n\r\n    mapping (bytes32 => UserInfo) public users;\r\n\r\n    // user DB structure\r\n    struct GameLog { // use for game log!\r\n        bytes32 gameHex; // use for transparency. (when start the game, )\r\n        bytes2 difficulty; // EZ, NM, HD - necessary?\r\n        GameResult result; //default : LOSE ***WIN/LOSE/ 2 (NOT FOUND)\r\n        bool[3] useItem; //default: false(SHIELD), false(FirstCell), false(ShowMap)\r\n    }\r\n\r\n    struct UserInfo {\r\n        address gamerID; // User account address\r\n        uint256 totalGameCount;  // to tracking recent gameResult.\r\n        bool isPlaying; // check progress of the game\r\n        // bool isExistUser;\r\n        mapping (uint256 => GameLog) logs; // start from 0 to N.... (game result log)\r\n    }\r\n\r\n    constructor() public {\r\n        owner = msg.sender;\r\n        tokensAddr[0] = address(new Magnet(msg.sender));\r\n        tokensAddr[1] = address(new MagnetField(msg.sender));\r\n    }\r\n\r\n\r\n    // https://ethereum.stackexchange.com/questions/7713/how-does-mapping-work (.. mapping  )\r\n\r\n    // constants\r\n    uint8 constant internal BET_TOKEN_AMOUNT = 10;\r\n    uint256 constant internal LEAST_EXCHANGE_AMOUNT = 10000;\r\n\r\n    enum ItemLists { Shield, FirstCell, ShowMap } // check item uselist...\r\n    enum GameResult { WIN, LOSE, NOT_FOUND } // 0: WIN, 1: LOSE\r\n\r\n    // Event Lists\r\n\r\n    // when users start the game\r\n    event START(bytes2 difficulty, bytes32 gameHex, bool[3] useItem, uint256 totalGameCount); //BombHex -> keccak256(bombCoords)\r\n\r\n    // event START_ERR_ITEM();\r\n    // event START_ERR_TOKEN();\r\n\r\n    // when the game is over.\r\n    event WIN();\r\n    event LOSE();\r\n    event REGISTER();\r\n\r\n\r\n    function buyMagnet() public payable returns (bool) {\r\n        uint256 amount = msg.value / Magnet(tokensAddr[0]).getTokenPrice();\r\n        Magnet(tokensAddr[0]).buyTokens(amount, msg.sender);\r\n    }\r\n\r\n    function getMagnetBalance() public view returns (uint256) {\r\n        return Magnet(tokensAddr[0]).balanceOf(msg.sender);\r\n    }\r\n\r\n    function getMagnetFieldBalance() public view returns (uint256) {\r\n        return MagnetField(tokensAddr[1]).balanceOf(msg.sender);\r\n    }\r\n    /**\r\n     * @dev         DB  .\r\n     *struct UserInfo {\r\n     * address payable gamerID; // User account address\r\n     * uint256 totalGameCount;  // to tracking recent GameResult.\r\n     * mapping (uint256 => GameResult) results; // start from 0 to N.... (game result log)\r\n     * bool isPlaying;\r\n     *}\r\n     */\r\n    function register(bytes32 userIdentificator) private {\r\n        UserInfo storage user = users[userIdentificator];\r\n\r\n        user.gamerID = msg.sender;\r\n        user.totalGameCount = 0;\r\n        user.isPlaying = false;\r\n        // user.isExistUser = true;\r\n\r\n        emit REGISTER();\r\n    }\r\n\r\n    /**\r\n     * @dev        MagnetField  .\r\n     * @param _useItems        parameter\r\n     * @return    true .\r\n     */\r\n    function useItems(bool[3] memory _useItems) public returns (uint256){ // internal  \r\n        uint256 totalItemCost = 0;\r\n        if(_useItems[0]) totalItemCost += 7000;\r\n        if(_useItems[1]) totalItemCost += 10000;\r\n        if(_useItems[2]) totalItemCost += 20000;\r\n        if(totalItemCost != 0) {\r\n            MagnetField(tokensAddr[1]).buyItems(totalItemCost, msg.sender);\r\n        }\r\n        return totalItemCost;\r\n    }\r\n    /**\r\n     * @dev             START  .\r\n     *struct UserInfo {\r\n     * address payable gamerID; // User account address\r\n     * uint256 totalGameCount;  // to tracking recent GameResult.\r\n     * mapping (uint256 => GameResult) results; // start from 0 to N.... (game result log)\r\n     * bool isPlaying;\r\n     * bool isExistUser;\r\n     *}\r\n     *\r\n     *\r\n     *struct GameResult { // use for game log!\r\n     * bytes32 gameHex; // use for transparency. (when start the game, )\r\n     * bytes2 difficulty; // EZ, NM, HD - necessary?\r\n     * bool isWinner; //default : false ***true: win the game, false: lose the game\r\n     * bool useItem; //default: false\r\n     *}\r\n     * @param _difficulty   front-end .\r\n     * @param _gameCost    Magnet   front-end .\r\n     * @param _gameHex  transparency  sha256 value front-end .\r\n     * @param _gameCost    Magnet   front-end .\r\n     */\r\n    function startGame(bytes2 _difficulty, uint8 _gameCost, bytes32  _gameHex, bool[3] memory _useItem) public{\r\n        bytes32 userIdentificator = keccak256(abi.encodePacked(msg.sender));\r\n        UserInfo storage user = users[userIdentificator];\r\n\r\n        require(_gameCost == BET_TOKEN_AMOUNT, \"You Does not bet 10 Magnet Tokens\"); // Is gameCost same as the BET_TOKEN_AMOUNT\r\n        require(Magnet(tokensAddr[0]).balanceOf(msg.sender) >= BET_TOKEN_AMOUNT, \"Not Enough Magnet Tokens\"); // check Magnet balance of Users.\r\n        if(user.gamerID == address(0)) { // No User Data (Newbie)\r\n            register(userIdentificator);\r\n        }\r\n\r\n        //double check user existence\r\n        require(user.gamerID != address(0), \"No User Data : startGame\");\r\n        // change isPlaying flag and update totalGameCount\r\n        user.isPlaying = true;\r\n        user.totalGameCount += 1;\r\n\r\n        // write game log\r\n        GameLog storage log = user.logs[user.totalGameCount];\r\n        log.difficulty = _difficulty;\r\n        log.gameHex = _gameHex;\r\n        log.result = GameResult.LOSE;\r\n\r\n        for (uint i = 0 ; i < 3; i++) {\r\n            log.useItem[i] = _useItem[i];\r\n        }\r\n\r\n        // decrease MagnetField (if use items)\r\n        useItems(log.useItem);\r\n\r\n        // substract 10 Magnet Tokens\r\n        Magnet(tokensAddr[0]).payToGamePlay(msg.sender);\r\n        emit START(_difficulty, _gameHex, _useItem, user.totalGameCount);\r\n    }\r\n\r\n\r\n    /**\r\n     * @dev           LOSE  ..\r\n     * @param _gameHex        .\r\n     * @param _isWinner      bool parameter\r\n     */\r\n    function endGame(bytes32 _gameHex, bool _isWinner) public {\r\n        bytes32 userIdentificator = keccak256(abi.encodePacked(msg.sender));\r\n        UserInfo storage user = users[userIdentificator];\r\n\r\n        // check user is in contract's database.\r\n        require(user.gamerID != address(0), \"No User Data: endGame\");\r\n\r\n        GameLog storage log = user.logs[user.totalGameCount];\r\n        // _gameHex recheck(compare with log's hex value :: RECENT GAME!!)\r\n\r\n        require(log.gameHex == _gameHex, \"No such Game in logs: endGame\");\r\n\r\n        //update game result. and reward to users depending on the result of final game.\r\n       // ture : WIN, false : LOSE [get values from front-end game]\r\n       if(_isWinner){\r\n            log.result = GameResult.WIN;\r\n        } else {\r\n            log.result = GameResult.LOSE;\r\n        }\r\n\r\n        rewardUser(log.difficulty, _isWinner);\r\n        // Magnet  MagnetField...\r\n\r\n    }\r\n\r\n    /**\r\n     * @dev     \r\n     * @return     true .\r\n     */\r\n    function rewardUser(bytes2 _difficulty, bool _isWinner) internal returns (bool) {\r\n        if(_isWinner) {\r\n            require(Magnet(tokensAddr[0]).rewardTokens(_difficulty, msg.sender), \"Revert from Magnet : rewardUser\");\r\n            require(MagnetField(tokensAddr[1]).rewardTokens(_difficulty, msg.sender), \"Revert from MagnetF : rewardUser\");\r\n            emit WIN();\r\n        } else {\r\n            require(MagnetField(tokensAddr[1]).rewardTokens(_difficulty, msg.sender), \"Revert from MagnetF : rewardUser\");\r\n            emit LOSE();\r\n        }\r\n        return true;\r\n    }\r\n\r\n    /**\r\n     * @dev     \r\n     * @return     true .\r\n     */\r\n    // function rewardLoser(bytes2 _difficulty) internal returns (bool) {\r\n    //     require(MagnetField(tokensAddr[1]).rewardTokens(_difficulty, msg.sender), \"Revert from MagnetF : rewardLoser\");\r\n    //     return true;\r\n    // }\r\n\r\n\r\n    /**\r\n     * @dev      .\r\n     * @return     .\r\n     */\r\n    // function getTotalGameCount() public view returns (uint256) {\r\n    //     UserInfo memory user = users[keccak256(abi.encodePacked(msg.sender))];\r\n    //     return user.totalGameCount;\r\n    // }\r\n\r\n    /**\r\n     * @dev  (index)   .\r\n     *      Solidity   mapping     index .\r\n     *      for loop front-end     .\r\n     *      getTotalGameCount()  front-end      for loop \r\n     *       .\r\n     * @param  index   \r\n     * @return    .\r\n     */\r\n    function getGameResults(uint256 index) public view returns (bytes2 difficulty, GameResult result) {\r\n        if (users[keccak256(abi.encodePacked(msg.sender))].gamerID == address(0) ||\r\n            users[keccak256(abi.encodePacked(msg.sender))].totalGameCount < index) {\r\n            difficulty = bytes2(\"NA\");\r\n            result = GameResult.NOT_FOUND;\r\n        } else {\r\n            UserInfo storage user = users[keccak256(abi.encodePacked(msg.sender))];\r\n            GameLog storage log = user.logs[index];\r\n\r\n            difficulty = log.difficulty;\r\n            result = log.result;\r\n        }\r\n    }\r\n\r\n    /**\r\n     * @dev MagnetField  Magnet   .\r\n     * @return  transaction   true .\r\n     */\r\n     function exchangeTokens(uint256 amount) public returns (bool) {\r\n        require(MagnetField(tokensAddr[1]).exchangeTokens(amount, msg.sender),\"Revert from MagnetF : exchangeTokens\"); // magnetField  .\r\n        require(Magnet(tokensAddr[0]).exchangeTokens(amount, msg.sender), \"Revert from Magnet : exchangeTokens\"); // magnet  .\r\n        return true;\r\n     }\r\n\r\n    /*\r\n     *struct UserInfo {\r\n     * address payable gamerID; // User account address\r\n     * uint256 totalGameCount;  // to tracking recent GameResult.\r\n     * mapping (uint256 => GameResult) results; // start from 0 to N.... (game result log)\r\n     * bool isPlaying;\r\n     *}\r\n     */\r\n     function getUserInfo() public view returns (address _gamerID, uint256 _totalGameCount) {\r\n        UserInfo storage user = users[keccak256(abi.encodePacked(msg.sender))];\r\n        _gamerID = user.gamerID;\r\n        _totalGameCount = user.totalGameCount;\r\n     }\r\n}",
  "sourcePath": "C:/Users/kwonHyunwoo/Documents/GitHub/MineSweeperDApp_Web3Updating/contracts/GameController.sol",
  "compiler": {
    "name": "solc",
    "version": "0.5.8+commit.23d335f2.Emscripten.clang"
  },
  "schemaVersion": "3.0.11",
  "updatedAt": "2019-08-15T17:49:59.489Z",
  "devdoc": {
    "methods": {
      "endGame(bytes32,bool)": {
        "details": "          LOSE  ..\r",
        "params": {
          "_gameHex": "       .\r",
          "_isWinner": "     bool parameter\r"
        }
      },
      "exchangeTokens(uint256)": {
        "details": "MagnetField  Magnet   .\r",
        "return": " transaction   true .\r"
      },
      "getGameResults(uint256)": {
        "details": " (index)   .\r     Solidity   mapping     index .\r     for loop front-end     .\r     getTotalGameCount()  front-end      for loop \r      .\r",
        "params": {
          "index": " \r"
        },
        "return": "   .\r"
      },
      "startGame(bytes2,uint8,bytes32,bool[3])": {
        "details": "            START  .\r truct UserInfo {\r address payable gamerID; // User account address\r uint256 totalGameCount;  // to tracking recent GameResult.\r mapping (uint256 => GameResult) results; // start from 0 to N.... (game result log)\r bool isPlaying;\r bool isExistUser;\r \r      *\r truct GameResult { // use for game log!\r bytes32 gameHex; // use for transparency. (when start the game, )\r bytes2 difficulty; // EZ, NM, HD - necessary?\r bool isWinner; //default : false ***true: win the game, false: lose the game\r bool useItem; //default: false\r \r",
        "params": {
          "_difficulty": "  front-end .\r",
          "_gameCost": "   Magnet   front-end .\r",
          "_gameHex": " transparency  sha256 value front-end .\r"
        }
      },
      "useItems(bool[3])": {
        "details": "       MagnetField  .\r",
        "params": {
          "_useItems": "       parameter\r"
        },
        "return": "   true .\r"
      }
    }
  },
  "userdoc": {
    "methods": {}
  }
}