{
  "contractName": "GameController",
  "abi": [
    {
      "constant": true,
      "inputs": [],
      "name": "owner",
      "outputs": [
        {
          "name": "",
          "type": "address"
        }
      ],
      "payable": false,
      "stateMutability": "view",
      "type": "function"
    },
    {
      "constant": true,
      "inputs": [
        {
          "name": "",
          "type": "bytes32"
        }
      ],
      "name": "users",
      "outputs": [
        {
          "name": "gamerID",
          "type": "address"
        },
        {
          "name": "totalGameCount",
          "type": "uint256"
        },
        {
          "name": "isPlaying",
          "type": "bool"
        }
      ],
      "payable": false,
      "stateMutability": "view",
      "type": "function"
    },
    {
      "inputs": [],
      "payable": false,
      "stateMutability": "nonpayable",
      "type": "constructor"
    },
    {
      "anonymous": false,
      "inputs": [
        {
          "indexed": false,
          "name": "difficulty",
          "type": "bytes2"
        },
        {
          "indexed": false,
          "name": "gameHex",
          "type": "bytes32"
        },
        {
          "indexed": false,
          "name": "useItem",
          "type": "bool[3]"
        },
        {
          "indexed": false,
          "name": "totalGameCount",
          "type": "uint256"
        }
      ],
      "name": "START",
      "type": "event"
    },
    {
      "anonymous": false,
      "inputs": [],
      "name": "WIN",
      "type": "event"
    },
    {
      "anonymous": false,
      "inputs": [],
      "name": "LOSE",
      "type": "event"
    },
    {
      "anonymous": false,
      "inputs": [],
      "name": "REGISTER",
      "type": "event"
    },
    {
      "constant": false,
      "inputs": [],
      "name": "buyMagnet",
      "outputs": [
        {
          "name": "",
          "type": "bool"
        }
      ],
      "payable": true,
      "stateMutability": "payable",
      "type": "function"
    },
    {
      "constant": false,
      "inputs": [
        {
          "name": "sellAmount",
          "type": "uint256"
        }
      ],
      "name": "sellMagnet",
      "outputs": [
        {
          "name": "",
          "type": "bool"
        }
      ],
      "payable": true,
      "stateMutability": "payable",
      "type": "function"
    },
    {
      "constant": false,
      "inputs": [],
      "name": "buyMagnetField",
      "outputs": [
        {
          "name": "",
          "type": "bool"
        }
      ],
      "payable": true,
      "stateMutability": "payable",
      "type": "function"
    },
    {
      "constant": true,
      "inputs": [],
      "name": "getMagnetBalance",
      "outputs": [
        {
          "name": "",
          "type": "uint256"
        }
      ],
      "payable": false,
      "stateMutability": "view",
      "type": "function"
    },
    {
      "constant": true,
      "inputs": [],
      "name": "getMagnetFieldBalance",
      "outputs": [
        {
          "name": "",
          "type": "uint256"
        }
      ],
      "payable": false,
      "stateMutability": "view",
      "type": "function"
    },
    {
      "constant": false,
      "inputs": [
        {
          "name": "_useItems",
          "type": "bool[3]"
        }
      ],
      "name": "useItems",
      "outputs": [
        {
          "name": "",
          "type": "uint256"
        }
      ],
      "payable": false,
      "stateMutability": "nonpayable",
      "type": "function"
    },
    {
      "constant": false,
      "inputs": [
        {
          "name": "_difficulty",
          "type": "bytes2"
        },
        {
          "name": "_gameCost",
          "type": "uint8"
        },
        {
          "name": "_gameHex",
          "type": "bytes32"
        },
        {
          "name": "_useItem",
          "type": "bool[3]"
        }
      ],
      "name": "startGame",
      "outputs": [],
      "payable": false,
      "stateMutability": "nonpayable",
      "type": "function"
    },
    {
      "constant": false,
      "inputs": [
        {
          "name": "_gameHex",
          "type": "bytes32"
        },
        {
          "name": "_isWinner",
          "type": "bool"
        },
        {
          "name": "userAddr",
          "type": "address"
        }
      ],
      "name": "endGame",
      "outputs": [],
      "payable": false,
      "stateMutability": "nonpayable",
      "type": "function"
    },
    {
      "constant": true,
      "inputs": [],
      "name": "getTotalGameCount",
      "outputs": [
        {
          "name": "",
          "type": "uint256"
        }
      ],
      "payable": false,
      "stateMutability": "view",
      "type": "function"
    },
    {
      "constant": true,
      "inputs": [
        {
          "name": "index",
          "type": "uint256"
        }
      ],
      "name": "getGameResults",
      "outputs": [
        {
          "name": "difficulty",
          "type": "bytes2"
        },
        {
          "name": "gameHex",
          "type": "bytes32"
        },
        {
          "name": "result",
          "type": "uint8"
        }
      ],
      "payable": false,
      "stateMutability": "view",
      "type": "function"
    },
    {
      "constant": false,
      "inputs": [
        {
          "name": "_amount",
          "type": "uint256"
        }
      ],
      "name": "exchangeTokens",
      "outputs": [
        {
          "name": "",
          "type": "bool"
        }
      ],
      "payable": false,
      "stateMutability": "nonpayable",
      "type": "function"
    },
    {
      "constant": true,
      "inputs": [],
      "name": "getUserInfo",
      "outputs": [
        {
          "name": "_gamerID",
          "type": "address"
        },
        {
          "name": "_totalGameCount",
          "type": "uint256"
        }
      ],
      "payable": false,
      "stateMutability": "view",
      "type": "function"
    },
    {
      "constant": true,
      "inputs": [],
      "name": "showETH",
      "outputs": [
        {
          "name": "",
          "type": "uint256"
        }
      ],
      "payable": false,
      "stateMutability": "view",
      "type": "function"
    },
    {
      "constant": false,
      "inputs": [],
      "name": "withdrawETHALL",
      "outputs": [],
      "payable": false,
      "stateMutability": "nonpayable",
      "type": "function"
    }
  ],
  "bytecode": "0x60806040523480156200001157600080fd5b5033600260006101000a81548173ffffffffffffffffffffffffffffffffffffffff021916908373ffffffffffffffffffffffffffffffffffffffff160217905550336040516200006290620001ba565b808273ffffffffffffffffffffffffffffffffffffffff1673ffffffffffffffffffffffffffffffffffffffff168152602001915050604051809103906000f080158015620000b5573d6000803e3d6000fd5b5060008060028110620000c457fe5b0160006101000a81548173ffffffffffffffffffffffffffffffffffffffff021916908373ffffffffffffffffffffffffffffffffffffffff160217905550336040516200011290620001c8565b808273ffffffffffffffffffffffffffffffffffffffff1673ffffffffffffffffffffffffffffffffffffffff168152602001915050604051809103906000f08015801562000165573d6000803e3d6000fd5b5060006001600281106200017557fe5b0160006101000a81548173ffffffffffffffffffffffffffffffffffffffff021916908373ffffffffffffffffffffffffffffffffffffffff160217905550620001d6565b6124c48062002a3983390190565b6120198062004efd83390190565b61285380620001e66000396000f3fe6080604052600436106100f35760003560e01c8063a8667b3c1161008a578063cea6ab9811610059578063cea6ab981461040f578063dcef63eb1461049c578063dfef09d914610549578063f598963e14610574576100f3565b8063a8667b3c14610351578063a90b68391461037c578063b6d991cf1461039e578063c20dd1a0146103c9576100f3565b80635d8d1585116100c65780635d8d1585146101ff5780637dc17ee81461025d578063801330aa146102745780638da5cb5b146102fa576100f3565b8063083c3daa146100f857806311c0667c1461011a5780632a4b7c801461018157806340477126146101ac575b600080fd5b610100610628565b604051808215151515815260200191505060405180910390f35b34801561012657600080fd5b5061017f6004803603606081101561013d57600080fd5b8101908080359060200190929190803515159060200190929190803573ffffffffffffffffffffffffffffffffffffffff1690602001909291905050506107da565b005b34801561018d57600080fd5b50610196610b4e565b6040518082815260200191505060405180910390f35b3480156101b857600080fd5b506101e5600480360360208110156101cf57600080fd5b8101908080359060200190929190505050610b6d565b604051808215151515815260200191505060405180910390f35b34801561020b57600080fd5b50610214610e02565b604051808373ffffffffffffffffffffffffffffffffffffffff1673ffffffffffffffffffffffffffffffffffffffff1681526020018281526020019250505060405180910390f35b34801561026957600080fd5b50610272610ea4565b005b34801561028057600080fd5b506102e46004803603606081101561029757600080fd5b8101908080606001906003806020026040519081016040528092919082600360200280828437600081840152601f19601f8201169050808301925050505050509192919290505050610fe9565b6040518082815260200191505060405180910390f35b34801561030657600080fd5b5061030f61112d565b604051808273ffffffffffffffffffffffffffffffffffffffff1673ffffffffffffffffffffffffffffffffffffffff16815260200191505060405180910390f35b34801561035d57600080fd5b50610366611153565b6040518082815260200191505060405180910390f35b610384611258565b604051808215151515815260200191505060405180910390f35b3480156103aa57600080fd5b506103b361132d565b6040518082815260200191505060405180910390f35b6103f5600480360360208110156103df57600080fd5b810190808035906020019092919050505061141a565b604051808215151515815260200191505060405180910390f35b34801561041b57600080fd5b506104486004803603602081101561043257600080fd5b810190808035906020019092919050505061175c565b604051808473ffffffffffffffffffffffffffffffffffffffff1673ffffffffffffffffffffffffffffffffffffffff16815260200183815260200182151515158152602001935050505060405180910390f35b3480156104a857600080fd5b506104d5600480360360208110156104bf57600080fd5b81019080803590602001909291905050506117b3565b60405180847dffffffffffffffffffffffffffffffffffffffffffffffffffffffffffff19167dffffffffffffffffffffffffffffffffffffffffffffffffffffffffffff1916815260200183815260200182600281111561053357fe5b60ff168152602001935050505060405180910390f35b34801561055557600080fd5b5061055e6119d6565b6040518082815260200191505060405180910390f35b34801561058057600080fd5b50610626600480360360c081101561059757600080fd5b8101908080357dffffffffffffffffffffffffffffffffffffffffffffffffffffffffffff19169060200190929190803560ff1690602001909291908035906020019092919080606001906003806020026040519081016040528092919082600360200280828437600081840152601f19601f8201169050808301925050505050509192919290505050611ac3565b005b6000806000806002811061063857fe5b0160009054906101000a900473ffffffffffffffffffffffffffffffffffffffff1673ffffffffffffffffffffffffffffffffffffffff16634b94f50e6040518163ffffffff1660e01b815260040160206040518083038186803b15801561069f57600080fd5b505afa1580156106b3573d6000803e3d6000fd5b505050506040513d60208110156106c957600080fd5b810190808051906020019092919050505034816106e257fe5b049050600080600281106106f257fe5b0160009054906101000a900473ffffffffffffffffffffffffffffffffffffffff1673ffffffffffffffffffffffffffffffffffffffff1663c625e9b182336040518363ffffffff1660e01b8152600401808381526020018273ffffffffffffffffffffffffffffffffffffffff1673ffffffffffffffffffffffffffffffffffffffff16815260200192505050602060405180830381600087803b15801561079a57600080fd5b505af11580156107ae573d6000803e3d6000fd5b505050506040513d60208110156107c457600080fd5b8101908080519060200190929190505050505090565b600081604051602001808273ffffffffffffffffffffffffffffffffffffffff1673ffffffffffffffffffffffffffffffffffffffff1660601b815260140191505060405160208183030381529060405280519060200120905060006003600083815260200190815260200160002090506000816003016000836001015481526020019081526020016000209050600073ffffffffffffffffffffffffffffffffffffffff168260000160009054906101000a900473ffffffffffffffffffffffffffffffffffffffff1673ffffffffffffffffffffffffffffffffffffffff16141561092f576040517f08c379a00000000000000000000000000000000000000000000000000000000081526004018080602001828103825260158152602001807f4e6f205573657220446174613a20656e6447616d65000000000000000000000081525060200191505060405180910390fd5b6000826001015414156109aa576040517f08c379a000000000000000000000000000000000000000000000000000000000815260040180806020018281038252600f8152602001807f4e6f2047616d6520486973746f7279000000000000000000000000000000000081525060200191505060405180910390fd5b85816000015414610a23576040517f08c379a000000000000000000000000000000000000000000000000000000000815260040180806020018281038252601d8152602001807f4e6f20737563682047616d6520696e206c6f67733a20656e6447616d6500000081525060200191505060405180910390fd5b600115158160010160029054906101000a900460ff1615151415610aaf576040517f08c379a000000000000000000000000000000000000000000000000000000000815260040180806020018281038252601e8152602001807f416c72656164792052657761726465642047616d653a20656e6447616d65000081525060200191505060405180910390fd5b8415610ae05760008160010160036101000a81548160ff02191690836002811115610ad657fe5b0217905550610b07565b60018160010160036101000a81548160ff02191690836002811115610b0157fe5b02179055505b610b238160010160009054906101000a900460f01b8686612128565b15610b465760018160010160026101000a81548160ff0219169083151502179055505b505050505050565b60003073ffffffffffffffffffffffffffffffffffffffff1631905090565b600080600160028110610b7c57fe5b0160009054906101000a900473ffffffffffffffffffffffffffffffffffffffff1673ffffffffffffffffffffffffffffffffffffffff1663d92dd1cb83336040518363ffffffff1660e01b8152600401808381526020018273ffffffffffffffffffffffffffffffffffffffff1673ffffffffffffffffffffffffffffffffffffffff16815260200192505050602060405180830381600087803b158015610c2457600080fd5b505af1158015610c38573d6000803e3d6000fd5b505050506040513d6020811015610c4e57600080fd5b8101908080519060200190929190505050610cb4576040517f08c379a00000000000000000000000000000000000000000000000000000000081526004018080602001828103825260248152602001806128046024913960400191505060405180910390fd5b60008060028110610cc157fe5b0160009054906101000a900473ffffffffffffffffffffffffffffffffffffffff1673ffffffffffffffffffffffffffffffffffffffff1663d92dd1cb83336040518363ffffffff1660e01b8152600401808381526020018273ffffffffffffffffffffffffffffffffffffffff1673ffffffffffffffffffffffffffffffffffffffff16815260200192505050602060405180830381600087803b158015610d6957600080fd5b505af1158015610d7d573d6000803e3d6000fd5b505050506040513d6020811015610d9357600080fd5b8101908080519060200190929190505050610df9576040517f08c379a00000000000000000000000000000000000000000000000000000000081526004018080602001828103825260238152602001806127c06023913960400191505060405180910390fd5b60019050919050565b60008060006003600033604051602001808273ffffffffffffffffffffffffffffffffffffffff1673ffffffffffffffffffffffffffffffffffffffff1660601b815260140191505060405160208183030381529060405280519060200120815260200190815260200160002090508060000160009054906101000a900473ffffffffffffffffffffffffffffffffffffffff16925080600101549150509091565b600260009054906101000a900473ffffffffffffffffffffffffffffffffffffffff1673ffffffffffffffffffffffffffffffffffffffff163373ffffffffffffffffffffffffffffffffffffffff1614610f67576040517f08c379a000000000000000000000000000000000000000000000000000000000815260040180806020018281038252601c8152602001807f556e617574686f72697a65642073656e646572203a204d61676e65740000000081525060200191505060405180910390fd5b600260009054906101000a900473ffffffffffffffffffffffffffffffffffffffff1673ffffffffffffffffffffffffffffffffffffffff166108fc3073ffffffffffffffffffffffffffffffffffffffff16319081150290604051600060405180830381858888f19350505050158015610fe6573d6000803e3d6000fd5b50565b6000806000905082600060038110610ffd57fe5b60200201511561100f57612710810190505b8260016003811061101c57fe5b60200201511561102e57614e20810190505b8260026003811061103b57fe5b60200201511561104d57617530810190505b6000811461112457600060016002811061106357fe5b0160009054906101000a900473ffffffffffffffffffffffffffffffffffffffff1673ffffffffffffffffffffffffffffffffffffffff16631c45202d82336040518363ffffffff1660e01b8152600401808381526020018273ffffffffffffffffffffffffffffffffffffffff1673ffffffffffffffffffffffffffffffffffffffff16815260200192505050600060405180830381600087803b15801561110b57600080fd5b505af115801561111f573d6000803e3d6000fd5b505050505b80915050919050565b600260009054906101000a900473ffffffffffffffffffffffffffffffffffffffff1681565b600061115d612750565b6003600033604051602001808273ffffffffffffffffffffffffffffffffffffffff1673ffffffffffffffffffffffffffffffffffffffff1660601b81526014019150506040516020818303038152906040528051906020012081526020019081526020016000206040518060600160405290816000820160009054906101000a900473ffffffffffffffffffffffffffffffffffffffff1673ffffffffffffffffffffffffffffffffffffffff1673ffffffffffffffffffffffffffffffffffffffff168152602001600182015481526020016002820160009054906101000a900460ff1615151515815250509050806020015191505090565b60008060016002811061126757fe5b0160009054906101000a900473ffffffffffffffffffffffffffffffffffffffff1673ffffffffffffffffffffffffffffffffffffffff16632570e31e620186a0336040518363ffffffff1660e01b8152600401808381526020018273ffffffffffffffffffffffffffffffffffffffff1673ffffffffffffffffffffffffffffffffffffffff16815260200192505050600060405180830381600087803b15801561131257600080fd5b505af1158015611326573d6000803e3d6000fd5b5050505090565b60008060006002811061133c57fe5b0160009054906101000a900473ffffffffffffffffffffffffffffffffffffffff1673ffffffffffffffffffffffffffffffffffffffff166370a08231336040518263ffffffff1660e01b8152600401808273ffffffffffffffffffffffffffffffffffffffff1673ffffffffffffffffffffffffffffffffffffffff16815260200191505060206040518083038186803b1580156113da57600080fd5b505afa1580156113ee573d6000803e3d6000fd5b505050506040513d602081101561140457600080fd5b8101908080519060200190929190505050905090565b60008033604051602001808273ffffffffffffffffffffffffffffffffffffffff1673ffffffffffffffffffffffffffffffffffffffff1660601b815260140191505060405160208183030381529060405280519060200120905060006003600083815260200190815260200160002060000160009054906101000a900473ffffffffffffffffffffffffffffffffffffffff169050600066038d7ea4c6800085029050600080600281106114cb57fe5b0160009054906101000a900473ffffffffffffffffffffffffffffffffffffffff1673ffffffffffffffffffffffffffffffffffffffff1663670f715186336040518363ffffffff1660e01b8152600401808381526020018273ffffffffffffffffffffffffffffffffffffffff1673ffffffffffffffffffffffffffffffffffffffff16815260200192505050602060405180830381600087803b15801561157357600080fd5b505af1158015611587573d6000803e3d6000fd5b505050506040513d602081101561159d57600080fd5b81019080805190602001909291905050501561174f57803073ffffffffffffffffffffffffffffffffffffffff163111611622576040517f08c379a000000000000000000000000000000000000000000000000000000000815260040180806020018281038252603681526020018061278a6036913960400191505060405180910390fd5b600073ffffffffffffffffffffffffffffffffffffffff168273ffffffffffffffffffffffffffffffffffffffff161415801561168a57503373ffffffffffffffffffffffffffffffffffffffff168273ffffffffffffffffffffffffffffffffffffffff16145b6116fc576040517f08c379a00000000000000000000000000000000000000000000000000000000081526004018080602001828103825260188152602001807f53656c6c6572202d204275796572204e6f74204d61746368000000000000000081525060200191505060405180910390fd5b3373ffffffffffffffffffffffffffffffffffffffff166108fc829081150290604051600060405180830381858888f19350505050158015611742573d6000803e3d6000fd5b5060019350505050611757565b600093505050505b919050565b60036020528060005260406000206000915090508060000160009054906101000a900473ffffffffffffffffffffffffffffffffffffffff16908060010154908060020160009054906101000a900460ff16905083565b60008060008073ffffffffffffffffffffffffffffffffffffffff166003600033604051602001808273ffffffffffffffffffffffffffffffffffffffff1673ffffffffffffffffffffffffffffffffffffffff1660601b815260140191505060405160208183030381529060405280519060200120815260200190815260200160002060000160009054906101000a900473ffffffffffffffffffffffffffffffffffffffff1673ffffffffffffffffffffffffffffffffffffffff1614806118e75750836003600033604051602001808273ffffffffffffffffffffffffffffffffffffffff1673ffffffffffffffffffffffffffffffffffffffff1660601b815260140191505060405160208183030381529060405280519060200120815260200190815260200160002060010154105b15611918577f4e410000000000000000000000000000000000000000000000000000000000009250600290506119cf565b60006003600033604051602001808273ffffffffffffffffffffffffffffffffffffffff1673ffffffffffffffffffffffffffffffffffffffff1660601b81526014019150506040516020818303038152906040528051906020012081526020019081526020016000209050600081600301600087815260200190815260200160002090508060010160009054906101000a900460f01b9450806000015493508060010160039054906101000a900460ff16925050505b9193909250565b6000806001600281106119e557fe5b0160009054906101000a900473ffffffffffffffffffffffffffffffffffffffff1673ffffffffffffffffffffffffffffffffffffffff166370a08231336040518263ffffffff1660e01b8152600401808273ffffffffffffffffffffffffffffffffffffffff1673ffffffffffffffffffffffffffffffffffffffff16815260200191505060206040518083038186803b158015611a8357600080fd5b505afa158015611a97573d6000803e3d6000fd5b505050506040513d6020811015611aad57600080fd5b8101908080519060200190929190505050905090565b600033604051602001808273ffffffffffffffffffffffffffffffffffffffff1673ffffffffffffffffffffffffffffffffffffffff1660601b81526014019150506040516020818303038152906040528051906020012090506000600360008381526020019081526020016000209050600a60ff168560ff1614611b93576040517f08c379a00000000000000000000000000000000000000000000000000000000081526004018080602001828103825260218152602001806127e36021913960400191505060405180910390fd5b600a60ff1660008060028110611ba557fe5b0160009054906101000a900473ffffffffffffffffffffffffffffffffffffffff1673ffffffffffffffffffffffffffffffffffffffff166370a08231336040518263ffffffff1660e01b8152600401808273ffffffffffffffffffffffffffffffffffffffff1673ffffffffffffffffffffffffffffffffffffffff16815260200191505060206040518083038186803b158015611c4357600080fd5b505afa158015611c57573d6000803e3d6000fd5b505050506040513d6020811015611c6d57600080fd5b81019080805190602001909291905050501015611cf2576040517f08c379a00000000000000000000000000000000000000000000000000000000081526004018080602001828103825260188152602001807f4e6f7420456e6f756768204d61676e657420546f6b656e73000000000000000081525060200191505060405180910390fd5b600073ffffffffffffffffffffffffffffffffffffffff168160000160009054906101000a900473ffffffffffffffffffffffffffffffffffffffff1673ffffffffffffffffffffffffffffffffffffffff161415611d5557611d548261269f565b5b600073ffffffffffffffffffffffffffffffffffffffff168160000160009054906101000a900473ffffffffffffffffffffffffffffffffffffffff1673ffffffffffffffffffffffffffffffffffffffff161415611e1c576040517f08c379a00000000000000000000000000000000000000000000000000000000081526004018080602001828103825260188152602001807f4e6f20557365722044617461203a20737461727447616d65000000000000000081525060200191505060405180910390fd5b60018160020160006101000a81548160ff021916908315150217905550600181600101600082825401925050819055506000816003016000836001015481526020019081526020016000209050868160010160006101000a81548161ffff021916908360f01c021790555060018160010160036101000a81548160ff02191690836002811115611ea857fe5b021790555060008160010160026101000a81548160ff02191690831515021790555084816000018190555060008090505b6003811015611f2e57848160038110611eee57fe5b6020020151826002018260038110611f0257fe5b602091828204019190066101000a81548160ff0219169083151502179055508080600101915050611ed9565b50611f9c81600201600380602002604051908101604052809291908260038015611f92576020028201916000905b82829054906101000a900460ff16151581526020019060010190602082600001049283019260010382029150808411611f5c5790505b5050505050610fe9565b5060008060028110611faa57fe5b0160009054906101000a900473ffffffffffffffffffffffffffffffffffffffff1673ffffffffffffffffffffffffffffffffffffffff1663a5233b25336040518263ffffffff1660e01b8152600401808273ffffffffffffffffffffffffffffffffffffffff1673ffffffffffffffffffffffffffffffffffffffff168152602001915050600060405180830381600087803b15801561204a57600080fd5b505af115801561205e573d6000803e3d6000fd5b505050507fc7ac18fce2161ed5213e36b291b3e1338d444d67b7fc2a53f66fb1776ff7b5ae878686856001015460405180857dffffffffffffffffffffffffffffffffffffffffffffffffffffffffffff19167dffffffffffffffffffffffffffffffffffffffffffffffffffffffffffff1916815260200184815260200183600360200280838360005b838110156121045780820151818401526020810190506120e9565b5050505090500182815260200194505050505060405180910390a150505050505050565b600082156124b6576000806002811061213d57fe5b0160009054906101000a900473ffffffffffffffffffffffffffffffffffffffff1673ffffffffffffffffffffffffffffffffffffffff166343d2c75285846040518363ffffffff1660e01b815260040180837dffffffffffffffffffffffffffffffffffffffffffffffffffffffffffff19167dffffffffffffffffffffffffffffffffffffffffffffffffffffffffffff191681526020018273ffffffffffffffffffffffffffffffffffffffff1673ffffffffffffffffffffffffffffffffffffffff16815260200192505050602060405180830381600087803b15801561222757600080fd5b505af115801561223b573d6000803e3d6000fd5b505050506040513d602081101561225157600080fd5b81019080805190602001909291905050506122d4576040517f08c379a000000000000000000000000000000000000000000000000000000000815260040180806020018281038252601f8152602001807f5265766572742066726f6d204d61676e6574203a20726577617264557365720081525060200191505060405180910390fd5b60006001600281106122e257fe5b0160009054906101000a900473ffffffffffffffffffffffffffffffffffffffff1673ffffffffffffffffffffffffffffffffffffffff166398ea5e7d8584866040518463ffffffff1660e01b815260040180847dffffffffffffffffffffffffffffffffffffffffffffffffffffffffffff19167dffffffffffffffffffffffffffffffffffffffffffffffffffffffffffff191681526020018373ffffffffffffffffffffffffffffffffffffffff1673ffffffffffffffffffffffffffffffffffffffff168152602001821515151581526020019350505050602060405180830381600087803b1580156123d857600080fd5b505af11580156123ec573d6000803e3d6000fd5b505050506040513d602081101561240257600080fd5b8101908080519060200190929190505050612485576040517f08c379a00000000000000000000000000000000000000000000000000000000081526004018080602001828103825260208152602001807f5265766572742066726f6d204d61676e657446203a207265776172645573657281525060200191505060405180910390fd5b7fa9b48ba7eb46d59a96fea22bbc7e53c3af344d9c75ee09e78b0f32ca4f8c2a8f60405160405180910390a1612694565b60006001600281106124c457fe5b0160009054906101000a900473ffffffffffffffffffffffffffffffffffffffff1673ffffffffffffffffffffffffffffffffffffffff166398ea5e7d8584866040518463ffffffff1660e01b815260040180847dffffffffffffffffffffffffffffffffffffffffffffffffffffffffffff19167dffffffffffffffffffffffffffffffffffffffffffffffffffffffffffff191681526020018373ffffffffffffffffffffffffffffffffffffffff1673ffffffffffffffffffffffffffffffffffffffff168152602001821515151581526020019350505050602060405180830381600087803b1580156125ba57600080fd5b505af11580156125ce573d6000803e3d6000fd5b505050506040513d60208110156125e457600080fd5b8101908080519060200190929190505050612667576040517f08c379a00000000000000000000000000000000000000000000000000000000081526004018080602001828103825260208152602001807f5265766572742066726f6d204d61676e657446203a207265776172645573657281525060200191505060405180910390fd5b7f8fd268e19e11911908022dbdaf0fb3c386fc668c496b50cdf278bb9ea3c0271260405160405180910390a15b600190509392505050565b6000600360008381526020019081526020016000209050338160000160006101000a81548173ffffffffffffffffffffffffffffffffffffffff021916908373ffffffffffffffffffffffffffffffffffffffff1602179055506000816001018190555060008160020160006101000a81548160ff0219169083151502179055507fe8a28dd752e9fdb6ffdd08908cf27efb2415fd5ddfa28abcf0b87bc7178f0ba860405160405180910390a15050565b6040518060600160405280600073ffffffffffffffffffffffffffffffffffffffff16815260200160008152602001600015158152509056fe4e6f7420656e6f7567682045544820696e20636f6e7472616374732e2e2e20506c7a20636f6e7461637420746f204465706c6f7965725265766572742066726f6d204d61676e6574203a2065786368616e6765546f6b656e73596f7520446f6573206e6f7420626574203130204d61676e657420546f6b656e735265766572742066726f6d204d61676e657446203a2065786368616e6765546f6b656e73a165627a7a723058208adc74c1eee7d3ddd6b87ecde9022e16b5656f05298856980f097e6620d662d0002960806040523480156200001157600080fd5b50604051602080620024c4833981018060405260208110156200003357600080fd5b8101908080519060200190929190505050806000806101000a81548173ffffffffffffffffffffffffffffffffffffffff021916908373ffffffffffffffffffffffffffffffffffffffff16021790555033600160006101000a81548173ffffffffffffffffffffffffffffffffffffffff021916908373ffffffffffffffffffffffffffffffffffffffff1602179055506040518060400160405280600681526020017f4d61676e657400000000000000000000000000000000000000000000000000008152506002908051906020019062000112929190620001a2565b506040518060400160405280600281526020017f4d470000000000000000000000000000000000000000000000000000000000008152506003908051906020019062000160929190620001a2565b506008600481905550600454600a0a630bebc20002600581905550600454600a0a630bebc2000260068190555066038d7ea4c680006007819055505062000251565b828054600181600116156101000203166002900490600052602060002090601f016020900481019282601f10620001e557805160ff191683800117855562000216565b8280016001018555821562000216579182015b8281111562000215578251825591602001919060010190620001f8565b5b50905062000225919062000229565b5090565b6200024e91905b808211156200024a57600081600090555060010162000230565b5090565b90565b61226380620002616000396000f3fe608060405234801561001057600080fd5b50600436106101215760003560e01c80638da5cb5b116100ad578063c4e41b2211610071578063c4e41b2214610659578063c625e9b114610677578063d92dd1cb146106dd578063dd62ed3e14610743578063f77c4791146107bb57610121565b80638da5cb5b1461047c57806395d89b41146104c6578063a457c2d714610549578063a5233b25146105af578063a9059cbb146105f357610121565b806339509351116100f457806339509351146102b357806343d2c752146103195780634b94f50e146103a0578063670f7151146103be57806370a082311461042457610121565b806306fdde0314610126578063095ea7b3146101a957806323b872dd1461020f578063313ce56714610295575b600080fd5b61012e610805565b6040518080602001828103825283818151815260200191508051906020019080838360005b8381101561016e578082015181840152602081019050610153565b50505050905090810190601f16801561019b5780820380516001836020036101000a031916815260200191505b509250505060405180910390f35b6101f5600480360360408110156101bf57600080fd5b81019080803573ffffffffffffffffffffffffffffffffffffffff169060200190929190803590602001909291905050506108a3565b604051808215151515815260200191505060405180910390f35b61027b6004803603606081101561022557600080fd5b81019080803573ffffffffffffffffffffffffffffffffffffffff169060200190929190803573ffffffffffffffffffffffffffffffffffffffff169060200190929190803590602001909291905050506108ba565b604051808215151515815260200191505060405180910390f35b61029d61096b565b6040518082815260200191505060405180910390f35b6102ff600480360360408110156102c957600080fd5b81019080803573ffffffffffffffffffffffffffffffffffffffff16906020019092919080359060200190929190505050610971565b604051808215151515815260200191505060405180910390f35b6103866004803603604081101561032f57600080fd5b8101908080357dffffffffffffffffffffffffffffffffffffffffffffffffffffffffffff19169060200190929190803573ffffffffffffffffffffffffffffffffffffffff169060200190929190505050610a16565b604051808215151515815260200191505060405180910390f35b6103a8610ddd565b6040518082815260200191505060405180910390f35b61040a600480360360408110156103d457600080fd5b8101908080359060200190929190803573ffffffffffffffffffffffffffffffffffffffff169060200190929190505050610de7565b604051808215151515815260200191505060405180910390f35b6104666004803603602081101561043a57600080fd5b81019080803573ffffffffffffffffffffffffffffffffffffffff169060200190929190505050611060565b6040518082815260200191505060405180910390f35b6104846110a9565b604051808273ffffffffffffffffffffffffffffffffffffffff1673ffffffffffffffffffffffffffffffffffffffff16815260200191505060405180910390f35b6104ce6110ce565b6040518080602001828103825283818151815260200191508051906020019080838360005b8381101561050e5780820151818401526020810190506104f3565b50505050905090810190601f16801561053b5780820380516001836020036101000a031916815260200191505b509250505060405180910390f35b6105956004803603604081101561055f57600080fd5b81019080803573ffffffffffffffffffffffffffffffffffffffff1690602001909291908035906020019092919050505061116c565b604051808215151515815260200191505060405180910390f35b6105f1600480360360208110156105c557600080fd5b81019080803573ffffffffffffffffffffffffffffffffffffffff169060200190929190505050611211565b005b61063f6004803603604081101561060957600080fd5b81019080803573ffffffffffffffffffffffffffffffffffffffff1690602001909291908035906020019092919050505061144c565b604051808215151515815260200191505060405180910390f35b610661611463565b6040518082815260200191505060405180910390f35b6106c36004803603604081101561068d57600080fd5b8101908080359060200190929190803573ffffffffffffffffffffffffffffffffffffffff16906020019092919050505061146d565b604051808215151515815260200191505060405180910390f35b610729600480360360408110156106f357600080fd5b8101908080359060200190929190803573ffffffffffffffffffffffffffffffffffffffff16906020019092919050505061175e565b604051808215151515815260200191505060405180910390f35b6107a56004803603604081101561075957600080fd5b81019080803573ffffffffffffffffffffffffffffffffffffffff169060200190929190803573ffffffffffffffffffffffffffffffffffffffff1690602001909291905050506119b4565b6040518082815260200191505060405180910390f35b6107c3611a3b565b604051808273ffffffffffffffffffffffffffffffffffffffff1673ffffffffffffffffffffffffffffffffffffffff16815260200191505060405180910390f35b60028054600181600116156101000203166002900480601f01602080910402602001604051908101604052809291908181526020018280546001816001161561010002031660029004801561089b5780601f106108705761010080835404028352916020019161089b565b820191906000526020600020905b81548152906001019060200180831161087e57829003601f168201915b505050505081565b60006108b0338484611a61565b6001905092915050565b60006108c7848484611c58565b610960843361095b85600960008a73ffffffffffffffffffffffffffffffffffffffff1673ffffffffffffffffffffffffffffffffffffffff16815260200190815260200160002060003373ffffffffffffffffffffffffffffffffffffffff1673ffffffffffffffffffffffffffffffffffffffff16815260200190815260200160002054611ef890919063ffffffff16565b611a61565b600190509392505050565b60045481565b6000610a0c3384610a0785600960003373ffffffffffffffffffffffffffffffffffffffff1673ffffffffffffffffffffffffffffffffffffffff16815260200190815260200160002060008973ffffffffffffffffffffffffffffffffffffffff1673ffffffffffffffffffffffffffffffffffffffff16815260200190815260200160002054611f8190919063ffffffff16565b611a61565b6001905092915050565b60008060009054906101000a900473ffffffffffffffffffffffffffffffffffffffff1673ffffffffffffffffffffffffffffffffffffffff163373ffffffffffffffffffffffffffffffffffffffff161480610ac05750600160009054906101000a900473ffffffffffffffffffffffffffffffffffffffff1673ffffffffffffffffffffffffffffffffffffffff163373ffffffffffffffffffffffffffffffffffffffff16145b610b32576040517f08c379a000000000000000000000000000000000000000000000000000000000815260040180806020018281038252601c8152602001807f556e617574686f72697a65642073656e646572203a204d61676e65740000000081525060200191505060405180910390fd5b7f455a0000000000000000000000000000000000000000000000000000000000007dffffffffffffffffffffffffffffffffffffffffffffffffffffffffffff1916837dffffffffffffffffffffffffffffffffffffffffffffffffffffffffffff1916148015610baa5750610ba9600783612009565b5b15610c13576007600860008473ffffffffffffffffffffffffffffffffffffffff1673ffffffffffffffffffffffffffffffffffffffff168152602001908152602001600020600082825401925050819055506007600660008282540392505081905550610dd3565b7f4e4d0000000000000000000000000000000000000000000000000000000000007dffffffffffffffffffffffffffffffffffffffffffffffffffffffffffff1916837dffffffffffffffffffffffffffffffffffffffffffffffffffffffffffff1916148015610c8b5750610c8a600a83612009565b5b15610cf457600a600860008473ffffffffffffffffffffffffffffffffffffffff1673ffffffffffffffffffffffffffffffffffffffff16815260200190815260200160002060008282540192505081905550600a600660008282540392505081905550610dd2565b7f48440000000000000000000000000000000000000000000000000000000000007dffffffffffffffffffffffffffffffffffffffffffffffffffffffffffff1916837dffffffffffffffffffffffffffffffffffffffffffffffffffffffffffff1916148015610d6c5750610d6b601483612009565b5b15610dd1576014600860008473ffffffffffffffffffffffffffffffffffffffff1673ffffffffffffffffffffffffffffffffffffffff1681526020019081526020016000206000828254019250508190555060146006600082825403925050819055505b5b5b6001905092915050565b6000600754905090565b60008060009054906101000a900473ffffffffffffffffffffffffffffffffffffffff1673ffffffffffffffffffffffffffffffffffffffff163373ffffffffffffffffffffffffffffffffffffffff161480610e915750600160009054906101000a900473ffffffffffffffffffffffffffffffffffffffff1673ffffffffffffffffffffffffffffffffffffffff163373ffffffffffffffffffffffffffffffffffffffff16145b610f03576040517f08c379a000000000000000000000000000000000000000000000000000000000815260040180806020018281038252601c8152602001807f556e617574686f72697a65642073656e646572203a204d61676e65740000000081525060200191505060405180910390fd5b600860008373ffffffffffffffffffffffffffffffffffffffff1673ffffffffffffffffffffffffffffffffffffffff1681526020019081526020016000205483600860008573ffffffffffffffffffffffffffffffffffffffff1673ffffffffffffffffffffffffffffffffffffffff16815260200190815260200160002054031115610ff9576040517f08c379a00000000000000000000000000000000000000000000000000000000081526004018080602001828103825260118152602001807f556e646572466c6f77204f63637572656400000000000000000000000000000081525060200191505060405180910390fd5b82600860008473ffffffffffffffffffffffffffffffffffffffff1673ffffffffffffffffffffffffffffffffffffffff16815260200190815260200160002060008282540392505081905550826006600082825401925050819055506001905092915050565b6000600860008373ffffffffffffffffffffffffffffffffffffffff1673ffffffffffffffffffffffffffffffffffffffff168152602001908152602001600020549050919050565b6000809054906101000a900473ffffffffffffffffffffffffffffffffffffffff1681565b60038054600181600116156101000203166002900480601f0160208091040260200160405190810160405280929190818152602001828054600181600116156101000203166002900480156111645780601f1061113957610100808354040283529160200191611164565b820191906000526020600020905b81548152906001019060200180831161114757829003601f168201915b505050505081565b6000611207338461120285600960003373ffffffffffffffffffffffffffffffffffffffff1673ffffffffffffffffffffffffffffffffffffffff16815260200190815260200160002060008973ffffffffffffffffffffffffffffffffffffffff1673ffffffffffffffffffffffffffffffffffffffff16815260200190815260200160002054611ef890919063ffffffff16565b611a61565b6001905092915050565b6000809054906101000a900473ffffffffffffffffffffffffffffffffffffffff1673ffffffffffffffffffffffffffffffffffffffff163373ffffffffffffffffffffffffffffffffffffffff1614806112b95750600160009054906101000a900473ffffffffffffffffffffffffffffffffffffffff1673ffffffffffffffffffffffffffffffffffffffff163373ffffffffffffffffffffffffffffffffffffffff16145b61132b576040517f08c379a000000000000000000000000000000000000000000000000000000000815260040180806020018281038252601c8152602001807f556e617574686f72697a65642073656e646572203a204d61676e65740000000081525060200191505060405180910390fd5b600a60ff16600860008373ffffffffffffffffffffffffffffffffffffffff1673ffffffffffffffffffffffffffffffffffffffff1681526020019081526020016000205410156113e4576040517f08c379a00000000000000000000000000000000000000000000000000000000081526004018080602001828103825260128152602001807f4e6f7420656e6f7567682042616c616e6365000000000000000000000000000081525060200191505060405180910390fd5b600a60ff16600860008373ffffffffffffffffffffffffffffffffffffffff1673ffffffffffffffffffffffffffffffffffffffff16815260200190815260200160002060008282540392505081905550600a60ff1660066000828254019250508190555050565b6000611459338484611c58565b6001905092915050565b6000600554905090565b60008060009054906101000a900473ffffffffffffffffffffffffffffffffffffffff1673ffffffffffffffffffffffffffffffffffffffff163373ffffffffffffffffffffffffffffffffffffffff1614806115175750600160009054906101000a900473ffffffffffffffffffffffffffffffffffffffff1673ffffffffffffffffffffffffffffffffffffffff163373ffffffffffffffffffffffffffffffffffffffff16145b611589576040517f08c379a000000000000000000000000000000000000000000000000000000000815260040180806020018281038252601c8152602001807f556e617574686f72697a65642073656e646572203a204d61676e65740000000081525060200191505060405180910390fd5b600860008373ffffffffffffffffffffffffffffffffffffffff1673ffffffffffffffffffffffffffffffffffffffff1681526020019081526020016000205483600860008573ffffffffffffffffffffffffffffffffffffffff1673ffffffffffffffffffffffffffffffffffffffff1681526020019081526020016000205401101561167f576040517f08c379a00000000000000000000000000000000000000000000000000000000081526004018080602001828103825260108152602001807f4f766572466c6f77204f6363757265640000000000000000000000000000000081525060200191505060405180910390fd5b8260065410156116f7576040517f08c379a000000000000000000000000000000000000000000000000000000000815260040180806020018281038252601c8152602001807f4e6f7420656e6f75676820537570706c6961626c6520546f6b656e730000000081525060200191505060405180910390fd5b82600860008473ffffffffffffffffffffffffffffffffffffffff1673ffffffffffffffffffffffffffffffffffffffff16815260200190815260200160002060008282540192505081905550826006600082825403925050819055506001905092915050565b60008060009054906101000a900473ffffffffffffffffffffffffffffffffffffffff1673ffffffffffffffffffffffffffffffffffffffff163373ffffffffffffffffffffffffffffffffffffffff1614806118085750600160009054906101000a900473ffffffffffffffffffffffffffffffffffffffff1673ffffffffffffffffffffffffffffffffffffffff163373ffffffffffffffffffffffffffffffffffffffff16145b61187a576040517f08c379a000000000000000000000000000000000000000000000000000000000815260040180806020018281038252601c8152602001807f556e617574686f72697a65642073656e646572203a204d61676e65740000000081525060200191505060405180910390fd5b60006064848161188657fe5b049050806006541015611901576040517f08c379a000000000000000000000000000000000000000000000000000000000815260040180806020018281038252601c8152602001807f4e6f7420656e6f75676820737570706c6961626c6520616d6f756e740000000081525060200191505060405180910390fd5b6101f481101561195c576040517f08c379a00000000000000000000000000000000000000000000000000000000081526004018080602001828103825260268152602001806121c96026913960400191505060405180910390fd5b80600860008573ffffffffffffffffffffffffffffffffffffffff1673ffffffffffffffffffffffffffffffffffffffff16815260200190815260200160002060008282540192505081905550600191505092915050565b6000600960008473ffffffffffffffffffffffffffffffffffffffff1673ffffffffffffffffffffffffffffffffffffffff16815260200190815260200160002060008373ffffffffffffffffffffffffffffffffffffffff1673ffffffffffffffffffffffffffffffffffffffff16815260200190815260200160002054905092915050565b600160009054906101000a900473ffffffffffffffffffffffffffffffffffffffff1681565b600073ffffffffffffffffffffffffffffffffffffffff168373ffffffffffffffffffffffffffffffffffffffff161415611ae7576040517f08c379a00000000000000000000000000000000000000000000000000000000081526004018080602001828103825260248152602001806122146024913960400191505060405180910390fd5b600073ffffffffffffffffffffffffffffffffffffffff168273ffffffffffffffffffffffffffffffffffffffff161415611b6d576040517f08c379a00000000000000000000000000000000000000000000000000000000081526004018080602001828103825260228152602001806121a76022913960400191505060405180910390fd5b80600960008573ffffffffffffffffffffffffffffffffffffffff1673ffffffffffffffffffffffffffffffffffffffff16815260200190815260200160002060008473ffffffffffffffffffffffffffffffffffffffff1673ffffffffffffffffffffffffffffffffffffffff168152602001908152602001600020819055508173ffffffffffffffffffffffffffffffffffffffff168373ffffffffffffffffffffffffffffffffffffffff167f8c5be1e5ebec7d5bd14f71427d1e84f3dd0314c0f7b2291e5b200ac8c7c3b925836040518082815260200191505060405180910390a3505050565b600073ffffffffffffffffffffffffffffffffffffffff168373ffffffffffffffffffffffffffffffffffffffff161415611cde576040517f08c379a00000000000000000000000000000000000000000000000000000000081526004018080602001828103825260258152602001806121ef6025913960400191505060405180910390fd5b600073ffffffffffffffffffffffffffffffffffffffff168273ffffffffffffffffffffffffffffffffffffffff161415611d64576040517f08c379a00000000000000000000000000000000000000000000000000000000081526004018080602001828103825260238152602001806121846023913960400191505060405180910390fd5b611db681600860008673ffffffffffffffffffffffffffffffffffffffff1673ffffffffffffffffffffffffffffffffffffffff16815260200190815260200160002054611ef890919063ffffffff16565b600860008573ffffffffffffffffffffffffffffffffffffffff1673ffffffffffffffffffffffffffffffffffffffff16815260200190815260200160002081905550611e4b81600860008573ffffffffffffffffffffffffffffffffffffffff1673ffffffffffffffffffffffffffffffffffffffff16815260200190815260200160002054611f8190919063ffffffff16565b600860008473ffffffffffffffffffffffffffffffffffffffff1673ffffffffffffffffffffffffffffffffffffffff168152602001908152602001600020819055508173ffffffffffffffffffffffffffffffffffffffff168373ffffffffffffffffffffffffffffffffffffffff167fddf252ad1be2c89b69c2b068fc378daa952ba7f163c4a11628f55a4df523b3ef836040518082815260200191505060405180910390a3505050565b600082821115611f70576040517f08c379a000000000000000000000000000000000000000000000000000000000815260040180806020018281038252601e8152602001807f536166654d6174683a207375627472616374696f6e206f766572666c6f77000081525060200191505060405180910390fd5b600082840390508091505092915050565b600080828401905083811015611fff576040517f08c379a000000000000000000000000000000000000000000000000000000000815260040180806020018281038252601b8152602001807f536166654d6174683a206164646974696f6e206f766572666c6f77000000000081525060200191505060405180910390fd5b8091505092915050565b6000826006541015612083576040517f08c379a000000000000000000000000000000000000000000000000000000000815260040180806020018281038252601c8152602001807f4e6f7420656e6f75676820537570706c6961626c6520546f6b656e730000000081525060200191505060405180910390fd5b600860008373ffffffffffffffffffffffffffffffffffffffff1673ffffffffffffffffffffffffffffffffffffffff1681526020019081526020016000205483600860008573ffffffffffffffffffffffffffffffffffffffff1673ffffffffffffffffffffffffffffffffffffffff16815260200190815260200160002054011015612179576040517f08c379a00000000000000000000000000000000000000000000000000000000081526004018080602001828103825260108152602001807f4f766572666c6f77204f6363757265640000000000000000000000000000000081525060200191505060405180910390fd5b600190509291505056fe45524332303a207472616e7366657220746f20746865207a65726f206164647265737345524332303a20617070726f766520746f20746865207a65726f20616464726573734e6f74205265616368204d696e696d616c20436f6e646974696f6e3a203130303030204d465445524332303a207472616e736665722066726f6d20746865207a65726f206164647265737345524332303a20617070726f76652066726f6d20746865207a65726f2061646472657373a165627a7a7230582042cb4d80b8e4efef4e62399e9dd88fad34dccafa9bb4ba8b23a15a2a23b17caa002960806040523480156200001157600080fd5b5060405160208062002019833981018060405260208110156200003357600080fd5b8101908080519060200190929190505050806000806101000a81548173ffffffffffffffffffffffffffffffffffffffff021916908373ffffffffffffffffffffffffffffffffffffffff16021790555033600160006101000a81548173ffffffffffffffffffffffffffffffffffffffff021916908373ffffffffffffffffffffffffffffffffffffffff1602179055506040518060400160405280600b81526020017f4d61676e65744669656c64000000000000000000000000000000000000000000815250600290805190602001906200011292919062000194565b506040518060400160405280600381526020017f4d47460000000000000000000000000000000000000000000000000000000000815250600390805190602001906200016092919062000194565b506008600481905550600454600a0a630bebc20002600581905550600454600a0a630bebc200026006819055505062000243565b828054600181600116156101000203166002900490600052602060002090601f016020900481019282601f10620001d757805160ff191683800117855562000208565b8280016001018555821562000208579182015b8281111562000207578251825591602001919060010190620001ea565b5b5090506200021791906200021b565b5090565b6200024091905b808211156200023c57600081600090555060010162000222565b5090565b90565b611dc680620002536000396000f3fe608060405234801561001057600080fd5b506004361061010b5760003560e01c80638da5cb5b116100a2578063a9059cbb11610071578063a9059cbb146105bd578063c4e41b2214610623578063d92dd1cb14610641578063dd62ed3e146106a7578063f77c47911461071f5761010b565b80638da5cb5b146103f757806395d89b411461044157806398ea5e7d146104c4578063a457c2d7146105575761010b565b80632570e31e116100de5780632570e31e146102cd578063313ce5671461031b578063395093511461033957806370a082311461039f5761010b565b806306fdde0314610110578063095ea7b3146101935780631c45202d146101f957806323b872dd14610247575b600080fd5b610118610769565b6040518080602001828103825283818151815260200191508051906020019080838360005b8381101561015857808201518184015260208101905061013d565b50505050905090810190601f1680156101855780820380516001836020036101000a031916815260200191505b509250505060405180910390f35b6101df600480360360408110156101a957600080fd5b81019080803573ffffffffffffffffffffffffffffffffffffffff16906020019092919080359060200190929190505050610807565b604051808215151515815260200191505060405180910390f35b6102456004803603604081101561020f57600080fd5b8101908080359060200190929190803573ffffffffffffffffffffffffffffffffffffffff16906020019092919050505061081e565b005b6102b36004803603606081101561025d57600080fd5b81019080803573ffffffffffffffffffffffffffffffffffffffff169060200190929190803573ffffffffffffffffffffffffffffffffffffffff16906020019092919080359060200190929190505050610934565b604051808215151515815260200191505060405180910390f35b610319600480360360408110156102e357600080fd5b8101908080359060200190929190803573ffffffffffffffffffffffffffffffffffffffff1690602001909291905050506109e5565b005b610323610bb4565b6040518082815260200191505060405180910390f35b6103856004803603604081101561034f57600080fd5b81019080803573ffffffffffffffffffffffffffffffffffffffff16906020019092919080359060200190929190505050610bba565b604051808215151515815260200191505060405180910390f35b6103e1600480360360208110156103b557600080fd5b81019080803573ffffffffffffffffffffffffffffffffffffffff169060200190929190505050610c5f565b6040518082815260200191505060405180910390f35b6103ff610ca8565b604051808273ffffffffffffffffffffffffffffffffffffffff1673ffffffffffffffffffffffffffffffffffffffff16815260200191505060405180910390f35b610449610ccd565b6040518080602001828103825283818151815260200191508051906020019080838360005b8381101561048957808201518184015260208101905061046e565b50505050905090810190601f1680156104b65780820380516001836020036101000a031916815260200191505b509250505060405180910390f35b61053d600480360360608110156104da57600080fd5b8101908080357dffffffffffffffffffffffffffffffffffffffffffffffffffffffffffff19169060200190929190803573ffffffffffffffffffffffffffffffffffffffff169060200190929190803515159060200190929190505050610d6b565b604051808215151515815260200191505060405180910390f35b6105a36004803603604081101561056d57600080fd5b81019080803573ffffffffffffffffffffffffffffffffffffffff169060200190929190803590602001909291905050506111be565b604051808215151515815260200191505060405180910390f35b610609600480360360408110156105d357600080fd5b81019080803573ffffffffffffffffffffffffffffffffffffffff16906020019092919080359060200190929190505050611263565b604051808215151515815260200191505060405180910390f35b61062b61127a565b6040518082815260200191505060405180910390f35b61068d6004803603604081101561065757600080fd5b8101908080359060200190929190803573ffffffffffffffffffffffffffffffffffffffff169060200190929190505050611284565b604051808215151515815260200191505060405180910390f35b610709600480360360408110156106bd57600080fd5b81019080803573ffffffffffffffffffffffffffffffffffffffff169060200190929190803573ffffffffffffffffffffffffffffffffffffffff169060200190929190505050611517565b6040518082815260200191505060405180910390f35b61072761159e565b604051808273ffffffffffffffffffffffffffffffffffffffff1673ffffffffffffffffffffffffffffffffffffffff16815260200191505060405180910390f35b60028054600181600116156101000203166002900480601f0160208091040260200160405190810160405280929190818152602001828054600181600116156101000203166002900480156107ff5780601f106107d4576101008083540402835291602001916107ff565b820191906000526020600020905b8154815290600101906020018083116107e257829003601f168201915b505050505081565b60006108143384846115c4565b6001905092915050565b81600860008373ffffffffffffffffffffffffffffffffffffffff1673ffffffffffffffffffffffffffffffffffffffff1681526020019081526020016000205410156108d3576040517f08c379a00000000000000000000000000000000000000000000000000000000081526004018080602001828103825260128152602001807f4e6f7420656e6f7567682042616c616e6365000000000000000000000000000081525060200191505060405180910390fd5b81600860008373ffffffffffffffffffffffffffffffffffffffff1673ffffffffffffffffffffffffffffffffffffffff16815260200190815260200160002060008282540392505081905550816006600082825401925050819055505050565b60006109418484846117bb565b6109da84336109d585600960008a73ffffffffffffffffffffffffffffffffffffffff1673ffffffffffffffffffffffffffffffffffffffff16815260200190815260200160002060003373ffffffffffffffffffffffffffffffffffffffff1673ffffffffffffffffffffffffffffffffffffffff16815260200190815260200160002054611a5b90919063ffffffff16565b6115c4565b600190509392505050565b816006541015610a5d576040517f08c379a000000000000000000000000000000000000000000000000000000000815260040180806020018281038252601c8152602001807f4e6f7420656e6f75676820537570706c6961626c6520546f6b656e730000000081525060200191505060405180910390fd5b600860008273ffffffffffffffffffffffffffffffffffffffff1673ffffffffffffffffffffffffffffffffffffffff1681526020019081526020016000205482600860008473ffffffffffffffffffffffffffffffffffffffff1673ffffffffffffffffffffffffffffffffffffffff16815260200190815260200160002054011015610b53576040517f08c379a00000000000000000000000000000000000000000000000000000000081526004018080602001828103825260108152602001807f4f766572666c6f77204f6363757265640000000000000000000000000000000081525060200191505060405180910390fd5b81600860008373ffffffffffffffffffffffffffffffffffffffff1673ffffffffffffffffffffffffffffffffffffffff16815260200190815260200160002060008282540192505081905550816006600082825403925050819055505050565b60045481565b6000610c553384610c5085600960003373ffffffffffffffffffffffffffffffffffffffff1673ffffffffffffffffffffffffffffffffffffffff16815260200190815260200160002060008973ffffffffffffffffffffffffffffffffffffffff1673ffffffffffffffffffffffffffffffffffffffff16815260200190815260200160002054611ae490919063ffffffff16565b6115c4565b6001905092915050565b6000600860008373ffffffffffffffffffffffffffffffffffffffff1673ffffffffffffffffffffffffffffffffffffffff168152602001908152602001600020549050919050565b6000809054906101000a900473ffffffffffffffffffffffffffffffffffffffff1681565b60038054600181600116156101000203166002900480601f016020809104026020016040519081016040528092919081815260200182805460018160011615610100020316600290048015610d635780601f10610d3857610100808354040283529160200191610d63565b820191906000526020600020905b815481529060010190602001808311610d4657829003601f168201915b505050505081565b60008060009054906101000a900473ffffffffffffffffffffffffffffffffffffffff1673ffffffffffffffffffffffffffffffffffffffff163373ffffffffffffffffffffffffffffffffffffffff161480610e155750600160009054906101000a900473ffffffffffffffffffffffffffffffffffffffff1673ffffffffffffffffffffffffffffffffffffffff163373ffffffffffffffffffffffffffffffffffffffff16145b610e87576040517f08c379a00000000000000000000000000000000000000000000000000000000081526004018080602001828103825260138152602001807f556e617574686f72697a65642073656e6465720000000000000000000000000081525060200191505060405180910390fd5b81158015610e9d5750610e9c6102bc84611b6c565b5b15610f08576102bc600860008573ffffffffffffffffffffffffffffffffffffffff1673ffffffffffffffffffffffffffffffffffffffff168152602001908152602001600020600082825401925050819055506102bc6006600082825403925050819055506111b3565b7f455a0000000000000000000000000000000000000000000000000000000000007dffffffffffffffffffffffffffffffffffffffffffffffffffffffffffff1916847dffffffffffffffffffffffffffffffffffffffffffffffffffffffffffff1916148015610f815750610f806102bc84611b6c565b5b15610fec576102bc600860008573ffffffffffffffffffffffffffffffffffffffff1673ffffffffffffffffffffffffffffffffffffffff168152602001908152602001600020600082825401925050819055506102bc6006600082825403925050819055506111b2565b7f4e4d0000000000000000000000000000000000000000000000000000000000007dffffffffffffffffffffffffffffffffffffffffffffffffffffffffffff1916847dffffffffffffffffffffffffffffffffffffffffffffffffffffffffffff191614801561106557506110646103e884611b6c565b5b156110d0576103e8600860008573ffffffffffffffffffffffffffffffffffffffff1673ffffffffffffffffffffffffffffffffffffffff168152602001908152602001600020600082825401925050819055506103e86006600082825403925050819055506111b1565b7f48440000000000000000000000000000000000000000000000000000000000007dffffffffffffffffffffffffffffffffffffffffffffffffffffffffffff1916847dffffffffffffffffffffffffffffffffffffffffffffffffffffffffffff191614801561114957506111486107d084611b6c565b5b156111b0576107d0600860008573ffffffffffffffffffffffffffffffffffffffff1673ffffffffffffffffffffffffffffffffffffffff168152602001908152602001600020600082825401925050819055506107d06006600082825403925050819055505b5b5b5b600190509392505050565b6000611259338461125485600960003373ffffffffffffffffffffffffffffffffffffffff1673ffffffffffffffffffffffffffffffffffffffff16815260200190815260200160002060008973ffffffffffffffffffffffffffffffffffffffff1673ffffffffffffffffffffffffffffffffffffffff16815260200190815260200160002054611a5b90919063ffffffff16565b6115c4565b6001905092915050565b60006112703384846117bb565b6001905092915050565b6000600554905090565b60008060009054906101000a900473ffffffffffffffffffffffffffffffffffffffff1673ffffffffffffffffffffffffffffffffffffffff163373ffffffffffffffffffffffffffffffffffffffff16148061132e5750600160009054906101000a900473ffffffffffffffffffffffffffffffffffffffff1673ffffffffffffffffffffffffffffffffffffffff163373ffffffffffffffffffffffffffffffffffffffff16145b6113a0576040517f08c379a00000000000000000000000000000000000000000000000000000000081526004018080602001828103825260138152602001807f556e617574686f72697a65642073656e6465720000000000000000000000000081525060200191505060405180910390fd5b82600860008473ffffffffffffffffffffffffffffffffffffffff1673ffffffffffffffffffffffffffffffffffffffff168152602001908152602001600020541015611455576040517f08c379a00000000000000000000000000000000000000000000000000000000081526004018080602001828103825260128152602001807f4e6f7420656e6f7567682042616c616e6365000000000000000000000000000081525060200191505060405180910390fd5b61c3508310156114b0576040517f08c379a0000000000000000000000000000000000000000000000000000000008152600401808060200182810382526026815260200180611d2c6026913960400191505060405180910390fd5b82600860008473ffffffffffffffffffffffffffffffffffffffff1673ffffffffffffffffffffffffffffffffffffffff16815260200190815260200160002060008282540392505081905550826006600082825401925050819055506001905092915050565b6000600960008473ffffffffffffffffffffffffffffffffffffffff1673ffffffffffffffffffffffffffffffffffffffff16815260200190815260200160002060008373ffffffffffffffffffffffffffffffffffffffff1673ffffffffffffffffffffffffffffffffffffffff16815260200190815260200160002054905092915050565b600160009054906101000a900473ffffffffffffffffffffffffffffffffffffffff1681565b600073ffffffffffffffffffffffffffffffffffffffff168373ffffffffffffffffffffffffffffffffffffffff16141561164a576040517f08c379a0000000000000000000000000000000000000000000000000000000008152600401808060200182810382526024815260200180611d776024913960400191505060405180910390fd5b600073ffffffffffffffffffffffffffffffffffffffff168273ffffffffffffffffffffffffffffffffffffffff1614156116d0576040517f08c379a0000000000000000000000000000000000000000000000000000000008152600401808060200182810382526022815260200180611d0a6022913960400191505060405180910390fd5b80600960008573ffffffffffffffffffffffffffffffffffffffff1673ffffffffffffffffffffffffffffffffffffffff16815260200190815260200160002060008473ffffffffffffffffffffffffffffffffffffffff1673ffffffffffffffffffffffffffffffffffffffff168152602001908152602001600020819055508173ffffffffffffffffffffffffffffffffffffffff168373ffffffffffffffffffffffffffffffffffffffff167f8c5be1e5ebec7d5bd14f71427d1e84f3dd0314c0f7b2291e5b200ac8c7c3b925836040518082815260200191505060405180910390a3505050565b600073ffffffffffffffffffffffffffffffffffffffff168373ffffffffffffffffffffffffffffffffffffffff161415611841576040517f08c379a0000000000000000000000000000000000000000000000000000000008152600401808060200182810382526025815260200180611d526025913960400191505060405180910390fd5b600073ffffffffffffffffffffffffffffffffffffffff168273ffffffffffffffffffffffffffffffffffffffff1614156118c7576040517f08c379a0000000000000000000000000000000000000000000000000000000008152600401808060200182810382526023815260200180611ce76023913960400191505060405180910390fd5b61191981600860008673ffffffffffffffffffffffffffffffffffffffff1673ffffffffffffffffffffffffffffffffffffffff16815260200190815260200160002054611a5b90919063ffffffff16565b600860008573ffffffffffffffffffffffffffffffffffffffff1673ffffffffffffffffffffffffffffffffffffffff168152602001908152602001600020819055506119ae81600860008573ffffffffffffffffffffffffffffffffffffffff1673ffffffffffffffffffffffffffffffffffffffff16815260200190815260200160002054611ae490919063ffffffff16565b600860008473ffffffffffffffffffffffffffffffffffffffff1673ffffffffffffffffffffffffffffffffffffffff168152602001908152602001600020819055508173ffffffffffffffffffffffffffffffffffffffff168373ffffffffffffffffffffffffffffffffffffffff167fddf252ad1be2c89b69c2b068fc378daa952ba7f163c4a11628f55a4df523b3ef836040518082815260200191505060405180910390a3505050565b600082821115611ad3576040517f08c379a000000000000000000000000000000000000000000000000000000000815260040180806020018281038252601e8152602001807f536166654d6174683a207375627472616374696f6e206f766572666c6f77000081525060200191505060405180910390fd5b600082840390508091505092915050565b600080828401905083811015611b62576040517f08c379a000000000000000000000000000000000000000000000000000000000815260040180806020018281038252601b8152602001807f536166654d6174683a206164646974696f6e206f766572666c6f77000000000081525060200191505060405180910390fd5b8091505092915050565b6000826006541015611be6576040517f08c379a000000000000000000000000000000000000000000000000000000000815260040180806020018281038252601c8152602001807f4e6f7420656e6f75676820537570706c6961626c6520546f6b656e730000000081525060200191505060405180910390fd5b600860008373ffffffffffffffffffffffffffffffffffffffff1673ffffffffffffffffffffffffffffffffffffffff1681526020019081526020016000205483600860008573ffffffffffffffffffffffffffffffffffffffff1673ffffffffffffffffffffffffffffffffffffffff16815260200190815260200160002054011015611cdc576040517f08c379a00000000000000000000000000000000000000000000000000000000081526004018080602001828103825260108152602001807f4f766572666c6f77204f6363757265640000000000000000000000000000000081525060200191505060405180910390fd5b600190509291505056fe45524332303a207472616e7366657220746f20746865207a65726f206164647265737345524332303a20617070726f766520746f20746865207a65726f20616464726573734e6f74205265616368204d696e696d616c20436f6e646974696f6e3a203130303030204d465445524332303a207472616e736665722066726f6d20746865207a65726f206164647265737345524332303a20617070726f76652066726f6d20746865207a65726f2061646472657373a165627a7a72305820c2c7e5161633bbcbd8084bdffec5112b60e2837dc33410b56c45189542cd2a2c0029",
  "source": "pragma solidity ^0.5.0;\r\n\r\nimport './Magnet.sol';\r\nimport './MagnetField.sol';\r\n\r\n// ganache-cli -l 8000000\r\ncontract GameController {\r\n\r\n    // variables\r\n    address[2] private tokensAddr;\r\n    address payable public owner;\r\n\r\n    mapping (bytes32 => UserInfo) public users;\r\n\r\n    // user DB structure\r\n    struct GameLog { // use for game log!\r\n        bytes32 gameHex; // use for transparency. (when start the game, )\r\n        bytes2 difficulty; // EZ, NM, HD - necessary?\r\n        bool isRewarded;\r\n        GameResult result; //default : LOSE ***WIN/LOSE/ 2 (NOT FOUND)\r\n        bool[3] useItem; //default: false(SHIELD), false(FirstCell), false(ShowMap)\r\n    }\r\n\r\n    struct UserInfo {\r\n        address gamerID; // User account address\r\n        uint256 totalGameCount;  // to tracking recent gameResult.\r\n        bool isPlaying; // check progress of the game\r\n        mapping (uint256 => GameLog) logs; // start from 0 to N.... (game result log)\r\n    }\r\n\r\n    constructor() public {\r\n        owner = msg.sender;\r\n        tokensAddr[0] = address(new Magnet(msg.sender));\r\n        tokensAddr[1] = address(new MagnetField(msg.sender));\r\n    }\r\n\r\n\r\n\r\n    // constants\r\n    uint8 constant internal BET_TOKEN_AMOUNT = 10;\r\n    uint256 constant internal LEAST_EXCHANGE_AMOUNT = 10000;\r\n\r\n    enum ItemLists { Shield, FirstCell, ShowMap } // check item uselist...\r\n    enum GameResult { WIN, LOSE, NOT_FOUND } // 0: WIN, 1: LOSE\r\n\r\n    // Event Lists\r\n\r\n    // when users start the game\r\n    event START(bytes2 difficulty, bytes32 gameHex, bool[3] useItem, uint256 totalGameCount); //BombHex -> keccak256(bombCoords)\r\n    // when the game is over.\r\n    event WIN();    event LOSE();    event REGISTER();\r\n\r\n    function buyMagnet() public payable returns (bool) {\r\n        uint256 amount = msg.value / Magnet(tokensAddr[0]).getTokenPrice();\r\n        Magnet(tokensAddr[0]).buyTokens(amount, msg.sender);\r\n    }\r\n\r\n\r\n    // 1Magnet = 0.001ETH 1000\r\n    function sellMagnet(uint sellAmount) public payable returns (bool) {\r\n        bytes32 userIdentificator = keccak256(abi.encodePacked(msg.sender));\r\n        address seller = users[userIdentificator].gamerID;\r\n        uint256 getETH = (sellAmount * 1000000000000000);\r\n\r\n        if(Magnet(tokensAddr[0]).sellTokens(sellAmount, msg.sender)) { // true\r\n        // ETH \r\n            require(address(this).balance > getETH, \"Not enough ETH in contracts... Plz contact to Deployer\");\r\n            require(seller != address(0x0) && seller == msg.sender, \"Seller - Buyer Not Match\");\r\n            msg.sender.transfer(getETH);\r\n            return true;\r\n        } else {\r\n            return false;\r\n        }\r\n    }\r\n\r\n\r\n    function buyMagnetField() public payable returns (bool) {\r\n        MagnetField(tokensAddr[1]).getTokens(100000, msg.sender);\r\n    }\r\n\r\n    function getMagnetBalance() public view returns (uint256) {\r\n        return Magnet(tokensAddr[0]).balanceOf(msg.sender);\r\n    }\r\n\r\n    function getMagnetFieldBalance() public view returns (uint256) {\r\n        return MagnetField(tokensAddr[1]).balanceOf(msg.sender);\r\n    }\r\n    /**\r\n     * @dev         DB  .\r\n     * @param _userIdentificator userInfo Map key (keccak256 )\r\n\r\n     */\r\n    function register(bytes32 _userIdentificator) private {\r\n        UserInfo storage user = users[_userIdentificator];\r\n\r\n        user.gamerID = msg.sender;\r\n        user.totalGameCount = 0;\r\n        user.isPlaying = false;\r\n\r\n        emit REGISTER();\r\n    }\r\n\r\n    /**\r\n     * @dev        MagnetField  .\r\n     * @param _useItems        parameter\r\n     * @return    true .\r\n     */\r\n    function useItems(bool[3] memory _useItems) public returns (uint256){ // internal  \r\n        uint256 totalItemCost = 0;\r\n        if(_useItems[0]) totalItemCost += 10000;\r\n        if(_useItems[1]) totalItemCost += 20000;\r\n        if(_useItems[2]) totalItemCost += 30000;\r\n        if(totalItemCost != 0) {\r\n            MagnetField(tokensAddr[1]).buyItems(totalItemCost, msg.sender);\r\n        }\r\n        return totalItemCost;\r\n    }\r\n    /**\r\n     * @dev             START  .\r\n     * @param _difficulty   front-end .\r\n     * @param _gameCost    Magnet   front-end .\r\n     * @param _gameHex  transparency  sha256 value front-end .\r\n     * @param _gameCost    Magnet   front-end .\r\n     */\r\n    function startGame(bytes2 _difficulty, uint8 _gameCost, bytes32  _gameHex, bool[3] memory _useItem) public{\r\n        bytes32 userIdentificator = keccak256(abi.encodePacked(msg.sender));\r\n        UserInfo storage user = users[userIdentificator];\r\n\r\n        require(_gameCost == BET_TOKEN_AMOUNT, \"You Does not bet 10 Magnet Tokens\"); // Is gameCost same as the BET_TOKEN_AMOUNT\r\n        require(Magnet(tokensAddr[0]).balanceOf(msg.sender) >= BET_TOKEN_AMOUNT, \"Not Enough Magnet Tokens\"); // check Magnet balance of Users.\r\n        if(user.gamerID == address(0)) { // No User Data (Newbie)\r\n            register(userIdentificator);\r\n        }\r\n\r\n        //double check user existence\r\n        require(user.gamerID != address(0), \"No User Data : startGame\");\r\n        // change isPlaying flag and update totalGameCount\r\n        user.isPlaying = true;\r\n        user.totalGameCount += 1;\r\n\r\n        // write game log\r\n        GameLog storage log = user.logs[user.totalGameCount];\r\n        log.difficulty = _difficulty;\r\n        log.result = GameResult.LOSE;\r\n        log.isRewarded = false;\r\n        log.gameHex = _gameHex;\r\n\r\n        for (uint i = 0 ; i < 3; i++) {\r\n            log.useItem[i] = _useItem[i];\r\n        }\r\n\r\n        // decrease MagnetField (if use items)\r\n        useItems(log.useItem);\r\n\r\n        // substract 10 Magnet Tokens\r\n        Magnet(tokensAddr[0]).payToGamePlay(msg.sender);\r\n        emit START(_difficulty, _gameHex, _useItem, user.totalGameCount);\r\n    }\r\n\r\n\r\n    /**\r\n     * @dev           LOSE  ..\r\n     * @param _gameHex        .\r\n     * @param _isWinner      bool parameter\r\n     */\r\n    function endGame(bytes32 _gameHex, bool _isWinner, address userAddr) public {\r\n        bytes32 userIdentificator = keccak256(abi.encodePacked(userAddr));\r\n        UserInfo storage user = users[userIdentificator];\r\n        GameLog storage log = user.logs[user.totalGameCount];\r\n\r\n        // check user is in contract's database.\r\n        require(user.gamerID != address(0), \"No User Data: endGame\");\r\n        require(user.totalGameCount != 0, \"No Game History\");\r\n\r\n        // _gameHex recheck(compare with log's hex value :: RECENT GAME!!)\r\n        require(log.gameHex == _gameHex, \"No such Game in logs: endGame\");\r\n        require(log.isRewarded != true, \"Already Rewarded Game: endGame\");\r\n\r\n        //update game result. and reward to users depending on the result of final game.\r\n       // ture : WIN, false : LOSE [get values from front-end game]\r\n       if(_isWinner){\r\n            log.result = GameResult.WIN;\r\n        } else {\r\n            log.result = GameResult.LOSE;\r\n        }\r\n\r\n        if(rewardUser(log.difficulty, _isWinner, userAddr)) {\r\n            log.isRewarded = true;\r\n        }\r\n    }\r\n\r\n    /**\r\n     * @dev     \r\n     * @param  _difficulty  \r\n     * @param  _isWinner  \r\n     * @return     true .\r\n     */\r\n    function rewardUser(bytes2 _difficulty, bool _isWinner, address userAddr) internal returns (bool) {\r\n        if(_isWinner) {\r\n            require(Magnet(tokensAddr[0]).rewardTokens(_difficulty, userAddr), \"Revert from Magnet : rewardUser\");\r\n            require(MagnetField(tokensAddr[1]).rewardTokens(_difficulty, userAddr, _isWinner), \"Revert from MagnetF : rewardUser\");\r\n            emit WIN();\r\n        } else {\r\n            require(MagnetField(tokensAddr[1]).rewardTokens(_difficulty, userAddr, _isWinner), \"Revert from MagnetF : rewardUser\");\r\n            emit LOSE();\r\n        }\r\n        return true;\r\n    }\r\n\r\n    /**\r\n     * @dev      .\r\n     * @return     .\r\n     */\r\n    function getTotalGameCount() public view returns (uint256) {\r\n        UserInfo memory user = users[keccak256(abi.encodePacked(msg.sender))];\r\n        return user.totalGameCount;\r\n    }\r\n    /**\r\n     * @dev  (index)   .\r\n     *      Solidity   mapping     index .\r\n     *      for loop front-end     .\r\n     *      getTotalGameCount()  front-end      for loop \r\n     *       .\r\n     * @param  index   \r\n     * @return    .\r\n     */\r\n    function getGameResults(uint256 index) public view returns (bytes2 difficulty, bytes32 gameHex, GameResult result) {\r\n        if (users[keccak256(abi.encodePacked(msg.sender))].gamerID == address(0) ||\r\n            users[keccak256(abi.encodePacked(msg.sender))].totalGameCount < index) {\r\n            difficulty = bytes2(\"NA\");\r\n            result = GameResult.NOT_FOUND;\r\n        } else {\r\n            UserInfo storage user = users[keccak256(abi.encodePacked(msg.sender))];\r\n            GameLog storage log = user.logs[index];\r\n\r\n            difficulty = log.difficulty;\r\n            gameHex = log.gameHex;\r\n            result = log.result;\r\n        }\r\n\r\n    }\r\n\r\n    /**\r\n     * @dev MagnetField  Magnet   .\r\n     * @param  _amount   Magnet  \r\n     * @return  transaction   true .\r\n     */\r\n     function exchangeTokens(uint256 _amount) public returns (bool) {\r\n        require(MagnetField(tokensAddr[1]).exchangeTokens(_amount, msg.sender),\"Revert from MagnetF : exchangeTokens\"); // magnetField  .\r\n        require(Magnet(tokensAddr[0]).exchangeTokens(_amount, msg.sender), \"Revert from Magnet : exchangeTokens\"); // magnet  .\r\n        return true;\r\n     }\r\n\r\n    /*\r\n     *struct UserInfo {\r\n     * address payable gamerID; // User account address\r\n     * uint256 totalGameCount;  // to tracking recent GameResult.\r\n     * mapping (uint256 => GameResult) results; // start from 0 to N.... (game result log)\r\n     * bool isPlaying;\r\n     *}\r\n     */\r\n     function getUserInfo() public view returns (address _gamerID, uint256 _totalGameCount) {\r\n        UserInfo storage user = users[keccak256(abi.encodePacked(msg.sender))];\r\n        _gamerID = user.gamerID;\r\n        _totalGameCount = user.totalGameCount;\r\n     }\r\n\r\n    /**\r\n     * @dev    ETH  .\r\n     */\r\n     function showETH() public view returns (uint256){\r\n         return address(this).balance;\r\n     }\r\n\r\n    modifier onlyOwner() {\r\n        require(msg.sender == owner , \"Unauthorized sender : Magnet\");\r\n        _;\r\n    }\r\n\r\n    /**\r\n     * @dev deployer    ETH .\r\n     */\r\n     function withdrawETHALL() public onlyOwner {\r\n         owner.transfer(address(this).balance);\r\n     }\r\n}",
  "sourcePath": "C:/Users/kwonHyunwoo/Documents/GitHub/MineSweeperDApp/contracts/GameController.sol",
  "compiler": {
    "name": "solc",
    "version": "0.5.8+commit.23d335f2.Emscripten.clang"
  },
  "schemaVersion": "3.0.11",
  "updatedAt": "2019-09-19T16:26:34.577Z",
  "devdoc": {
    "methods": {
      "endGame(bytes32,bool,address)": {
        "details": "          LOSE  ..\r",
        "params": {
          "_gameHex": "       .\r",
          "_isWinner": "     bool parameter\r"
        }
      },
      "exchangeTokens(uint256)": {
        "details": "MagnetField  Magnet   .\r",
        "params": {
          "_amount": "  Magnet  \r"
        },
        "return": " transaction   true .\r"
      },
      "getGameResults(uint256)": {
        "details": " (index)   .\r     Solidity   mapping     index .\r     for loop front-end     .\r     getTotalGameCount()  front-end      for loop \r      .\r",
        "params": {
          "index": " \r"
        },
        "return": "   .\r"
      },
      "getTotalGameCount()": {
        "details": "     .\r",
        "return": "    .\r"
      },
      "showETH()": {
        "details": "   ETH  .\r"
      },
      "startGame(bytes2,uint8,bytes32,bool[3])": {
        "details": "            START  .\r",
        "params": {
          "_difficulty": "  front-end .\r",
          "_gameCost": "   Magnet   front-end .\r",
          "_gameHex": " transparency  sha256 value front-end .\r"
        }
      },
      "useItems(bool[3])": {
        "details": "       MagnetField  .\r",
        "params": {
          "_useItems": "       parameter\r"
        },
        "return": "   true .\r"
      },
      "withdrawETHALL()": {
        "details": "deployer    ETH .\r"
      }
    }
  },
  "userdoc": {
    "methods": {}
  }
}