{
  "contractName": "GameController",
  "abi": [
    {
      "constant": true,
      "inputs": [],
      "name": "owner",
      "outputs": [
        {
          "name": "",
          "type": "address"
        }
      ],
      "payable": false,
      "stateMutability": "view",
      "type": "function",
      "signature": "0x8da5cb5b"
    },
    {
      "constant": true,
      "inputs": [
        {
          "name": "",
          "type": "bytes32"
        }
      ],
      "name": "users",
      "outputs": [
        {
          "name": "gamerID",
          "type": "address"
        },
        {
          "name": "totalGameCount",
          "type": "uint256"
        },
        {
          "name": "isPlaying",
          "type": "bool"
        }
      ],
      "payable": false,
      "stateMutability": "view",
      "type": "function",
      "signature": "0xcea6ab98"
    },
    {
      "inputs": [],
      "payable": false,
      "stateMutability": "nonpayable",
      "type": "constructor",
      "signature": "constructor"
    },
    {
      "anonymous": false,
      "inputs": [
        {
          "indexed": false,
          "name": "difficulty",
          "type": "bytes2"
        },
        {
          "indexed": false,
          "name": "gameHex",
          "type": "bytes32"
        },
        {
          "indexed": false,
          "name": "useItem",
          "type": "bool[3]"
        },
        {
          "indexed": false,
          "name": "totalGameCount",
          "type": "uint256"
        }
      ],
      "name": "START",
      "type": "event",
      "signature": "0xc7ac18fce2161ed5213e36b291b3e1338d444d67b7fc2a53f66fb1776ff7b5ae"
    },
    {
      "anonymous": false,
      "inputs": [],
      "name": "WIN",
      "type": "event",
      "signature": "0xa9b48ba7eb46d59a96fea22bbc7e53c3af344d9c75ee09e78b0f32ca4f8c2a8f"
    },
    {
      "anonymous": false,
      "inputs": [],
      "name": "LOSE",
      "type": "event",
      "signature": "0x8fd268e19e11911908022dbdaf0fb3c386fc668c496b50cdf278bb9ea3c02712"
    },
    {
      "anonymous": false,
      "inputs": [],
      "name": "REGISTER",
      "type": "event",
      "signature": "0xe8a28dd752e9fdb6ffdd08908cf27efb2415fd5ddfa28abcf0b87bc7178f0ba8"
    },
    {
      "constant": false,
      "inputs": [],
      "name": "buyMagnet",
      "outputs": [
        {
          "name": "",
          "type": "bool"
        }
      ],
      "payable": true,
      "stateMutability": "payable",
      "type": "function",
      "signature": "0x083c3daa"
    },
    {
      "constant": true,
      "inputs": [],
      "name": "getMagnetBalance",
      "outputs": [
        {
          "name": "",
          "type": "uint256"
        }
      ],
      "payable": false,
      "stateMutability": "view",
      "type": "function",
      "signature": "0xb6d991cf"
    },
    {
      "constant": true,
      "inputs": [],
      "name": "getMagnetFieldBalance",
      "outputs": [
        {
          "name": "",
          "type": "uint256"
        }
      ],
      "payable": false,
      "stateMutability": "view",
      "type": "function",
      "signature": "0xdfef09d9"
    },
    {
      "constant": false,
      "inputs": [
        {
          "name": "_useItems",
          "type": "bool[3]"
        }
      ],
      "name": "useItems",
      "outputs": [
        {
          "name": "",
          "type": "uint256"
        }
      ],
      "payable": false,
      "stateMutability": "nonpayable",
      "type": "function",
      "signature": "0x801330aa"
    },
    {
      "constant": false,
      "inputs": [
        {
          "name": "_difficulty",
          "type": "bytes2"
        },
        {
          "name": "_gameCost",
          "type": "uint8"
        },
        {
          "name": "_gameHex",
          "type": "bytes32"
        },
        {
          "name": "_useItem",
          "type": "bool[3]"
        }
      ],
      "name": "startGame",
      "outputs": [],
      "payable": false,
      "stateMutability": "nonpayable",
      "type": "function",
      "signature": "0xf598963e"
    },
    {
      "constant": false,
      "inputs": [
        {
          "name": "_gameHex",
          "type": "bytes32"
        },
        {
          "name": "_isWinner",
          "type": "bool"
        }
      ],
      "name": "endGame",
      "outputs": [],
      "payable": false,
      "stateMutability": "nonpayable",
      "type": "function",
      "signature": "0x78df5b40"
    },
    {
      "constant": true,
      "inputs": [
        {
          "name": "index",
          "type": "uint256"
        }
      ],
      "name": "getGameResults",
      "outputs": [
        {
          "name": "difficulty",
          "type": "bytes2"
        },
        {
          "name": "result",
          "type": "uint8"
        }
      ],
      "payable": false,
      "stateMutability": "view",
      "type": "function",
      "signature": "0xdcef63eb"
    },
    {
      "constant": false,
      "inputs": [
        {
          "name": "amount",
          "type": "uint256"
        }
      ],
      "name": "exchangeTokens",
      "outputs": [
        {
          "name": "",
          "type": "bool"
        }
      ],
      "payable": false,
      "stateMutability": "nonpayable",
      "type": "function",
      "signature": "0x40477126"
    },
    {
      "constant": true,
      "inputs": [],
      "name": "getUserInfo",
      "outputs": [
        {
          "name": "_gamerID",
          "type": "address"
        },
        {
          "name": "_totalGameCount",
          "type": "uint256"
        }
      ],
      "payable": false,
      "stateMutability": "view",
      "type": "function",
      "signature": "0x5d8d1585"
    }
  ],
  "bytecode": "0x60806040523480156200001157600080fd5b5033600260006101000a81548173ffffffffffffffffffffffffffffffffffffffff021916908373ffffffffffffffffffffffffffffffffffffffff160217905550336200005e620001b6565b808273ffffffffffffffffffffffffffffffffffffffff1673ffffffffffffffffffffffffffffffffffffffff168152602001915050604051809103906000f080158015620000b1573d6000803e3d6000fd5b50600080600281101515620000c257fe5b0160006101000a81548173ffffffffffffffffffffffffffffffffffffffff021916908373ffffffffffffffffffffffffffffffffffffffff160217905550336200010c620001c7565b808273ffffffffffffffffffffffffffffffffffffffff1673ffffffffffffffffffffffffffffffffffffffff168152602001915050604051809103906000f0801580156200015f573d6000803e3d6000fd5b50600060016002811015156200017157fe5b0160006101000a81548173ffffffffffffffffffffffffffffffffffffffff021916908373ffffffffffffffffffffffffffffffffffffffff160217905550620001d8565b604051612240806200232f83390190565b604051612106806200456f83390190565b61214780620001e86000396000f3fe6080604052600436106100af576000357c0100000000000000000000000000000000000000000000000000000000900463ffffffff168063083c3daa146100b457806340477126146100d65780635d8d15851461012957806378df5b4014610187578063801330aa146101ce5780638da5cb5b14610254578063b6d991cf146102ab578063cea6ab98146102d6578063dcef63eb14610363578063dfef09d914610409578063f598963e14610434575b600080fd5b6100bc6104e8565b604051808215151515815260200191505060405180910390f35b3480156100e257600080fd5b5061010f600480360360208110156100f957600080fd5b81019080803590602001909291905050506106d8565b604051808215151515815260200191505060405180910390f35b34801561013557600080fd5b5061013e610a33565b604051808373ffffffffffffffffffffffffffffffffffffffff1673ffffffffffffffffffffffffffffffffffffffff1681526020018281526020019250505060405180910390f35b34801561019357600080fd5b506101cc600480360360408110156101aa57600080fd5b8101908080359060200190929190803515159060200190929190505050610ae1565b005b3480156101da57600080fd5b5061023e600480360360608110156101f157600080fd5b8101908080606001906003806020026040519081016040528092919082600360200280828437600081840152601f19601f8201169050808301925050505050509192919290505050610d58565b6040518082815260200191505060405180910390f35b34801561026057600080fd5b50610269610ec2565b604051808273ffffffffffffffffffffffffffffffffffffffff1673ffffffffffffffffffffffffffffffffffffffff16815260200191505060405180910390f35b3480156102b757600080fd5b506102c0610ee8565b6040518082815260200191505060405180910390f35b3480156102e257600080fd5b5061030f600480360360208110156102f957600080fd5b8101908080359060200190929190505050610ff3565b604051808473ffffffffffffffffffffffffffffffffffffffff1673ffffffffffffffffffffffffffffffffffffffff16815260200183815260200182151515158152602001935050505060405180910390f35b34801561036f57600080fd5b5061039c6004803603602081101561038657600080fd5b810190808035906020019092919050505061104a565b60405180837dffffffffffffffffffffffffffffffffffffffffffffffffffffffffffff19167dffffffffffffffffffffffffffffffffffffffffffffffffffffffffffff191681526020018260028111156103f457fe5b60ff1681526020019250505060405180910390f35b34801561041557600080fd5b5061041e6112a5565b6040518082815260200191505060405180910390f35b34801561044057600080fd5b506104e6600480360360c081101561045757600080fd5b8101908080357dffffffffffffffffffffffffffffffffffffffffffffffffffffffffffff19169060200190929190803560ff1690602001909291908035906020019092919080606001906003806020026040519081016040528092919082600360200280828437600081840152601f19601f82011690508083019250505050505091929192905050506113b0565b005b6000806000806002811015156104fa57fe5b0160009054906101000a900473ffffffffffffffffffffffffffffffffffffffff1673ffffffffffffffffffffffffffffffffffffffff16634b94f50e6040518163ffffffff167c010000000000000000000000000000000000000000000000000000000002815260040160206040518083038186803b15801561057d57600080fd5b505afa158015610591573d6000803e3d6000fd5b505050506040513d60208110156105a757600080fd5b8101908080519060200190929190505050348115156105c257fe5b0490506000806002811015156105d457fe5b0160009054906101000a900473ffffffffffffffffffffffffffffffffffffffff1673ffffffffffffffffffffffffffffffffffffffff1663c625e9b182336040518363ffffffff167c0100000000000000000000000000000000000000000000000000000000028152600401808381526020018273ffffffffffffffffffffffffffffffffffffffff1673ffffffffffffffffffffffffffffffffffffffff16815260200192505050602060405180830381600087803b15801561069857600080fd5b505af11580156106ac573d6000803e3d6000fd5b505050506040513d60208110156106c257600080fd5b8101908080519060200190929190505050505090565b60008060016002811015156106e957fe5b0160009054906101000a900473ffffffffffffffffffffffffffffffffffffffff1673ffffffffffffffffffffffffffffffffffffffff1663d92dd1cb83336040518363ffffffff167c0100000000000000000000000000000000000000000000000000000000028152600401808381526020018273ffffffffffffffffffffffffffffffffffffffff1673ffffffffffffffffffffffffffffffffffffffff16815260200192505050602060405180830381600087803b1580156107ad57600080fd5b505af11580156107c1573d6000803e3d6000fd5b505050506040513d60208110156107d757600080fd5b81019080805190602001909291905050501515610882576040517f08c379a00000000000000000000000000000000000000000000000000000000081526004018080602001828103825260248152602001807f5265766572742066726f6d204d61676e657446203a2065786368616e6765546f81526020017f6b656e730000000000000000000000000000000000000000000000000000000081525060400191505060405180910390fd5b60008060028110151561089157fe5b0160009054906101000a900473ffffffffffffffffffffffffffffffffffffffff1673ffffffffffffffffffffffffffffffffffffffff1663d92dd1cb83336040518363ffffffff167c0100000000000000000000000000000000000000000000000000000000028152600401808381526020018273ffffffffffffffffffffffffffffffffffffffff1673ffffffffffffffffffffffffffffffffffffffff16815260200192505050602060405180830381600087803b15801561095557600080fd5b505af1158015610969573d6000803e3d6000fd5b505050506040513d602081101561097f57600080fd5b81019080805190602001909291905050501515610a2a576040517f08c379a00000000000000000000000000000000000000000000000000000000081526004018080602001828103825260238152602001807f5265766572742066726f6d204d61676e6574203a2065786368616e6765546f6b81526020017f656e73000000000000000000000000000000000000000000000000000000000081525060400191505060405180910390fd5b60019050919050565b60008060006003600033604051602001808273ffffffffffffffffffffffffffffffffffffffff1673ffffffffffffffffffffffffffffffffffffffff166c0100000000000000000000000002815260140191505060405160208183030381529060405280519060200120815260200190815260200160002090508060000160009054906101000a900473ffffffffffffffffffffffffffffffffffffffff16925080600101549150509091565b600033604051602001808273ffffffffffffffffffffffffffffffffffffffff1673ffffffffffffffffffffffffffffffffffffffff166c010000000000000000000000000281526014019150506040516020818303038152906040528051906020012090506000600360008381526020019081526020016000209050600073ffffffffffffffffffffffffffffffffffffffff168160000160009054906101000a900473ffffffffffffffffffffffffffffffffffffffff1673ffffffffffffffffffffffffffffffffffffffff1614151515610c27576040517f08c379a00000000000000000000000000000000000000000000000000000000081526004018080602001828103825260158152602001807f4e6f205573657220446174613a20656e6447616d65000000000000000000000081525060200191505060405180910390fd5b6000816003016000836001015481526020019081526020016000209050848160000154141515610cbf576040517f08c379a000000000000000000000000000000000000000000000000000000000815260040180806020018281038252601d8152602001807f4e6f20737563682047616d6520696e206c6f67733a20656e6447616d6500000081525060200191505060405180910390fd5b8315610cf05760008160010160026101000a81548160ff02191690836002811115610ce657fe5b0217905550610d17565b60018160010160026101000a81548160ff02191690836002811115610d1157fe5b02179055505b610d508160010160009054906101000a90047e010000000000000000000000000000000000000000000000000000000000000285611aac565b505050505050565b60008060009050826000600381101515610d6e57fe5b602002015115610d8057611b58810190505b826001600381101515610d8f57fe5b602002015115610da157612710810190505b826002600381101515610db057fe5b602002015115610dc257614e20810190505b600081141515610eb95760006001600281101515610ddc57fe5b0160009054906101000a900473ffffffffffffffffffffffffffffffffffffffff1673ffffffffffffffffffffffffffffffffffffffff16631c45202d82336040518363ffffffff167c0100000000000000000000000000000000000000000000000000000000028152600401808381526020018273ffffffffffffffffffffffffffffffffffffffff1673ffffffffffffffffffffffffffffffffffffffff16815260200192505050600060405180830381600087803b158015610ea057600080fd5b505af1158015610eb4573d6000803e3d6000fd5b505050505b80915050919050565b600260009054906101000a900473ffffffffffffffffffffffffffffffffffffffff1681565b6000806000600281101515610ef957fe5b0160009054906101000a900473ffffffffffffffffffffffffffffffffffffffff1673ffffffffffffffffffffffffffffffffffffffff166370a08231336040518263ffffffff167c0100000000000000000000000000000000000000000000000000000000028152600401808273ffffffffffffffffffffffffffffffffffffffff1673ffffffffffffffffffffffffffffffffffffffff16815260200191505060206040518083038186803b158015610fb357600080fd5b505afa158015610fc7573d6000803e3d6000fd5b505050506040513d6020811015610fdd57600080fd5b8101908080519060200190929190505050905090565b60036020528060005260406000206000915090508060000160009054906101000a900473ffffffffffffffffffffffffffffffffffffffff16908060010154908060020160009054906101000a900460ff16905083565b600080600073ffffffffffffffffffffffffffffffffffffffff166003600033604051602001808273ffffffffffffffffffffffffffffffffffffffff1673ffffffffffffffffffffffffffffffffffffffff166c0100000000000000000000000002815260140191505060405160208183030381529060405280519060200120815260200190815260200160002060000160009054906101000a900473ffffffffffffffffffffffffffffffffffffffff1673ffffffffffffffffffffffffffffffffffffffff1614806111955750826003600033604051602001808273ffffffffffffffffffffffffffffffffffffffff1673ffffffffffffffffffffffffffffffffffffffff166c0100000000000000000000000002815260140191505060405160208183030381529060405280519060200120815260200190815260200160002060010154105b156111c6577f4e410000000000000000000000000000000000000000000000000000000000009150600290506112a0565b60006003600033604051602001808273ffffffffffffffffffffffffffffffffffffffff1673ffffffffffffffffffffffffffffffffffffffff166c010000000000000000000000000281526014019150506040516020818303038152906040528051906020012081526020019081526020016000209050600081600301600086815260200190815260200160002090508060010160009054906101000a90047e010000000000000000000000000000000000000000000000000000000000000293508060010160029054906101000a900460ff16925050505b915091565b60008060016002811015156112b657fe5b0160009054906101000a900473ffffffffffffffffffffffffffffffffffffffff1673ffffffffffffffffffffffffffffffffffffffff166370a08231336040518263ffffffff167c0100000000000000000000000000000000000000000000000000000000028152600401808273ffffffffffffffffffffffffffffffffffffffff1673ffffffffffffffffffffffffffffffffffffffff16815260200191505060206040518083038186803b15801561137057600080fd5b505afa158015611384573d6000803e3d6000fd5b505050506040513d602081101561139a57600080fd5b8101908080519060200190929190505050905090565b600033604051602001808273ffffffffffffffffffffffffffffffffffffffff1673ffffffffffffffffffffffffffffffffffffffff166c010000000000000000000000000281526014019150506040516020818303038152906040528051906020012090506000600360008381526020019081526020016000209050600a60ff168560ff161415156114d1576040517f08c379a00000000000000000000000000000000000000000000000000000000081526004018080602001828103825260218152602001807f596f7520446f6573206e6f7420626574203130204d61676e657420546f6b656e81526020017f730000000000000000000000000000000000000000000000000000000000000081525060400191505060405180910390fd5b600a60ff166000806002811015156114e557fe5b0160009054906101000a900473ffffffffffffffffffffffffffffffffffffffff1673ffffffffffffffffffffffffffffffffffffffff166370a08231336040518263ffffffff167c0100000000000000000000000000000000000000000000000000000000028152600401808273ffffffffffffffffffffffffffffffffffffffff1673ffffffffffffffffffffffffffffffffffffffff16815260200191505060206040518083038186803b15801561159f57600080fd5b505afa1580156115b3573d6000803e3d6000fd5b505050506040513d60208110156115c957600080fd5b810190808051906020019092919050505010151515611650576040517f08c379a00000000000000000000000000000000000000000000000000000000081526004018080602001828103825260188152602001807f4e6f7420456e6f756768204d61676e657420546f6b656e73000000000000000081525060200191505060405180910390fd5b600073ffffffffffffffffffffffffffffffffffffffff168160000160009054906101000a900473ffffffffffffffffffffffffffffffffffffffff1673ffffffffffffffffffffffffffffffffffffffff1614156116b3576116b28261206a565b5b600073ffffffffffffffffffffffffffffffffffffffff168160000160009054906101000a900473ffffffffffffffffffffffffffffffffffffffff1673ffffffffffffffffffffffffffffffffffffffff161415151561177c576040517f08c379a00000000000000000000000000000000000000000000000000000000081526004018080602001828103825260188152602001807f4e6f20557365722044617461203a20737461727447616d65000000000000000081525060200191505060405180910390fd5b60018160020160006101000a81548160ff021916908315150217905550600181600101600082825401925050819055506000816003016000836001015481526020019081526020016000209050868160010160006101000a81548161ffff02191690837e010000000000000000000000000000000000000000000000000000000000009004021790555084816000018190555060018160010160026101000a81548160ff0219169083600281111561183057fe5b021790555060008090505b600381101561189457848160038110151561185257fe5b6020020151826002018260038110151561186857fe5b602091828204019190066101000a81548160ff021916908315150217905550808060010191505061183b565b50611902816002016003806020026040519081016040528092919082600380156118f8576020028201916000905b82829054906101000a900460ff161515815260200190600101906020826000010492830192600103820291508084116118c25790505b5050505050610d58565b5060008060028110151561191257fe5b0160009054906101000a900473ffffffffffffffffffffffffffffffffffffffff1673ffffffffffffffffffffffffffffffffffffffff1663a5233b25336040518263ffffffff167c0100000000000000000000000000000000000000000000000000000000028152600401808273ffffffffffffffffffffffffffffffffffffffff1673ffffffffffffffffffffffffffffffffffffffff168152602001915050600060405180830381600087803b1580156119ce57600080fd5b505af11580156119e2573d6000803e3d6000fd5b505050507fc7ac18fce2161ed5213e36b291b3e1338d444d67b7fc2a53f66fb1776ff7b5ae878686856001015460405180857dffffffffffffffffffffffffffffffffffffffffffffffffffffffffffff19167dffffffffffffffffffffffffffffffffffffffffffffffffffffffffffff1916815260200184815260200183600360200280838360005b83811015611a88578082015181840152602081019050611a6d565b5050505090500182815260200194505050505060405180910390a150505050505050565b60008115611e6e57600080600281101515611ac357fe5b0160009054906101000a900473ffffffffffffffffffffffffffffffffffffffff1673ffffffffffffffffffffffffffffffffffffffff166343d2c75284336040518363ffffffff167c010000000000000000000000000000000000000000000000000000000002815260040180837dffffffffffffffffffffffffffffffffffffffffffffffffffffffffffff19167dffffffffffffffffffffffffffffffffffffffffffffffffffffffffffff191681526020018273ffffffffffffffffffffffffffffffffffffffff1673ffffffffffffffffffffffffffffffffffffffff16815260200192505050602060405180830381600087803b158015611bc957600080fd5b505af1158015611bdd573d6000803e3d6000fd5b505050506040513d6020811015611bf357600080fd5b81019080805190602001909291905050501515611c78576040517f08c379a000000000000000000000000000000000000000000000000000000000815260040180806020018281038252601f8152602001807f5265766572742066726f6d204d61676e6574203a20726577617264557365720081525060200191505060405180910390fd5b60006001600281101515611c8857fe5b0160009054906101000a900473ffffffffffffffffffffffffffffffffffffffff1673ffffffffffffffffffffffffffffffffffffffff166343d2c75284336040518363ffffffff167c010000000000000000000000000000000000000000000000000000000002815260040180837dffffffffffffffffffffffffffffffffffffffffffffffffffffffffffff19167dffffffffffffffffffffffffffffffffffffffffffffffffffffffffffff191681526020018273ffffffffffffffffffffffffffffffffffffffff1673ffffffffffffffffffffffffffffffffffffffff16815260200192505050602060405180830381600087803b158015611d8e57600080fd5b505af1158015611da2573d6000803e3d6000fd5b505050506040513d6020811015611db857600080fd5b81019080805190602001909291905050501515611e3d576040517f08c379a00000000000000000000000000000000000000000000000000000000081526004018080602001828103825260208152602001807f5265766572742066726f6d204d61676e657446203a207265776172645573657281525060200191505060405180910390fd5b7fa9b48ba7eb46d59a96fea22bbc7e53c3af344d9c75ee09e78b0f32ca4f8c2a8f60405160405180910390a1612060565b60006001600281101515611e7e57fe5b0160009054906101000a900473ffffffffffffffffffffffffffffffffffffffff1673ffffffffffffffffffffffffffffffffffffffff166343d2c75284336040518363ffffffff167c010000000000000000000000000000000000000000000000000000000002815260040180837dffffffffffffffffffffffffffffffffffffffffffffffffffffffffffff19167dffffffffffffffffffffffffffffffffffffffffffffffffffffffffffff191681526020018273ffffffffffffffffffffffffffffffffffffffff1673ffffffffffffffffffffffffffffffffffffffff16815260200192505050602060405180830381600087803b158015611f8457600080fd5b505af1158015611f98573d6000803e3d6000fd5b505050506040513d6020811015611fae57600080fd5b81019080805190602001909291905050501515612033576040517f08c379a00000000000000000000000000000000000000000000000000000000081526004018080602001828103825260208152602001807f5265766572742066726f6d204d61676e657446203a207265776172645573657281525060200191505060405180910390fd5b7f8fd268e19e11911908022dbdaf0fb3c386fc668c496b50cdf278bb9ea3c0271260405160405180910390a15b6001905092915050565b6000600360008381526020019081526020016000209050338160000160006101000a81548173ffffffffffffffffffffffffffffffffffffffff021916908373ffffffffffffffffffffffffffffffffffffffff1602179055506000816001018190555060008160020160006101000a81548160ff0219169083151502179055507fe8a28dd752e9fdb6ffdd08908cf27efb2415fd5ddfa28abcf0b87bc7178f0ba860405160405180910390a1505056fea165627a7a7230582026d6a7b020d767071984846ee1865b849f529132095e7daff68124c71b71a333002960806040523480156200001157600080fd5b5060405160208062002240833981018060405260208110156200003357600080fd5b8101908080519060200190929190505050806000806101000a81548173ffffffffffffffffffffffffffffffffffffffff021916908373ffffffffffffffffffffffffffffffffffffffff16021790555033600160006101000a81548173ffffffffffffffffffffffffffffffffffffffff021916908373ffffffffffffffffffffffffffffffffffffffff1602179055506040805190810160405280600681526020017f4d61676e657400000000000000000000000000000000000000000000000000008152506002908051906020019062000112929190620001a1565b506040805190810160405280600281526020017f4d470000000000000000000000000000000000000000000000000000000000008152506003908051906020019062000160929190620001a1565b506008600481905550600454600a0a630bebc20002600581905550600454600a0a630bebc20002600681905550655af3107a40006007819055505062000250565b828054600181600116156101000203166002900490600052602060002090601f016020900481019282601f10620001e457805160ff191683800117855562000215565b8280016001018555821562000215579182015b8281111562000214578251825591602001919060010190620001f7565b5b50905062000224919062000228565b5090565b6200024d91905b80821115620002495760008160009055506001016200022f565b5090565b90565b611fe080620002606000396000f3fe6080604052600436106100fc576000357c0100000000000000000000000000000000000000000000000000000000900463ffffffff16806306fdde0314610101578063095ea7b31461019157806323b872dd14610204578063313ce5671461029757806339509351146102c257806343d2c752146103355780634b94f50e146103c957806370a08231146103f45780638da5cb5b1461045957806395d89b41146104b0578063a457c2d714610540578063a5233b25146105b3578063a9059cbb14610604578063c4e41b2214610677578063c625e9b1146106a2578063d92dd1cb14610715578063dd62ed3e14610788578063f77c47911461080d575b600080fd5b34801561010d57600080fd5b50610116610864565b6040518080602001828103825283818151815260200191508051906020019080838360005b8381101561015657808201518184015260208101905061013b565b50505050905090810190601f1680156101835780820380516001836020036101000a031916815260200191505b509250505060405180910390f35b34801561019d57600080fd5b506101ea600480360360408110156101b457600080fd5b81019080803573ffffffffffffffffffffffffffffffffffffffff16906020019092919080359060200190929190505050610902565b604051808215151515815260200191505060405180910390f35b34801561021057600080fd5b5061027d6004803603606081101561022757600080fd5b81019080803573ffffffffffffffffffffffffffffffffffffffff169060200190929190803573ffffffffffffffffffffffffffffffffffffffff16906020019092919080359060200190929190505050610919565b604051808215151515815260200191505060405180910390f35b3480156102a357600080fd5b506102ac6109ca565b6040518082815260200191505060405180910390f35b3480156102ce57600080fd5b5061031b600480360360408110156102e557600080fd5b81019080803573ffffffffffffffffffffffffffffffffffffffff169060200190929190803590602001909291905050506109d0565b604051808215151515815260200191505060405180910390f35b34801561034157600080fd5b506103af6004803603604081101561035857600080fd5b8101908080357dffffffffffffffffffffffffffffffffffffffffffffffffffffffffffff19169060200190929190803573ffffffffffffffffffffffffffffffffffffffff169060200190929190505050610a75565b604051808215151515815260200191505060405180910390f35b3480156103d557600080fd5b506103de610e08565b6040518082815260200191505060405180910390f35b34801561040057600080fd5b506104436004803603602081101561041757600080fd5b81019080803573ffffffffffffffffffffffffffffffffffffffff169060200190929190505050610e12565b6040518082815260200191505060405180910390f35b34801561046557600080fd5b5061046e610e5b565b604051808273ffffffffffffffffffffffffffffffffffffffff1673ffffffffffffffffffffffffffffffffffffffff16815260200191505060405180910390f35b3480156104bc57600080fd5b506104c5610e80565b6040518080602001828103825283818151815260200191508051906020019080838360005b838110156105055780820151818401526020810190506104ea565b50505050905090810190601f1680156105325780820380516001836020036101000a031916815260200191505b509250505060405180910390f35b34801561054c57600080fd5b506105996004803603604081101561056357600080fd5b81019080803573ffffffffffffffffffffffffffffffffffffffff16906020019092919080359060200190929190505050610f1e565b604051808215151515815260200191505060405180910390f35b3480156105bf57600080fd5b50610602600480360360208110156105d657600080fd5b81019080803573ffffffffffffffffffffffffffffffffffffffff169060200190929190505050610fc3565b005b34801561061057600080fd5b5061065d6004803603604081101561062757600080fd5b81019080803573ffffffffffffffffffffffffffffffffffffffff169060200190929190803590602001909291905050506110e6565b604051808215151515815260200191505060405180910390f35b34801561068357600080fd5b5061068c6110fd565b6040518082815260200191505060405180910390f35b3480156106ae57600080fd5b506106fb600480360360408110156106c557600080fd5b8101908080359060200190929190803573ffffffffffffffffffffffffffffffffffffffff169060200190929190505050611107565b604051808215151515815260200191505060405180910390f35b34801561072157600080fd5b5061076e6004803603604081101561073857600080fd5b8101908080359060200190929190803573ffffffffffffffffffffffffffffffffffffffff1690602001909291905050506113fe565b604051808215151515815260200191505060405180910390f35b34801561079457600080fd5b506107f7600480360360408110156107ab57600080fd5b81019080803573ffffffffffffffffffffffffffffffffffffffff169060200190929190803573ffffffffffffffffffffffffffffffffffffffff1690602001909291905050506116ca565b6040518082815260200191505060405180910390f35b34801561081957600080fd5b50610822611751565b604051808273ffffffffffffffffffffffffffffffffffffffff1673ffffffffffffffffffffffffffffffffffffffff16815260200191505060405180910390f35b60028054600181600116156101000203166002900480601f0160208091040260200160405190810160405280929190818152602001828054600181600116156101000203166002900480156108fa5780601f106108cf576101008083540402835291602001916108fa565b820191906000526020600020905b8154815290600101906020018083116108dd57829003601f168201915b505050505081565b600061090f338484611777565b6001905092915050565b60006109268484846119f8565b6109bf84336109ba85600960008a73ffffffffffffffffffffffffffffffffffffffff1673ffffffffffffffffffffffffffffffffffffffff16815260200190815260200160002060003373ffffffffffffffffffffffffffffffffffffffff1673ffffffffffffffffffffffffffffffffffffffff16815260200190815260200160002054611d2290919063ffffffff16565b611777565b600190509392505050565b60045481565b6000610a6b3384610a6685600960003373ffffffffffffffffffffffffffffffffffffffff1673ffffffffffffffffffffffffffffffffffffffff16815260200190815260200160002060008973ffffffffffffffffffffffffffffffffffffffff1673ffffffffffffffffffffffffffffffffffffffff16815260200190815260200160002054611dad90919063ffffffff16565b611777565b6001905092915050565b60008060009054906101000a900473ffffffffffffffffffffffffffffffffffffffff1673ffffffffffffffffffffffffffffffffffffffff163373ffffffffffffffffffffffffffffffffffffffff161480610b1f5750600160009054906101000a900473ffffffffffffffffffffffffffffffffffffffff1673ffffffffffffffffffffffffffffffffffffffff163373ffffffffffffffffffffffffffffffffffffffff16145b1515610b93576040517f08c379a000000000000000000000000000000000000000000000000000000000815260040180806020018281038252601c8152602001807f556e617574686f72697a65642073656e646572203a204d61676e65740000000081525060200191505060405180910390fd5b7f455a0000000000000000000000000000000000000000000000000000000000007dffffffffffffffffffffffffffffffffffffffffffffffffffffffffffff1916837dffffffffffffffffffffffffffffffffffffffffffffffffffffffffffff1916148015610c0a5750610c096007611e37565b5b15610c62576007600860008473ffffffffffffffffffffffffffffffffffffffff1673ffffffffffffffffffffffffffffffffffffffff16815260200190815260200160002060008282540192505081905550610dfe565b7f4e4d0000000000000000000000000000000000000000000000000000000000007dffffffffffffffffffffffffffffffffffffffffffffffffffffffffffff1916837dffffffffffffffffffffffffffffffffffffffffffffffffffffffffffff1916148015610cd95750610cd8600a611e37565b5b15610d3157600a600860008473ffffffffffffffffffffffffffffffffffffffff1673ffffffffffffffffffffffffffffffffffffffff16815260200190815260200160002060008282540192505081905550610dfd565b7f48440000000000000000000000000000000000000000000000000000000000007dffffffffffffffffffffffffffffffffffffffffffffffffffffffffffff1916837dffffffffffffffffffffffffffffffffffffffffffffffffffffffffffff1916148015610da85750610da76014611e37565b5b15610dfc576014600860008473ffffffffffffffffffffffffffffffffffffffff1673ffffffffffffffffffffffffffffffffffffffff168152602001908152602001600020600082825401925050819055505b5b5b6001905092915050565b6000600754905090565b6000600860008373ffffffffffffffffffffffffffffffffffffffff1673ffffffffffffffffffffffffffffffffffffffff168152602001908152602001600020549050919050565b6000809054906101000a900473ffffffffffffffffffffffffffffffffffffffff1681565b60038054600181600116156101000203166002900480601f016020809104026020016040519081016040528092919081815260200182805460018160011615610100020316600290048015610f165780601f10610eeb57610100808354040283529160200191610f16565b820191906000526020600020905b815481529060010190602001808311610ef957829003601f168201915b505050505081565b6000610fb93384610fb485600960003373ffffffffffffffffffffffffffffffffffffffff1673ffffffffffffffffffffffffffffffffffffffff16815260200190815260200160002060008973ffffffffffffffffffffffffffffffffffffffff1673ffffffffffffffffffffffffffffffffffffffff16815260200190815260200160002054611d2290919063ffffffff16565b611777565b6001905092915050565b600a60ff16600860008373ffffffffffffffffffffffffffffffffffffffff1673ffffffffffffffffffffffffffffffffffffffff168152602001908152602001600020541015151561107e576040517f08c379a00000000000000000000000000000000000000000000000000000000081526004018080602001828103825260128152602001807f4e6f7420656e6f7567682042616c616e6365000000000000000000000000000081525060200191505060405180910390fd5b600a60ff16600860008373ffffffffffffffffffffffffffffffffffffffff1673ffffffffffffffffffffffffffffffffffffffff16815260200190815260200160002060008282540392505081905550600a60ff1660066000828254019250508190555050565b60006110f33384846119f8565b6001905092915050565b6000600554905090565b60008060009054906101000a900473ffffffffffffffffffffffffffffffffffffffff1673ffffffffffffffffffffffffffffffffffffffff163373ffffffffffffffffffffffffffffffffffffffff1614806111b15750600160009054906101000a900473ffffffffffffffffffffffffffffffffffffffff1673ffffffffffffffffffffffffffffffffffffffff163373ffffffffffffffffffffffffffffffffffffffff16145b1515611225576040517f08c379a000000000000000000000000000000000000000000000000000000000815260040180806020018281038252601c8152602001807f556e617574686f72697a65642073656e646572203a204d61676e65740000000081525060200191505060405180910390fd5b600860003373ffffffffffffffffffffffffffffffffffffffff1673ffffffffffffffffffffffffffffffffffffffff1681526020019081526020016000205483600860008573ffffffffffffffffffffffffffffffffffffffff1673ffffffffffffffffffffffffffffffffffffffff16815260200190815260200160002054011015151561131d576040517f08c379a00000000000000000000000000000000000000000000000000000000081526004018080602001828103825260108152602001807f4f766572466c6f77204f6363757265640000000000000000000000000000000081525060200191505060405180910390fd5b8260065410151515611397576040517f08c379a000000000000000000000000000000000000000000000000000000000815260040180806020018281038252601c8152602001807f4e6f7420656e6f75676820537570706c6961626c6520546f6b656e730000000081525060200191505060405180910390fd5b82600860008473ffffffffffffffffffffffffffffffffffffffff1673ffffffffffffffffffffffffffffffffffffffff16815260200190815260200160002060008282540192505081905550826006600082825403925050819055506001905092915050565b60008060009054906101000a900473ffffffffffffffffffffffffffffffffffffffff1673ffffffffffffffffffffffffffffffffffffffff163373ffffffffffffffffffffffffffffffffffffffff1614806114a85750600160009054906101000a900473ffffffffffffffffffffffffffffffffffffffff1673ffffffffffffffffffffffffffffffffffffffff163373ffffffffffffffffffffffffffffffffffffffff16145b151561151c576040517f08c379a000000000000000000000000000000000000000000000000000000000815260040180806020018281038252601c8152602001807f556e617574686f72697a65642073656e646572203a204d61676e65740000000081525060200191505060405180910390fd5b82600860008473ffffffffffffffffffffffffffffffffffffffff1673ffffffffffffffffffffffffffffffffffffffff16815260200190815260200160002054101515156115d3576040517f08c379a00000000000000000000000000000000000000000000000000000000081526004018080602001828103825260128152602001807f4e6f7420656e6f7567682042616c616e6365000000000000000000000000000081525060200191505060405180910390fd5b6127108310151515611673576040517f08c379a00000000000000000000000000000000000000000000000000000000081526004018080602001828103825260268152602001807f4e6f74205265616368204d696e696d616c20436f6e646974696f6e3a2031303081526020017f3030204d4654000000000000000000000000000000000000000000000000000081525060400191505060405180910390fd5b82600860008473ffffffffffffffffffffffffffffffffffffffff1673ffffffffffffffffffffffffffffffffffffffff168152602001908152602001600020600082825403925050819055506001905092915050565b6000600960008473ffffffffffffffffffffffffffffffffffffffff1673ffffffffffffffffffffffffffffffffffffffff16815260200190815260200160002060008373ffffffffffffffffffffffffffffffffffffffff1673ffffffffffffffffffffffffffffffffffffffff16815260200190815260200160002054905092915050565b600160009054906101000a900473ffffffffffffffffffffffffffffffffffffffff1681565b600073ffffffffffffffffffffffffffffffffffffffff168373ffffffffffffffffffffffffffffffffffffffff1614151515611842576040517f08c379a00000000000000000000000000000000000000000000000000000000081526004018080602001828103825260248152602001807f45524332303a20617070726f76652066726f6d20746865207a65726f2061646481526020017f726573730000000000000000000000000000000000000000000000000000000081525060400191505060405180910390fd5b600073ffffffffffffffffffffffffffffffffffffffff168273ffffffffffffffffffffffffffffffffffffffff161415151561190d576040517f08c379a00000000000000000000000000000000000000000000000000000000081526004018080602001828103825260228152602001807f45524332303a20617070726f766520746f20746865207a65726f20616464726581526020017f737300000000000000000000000000000000000000000000000000000000000081525060400191505060405180910390fd5b80600960008573ffffffffffffffffffffffffffffffffffffffff1673ffffffffffffffffffffffffffffffffffffffff16815260200190815260200160002060008473ffffffffffffffffffffffffffffffffffffffff1673ffffffffffffffffffffffffffffffffffffffff168152602001908152602001600020819055508173ffffffffffffffffffffffffffffffffffffffff168373ffffffffffffffffffffffffffffffffffffffff167f8c5be1e5ebec7d5bd14f71427d1e84f3dd0314c0f7b2291e5b200ac8c7c3b925836040518082815260200191505060405180910390a3505050565b600073ffffffffffffffffffffffffffffffffffffffff168373ffffffffffffffffffffffffffffffffffffffff1614151515611ac3576040517f08c379a00000000000000000000000000000000000000000000000000000000081526004018080602001828103825260258152602001807f45524332303a207472616e736665722066726f6d20746865207a65726f20616481526020017f647265737300000000000000000000000000000000000000000000000000000081525060400191505060405180910390fd5b600073ffffffffffffffffffffffffffffffffffffffff168273ffffffffffffffffffffffffffffffffffffffff1614151515611b8e576040517f08c379a00000000000000000000000000000000000000000000000000000000081526004018080602001828103825260238152602001807f45524332303a207472616e7366657220746f20746865207a65726f206164647281526020017f657373000000000000000000000000000000000000000000000000000000000081525060400191505060405180910390fd5b611be081600860008673ffffffffffffffffffffffffffffffffffffffff1673ffffffffffffffffffffffffffffffffffffffff16815260200190815260200160002054611d2290919063ffffffff16565b600860008573ffffffffffffffffffffffffffffffffffffffff1673ffffffffffffffffffffffffffffffffffffffff16815260200190815260200160002081905550611c7581600860008573ffffffffffffffffffffffffffffffffffffffff1673ffffffffffffffffffffffffffffffffffffffff16815260200190815260200160002054611dad90919063ffffffff16565b600860008473ffffffffffffffffffffffffffffffffffffffff1673ffffffffffffffffffffffffffffffffffffffff168152602001908152602001600020819055508173ffffffffffffffffffffffffffffffffffffffff168373ffffffffffffffffffffffffffffffffffffffff167fddf252ad1be2c89b69c2b068fc378daa952ba7f163c4a11628f55a4df523b3ef836040518082815260200191505060405180910390a3505050565b6000828211151515611d9c576040517f08c379a000000000000000000000000000000000000000000000000000000000815260040180806020018281038252601e8152602001807f536166654d6174683a207375627472616374696f6e206f766572666c6f77000081525060200191505060405180910390fd5b600082840390508091505092915050565b6000808284019050838110151515611e2d576040517f08c379a000000000000000000000000000000000000000000000000000000000815260040180806020018281038252601b8152602001807f536166654d6174683a206164646974696f6e206f766572666c6f77000000000081525060200191505060405180910390fd5b8091505092915050565b60008160065410151515611eb3576040517f08c379a000000000000000000000000000000000000000000000000000000000815260040180806020018281038252601c8152602001807f4e6f7420656e6f75676820537570706c6961626c6520546f6b656e730000000081525060200191505060405180910390fd5b600860003373ffffffffffffffffffffffffffffffffffffffff1673ffffffffffffffffffffffffffffffffffffffff1681526020019081526020016000205482600860003373ffffffffffffffffffffffffffffffffffffffff1673ffffffffffffffffffffffffffffffffffffffff168152602001908152602001600020540110151515611fab576040517f08c379a00000000000000000000000000000000000000000000000000000000081526004018080602001828103825260108152602001807f4f766572666c6f77204f6363757265640000000000000000000000000000000081525060200191505060405180910390fd5b6001905091905056fea165627a7a7230582017dea00f46db30f97b34871f0dc70e9a91441419c1cbba276bad7465e0552f76002960806040523480156200001157600080fd5b5060405160208062002106833981018060405260208110156200003357600080fd5b8101908080519060200190929190505050806000806101000a81548173ffffffffffffffffffffffffffffffffffffffff021916908373ffffffffffffffffffffffffffffffffffffffff16021790555033600160006101000a81548173ffffffffffffffffffffffffffffffffffffffff021916908373ffffffffffffffffffffffffffffffffffffffff1602179055506040805190810160405280600b81526020017f4d61676e65744669656c64000000000000000000000000000000000000000000815250600290805190602001906200011292919062000194565b506040805190810160405280600381526020017f4d47460000000000000000000000000000000000000000000000000000000000815250600390805190602001906200016092919062000194565b506008600481905550600454600a0a630bebc20002600581905550600454600a0a630bebc200026006819055505062000243565b828054600181600116156101000203166002900490600052602060002090601f016020900481019282601f10620001d757805160ff191683800117855562000208565b8280016001018555821562000208579182015b8281111562000207578251825591602001919060010190620001ea565b5b5090506200021791906200021b565b5090565b6200024091905b808211156200023c57600081600090555060010162000222565b5090565b90565b611eb380620002536000396000f3fe6080604052600436106100f1576000357c0100000000000000000000000000000000000000000000000000000000900463ffffffff16806306fdde03146100f6578063095ea7b3146101865780631c45202d146101f957806323b872dd146102545780632570e31e146102e7578063313ce56714610342578063395093511461036d57806343d2c752146103e057806370a08231146104745780638da5cb5b146104d957806395d89b4114610530578063a457c2d7146105c0578063a9059cbb14610633578063c4e41b22146106a6578063d92dd1cb146106d1578063dd62ed3e14610744578063f77c4791146107c9575b600080fd5b34801561010257600080fd5b5061010b610820565b6040518080602001828103825283818151815260200191508051906020019080838360005b8381101561014b578082015181840152602081019050610130565b50505050905090810190601f1680156101785780820380516001836020036101000a031916815260200191505b509250505060405180910390f35b34801561019257600080fd5b506101df600480360360408110156101a957600080fd5b81019080803573ffffffffffffffffffffffffffffffffffffffff169060200190929190803590602001909291905050506108be565b604051808215151515815260200191505060405180910390f35b34801561020557600080fd5b506102526004803603604081101561021c57600080fd5b8101908080359060200190929190803573ffffffffffffffffffffffffffffffffffffffff1690602001909291905050506108d5565b005b34801561026057600080fd5b506102cd6004803603606081101561027757600080fd5b81019080803573ffffffffffffffffffffffffffffffffffffffff169060200190929190803573ffffffffffffffffffffffffffffffffffffffff169060200190929190803590602001909291905050506109ed565b604051808215151515815260200191505060405180910390f35b3480156102f357600080fd5b506103406004803603604081101561030a57600080fd5b8101908080359060200190929190803573ffffffffffffffffffffffffffffffffffffffff169060200190929190505050610a9e565b005b34801561034e57600080fd5b50610357610c71565b6040518082815260200191505060405180910390f35b34801561037957600080fd5b506103c66004803603604081101561039057600080fd5b81019080803573ffffffffffffffffffffffffffffffffffffffff16906020019092919080359060200190929190505050610c77565b604051808215151515815260200191505060405180910390f35b3480156103ec57600080fd5b5061045a6004803603604081101561040357600080fd5b8101908080357dffffffffffffffffffffffffffffffffffffffffffffffffffffffffffff19169060200190929190803573ffffffffffffffffffffffffffffffffffffffff169060200190929190505050610d1c565b604051808215151515815260200191505060405180910390f35b34801561048057600080fd5b506104c36004803603602081101561049757600080fd5b81019080803573ffffffffffffffffffffffffffffffffffffffff1690602001909291905050506110ee565b6040518082815260200191505060405180910390f35b3480156104e557600080fd5b506104ee611137565b604051808273ffffffffffffffffffffffffffffffffffffffff1673ffffffffffffffffffffffffffffffffffffffff16815260200191505060405180910390f35b34801561053c57600080fd5b5061054561115c565b6040518080602001828103825283818151815260200191508051906020019080838360005b8381101561058557808201518184015260208101905061056a565b50505050905090810190601f1680156105b25780820380516001836020036101000a031916815260200191505b509250505060405180910390f35b3480156105cc57600080fd5b50610619600480360360408110156105e357600080fd5b81019080803573ffffffffffffffffffffffffffffffffffffffff169060200190929190803590602001909291905050506111fa565b604051808215151515815260200191505060405180910390f35b34801561063f57600080fd5b5061068c6004803603604081101561065657600080fd5b81019080803573ffffffffffffffffffffffffffffffffffffffff1690602001909291908035906020019092919050505061129f565b604051808215151515815260200191505060405180910390f35b3480156106b257600080fd5b506106bb6112b6565b6040518082815260200191505060405180910390f35b3480156106dd57600080fd5b5061072a600480360360408110156106f457600080fd5b8101908080359060200190929190803573ffffffffffffffffffffffffffffffffffffffff1690602001909291905050506112c0565b604051808215151515815260200191505060405180910390f35b34801561075057600080fd5b506107b36004803603604081101561076757600080fd5b81019080803573ffffffffffffffffffffffffffffffffffffffff169060200190929190803573ffffffffffffffffffffffffffffffffffffffff16906020019092919050505061159c565b6040518082815260200191505060405180910390f35b3480156107d557600080fd5b506107de611623565b604051808273ffffffffffffffffffffffffffffffffffffffff1673ffffffffffffffffffffffffffffffffffffffff16815260200191505060405180910390f35b60028054600181600116156101000203166002900480601f0160208091040260200160405190810160405280929190818152602001828054600181600116156101000203166002900480156108b65780601f1061088b576101008083540402835291602001916108b6565b820191906000526020600020905b81548152906001019060200180831161089957829003601f168201915b505050505081565b60006108cb338484611649565b6001905092915050565b81600860008373ffffffffffffffffffffffffffffffffffffffff1673ffffffffffffffffffffffffffffffffffffffff168152602001908152602001600020541015151561098c576040517f08c379a00000000000000000000000000000000000000000000000000000000081526004018080602001828103825260128152602001807f4e6f7420656e6f7567682042616c616e6365000000000000000000000000000081525060200191505060405180910390fd5b81600860008373ffffffffffffffffffffffffffffffffffffffff1673ffffffffffffffffffffffffffffffffffffffff16815260200190815260200160002060008282540392505081905550816006600082825401925050819055505050565b60006109fa8484846118ca565b610a938433610a8e85600960008a73ffffffffffffffffffffffffffffffffffffffff1673ffffffffffffffffffffffffffffffffffffffff16815260200190815260200160002060003373ffffffffffffffffffffffffffffffffffffffff1673ffffffffffffffffffffffffffffffffffffffff16815260200190815260200160002054611bf490919063ffffffff16565b611649565b600190509392505050565b8160065410151515610b18576040517f08c379a000000000000000000000000000000000000000000000000000000000815260040180806020018281038252601c8152602001807f4e6f7420656e6f75676820537570706c6961626c6520546f6b656e730000000081525060200191505060405180910390fd5b600860008273ffffffffffffffffffffffffffffffffffffffff1673ffffffffffffffffffffffffffffffffffffffff1681526020019081526020016000205482600860008473ffffffffffffffffffffffffffffffffffffffff1673ffffffffffffffffffffffffffffffffffffffff168152602001908152602001600020540110151515610c10576040517f08c379a00000000000000000000000000000000000000000000000000000000081526004018080602001828103825260108152602001807f4f766572666c6f77204f6363757265640000000000000000000000000000000081525060200191505060405180910390fd5b81600860008373ffffffffffffffffffffffffffffffffffffffff1673ffffffffffffffffffffffffffffffffffffffff16815260200190815260200160002060008282540192505081905550816006600082825403925050819055505050565b60045481565b6000610d123384610d0d85600960003373ffffffffffffffffffffffffffffffffffffffff1673ffffffffffffffffffffffffffffffffffffffff16815260200190815260200160002060008973ffffffffffffffffffffffffffffffffffffffff1673ffffffffffffffffffffffffffffffffffffffff16815260200190815260200160002054611c7f90919063ffffffff16565b611649565b6001905092915050565b60008060009054906101000a900473ffffffffffffffffffffffffffffffffffffffff1673ffffffffffffffffffffffffffffffffffffffff163373ffffffffffffffffffffffffffffffffffffffff161480610dc65750600160009054906101000a900473ffffffffffffffffffffffffffffffffffffffff1673ffffffffffffffffffffffffffffffffffffffff163373ffffffffffffffffffffffffffffffffffffffff16145b1515610e3a576040517f08c379a00000000000000000000000000000000000000000000000000000000081526004018080602001828103825260138152602001807f556e617574686f72697a65642073656e6465720000000000000000000000000081525060200191505060405180910390fd5b7f455a0000000000000000000000000000000000000000000000000000000000007dffffffffffffffffffffffffffffffffffffffffffffffffffffffffffff1916837dffffffffffffffffffffffffffffffffffffffffffffffffffffffffffff1916148015610eb35750610eb26102bc83611d09565b5b15610f1e576102bc600860008473ffffffffffffffffffffffffffffffffffffffff1673ffffffffffffffffffffffffffffffffffffffff168152602001908152602001600020600082825401925050819055506102bc6006600082825403925050819055506110e4565b7f4e4d0000000000000000000000000000000000000000000000000000000000007dffffffffffffffffffffffffffffffffffffffffffffffffffffffffffff1916837dffffffffffffffffffffffffffffffffffffffffffffffffffffffffffff1916148015610f975750610f966103e883611d09565b5b15611002576103e8600860008473ffffffffffffffffffffffffffffffffffffffff1673ffffffffffffffffffffffffffffffffffffffff168152602001908152602001600020600082825401925050819055506103e86006600082825403925050819055506110e3565b7f48440000000000000000000000000000000000000000000000000000000000007dffffffffffffffffffffffffffffffffffffffffffffffffffffffffffff1916837dffffffffffffffffffffffffffffffffffffffffffffffffffffffffffff191614801561107b575061107a6107d083611d09565b5b156110e2576107d0600860008473ffffffffffffffffffffffffffffffffffffffff1673ffffffffffffffffffffffffffffffffffffffff168152602001908152602001600020600082825401925050819055506107d06006600082825403925050819055505b5b5b6001905092915050565b6000600860008373ffffffffffffffffffffffffffffffffffffffff1673ffffffffffffffffffffffffffffffffffffffff168152602001908152602001600020549050919050565b6000809054906101000a900473ffffffffffffffffffffffffffffffffffffffff1681565b60038054600181600116156101000203166002900480601f0160208091040260200160405190810160405280929190818152602001828054600181600116156101000203166002900480156111f25780601f106111c7576101008083540402835291602001916111f2565b820191906000526020600020905b8154815290600101906020018083116111d557829003601f168201915b505050505081565b6000611295338461129085600960003373ffffffffffffffffffffffffffffffffffffffff1673ffffffffffffffffffffffffffffffffffffffff16815260200190815260200160002060008973ffffffffffffffffffffffffffffffffffffffff1673ffffffffffffffffffffffffffffffffffffffff16815260200190815260200160002054611bf490919063ffffffff16565b611649565b6001905092915050565b60006112ac3384846118ca565b6001905092915050565b6000600554905090565b60008060009054906101000a900473ffffffffffffffffffffffffffffffffffffffff1673ffffffffffffffffffffffffffffffffffffffff163373ffffffffffffffffffffffffffffffffffffffff16148061136a5750600160009054906101000a900473ffffffffffffffffffffffffffffffffffffffff1673ffffffffffffffffffffffffffffffffffffffff163373ffffffffffffffffffffffffffffffffffffffff16145b15156113de576040517f08c379a00000000000000000000000000000000000000000000000000000000081526004018080602001828103825260138152602001807f556e617574686f72697a65642073656e6465720000000000000000000000000081525060200191505060405180910390fd5b82600860008473ffffffffffffffffffffffffffffffffffffffff1673ffffffffffffffffffffffffffffffffffffffff1681526020019081526020016000205410151515611495576040517f08c379a00000000000000000000000000000000000000000000000000000000081526004018080602001828103825260128152602001807f4e6f7420656e6f7567682042616c616e6365000000000000000000000000000081525060200191505060405180910390fd5b6127108310151515611535576040517f08c379a00000000000000000000000000000000000000000000000000000000081526004018080602001828103825260268152602001807f4e6f74205265616368204d696e696d616c20436f6e646974696f6e3a2031303081526020017f3030204d4654000000000000000000000000000000000000000000000000000081525060400191505060405180910390fd5b82600860008473ffffffffffffffffffffffffffffffffffffffff1673ffffffffffffffffffffffffffffffffffffffff16815260200190815260200160002060008282540392505081905550826006600082825401925050819055506001905092915050565b6000600960008473ffffffffffffffffffffffffffffffffffffffff1673ffffffffffffffffffffffffffffffffffffffff16815260200190815260200160002060008373ffffffffffffffffffffffffffffffffffffffff1673ffffffffffffffffffffffffffffffffffffffff16815260200190815260200160002054905092915050565b600160009054906101000a900473ffffffffffffffffffffffffffffffffffffffff1681565b600073ffffffffffffffffffffffffffffffffffffffff168373ffffffffffffffffffffffffffffffffffffffff1614151515611714576040517f08c379a00000000000000000000000000000000000000000000000000000000081526004018080602001828103825260248152602001807f45524332303a20617070726f76652066726f6d20746865207a65726f2061646481526020017f726573730000000000000000000000000000000000000000000000000000000081525060400191505060405180910390fd5b600073ffffffffffffffffffffffffffffffffffffffff168273ffffffffffffffffffffffffffffffffffffffff16141515156117df576040517f08c379a00000000000000000000000000000000000000000000000000000000081526004018080602001828103825260228152602001807f45524332303a20617070726f766520746f20746865207a65726f20616464726581526020017f737300000000000000000000000000000000000000000000000000000000000081525060400191505060405180910390fd5b80600960008573ffffffffffffffffffffffffffffffffffffffff1673ffffffffffffffffffffffffffffffffffffffff16815260200190815260200160002060008473ffffffffffffffffffffffffffffffffffffffff1673ffffffffffffffffffffffffffffffffffffffff168152602001908152602001600020819055508173ffffffffffffffffffffffffffffffffffffffff168373ffffffffffffffffffffffffffffffffffffffff167f8c5be1e5ebec7d5bd14f71427d1e84f3dd0314c0f7b2291e5b200ac8c7c3b925836040518082815260200191505060405180910390a3505050565b600073ffffffffffffffffffffffffffffffffffffffff168373ffffffffffffffffffffffffffffffffffffffff1614151515611995576040517f08c379a00000000000000000000000000000000000000000000000000000000081526004018080602001828103825260258152602001807f45524332303a207472616e736665722066726f6d20746865207a65726f20616481526020017f647265737300000000000000000000000000000000000000000000000000000081525060400191505060405180910390fd5b600073ffffffffffffffffffffffffffffffffffffffff168273ffffffffffffffffffffffffffffffffffffffff1614151515611a60576040517f08c379a00000000000000000000000000000000000000000000000000000000081526004018080602001828103825260238152602001807f45524332303a207472616e7366657220746f20746865207a65726f206164647281526020017f657373000000000000000000000000000000000000000000000000000000000081525060400191505060405180910390fd5b611ab281600860008673ffffffffffffffffffffffffffffffffffffffff1673ffffffffffffffffffffffffffffffffffffffff16815260200190815260200160002054611bf490919063ffffffff16565b600860008573ffffffffffffffffffffffffffffffffffffffff1673ffffffffffffffffffffffffffffffffffffffff16815260200190815260200160002081905550611b4781600860008573ffffffffffffffffffffffffffffffffffffffff1673ffffffffffffffffffffffffffffffffffffffff16815260200190815260200160002054611c7f90919063ffffffff16565b600860008473ffffffffffffffffffffffffffffffffffffffff1673ffffffffffffffffffffffffffffffffffffffff168152602001908152602001600020819055508173ffffffffffffffffffffffffffffffffffffffff168373ffffffffffffffffffffffffffffffffffffffff167fddf252ad1be2c89b69c2b068fc378daa952ba7f163c4a11628f55a4df523b3ef836040518082815260200191505060405180910390a3505050565b6000828211151515611c6e576040517f08c379a000000000000000000000000000000000000000000000000000000000815260040180806020018281038252601e8152602001807f536166654d6174683a207375627472616374696f6e206f766572666c6f77000081525060200191505060405180910390fd5b600082840390508091505092915050565b6000808284019050838110151515611cff576040517f08c379a000000000000000000000000000000000000000000000000000000000815260040180806020018281038252601b8152602001807f536166654d6174683a206164646974696f6e206f766572666c6f77000000000081525060200191505060405180910390fd5b8091505092915050565b60008260065410151515611d85576040517f08c379a000000000000000000000000000000000000000000000000000000000815260040180806020018281038252601c8152602001807f4e6f7420656e6f75676820537570706c6961626c6520546f6b656e730000000081525060200191505060405180910390fd5b600860008373ffffffffffffffffffffffffffffffffffffffff1673ffffffffffffffffffffffffffffffffffffffff1681526020019081526020016000205483600860008573ffffffffffffffffffffffffffffffffffffffff1673ffffffffffffffffffffffffffffffffffffffff168152602001908152602001600020540110151515611e7d576040517f08c379a00000000000000000000000000000000000000000000000000000000081526004018080602001828103825260108152602001807f4f766572666c6f77204f6363757265640000000000000000000000000000000081525060200191505060405180910390fd5b600190509291505056fea165627a7a7230582056af55a63e99ce89a5b9e27f7bbd9558afe96136bd07d5ba3f098c4423da4a660029",
  "source": "pragma solidity ^0.5.0;\r\n\r\nimport './Magnet.sol';\r\nimport './MagnetField.sol';\r\n\r\n// ganache-cli -l 8000000\r\ncontract GameController {\r\n\r\n    // variables\r\n    address[2] private tokensAddr;\r\n    address payable public owner;\r\n\r\n    mapping (bytes32 => UserInfo) public users;\r\n\r\n    // user DB structure\r\n    struct GameLog { // use for game log!\r\n        bytes32 gameHex; // use for transparency. (when start the game, )\r\n        bytes2 difficulty; // EZ, NM, HD - necessary?\r\n        GameResult result; //default : LOSE ***WIN/LOSE/ 2 (NOT FOUND)\r\n        bool[3] useItem; //default: false(SHIELD), false(FirstCell), false(ShowMap)\r\n    }\r\n\r\n    struct UserInfo {\r\n        address gamerID; // User account address\r\n        uint256 totalGameCount;  // to tracking recent gameResult.\r\n        bool isPlaying; // check progress of the game\r\n        // bool isExistUser;\r\n        mapping (uint256 => GameLog) logs; // start from 0 to N.... (game result log)\r\n    }\r\n\r\n    constructor() public {\r\n        owner = msg.sender;\r\n        tokensAddr[0] = address(new Magnet(msg.sender));\r\n        tokensAddr[1] = address(new MagnetField(msg.sender));\r\n    }\r\n\r\n\r\n    // https://ethereum.stackexchange.com/questions/7713/how-does-mapping-work (.. mapping  )\r\n\r\n    // constants\r\n    uint8 constant internal BET_TOKEN_AMOUNT = 10;\r\n    uint256 constant internal LEAST_EXCHANGE_AMOUNT = 10000;\r\n\r\n    enum ItemLists { Shield, FirstCell, ShowMap } // check item uselist...\r\n    enum GameResult { WIN, LOSE, NOT_FOUND } // 0: WIN, 1: LOSE\r\n\r\n    // Event Lists\r\n\r\n    // when users start the game\r\n    event START(bytes2 difficulty, bytes32 gameHex, bool[3] useItem, uint256 totalGameCount); //BombHex -> keccak256(bombCoords)\r\n\r\n    // event START_ERR_ITEM();\r\n    // event START_ERR_TOKEN();\r\n\r\n    // when the game is over.\r\n    event WIN();\r\n    event LOSE();\r\n    event REGISTER();\r\n\r\n\r\n    function buyMagnet() public payable returns (bool) {\r\n        uint256 amount = msg.value / Magnet(tokensAddr[0]).getTokenPrice();\r\n        Magnet(tokensAddr[0]).buyTokens(amount, msg.sender);\r\n    }\r\n\r\n    function getMagnetBalance() public view returns (uint256) {\r\n        return Magnet(tokensAddr[0]).balanceOf(msg.sender);\r\n    }\r\n\r\n    function getMagnetFieldBalance() public view returns (uint256) {\r\n        return MagnetField(tokensAddr[1]).balanceOf(msg.sender);\r\n    }\r\n    /**\r\n     * @dev         DB  .\r\n     *struct UserInfo {\r\n     * address payable gamerID; // User account address\r\n     * uint256 totalGameCount;  // to tracking recent GameResult.\r\n     * mapping (uint256 => GameResult) results; // start from 0 to N.... (game result log)\r\n     * bool isPlaying;\r\n     *}\r\n     */\r\n    function register(bytes32 userIdentificator) private {\r\n        UserInfo storage user = users[userIdentificator];\r\n\r\n        user.gamerID = msg.sender;\r\n        user.totalGameCount = 0;\r\n        user.isPlaying = false;\r\n        // user.isExistUser = true;\r\n\r\n        emit REGISTER();\r\n    }\r\n\r\n    /**\r\n     * @dev        MagnetField  .\r\n     * @param _useItems        parameter\r\n     * @return    true .\r\n     */\r\n    function useItems(bool[3] memory _useItems) public returns (uint256){ // internal  \r\n        uint256 totalItemCost = 0;\r\n        if(_useItems[0]) totalItemCost += 7000;\r\n        if(_useItems[1]) totalItemCost += 10000;\r\n        if(_useItems[2]) totalItemCost += 20000;\r\n        if(totalItemCost != 0) {\r\n            MagnetField(tokensAddr[1]).buyItems(totalItemCost, msg.sender);\r\n        }\r\n        return totalItemCost;\r\n    }\r\n    /**\r\n     * @dev             START  .\r\n     *struct UserInfo {\r\n     * address payable gamerID; // User account address\r\n     * uint256 totalGameCount;  // to tracking recent GameResult.\r\n     * mapping (uint256 => GameResult) results; // start from 0 to N.... (game result log)\r\n     * bool isPlaying;\r\n     * bool isExistUser;\r\n     *}\r\n     *\r\n     *\r\n     *struct GameResult { // use for game log!\r\n     * bytes32 gameHex; // use for transparency. (when start the game, )\r\n     * bytes2 difficulty; // EZ, NM, HD - necessary?\r\n     * bool isWinner; //default : false ***true: win the game, false: lose the game\r\n     * bool useItem; //default: false\r\n     *}\r\n     * @param _difficulty   front-end .\r\n     * @param _gameCost    Magnet   front-end .\r\n     * @param _gameHex  transparency  sha256 value front-end .\r\n     * @param _gameCost    Magnet   front-end .\r\n     */\r\n    function startGame(bytes2 _difficulty, uint8 _gameCost, bytes32  _gameHex, bool[3] memory _useItem) public{\r\n        bytes32 userIdentificator = keccak256(abi.encodePacked(msg.sender));\r\n        UserInfo storage user = users[userIdentificator];\r\n\r\n        require(_gameCost == BET_TOKEN_AMOUNT, \"You Does not bet 10 Magnet Tokens\"); // Is gameCost same as the BET_TOKEN_AMOUNT\r\n        require(Magnet(tokensAddr[0]).balanceOf(msg.sender) >= BET_TOKEN_AMOUNT, \"Not Enough Magnet Tokens\"); // check Magnet balance of Users.\r\n        if(user.gamerID == address(0)) { // No User Data (Newbie)\r\n            register(userIdentificator);\r\n        }\r\n\r\n        //double check user existence\r\n        require(user.gamerID != address(0), \"No User Data : startGame\");\r\n        // change isPlaying flag and update totalGameCount\r\n        user.isPlaying = true;\r\n        user.totalGameCount += 1;\r\n\r\n        // write game log\r\n        GameLog storage log = user.logs[user.totalGameCount];\r\n        log.difficulty = _difficulty;\r\n        log.gameHex = _gameHex;\r\n        log.result = GameResult.LOSE;\r\n\r\n        for (uint i = 0 ; i < 3; i++) {\r\n            log.useItem[i] = _useItem[i];\r\n        }\r\n\r\n        // decrease MagnetField (if use items)\r\n        useItems(log.useItem);\r\n\r\n        // substract 10 Magnet Tokens\r\n        Magnet(tokensAddr[0]).payToGamePlay(msg.sender);\r\n        emit START(_difficulty, _gameHex, _useItem, user.totalGameCount);\r\n    }\r\n\r\n\r\n    /**\r\n     * @dev           LOSE  ..\r\n     * @param _gameHex        .\r\n     * @param _isWinner      bool parameter\r\n     */\r\n    function endGame(bytes32 _gameHex, bool _isWinner) public {\r\n        bytes32 userIdentificator = keccak256(abi.encodePacked(msg.sender));\r\n        UserInfo storage user = users[userIdentificator];\r\n\r\n        // check user is in contract's database.\r\n        require(user.gamerID != address(0), \"No User Data: endGame\");\r\n\r\n        GameLog storage log = user.logs[user.totalGameCount];\r\n        // _gameHex recheck(compare with log's hex value :: RECENT GAME!!)\r\n\r\n        require(log.gameHex == _gameHex, \"No such Game in logs: endGame\");\r\n\r\n        //update game result. and reward to users depending on the result of final game.\r\n       // ture : WIN, false : LOSE [get values from front-end game]\r\n       if(_isWinner){\r\n            log.result = GameResult.WIN;\r\n        } else {\r\n            log.result = GameResult.LOSE;\r\n        }\r\n\r\n        rewardUser(log.difficulty, _isWinner);\r\n        // Magnet  MagnetField...\r\n\r\n    }\r\n\r\n    /**\r\n     * @dev     \r\n     * @return     true .\r\n     */\r\n    function rewardUser(bytes2 _difficulty, bool _isWinner) internal returns (bool) {\r\n        if(_isWinner) {\r\n            require(Magnet(tokensAddr[0]).rewardTokens(_difficulty, msg.sender), \"Revert from Magnet : rewardUser\");\r\n            require(MagnetField(tokensAddr[1]).rewardTokens(_difficulty, msg.sender), \"Revert from MagnetF : rewardUser\");\r\n            emit WIN();\r\n        } else {\r\n            require(MagnetField(tokensAddr[1]).rewardTokens(_difficulty, msg.sender), \"Revert from MagnetF : rewardUser\");\r\n            emit LOSE();\r\n        }\r\n        return true;\r\n    }\r\n\r\n    /**\r\n     * @dev     \r\n     * @return     true .\r\n     */\r\n    // function rewardLoser(bytes2 _difficulty) internal returns (bool) {\r\n    //     require(MagnetField(tokensAddr[1]).rewardTokens(_difficulty, msg.sender), \"Revert from MagnetF : rewardLoser\");\r\n    //     return true;\r\n    // }\r\n\r\n\r\n    /**\r\n     * @dev      .\r\n     * @return     .\r\n     */\r\n    // function getTotalGameCount() public view returns (uint256) {\r\n    //     UserInfo memory user = users[keccak256(abi.encodePacked(msg.sender))];\r\n    //     return user.totalGameCount;\r\n    // }\r\n\r\n    /**\r\n     * @dev  (index)   .\r\n     *      Solidity   mapping     index .\r\n     *      for loop front-end     .\r\n     *      getTotalGameCount()  front-end      for loop \r\n     *       .\r\n     * @param index   \r\n     * @return    .\r\n     */\r\n    function getGameResults(uint256 index) public view returns (bytes2 difficulty, GameResult result) {\r\n        if (users[keccak256(abi.encodePacked(msg.sender))].gamerID == address(0) ||\r\n            users[keccak256(abi.encodePacked(msg.sender))].totalGameCount < index) {\r\n            difficulty = bytes2(\"NA\");\r\n            result = GameResult.NOT_FOUND;\r\n        } else {\r\n            UserInfo storage user = users[keccak256(abi.encodePacked(msg.sender))];\r\n            GameLog storage log = user.logs[index];\r\n\r\n            difficulty = log.difficulty;\r\n            result = log.result;\r\n        }\r\n    }\r\n\r\n    /**\r\n     * @dev MagnetField  Magnet   .\r\n     * @return  transaction   true .\r\n     */\r\n     function exchangeTokens(uint256 amount) public returns (bool) {\r\n        require(MagnetField(tokensAddr[1]).exchangeTokens(amount, msg.sender),\"Revert from MagnetF : exchangeTokens\"); // magnetField  .\r\n        require(Magnet(tokensAddr[0]).exchangeTokens(amount, msg.sender), \"Revert from Magnet : exchangeTokens\"); // magnet  .\r\n        return true;\r\n     }\r\n\r\n    /*\r\n     *struct UserInfo {\r\n     * address payable gamerID; // User account address\r\n     * uint256 totalGameCount;  // to tracking recent GameResult.\r\n     * mapping (uint256 => GameResult) results; // start from 0 to N.... (game result log)\r\n     * bool isPlaying;\r\n     *}\r\n     */\r\n     function getUserInfo() public view returns (address _gamerID, uint256 _totalGameCount) {\r\n        UserInfo storage user = users[keccak256(abi.encodePacked(msg.sender))];\r\n        _gamerID = user.gamerID;\r\n        _totalGameCount = user.totalGameCount;\r\n     }\r\n}",
  "sourcePath": "C:/Users/khw64/OneDrive//GitHub/MineSweeperDApp/contracts/GameController.sol",
  "compiler": {
    "name": "solc",
    "version": "0.5.0+commit.1d4f565a.Emscripten.clang"
  },
  "schemaVersion": "3.0.3",
  "updatedAt": "2019-08-15T07:10:32.528Z",
  "devdoc": {
    "methods": {
      "endGame(bytes32,bool)": {
        "details": "          LOSE  ..\r",
        "params": {
          "_gameHex": "       .\r",
          "_isWinner": "     bool parameter\r"
        }
      },
      "exchangeTokens(uint256)": {
        "details": "MagnetField  Magnet   .\r",
        "return": " transaction   true .\r"
      },
      "getGameResults(uint256)": {
        "details": " (index)   .\r     Solidity   mapping     index .\r     for loop front-end     .\r     getTotalGameCount()  front-end      for loop \r      .\r",
        "params": {
          "index": " \r"
        },
        "return": "   .\r"
      },
      "startGame(bytes2,uint8,bytes32,bool[3])": {
        "details": "            START  .\r truct UserInfo {\r address payable gamerID; // User account address\r uint256 totalGameCount;  // to tracking recent GameResult.\r mapping (uint256 => GameResult) results; // start from 0 to N.... (game result log)\r bool isPlaying;\r bool isExistUser;\r \r      *\r truct GameResult { // use for game log!\r bytes32 gameHex; // use for transparency. (when start the game, )\r bytes2 difficulty; // EZ, NM, HD - necessary?\r bool isWinner; //default : false ***true: win the game, false: lose the game\r bool useItem; //default: false\r \r",
        "params": {
          "_difficulty": "  front-end .\r",
          "_gameCost": "   Magnet   front-end .\r",
          "_gameHex": " transparency  sha256 value front-end .\r"
        }
      },
      "useItems(bool[3])": {
        "details": "       MagnetField  .\r",
        "params": {
          "_useItems": "       parameter\r"
        },
        "return": "   true .\r"
      }
    }
  },
  "userdoc": {
    "methods": {}
  }
}