{
  "contractName": "GameController",
  "abi": [
    {
      "constant": true,
      "inputs": [],
      "name": "owner",
      "outputs": [
        {
          "name": "",
          "type": "address"
        }
      ],
      "payable": false,
      "stateMutability": "view",
      "type": "function",
      "signature": "0x8da5cb5b"
    },
    {
      "constant": true,
      "inputs": [
        {
          "name": "",
          "type": "bytes32"
        }
      ],
      "name": "users",
      "outputs": [
        {
          "name": "gamerID",
          "type": "address"
        },
        {
          "name": "totalGameCount",
          "type": "uint256"
        },
        {
          "name": "isPlaying",
          "type": "bool"
        }
      ],
      "payable": false,
      "stateMutability": "view",
      "type": "function",
      "signature": "0xcea6ab98"
    },
    {
      "inputs": [],
      "payable": false,
      "stateMutability": "nonpayable",
      "type": "constructor",
      "signature": "constructor"
    },
    {
      "anonymous": false,
      "inputs": [
        {
          "indexed": false,
          "name": "difficulty",
          "type": "bytes2"
        },
        {
          "indexed": false,
          "name": "gameHex",
          "type": "bytes32"
        },
        {
          "indexed": false,
          "name": "useItem",
          "type": "bool[3]"
        },
        {
          "indexed": false,
          "name": "totalGameCount",
          "type": "uint256"
        }
      ],
      "name": "START",
      "type": "event",
      "signature": "0xc7ac18fce2161ed5213e36b291b3e1338d444d67b7fc2a53f66fb1776ff7b5ae"
    },
    {
      "anonymous": false,
      "inputs": [],
      "name": "WIN",
      "type": "event",
      "signature": "0xa9b48ba7eb46d59a96fea22bbc7e53c3af344d9c75ee09e78b0f32ca4f8c2a8f"
    },
    {
      "anonymous": false,
      "inputs": [],
      "name": "LOSE",
      "type": "event",
      "signature": "0x8fd268e19e11911908022dbdaf0fb3c386fc668c496b50cdf278bb9ea3c02712"
    },
    {
      "anonymous": false,
      "inputs": [],
      "name": "REGISTER",
      "type": "event",
      "signature": "0xe8a28dd752e9fdb6ffdd08908cf27efb2415fd5ddfa28abcf0b87bc7178f0ba8"
    },
    {
      "constant": false,
      "inputs": [],
      "name": "buyMagnet",
      "outputs": [
        {
          "name": "",
          "type": "bool"
        }
      ],
      "payable": true,
      "stateMutability": "payable",
      "type": "function",
      "signature": "0x083c3daa"
    },
    {
      "constant": false,
      "inputs": [
        {
          "name": "sellAmount",
          "type": "uint256"
        }
      ],
      "name": "sellMagnet",
      "outputs": [
        {
          "name": "",
          "type": "bool"
        }
      ],
      "payable": true,
      "stateMutability": "payable",
      "type": "function",
      "signature": "0xc20dd1a0"
    },
    {
      "constant": false,
      "inputs": [],
      "name": "buyMagnetField",
      "outputs": [
        {
          "name": "",
          "type": "bool"
        }
      ],
      "payable": true,
      "stateMutability": "payable",
      "type": "function",
      "signature": "0xa90b6839"
    },
    {
      "constant": true,
      "inputs": [],
      "name": "getMagnetBalance",
      "outputs": [
        {
          "name": "",
          "type": "uint256"
        }
      ],
      "payable": false,
      "stateMutability": "view",
      "type": "function",
      "signature": "0xb6d991cf"
    },
    {
      "constant": true,
      "inputs": [],
      "name": "getMagnetFieldBalance",
      "outputs": [
        {
          "name": "",
          "type": "uint256"
        }
      ],
      "payable": false,
      "stateMutability": "view",
      "type": "function",
      "signature": "0xdfef09d9"
    },
    {
      "constant": false,
      "inputs": [
        {
          "name": "_useItems",
          "type": "bool[3]"
        }
      ],
      "name": "useItems",
      "outputs": [
        {
          "name": "",
          "type": "uint256"
        }
      ],
      "payable": false,
      "stateMutability": "nonpayable",
      "type": "function",
      "signature": "0x801330aa"
    },
    {
      "constant": false,
      "inputs": [
        {
          "name": "_difficulty",
          "type": "bytes2"
        },
        {
          "name": "_gameCost",
          "type": "uint8"
        },
        {
          "name": "_gameHex",
          "type": "bytes32"
        },
        {
          "name": "_useItem",
          "type": "bool[3]"
        }
      ],
      "name": "startGame",
      "outputs": [],
      "payable": false,
      "stateMutability": "nonpayable",
      "type": "function",
      "signature": "0xf598963e"
    },
    {
      "constant": false,
      "inputs": [
        {
          "name": "_gameHex",
          "type": "bytes32"
        },
        {
          "name": "_isWinner",
          "type": "bool"
        }
      ],
      "name": "endGame",
      "outputs": [],
      "payable": false,
      "stateMutability": "nonpayable",
      "type": "function",
      "signature": "0x78df5b40"
    },
    {
      "constant": true,
      "inputs": [],
      "name": "getTotalGameCount",
      "outputs": [
        {
          "name": "",
          "type": "uint256"
        }
      ],
      "payable": false,
      "stateMutability": "view",
      "type": "function",
      "signature": "0xa8667b3c"
    },
    {
      "constant": true,
      "inputs": [
        {
          "name": "index",
          "type": "uint256"
        }
      ],
      "name": "getGameResults",
      "outputs": [
        {
          "name": "difficulty",
          "type": "bytes2"
        },
        {
          "name": "gameHex",
          "type": "bytes32"
        },
        {
          "name": "result",
          "type": "uint8"
        }
      ],
      "payable": false,
      "stateMutability": "view",
      "type": "function",
      "signature": "0xdcef63eb"
    },
    {
      "constant": false,
      "inputs": [
        {
          "name": "_amount",
          "type": "uint256"
        }
      ],
      "name": "exchangeTokens",
      "outputs": [
        {
          "name": "",
          "type": "bool"
        }
      ],
      "payable": false,
      "stateMutability": "nonpayable",
      "type": "function",
      "signature": "0x40477126"
    },
    {
      "constant": true,
      "inputs": [],
      "name": "getUserInfo",
      "outputs": [
        {
          "name": "_gamerID",
          "type": "address"
        },
        {
          "name": "_totalGameCount",
          "type": "uint256"
        }
      ],
      "payable": false,
      "stateMutability": "view",
      "type": "function",
      "signature": "0x5d8d1585"
    }
  ],
  "bytecode": "0x60806040523480156200001157600080fd5b5033600260006101000a81548173ffffffffffffffffffffffffffffffffffffffff021916908373ffffffffffffffffffffffffffffffffffffffff160217905550336200005e620001b6565b808273ffffffffffffffffffffffffffffffffffffffff1673ffffffffffffffffffffffffffffffffffffffff168152602001915050604051809103906000f080158015620000b1573d6000803e3d6000fd5b50600080600281101515620000c257fe5b0160006101000a81548173ffffffffffffffffffffffffffffffffffffffff021916908373ffffffffffffffffffffffffffffffffffffffff160217905550336200010c620001c7565b808273ffffffffffffffffffffffffffffffffffffffff1673ffffffffffffffffffffffffffffffffffffffff168152602001915050604051809103906000f0801580156200015f573d6000803e3d6000fd5b50600060016002811015156200017157fe5b0160006101000a81548173ffffffffffffffffffffffffffffffffffffffff021916908373ffffffffffffffffffffffffffffffffffffffff160217905550620001d8565b6040516126648062002b4883390190565b60405161219580620051ac83390190565b61296080620001e86000396000f3fe6080604052600436106100d0576000357c0100000000000000000000000000000000000000000000000000000000900463ffffffff168063083c3daa146100d557806340477126146100f75780635d8d15851461014a57806378df5b40146101a8578063801330aa146101ef5780638da5cb5b14610275578063a8667b3c146102cc578063a90b6839146102f7578063b6d991cf14610319578063c20dd1a014610344578063cea6ab981461038a578063dcef63eb14610417578063dfef09d9146104c4578063f598963e146104ef575b600080fd5b6100dd6105a3565b604051808215151515815260200191505060405180910390f35b34801561010357600080fd5b506101306004803603602081101561011a57600080fd5b8101908080359060200190929190505050610793565b604051808215151515815260200191505060405180910390f35b34801561015657600080fd5b5061015f610aee565b604051808373ffffffffffffffffffffffffffffffffffffffff1673ffffffffffffffffffffffffffffffffffffffff1681526020018281526020019250505060405180910390f35b3480156101b457600080fd5b506101ed600480360360408110156101cb57600080fd5b8101908080359060200190929190803515159060200190929190505050610b9c565b005b3480156101fb57600080fd5b5061025f6004803603606081101561021257600080fd5b8101908080606001906003806020026040519081016040528092919082600360200280828437600081840152601f19601f8201169050808301925050505050509192919290505050610f40565b6040518082815260200191505060405180910390f35b34801561028157600080fd5b5061028a6110aa565b604051808273ffffffffffffffffffffffffffffffffffffffff1673ffffffffffffffffffffffffffffffffffffffff16815260200191505060405180910390f35b3480156102d857600080fd5b506102e16110d0565b6040518082815260200191505060405180910390f35b6102ff6111e2565b604051808215151515815260200191505060405180910390f35b34801561032557600080fd5b5061032e6112d5565b6040518082815260200191505060405180910390f35b6103706004803603602081101561035a57600080fd5b81019080803590602001909291905050506113e0565b604051808215151515815260200191505060405180910390f35b34801561039657600080fd5b506103c3600480360360208110156103ad57600080fd5b8101908080359060200190929190505050611793565b604051808473ffffffffffffffffffffffffffffffffffffffff1673ffffffffffffffffffffffffffffffffffffffff16815260200183815260200182151515158152602001935050505060405180910390f35b34801561042357600080fd5b506104506004803603602081101561043a57600080fd5b81019080803590602001909291905050506117ea565b60405180847dffffffffffffffffffffffffffffffffffffffffffffffffffffffffffff19167dffffffffffffffffffffffffffffffffffffffffffffffffffffffffffff191681526020018381526020018260028111156104ae57fe5b60ff168152602001935050505060405180910390f35b3480156104d057600080fd5b506104d9611a4f565b6040518082815260200191505060405180910390f35b3480156104fb57600080fd5b506105a1600480360360c081101561051257600080fd5b8101908080357dffffffffffffffffffffffffffffffffffffffffffffffffffffffffffff19169060200190929190803560ff1690602001909291908035906020019092919080606001906003806020026040519081016040528092919082600360200280828437600081840152601f19601f8201169050808301925050505050509192919290505050611b5a565b005b6000806000806002811015156105b557fe5b0160009054906101000a900473ffffffffffffffffffffffffffffffffffffffff1673ffffffffffffffffffffffffffffffffffffffff16634b94f50e6040518163ffffffff167c010000000000000000000000000000000000000000000000000000000002815260040160206040518083038186803b15801561063857600080fd5b505afa15801561064c573d6000803e3d6000fd5b505050506040513d602081101561066257600080fd5b81019080805190602001909291905050503481151561067d57fe5b04905060008060028110151561068f57fe5b0160009054906101000a900473ffffffffffffffffffffffffffffffffffffffff1673ffffffffffffffffffffffffffffffffffffffff1663c625e9b182336040518363ffffffff167c0100000000000000000000000000000000000000000000000000000000028152600401808381526020018273ffffffffffffffffffffffffffffffffffffffff1673ffffffffffffffffffffffffffffffffffffffff16815260200192505050602060405180830381600087803b15801561075357600080fd5b505af1158015610767573d6000803e3d6000fd5b505050506040513d602081101561077d57600080fd5b8101908080519060200190929190505050505090565b60008060016002811015156107a457fe5b0160009054906101000a900473ffffffffffffffffffffffffffffffffffffffff1673ffffffffffffffffffffffffffffffffffffffff1663d92dd1cb83336040518363ffffffff167c0100000000000000000000000000000000000000000000000000000000028152600401808381526020018273ffffffffffffffffffffffffffffffffffffffff1673ffffffffffffffffffffffffffffffffffffffff16815260200192505050602060405180830381600087803b15801561086857600080fd5b505af115801561087c573d6000803e3d6000fd5b505050506040513d602081101561089257600080fd5b8101908080519060200190929190505050151561093d576040517f08c379a00000000000000000000000000000000000000000000000000000000081526004018080602001828103825260248152602001807f5265766572742066726f6d204d61676e657446203a2065786368616e6765546f81526020017f6b656e730000000000000000000000000000000000000000000000000000000081525060400191505060405180910390fd5b60008060028110151561094c57fe5b0160009054906101000a900473ffffffffffffffffffffffffffffffffffffffff1673ffffffffffffffffffffffffffffffffffffffff1663d92dd1cb83336040518363ffffffff167c0100000000000000000000000000000000000000000000000000000000028152600401808381526020018273ffffffffffffffffffffffffffffffffffffffff1673ffffffffffffffffffffffffffffffffffffffff16815260200192505050602060405180830381600087803b158015610a1057600080fd5b505af1158015610a24573d6000803e3d6000fd5b505050506040513d6020811015610a3a57600080fd5b81019080805190602001909291905050501515610ae5576040517f08c379a00000000000000000000000000000000000000000000000000000000081526004018080602001828103825260238152602001807f5265766572742066726f6d204d61676e6574203a2065786368616e6765546f6b81526020017f656e73000000000000000000000000000000000000000000000000000000000081525060400191505060405180910390fd5b60019050919050565b60008060006003600033604051602001808273ffffffffffffffffffffffffffffffffffffffff1673ffffffffffffffffffffffffffffffffffffffff166c0100000000000000000000000002815260140191505060405160208183030381529060405280519060200120815260200190815260200160002090508060000160009054906101000a900473ffffffffffffffffffffffffffffffffffffffff16925080600101549150509091565b600033604051602001808273ffffffffffffffffffffffffffffffffffffffff1673ffffffffffffffffffffffffffffffffffffffff166c0100000000000000000000000002815260140191505060405160208183030381529060405280519060200120905060006003600083815260200190815260200160002090506000816003016000836001015481526020019081526020016000209050600073ffffffffffffffffffffffffffffffffffffffff168260000160009054906101000a900473ffffffffffffffffffffffffffffffffffffffff1673ffffffffffffffffffffffffffffffffffffffff1614151515610cff576040517f08c379a00000000000000000000000000000000000000000000000000000000081526004018080602001828103825260158152602001807f4e6f205573657220446174613a20656e6447616d65000000000000000000000081525060200191505060405180910390fd5b6000826001015414151515610d7c576040517f08c379a000000000000000000000000000000000000000000000000000000000815260040180806020018281038252600f8152602001807f4e6f2047616d6520486973746f7279000000000000000000000000000000000081525060200191505060405180910390fd5b848160000154141515610df7576040517f08c379a000000000000000000000000000000000000000000000000000000000815260040180806020018281038252601d8152602001807f4e6f20737563682047616d6520696e206c6f67733a20656e6447616d6500000081525060200191505060405180910390fd5b600115158160010160029054906101000a900460ff16151514151515610e85576040517f08c379a000000000000000000000000000000000000000000000000000000000815260040180806020018281038252601e8152602001807f416c72656164792052657761726465642047616d653a20656e6447616d65000081525060200191505060405180910390fd5b8315610eb65760008160010160036101000a81548160ff02191690836002811115610eac57fe5b0217905550610edd565b60018160010160036101000a81548160ff02191690836002811115610ed757fe5b02179055505b610f168160010160009054906101000a90047e010000000000000000000000000000000000000000000000000000000000000285612273565b15610f395760018160010160026101000a81548160ff0219169083151502179055505b5050505050565b60008060009050826000600381101515610f5657fe5b602002015115610f6857612710810190505b826001600381101515610f7757fe5b602002015115610f8957614e20810190505b826002600381101515610f9857fe5b602002015115610faa57617530810190505b6000811415156110a15760006001600281101515610fc457fe5b0160009054906101000a900473ffffffffffffffffffffffffffffffffffffffff1673ffffffffffffffffffffffffffffffffffffffff16631c45202d82336040518363ffffffff167c0100000000000000000000000000000000000000000000000000000000028152600401808381526020018273ffffffffffffffffffffffffffffffffffffffff1673ffffffffffffffffffffffffffffffffffffffff16815260200192505050600060405180830381600087803b15801561108857600080fd5b505af115801561109c573d6000803e3d6000fd5b505050505b80915050919050565b600260009054906101000a900473ffffffffffffffffffffffffffffffffffffffff1681565b60006110da6128fa565b6003600033604051602001808273ffffffffffffffffffffffffffffffffffffffff1673ffffffffffffffffffffffffffffffffffffffff166c01000000000000000000000000028152601401915050604051602081830303815290604052805190602001208152602001908152602001600020606060405190810160405290816000820160009054906101000a900473ffffffffffffffffffffffffffffffffffffffff1673ffffffffffffffffffffffffffffffffffffffff1673ffffffffffffffffffffffffffffffffffffffff168152602001600182015481526020016002820160009054906101000a900460ff1615151515815250509050806020015191505090565b60008060016002811015156111f357fe5b0160009054906101000a900473ffffffffffffffffffffffffffffffffffffffff1673ffffffffffffffffffffffffffffffffffffffff16632570e31e620186a0336040518363ffffffff167c0100000000000000000000000000000000000000000000000000000000028152600401808381526020018273ffffffffffffffffffffffffffffffffffffffff1673ffffffffffffffffffffffffffffffffffffffff16815260200192505050600060405180830381600087803b1580156112ba57600080fd5b505af11580156112ce573d6000803e3d6000fd5b5050505090565b60008060006002811015156112e657fe5b0160009054906101000a900473ffffffffffffffffffffffffffffffffffffffff1673ffffffffffffffffffffffffffffffffffffffff166370a08231336040518263ffffffff167c0100000000000000000000000000000000000000000000000000000000028152600401808273ffffffffffffffffffffffffffffffffffffffff1673ffffffffffffffffffffffffffffffffffffffff16815260200191505060206040518083038186803b1580156113a057600080fd5b505afa1580156113b4573d6000803e3d6000fd5b505050506040513d60208110156113ca57600080fd5b8101908080519060200190929190505050905090565b60008033604051602001808273ffffffffffffffffffffffffffffffffffffffff1673ffffffffffffffffffffffffffffffffffffffff166c0100000000000000000000000002815260140191505060405160208183030381529060405280519060200120905060006003600083815260200190815260200160002060000160009054906101000a900473ffffffffffffffffffffffffffffffffffffffff169050600066038d7ea4c680008502905060008060028110151561149f57fe5b0160009054906101000a900473ffffffffffffffffffffffffffffffffffffffff1673ffffffffffffffffffffffffffffffffffffffff1663670f715186336040518363ffffffff167c0100000000000000000000000000000000000000000000000000000000028152600401808381526020018273ffffffffffffffffffffffffffffffffffffffff1673ffffffffffffffffffffffffffffffffffffffff16815260200192505050602060405180830381600087803b15801561156357600080fd5b505af1158015611577573d6000803e3d6000fd5b505050506040513d602081101561158d57600080fd5b81019080805190602001909291905050501561178657803073ffffffffffffffffffffffffffffffffffffffff1631111515611657576040517f08c379a00000000000000000000000000000000000000000000000000000000081526004018080602001828103825260368152602001807f4e6f7420656e6f7567682045544820696e20636f6e7472616374732e2e2e205081526020017f6c7a20636f6e7461637420746f204465706c6f7965720000000000000000000081525060400191505060405180910390fd5b600073ffffffffffffffffffffffffffffffffffffffff168273ffffffffffffffffffffffffffffffffffffffff16141580156116bf57503373ffffffffffffffffffffffffffffffffffffffff168273ffffffffffffffffffffffffffffffffffffffff16145b1515611733576040517f08c379a00000000000000000000000000000000000000000000000000000000081526004018080602001828103825260188152602001807f53656c6c6572202d204275796572204e6f74204d61746368000000000000000081525060200191505060405180910390fd5b3373ffffffffffffffffffffffffffffffffffffffff166108fc829081150290604051600060405180830381858888f19350505050158015611779573d6000803e3d6000fd5b506001935050505061178e565b600093505050505b919050565b60036020528060005260406000206000915090508060000160009054906101000a900473ffffffffffffffffffffffffffffffffffffffff16908060010154908060020160009054906101000a900460ff16905083565b60008060008073ffffffffffffffffffffffffffffffffffffffff166003600033604051602001808273ffffffffffffffffffffffffffffffffffffffff1673ffffffffffffffffffffffffffffffffffffffff166c0100000000000000000000000002815260140191505060405160208183030381529060405280519060200120815260200190815260200160002060000160009054906101000a900473ffffffffffffffffffffffffffffffffffffffff1673ffffffffffffffffffffffffffffffffffffffff1614806119365750836003600033604051602001808273ffffffffffffffffffffffffffffffffffffffff1673ffffffffffffffffffffffffffffffffffffffff166c0100000000000000000000000002815260140191505060405160208183030381529060405280519060200120815260200190815260200160002060010154105b15611967577f4e41000000000000000000000000000000000000000000000000000000000000925060029050611a48565b60006003600033604051602001808273ffffffffffffffffffffffffffffffffffffffff1673ffffffffffffffffffffffffffffffffffffffff166c010000000000000000000000000281526014019150506040516020818303038152906040528051906020012081526020019081526020016000209050600081600301600087815260200190815260200160002090508060010160009054906101000a90047e01000000000000000000000000000000000000000000000000000000000000029450806000015493508060010160039054906101000a900460ff16925050505b9193909250565b6000806001600281101515611a6057fe5b0160009054906101000a900473ffffffffffffffffffffffffffffffffffffffff1673ffffffffffffffffffffffffffffffffffffffff166370a08231336040518263ffffffff167c0100000000000000000000000000000000000000000000000000000000028152600401808273ffffffffffffffffffffffffffffffffffffffff1673ffffffffffffffffffffffffffffffffffffffff16815260200191505060206040518083038186803b158015611b1a57600080fd5b505afa158015611b2e573d6000803e3d6000fd5b505050506040513d6020811015611b4457600080fd5b8101908080519060200190929190505050905090565b600033604051602001808273ffffffffffffffffffffffffffffffffffffffff1673ffffffffffffffffffffffffffffffffffffffff166c010000000000000000000000000281526014019150506040516020818303038152906040528051906020012090506000600360008381526020019081526020016000209050600a60ff168560ff16141515611c7b576040517f08c379a00000000000000000000000000000000000000000000000000000000081526004018080602001828103825260218152602001807f596f7520446f6573206e6f7420626574203130204d61676e657420546f6b656e81526020017f730000000000000000000000000000000000000000000000000000000000000081525060400191505060405180910390fd5b600a60ff16600080600281101515611c8f57fe5b0160009054906101000a900473ffffffffffffffffffffffffffffffffffffffff1673ffffffffffffffffffffffffffffffffffffffff166370a08231336040518263ffffffff167c0100000000000000000000000000000000000000000000000000000000028152600401808273ffffffffffffffffffffffffffffffffffffffff1673ffffffffffffffffffffffffffffffffffffffff16815260200191505060206040518083038186803b158015611d4957600080fd5b505afa158015611d5d573d6000803e3d6000fd5b505050506040513d6020811015611d7357600080fd5b810190808051906020019092919050505010151515611dfa576040517f08c379a00000000000000000000000000000000000000000000000000000000081526004018080602001828103825260188152602001807f4e6f7420456e6f756768204d61676e657420546f6b656e73000000000000000081525060200191505060405180910390fd5b600073ffffffffffffffffffffffffffffffffffffffff168160000160009054906101000a900473ffffffffffffffffffffffffffffffffffffffff1673ffffffffffffffffffffffffffffffffffffffff161415611e5d57611e5c82612849565b5b600073ffffffffffffffffffffffffffffffffffffffff168160000160009054906101000a900473ffffffffffffffffffffffffffffffffffffffff1673ffffffffffffffffffffffffffffffffffffffff1614151515611f26576040517f08c379a00000000000000000000000000000000000000000000000000000000081526004018080602001828103825260188152602001807f4e6f20557365722044617461203a20737461727447616d65000000000000000081525060200191505060405180910390fd5b60018160020160006101000a81548160ff021916908315150217905550600181600101600082825401925050819055506000816003016000836001015481526020019081526020016000209050868160010160006101000a81548161ffff02191690837e010000000000000000000000000000000000000000000000000000000000009004021790555060018160010160036101000a81548160ff02191690836002811115611fd157fe5b021790555060008160010160026101000a81548160ff02191690831515021790555084816000018190555060008090505b600381101561205b57848160038110151561201957fe5b6020020151826002018260038110151561202f57fe5b602091828204019190066101000a81548160ff0219169083151502179055508080600101915050612002565b506120c9816002016003806020026040519081016040528092919082600380156120bf576020028201916000905b82829054906101000a900460ff161515815260200190600101906020826000010492830192600103820291508084116120895790505b5050505050610f40565b506000806002811015156120d957fe5b0160009054906101000a900473ffffffffffffffffffffffffffffffffffffffff1673ffffffffffffffffffffffffffffffffffffffff1663a5233b25336040518263ffffffff167c0100000000000000000000000000000000000000000000000000000000028152600401808273ffffffffffffffffffffffffffffffffffffffff1673ffffffffffffffffffffffffffffffffffffffff168152602001915050600060405180830381600087803b15801561219557600080fd5b505af11580156121a9573d6000803e3d6000fd5b505050507fc7ac18fce2161ed5213e36b291b3e1338d444d67b7fc2a53f66fb1776ff7b5ae878686856001015460405180857dffffffffffffffffffffffffffffffffffffffffffffffffffffffffffff19167dffffffffffffffffffffffffffffffffffffffffffffffffffffffffffff1916815260200184815260200183600360200280838360005b8381101561224f578082015181840152602081019050612234565b5050505090500182815260200194505050505060405180910390a150505050505050565b600081156126415760008060028110151561228a57fe5b0160009054906101000a900473ffffffffffffffffffffffffffffffffffffffff1673ffffffffffffffffffffffffffffffffffffffff166343d2c75284336040518363ffffffff167c010000000000000000000000000000000000000000000000000000000002815260040180837dffffffffffffffffffffffffffffffffffffffffffffffffffffffffffff19167dffffffffffffffffffffffffffffffffffffffffffffffffffffffffffff191681526020018273ffffffffffffffffffffffffffffffffffffffff1673ffffffffffffffffffffffffffffffffffffffff16815260200192505050602060405180830381600087803b15801561239057600080fd5b505af11580156123a4573d6000803e3d6000fd5b505050506040513d60208110156123ba57600080fd5b8101908080519060200190929190505050151561243f576040517f08c379a000000000000000000000000000000000000000000000000000000000815260040180806020018281038252601f8152602001807f5265766572742066726f6d204d61676e6574203a20726577617264557365720081525060200191505060405180910390fd5b6000600160028110151561244f57fe5b0160009054906101000a900473ffffffffffffffffffffffffffffffffffffffff1673ffffffffffffffffffffffffffffffffffffffff166398ea5e7d8433856040518463ffffffff167c010000000000000000000000000000000000000000000000000000000002815260040180847dffffffffffffffffffffffffffffffffffffffffffffffffffffffffffff19167dffffffffffffffffffffffffffffffffffffffffffffffffffffffffffff191681526020018373ffffffffffffffffffffffffffffffffffffffff1673ffffffffffffffffffffffffffffffffffffffff168152602001821515151581526020019350505050602060405180830381600087803b15801561256157600080fd5b505af1158015612575573d6000803e3d6000fd5b505050506040513d602081101561258b57600080fd5b81019080805190602001909291905050501515612610576040517f08c379a00000000000000000000000000000000000000000000000000000000081526004018080602001828103825260208152602001807f5265766572742066726f6d204d61676e657446203a207265776172645573657281525060200191505060405180910390fd5b7fa9b48ba7eb46d59a96fea22bbc7e53c3af344d9c75ee09e78b0f32ca4f8c2a8f60405160405180910390a161283f565b6000600160028110151561265157fe5b0160009054906101000a900473ffffffffffffffffffffffffffffffffffffffff1673ffffffffffffffffffffffffffffffffffffffff166398ea5e7d8433856040518463ffffffff167c010000000000000000000000000000000000000000000000000000000002815260040180847dffffffffffffffffffffffffffffffffffffffffffffffffffffffffffff19167dffffffffffffffffffffffffffffffffffffffffffffffffffffffffffff191681526020018373ffffffffffffffffffffffffffffffffffffffff1673ffffffffffffffffffffffffffffffffffffffff168152602001821515151581526020019350505050602060405180830381600087803b15801561276357600080fd5b505af1158015612777573d6000803e3d6000fd5b505050506040513d602081101561278d57600080fd5b81019080805190602001909291905050501515612812576040517f08c379a00000000000000000000000000000000000000000000000000000000081526004018080602001828103825260208152602001807f5265766572742066726f6d204d61676e657446203a207265776172645573657281525060200191505060405180910390fd5b7f8fd268e19e11911908022dbdaf0fb3c386fc668c496b50cdf278bb9ea3c0271260405160405180910390a15b6001905092915050565b6000600360008381526020019081526020016000209050338160000160006101000a81548173ffffffffffffffffffffffffffffffffffffffff021916908373ffffffffffffffffffffffffffffffffffffffff1602179055506000816001018190555060008160020160006101000a81548160ff0219169083151502179055507fe8a28dd752e9fdb6ffdd08908cf27efb2415fd5ddfa28abcf0b87bc7178f0ba860405160405180910390a15050565b606060405190810160405280600073ffffffffffffffffffffffffffffffffffffffff16815260200160008152602001600015158152509056fea165627a7a723058205c0447b28a3fe7b9ce76649b4fd677c4931720bcd21d96a445c91cd8700431a4002960806040523480156200001157600080fd5b5060405160208062002664833981018060405260208110156200003357600080fd5b8101908080519060200190929190505050806000806101000a81548173ffffffffffffffffffffffffffffffffffffffff021916908373ffffffffffffffffffffffffffffffffffffffff16021790555033600160006101000a81548173ffffffffffffffffffffffffffffffffffffffff021916908373ffffffffffffffffffffffffffffffffffffffff1602179055506040805190810160405280600681526020017f4d61676e657400000000000000000000000000000000000000000000000000008152506002908051906020019062000112929190620001a2565b506040805190810160405280600281526020017f4d470000000000000000000000000000000000000000000000000000000000008152506003908051906020019062000160929190620001a2565b506008600481905550600454600a0a630bebc20002600581905550600454600a0a630bebc2000260068190555066038d7ea4c680006007819055505062000251565b828054600181600116156101000203166002900490600052602060002090601f016020900481019282601f10620001e557805160ff191683800117855562000216565b8280016001018555821562000216579182015b8281111562000215578251825591602001919060010190620001f8565b5b50905062000225919062000229565b5090565b6200024e91905b808211156200024a57600081600090555060010162000230565b5090565b90565b61240380620002616000396000f3fe608060405260043610610107576000357c0100000000000000000000000000000000000000000000000000000000900463ffffffff16806306fdde031461010c578063095ea7b31461019c57806323b872dd1461020f578063313ce567146102a257806339509351146102cd57806343d2c752146103405780634b94f50e146103d4578063670f7151146103ff57806370a08231146104725780638da5cb5b146104d757806395d89b411461052e578063a457c2d7146105be578063a5233b2514610631578063a9059cbb14610682578063c4e41b22146106f5578063c625e9b114610720578063d92dd1cb14610793578063dd62ed3e14610806578063f77c47911461088b575b600080fd5b34801561011857600080fd5b506101216108e2565b6040518080602001828103825283818151815260200191508051906020019080838360005b83811015610161578082015181840152602081019050610146565b50505050905090810190601f16801561018e5780820380516001836020036101000a031916815260200191505b509250505060405180910390f35b3480156101a857600080fd5b506101f5600480360360408110156101bf57600080fd5b81019080803573ffffffffffffffffffffffffffffffffffffffff16906020019092919080359060200190929190505050610980565b604051808215151515815260200191505060405180910390f35b34801561021b57600080fd5b506102886004803603606081101561023257600080fd5b81019080803573ffffffffffffffffffffffffffffffffffffffff169060200190929190803573ffffffffffffffffffffffffffffffffffffffff16906020019092919080359060200190929190505050610997565b604051808215151515815260200191505060405180910390f35b3480156102ae57600080fd5b506102b7610a48565b6040518082815260200191505060405180910390f35b3480156102d957600080fd5b50610326600480360360408110156102f057600080fd5b81019080803573ffffffffffffffffffffffffffffffffffffffff16906020019092919080359060200190929190505050610a4e565b604051808215151515815260200191505060405180910390f35b34801561034c57600080fd5b506103ba6004803603604081101561036357600080fd5b8101908080357dffffffffffffffffffffffffffffffffffffffffffffffffffffffffffff19169060200190929190803573ffffffffffffffffffffffffffffffffffffffff169060200190929190505050610af3565b604051808215151515815260200191505060405180910390f35b3480156103e057600080fd5b506103e9610ebc565b6040518082815260200191505060405180910390f35b34801561040b57600080fd5b506104586004803603604081101561042257600080fd5b8101908080359060200190929190803573ffffffffffffffffffffffffffffffffffffffff169060200190929190505050610ec6565b604051808215151515815260200191505060405180910390f35b34801561047e57600080fd5b506104c16004803603602081101561049557600080fd5b81019080803573ffffffffffffffffffffffffffffffffffffffff169060200190929190505050611143565b6040518082815260200191505060405180910390f35b3480156104e357600080fd5b506104ec61118c565b604051808273ffffffffffffffffffffffffffffffffffffffff1673ffffffffffffffffffffffffffffffffffffffff16815260200191505060405180910390f35b34801561053a57600080fd5b506105436111b1565b6040518080602001828103825283818151815260200191508051906020019080838360005b83811015610583578082015181840152602081019050610568565b50505050905090810190601f1680156105b05780820380516001836020036101000a031916815260200191505b509250505060405180910390f35b3480156105ca57600080fd5b50610617600480360360408110156105e157600080fd5b81019080803573ffffffffffffffffffffffffffffffffffffffff1690602001909291908035906020019092919050505061124f565b604051808215151515815260200191505060405180910390f35b34801561063d57600080fd5b506106806004803603602081101561065457600080fd5b81019080803573ffffffffffffffffffffffffffffffffffffffff1690602001909291905050506112f4565b005b34801561068e57600080fd5b506106db600480360360408110156106a557600080fd5b81019080803573ffffffffffffffffffffffffffffffffffffffff16906020019092919080359060200190929190505050611533565b604051808215151515815260200191505060405180910390f35b34801561070157600080fd5b5061070a61154a565b6040518082815260200191505060405180910390f35b34801561072c57600080fd5b506107796004803603604081101561074357600080fd5b8101908080359060200190929190803573ffffffffffffffffffffffffffffffffffffffff169060200190929190505050611554565b604051808215151515815260200191505060405180910390f35b34801561079f57600080fd5b506107ec600480360360408110156107b657600080fd5b8101908080359060200190929190803573ffffffffffffffffffffffffffffffffffffffff16906020019092919050505061184b565b604051808215151515815260200191505060405180910390f35b34801561081257600080fd5b506108756004803603604081101561082957600080fd5b81019080803573ffffffffffffffffffffffffffffffffffffffff169060200190929190803573ffffffffffffffffffffffffffffffffffffffff169060200190929190505050611aec565b6040518082815260200191505060405180910390f35b34801561089757600080fd5b506108a0611b73565b604051808273ffffffffffffffffffffffffffffffffffffffff1673ffffffffffffffffffffffffffffffffffffffff16815260200191505060405180910390f35b60028054600181600116156101000203166002900480601f0160208091040260200160405190810160405280929190818152602001828054600181600116156101000203166002900480156109785780601f1061094d57610100808354040283529160200191610978565b820191906000526020600020905b81548152906001019060200180831161095b57829003601f168201915b505050505081565b600061098d338484611b99565b6001905092915050565b60006109a4848484611e1a565b610a3d8433610a3885600960008a73ffffffffffffffffffffffffffffffffffffffff1673ffffffffffffffffffffffffffffffffffffffff16815260200190815260200160002060003373ffffffffffffffffffffffffffffffffffffffff1673ffffffffffffffffffffffffffffffffffffffff1681526020019081526020016000205461214490919063ffffffff16565b611b99565b600190509392505050565b60045481565b6000610ae93384610ae485600960003373ffffffffffffffffffffffffffffffffffffffff1673ffffffffffffffffffffffffffffffffffffffff16815260200190815260200160002060008973ffffffffffffffffffffffffffffffffffffffff1673ffffffffffffffffffffffffffffffffffffffff168152602001908152602001600020546121cf90919063ffffffff16565b611b99565b6001905092915050565b60008060009054906101000a900473ffffffffffffffffffffffffffffffffffffffff1673ffffffffffffffffffffffffffffffffffffffff163373ffffffffffffffffffffffffffffffffffffffff161480610b9d5750600160009054906101000a900473ffffffffffffffffffffffffffffffffffffffff1673ffffffffffffffffffffffffffffffffffffffff163373ffffffffffffffffffffffffffffffffffffffff16145b1515610c11576040517f08c379a000000000000000000000000000000000000000000000000000000000815260040180806020018281038252601c8152602001807f556e617574686f72697a65642073656e646572203a204d61676e65740000000081525060200191505060405180910390fd5b7f455a0000000000000000000000000000000000000000000000000000000000007dffffffffffffffffffffffffffffffffffffffffffffffffffffffffffff1916837dffffffffffffffffffffffffffffffffffffffffffffffffffffffffffff1916148015610c895750610c88600783612259565b5b15610cf2576007600860008473ffffffffffffffffffffffffffffffffffffffff1673ffffffffffffffffffffffffffffffffffffffff168152602001908152602001600020600082825401925050819055506007600660008282540392505081905550610eb2565b7f4e4d0000000000000000000000000000000000000000000000000000000000007dffffffffffffffffffffffffffffffffffffffffffffffffffffffffffff1916837dffffffffffffffffffffffffffffffffffffffffffffffffffffffffffff1916148015610d6a5750610d69600a83612259565b5b15610dd357600a600860008473ffffffffffffffffffffffffffffffffffffffff1673ffffffffffffffffffffffffffffffffffffffff16815260200190815260200160002060008282540192505081905550600a600660008282540392505081905550610eb1565b7f48440000000000000000000000000000000000000000000000000000000000007dffffffffffffffffffffffffffffffffffffffffffffffffffffffffffff1916837dffffffffffffffffffffffffffffffffffffffffffffffffffffffffffff1916148015610e4b5750610e4a601483612259565b5b15610eb0576014600860008473ffffffffffffffffffffffffffffffffffffffff1673ffffffffffffffffffffffffffffffffffffffff1681526020019081526020016000206000828254019250508190555060146006600082825403925050819055505b5b5b6001905092915050565b6000600754905090565b60008060009054906101000a900473ffffffffffffffffffffffffffffffffffffffff1673ffffffffffffffffffffffffffffffffffffffff163373ffffffffffffffffffffffffffffffffffffffff161480610f705750600160009054906101000a900473ffffffffffffffffffffffffffffffffffffffff1673ffffffffffffffffffffffffffffffffffffffff163373ffffffffffffffffffffffffffffffffffffffff16145b1515610fe4576040517f08c379a000000000000000000000000000000000000000000000000000000000815260040180806020018281038252601c8152602001807f556e617574686f72697a65642073656e646572203a204d61676e65740000000081525060200191505060405180910390fd5b600860008373ffffffffffffffffffffffffffffffffffffffff1673ffffffffffffffffffffffffffffffffffffffff1681526020019081526020016000205483600860008573ffffffffffffffffffffffffffffffffffffffff1673ffffffffffffffffffffffffffffffffffffffff1681526020019081526020016000205403111515156110dc576040517f08c379a00000000000000000000000000000000000000000000000000000000081526004018080602001828103825260118152602001807f556e646572466c6f77204f63637572656400000000000000000000000000000081525060200191505060405180910390fd5b82600860008473ffffffffffffffffffffffffffffffffffffffff1673ffffffffffffffffffffffffffffffffffffffff16815260200190815260200160002060008282540392505081905550826006600082825401925050819055506001905092915050565b6000600860008373ffffffffffffffffffffffffffffffffffffffff1673ffffffffffffffffffffffffffffffffffffffff168152602001908152602001600020549050919050565b6000809054906101000a900473ffffffffffffffffffffffffffffffffffffffff1681565b60038054600181600116156101000203166002900480601f0160208091040260200160405190810160405280929190818152602001828054600181600116156101000203166002900480156112475780601f1061121c57610100808354040283529160200191611247565b820191906000526020600020905b81548152906001019060200180831161122a57829003601f168201915b505050505081565b60006112ea33846112e585600960003373ffffffffffffffffffffffffffffffffffffffff1673ffffffffffffffffffffffffffffffffffffffff16815260200190815260200160002060008973ffffffffffffffffffffffffffffffffffffffff1673ffffffffffffffffffffffffffffffffffffffff1681526020019081526020016000205461214490919063ffffffff16565b611b99565b6001905092915050565b6000809054906101000a900473ffffffffffffffffffffffffffffffffffffffff1673ffffffffffffffffffffffffffffffffffffffff163373ffffffffffffffffffffffffffffffffffffffff16148061139c5750600160009054906101000a900473ffffffffffffffffffffffffffffffffffffffff1673ffffffffffffffffffffffffffffffffffffffff163373ffffffffffffffffffffffffffffffffffffffff16145b1515611410576040517f08c379a000000000000000000000000000000000000000000000000000000000815260040180806020018281038252601c8152602001807f556e617574686f72697a65642073656e646572203a204d61676e65740000000081525060200191505060405180910390fd5b600a60ff16600860008373ffffffffffffffffffffffffffffffffffffffff1673ffffffffffffffffffffffffffffffffffffffff16815260200190815260200160002054101515156114cb576040517f08c379a00000000000000000000000000000000000000000000000000000000081526004018080602001828103825260128152602001807f4e6f7420656e6f7567682042616c616e6365000000000000000000000000000081525060200191505060405180910390fd5b600a60ff16600860008373ffffffffffffffffffffffffffffffffffffffff1673ffffffffffffffffffffffffffffffffffffffff16815260200190815260200160002060008282540392505081905550600a60ff1660066000828254019250508190555050565b6000611540338484611e1a565b6001905092915050565b6000600554905090565b60008060009054906101000a900473ffffffffffffffffffffffffffffffffffffffff1673ffffffffffffffffffffffffffffffffffffffff163373ffffffffffffffffffffffffffffffffffffffff1614806115fe5750600160009054906101000a900473ffffffffffffffffffffffffffffffffffffffff1673ffffffffffffffffffffffffffffffffffffffff163373ffffffffffffffffffffffffffffffffffffffff16145b1515611672576040517f08c379a000000000000000000000000000000000000000000000000000000000815260040180806020018281038252601c8152602001807f556e617574686f72697a65642073656e646572203a204d61676e65740000000081525060200191505060405180910390fd5b600860008373ffffffffffffffffffffffffffffffffffffffff1673ffffffffffffffffffffffffffffffffffffffff1681526020019081526020016000205483600860008573ffffffffffffffffffffffffffffffffffffffff1673ffffffffffffffffffffffffffffffffffffffff16815260200190815260200160002054011015151561176a576040517f08c379a00000000000000000000000000000000000000000000000000000000081526004018080602001828103825260108152602001807f4f766572466c6f77204f6363757265640000000000000000000000000000000081525060200191505060405180910390fd5b82600654101515156117e4576040517f08c379a000000000000000000000000000000000000000000000000000000000815260040180806020018281038252601c8152602001807f4e6f7420656e6f75676820537570706c6961626c6520546f6b656e730000000081525060200191505060405180910390fd5b82600860008473ffffffffffffffffffffffffffffffffffffffff1673ffffffffffffffffffffffffffffffffffffffff16815260200190815260200160002060008282540192505081905550826006600082825403925050819055506001905092915050565b60008060009054906101000a900473ffffffffffffffffffffffffffffffffffffffff1673ffffffffffffffffffffffffffffffffffffffff163373ffffffffffffffffffffffffffffffffffffffff1614806118f55750600160009054906101000a900473ffffffffffffffffffffffffffffffffffffffff1673ffffffffffffffffffffffffffffffffffffffff163373ffffffffffffffffffffffffffffffffffffffff16145b1515611969576040517f08c379a000000000000000000000000000000000000000000000000000000000815260040180806020018281038252601c8152602001807f556e617574686f72697a65642073656e646572203a204d61676e65740000000081525060200191505060405180910390fd5b600060648481151561197757fe5b04905080600654101515156119f4576040517f08c379a000000000000000000000000000000000000000000000000000000000815260040180806020018281038252601c8152602001807f4e6f7420656e6f75676820737570706c6961626c6520616d6f756e740000000081525060200191505060405180910390fd5b6101f48110151515611a94576040517f08c379a00000000000000000000000000000000000000000000000000000000081526004018080602001828103825260268152602001807f4e6f74205265616368204d696e696d616c20436f6e646974696f6e3a2031303081526020017f3030204d4654000000000000000000000000000000000000000000000000000081525060400191505060405180910390fd5b80600860008573ffffffffffffffffffffffffffffffffffffffff1673ffffffffffffffffffffffffffffffffffffffff16815260200190815260200160002060008282540192505081905550600191505092915050565b6000600960008473ffffffffffffffffffffffffffffffffffffffff1673ffffffffffffffffffffffffffffffffffffffff16815260200190815260200160002060008373ffffffffffffffffffffffffffffffffffffffff1673ffffffffffffffffffffffffffffffffffffffff16815260200190815260200160002054905092915050565b600160009054906101000a900473ffffffffffffffffffffffffffffffffffffffff1681565b600073ffffffffffffffffffffffffffffffffffffffff168373ffffffffffffffffffffffffffffffffffffffff1614151515611c64576040517f08c379a00000000000000000000000000000000000000000000000000000000081526004018080602001828103825260248152602001807f45524332303a20617070726f76652066726f6d20746865207a65726f2061646481526020017f726573730000000000000000000000000000000000000000000000000000000081525060400191505060405180910390fd5b600073ffffffffffffffffffffffffffffffffffffffff168273ffffffffffffffffffffffffffffffffffffffff1614151515611d2f576040517f08c379a00000000000000000000000000000000000000000000000000000000081526004018080602001828103825260228152602001807f45524332303a20617070726f766520746f20746865207a65726f20616464726581526020017f737300000000000000000000000000000000000000000000000000000000000081525060400191505060405180910390fd5b80600960008573ffffffffffffffffffffffffffffffffffffffff1673ffffffffffffffffffffffffffffffffffffffff16815260200190815260200160002060008473ffffffffffffffffffffffffffffffffffffffff1673ffffffffffffffffffffffffffffffffffffffff168152602001908152602001600020819055508173ffffffffffffffffffffffffffffffffffffffff168373ffffffffffffffffffffffffffffffffffffffff167f8c5be1e5ebec7d5bd14f71427d1e84f3dd0314c0f7b2291e5b200ac8c7c3b925836040518082815260200191505060405180910390a3505050565b600073ffffffffffffffffffffffffffffffffffffffff168373ffffffffffffffffffffffffffffffffffffffff1614151515611ee5576040517f08c379a00000000000000000000000000000000000000000000000000000000081526004018080602001828103825260258152602001807f45524332303a207472616e736665722066726f6d20746865207a65726f20616481526020017f647265737300000000000000000000000000000000000000000000000000000081525060400191505060405180910390fd5b600073ffffffffffffffffffffffffffffffffffffffff168273ffffffffffffffffffffffffffffffffffffffff1614151515611fb0576040517f08c379a00000000000000000000000000000000000000000000000000000000081526004018080602001828103825260238152602001807f45524332303a207472616e7366657220746f20746865207a65726f206164647281526020017f657373000000000000000000000000000000000000000000000000000000000081525060400191505060405180910390fd5b61200281600860008673ffffffffffffffffffffffffffffffffffffffff1673ffffffffffffffffffffffffffffffffffffffff1681526020019081526020016000205461214490919063ffffffff16565b600860008573ffffffffffffffffffffffffffffffffffffffff1673ffffffffffffffffffffffffffffffffffffffff1681526020019081526020016000208190555061209781600860008573ffffffffffffffffffffffffffffffffffffffff1673ffffffffffffffffffffffffffffffffffffffff168152602001908152602001600020546121cf90919063ffffffff16565b600860008473ffffffffffffffffffffffffffffffffffffffff1673ffffffffffffffffffffffffffffffffffffffff168152602001908152602001600020819055508173ffffffffffffffffffffffffffffffffffffffff168373ffffffffffffffffffffffffffffffffffffffff167fddf252ad1be2c89b69c2b068fc378daa952ba7f163c4a11628f55a4df523b3ef836040518082815260200191505060405180910390a3505050565b60008282111515156121be576040517f08c379a000000000000000000000000000000000000000000000000000000000815260040180806020018281038252601e8152602001807f536166654d6174683a207375627472616374696f6e206f766572666c6f77000081525060200191505060405180910390fd5b600082840390508091505092915050565b600080828401905083811015151561224f576040517f08c379a000000000000000000000000000000000000000000000000000000000815260040180806020018281038252601b8152602001807f536166654d6174683a206164646974696f6e206f766572666c6f77000000000081525060200191505060405180910390fd5b8091505092915050565b600082600654101515156122d5576040517f08c379a000000000000000000000000000000000000000000000000000000000815260040180806020018281038252601c8152602001807f4e6f7420656e6f75676820537570706c6961626c6520546f6b656e730000000081525060200191505060405180910390fd5b600860008373ffffffffffffffffffffffffffffffffffffffff1673ffffffffffffffffffffffffffffffffffffffff1681526020019081526020016000205483600860008573ffffffffffffffffffffffffffffffffffffffff1673ffffffffffffffffffffffffffffffffffffffff1681526020019081526020016000205401101515156123cd576040517f08c379a00000000000000000000000000000000000000000000000000000000081526004018080602001828103825260108152602001807f4f766572666c6f77204f6363757265640000000000000000000000000000000081525060200191505060405180910390fd5b600190509291505056fea165627a7a7230582036981f748c7bd2366ea54e4bbff2484318fa69f5ad6a64670d14c4880c397087002960806040523480156200001157600080fd5b5060405160208062002195833981018060405260208110156200003357600080fd5b8101908080519060200190929190505050806000806101000a81548173ffffffffffffffffffffffffffffffffffffffff021916908373ffffffffffffffffffffffffffffffffffffffff16021790555033600160006101000a81548173ffffffffffffffffffffffffffffffffffffffff021916908373ffffffffffffffffffffffffffffffffffffffff1602179055506040805190810160405280600b81526020017f4d61676e65744669656c64000000000000000000000000000000000000000000815250600290805190602001906200011292919062000194565b506040805190810160405280600381526020017f4d47460000000000000000000000000000000000000000000000000000000000815250600390805190602001906200016092919062000194565b506008600481905550600454600a0a630bebc20002600581905550600454600a0a630bebc200026006819055505062000243565b828054600181600116156101000203166002900490600052602060002090601f016020900481019282601f10620001d757805160ff191683800117855562000208565b8280016001018555821562000208579182015b8281111562000207578251825591602001919060010190620001ea565b5b5090506200021791906200021b565b5090565b6200024091905b808211156200023c57600081600090555060010162000222565b5090565b90565b611f4280620002536000396000f3fe6080604052600436106100f1576000357c0100000000000000000000000000000000000000000000000000000000900463ffffffff16806306fdde03146100f6578063095ea7b3146101865780631c45202d146101f957806323b872dd146102545780632570e31e146102e7578063313ce56714610342578063395093511461036d57806370a08231146103e05780638da5cb5b1461044557806395d89b411461049c57806398ea5e7d1461052c578063a457c2d7146105cc578063a9059cbb1461063f578063c4e41b22146106b2578063d92dd1cb146106dd578063dd62ed3e14610750578063f77c4791146107d5575b600080fd5b34801561010257600080fd5b5061010b61082c565b6040518080602001828103825283818151815260200191508051906020019080838360005b8381101561014b578082015181840152602081019050610130565b50505050905090810190601f1680156101785780820380516001836020036101000a031916815260200191505b509250505060405180910390f35b34801561019257600080fd5b506101df600480360360408110156101a957600080fd5b81019080803573ffffffffffffffffffffffffffffffffffffffff169060200190929190803590602001909291905050506108ca565b604051808215151515815260200191505060405180910390f35b34801561020557600080fd5b506102526004803603604081101561021c57600080fd5b8101908080359060200190929190803573ffffffffffffffffffffffffffffffffffffffff1690602001909291905050506108e1565b005b34801561026057600080fd5b506102cd6004803603606081101561027757600080fd5b81019080803573ffffffffffffffffffffffffffffffffffffffff169060200190929190803573ffffffffffffffffffffffffffffffffffffffff169060200190929190803590602001909291905050506109f9565b604051808215151515815260200191505060405180910390f35b3480156102f357600080fd5b506103406004803603604081101561030a57600080fd5b8101908080359060200190929190803573ffffffffffffffffffffffffffffffffffffffff169060200190929190505050610aaa565b005b34801561034e57600080fd5b50610357610c7d565b6040518082815260200191505060405180910390f35b34801561037957600080fd5b506103c66004803603604081101561039057600080fd5b81019080803573ffffffffffffffffffffffffffffffffffffffff16906020019092919080359060200190929190505050610c83565b604051808215151515815260200191505060405180910390f35b3480156103ec57600080fd5b5061042f6004803603602081101561040357600080fd5b81019080803573ffffffffffffffffffffffffffffffffffffffff169060200190929190505050610d28565b6040518082815260200191505060405180910390f35b34801561045157600080fd5b5061045a610d71565b604051808273ffffffffffffffffffffffffffffffffffffffff1673ffffffffffffffffffffffffffffffffffffffff16815260200191505060405180910390f35b3480156104a857600080fd5b506104b1610d96565b6040518080602001828103825283818151815260200191508051906020019080838360005b838110156104f15780820151818401526020810190506104d6565b50505050905090810190601f16801561051e5780820380516001836020036101000a031916815260200191505b509250505060405180910390f35b34801561053857600080fd5b506105b26004803603606081101561054f57600080fd5b8101908080357dffffffffffffffffffffffffffffffffffffffffffffffffffffffffffff19169060200190929190803573ffffffffffffffffffffffffffffffffffffffff169060200190929190803515159060200190929190505050610e34565b604051808215151515815260200191505060405180910390f35b3480156105d857600080fd5b50610625600480360360408110156105ef57600080fd5b81019080803573ffffffffffffffffffffffffffffffffffffffff16906020019092919080359060200190929190505050611289565b604051808215151515815260200191505060405180910390f35b34801561064b57600080fd5b506106986004803603604081101561066257600080fd5b81019080803573ffffffffffffffffffffffffffffffffffffffff1690602001909291908035906020019092919050505061132e565b604051808215151515815260200191505060405180910390f35b3480156106be57600080fd5b506106c7611345565b6040518082815260200191505060405180910390f35b3480156106e957600080fd5b506107366004803603604081101561070057600080fd5b8101908080359060200190929190803573ffffffffffffffffffffffffffffffffffffffff16906020019092919050505061134f565b604051808215151515815260200191505060405180910390f35b34801561075c57600080fd5b506107bf6004803603604081101561077357600080fd5b81019080803573ffffffffffffffffffffffffffffffffffffffff169060200190929190803573ffffffffffffffffffffffffffffffffffffffff16906020019092919050505061162b565b6040518082815260200191505060405180910390f35b3480156107e157600080fd5b506107ea6116b2565b604051808273ffffffffffffffffffffffffffffffffffffffff1673ffffffffffffffffffffffffffffffffffffffff16815260200191505060405180910390f35b60028054600181600116156101000203166002900480601f0160208091040260200160405190810160405280929190818152602001828054600181600116156101000203166002900480156108c25780601f10610897576101008083540402835291602001916108c2565b820191906000526020600020905b8154815290600101906020018083116108a557829003601f168201915b505050505081565b60006108d73384846116d8565b6001905092915050565b81600860008373ffffffffffffffffffffffffffffffffffffffff1673ffffffffffffffffffffffffffffffffffffffff1681526020019081526020016000205410151515610998576040517f08c379a00000000000000000000000000000000000000000000000000000000081526004018080602001828103825260128152602001807f4e6f7420656e6f7567682042616c616e6365000000000000000000000000000081525060200191505060405180910390fd5b81600860008373ffffffffffffffffffffffffffffffffffffffff1673ffffffffffffffffffffffffffffffffffffffff16815260200190815260200160002060008282540392505081905550816006600082825401925050819055505050565b6000610a06848484611959565b610a9f8433610a9a85600960008a73ffffffffffffffffffffffffffffffffffffffff1673ffffffffffffffffffffffffffffffffffffffff16815260200190815260200160002060003373ffffffffffffffffffffffffffffffffffffffff1673ffffffffffffffffffffffffffffffffffffffff16815260200190815260200160002054611c8390919063ffffffff16565b6116d8565b600190509392505050565b8160065410151515610b24576040517f08c379a000000000000000000000000000000000000000000000000000000000815260040180806020018281038252601c8152602001807f4e6f7420656e6f75676820537570706c6961626c6520546f6b656e730000000081525060200191505060405180910390fd5b600860008273ffffffffffffffffffffffffffffffffffffffff1673ffffffffffffffffffffffffffffffffffffffff1681526020019081526020016000205482600860008473ffffffffffffffffffffffffffffffffffffffff1673ffffffffffffffffffffffffffffffffffffffff168152602001908152602001600020540110151515610c1c576040517f08c379a00000000000000000000000000000000000000000000000000000000081526004018080602001828103825260108152602001807f4f766572666c6f77204f6363757265640000000000000000000000000000000081525060200191505060405180910390fd5b81600860008373ffffffffffffffffffffffffffffffffffffffff1673ffffffffffffffffffffffffffffffffffffffff16815260200190815260200160002060008282540192505081905550816006600082825403925050819055505050565b60045481565b6000610d1e3384610d1985600960003373ffffffffffffffffffffffffffffffffffffffff1673ffffffffffffffffffffffffffffffffffffffff16815260200190815260200160002060008973ffffffffffffffffffffffffffffffffffffffff1673ffffffffffffffffffffffffffffffffffffffff16815260200190815260200160002054611d0e90919063ffffffff16565b6116d8565b6001905092915050565b6000600860008373ffffffffffffffffffffffffffffffffffffffff1673ffffffffffffffffffffffffffffffffffffffff168152602001908152602001600020549050919050565b6000809054906101000a900473ffffffffffffffffffffffffffffffffffffffff1681565b60038054600181600116156101000203166002900480601f016020809104026020016040519081016040528092919081815260200182805460018160011615610100020316600290048015610e2c5780601f10610e0157610100808354040283529160200191610e2c565b820191906000526020600020905b815481529060010190602001808311610e0f57829003601f168201915b505050505081565b60008060009054906101000a900473ffffffffffffffffffffffffffffffffffffffff1673ffffffffffffffffffffffffffffffffffffffff163373ffffffffffffffffffffffffffffffffffffffff161480610ede5750600160009054906101000a900473ffffffffffffffffffffffffffffffffffffffff1673ffffffffffffffffffffffffffffffffffffffff163373ffffffffffffffffffffffffffffffffffffffff16145b1515610f52576040517f08c379a00000000000000000000000000000000000000000000000000000000081526004018080602001828103825260138152602001807f556e617574686f72697a65642073656e6465720000000000000000000000000081525060200191505060405180910390fd5b81158015610f685750610f676102bc84611d98565b5b15610fd3576102bc600860008573ffffffffffffffffffffffffffffffffffffffff1673ffffffffffffffffffffffffffffffffffffffff168152602001908152602001600020600082825401925050819055506102bc60066000828254039250508190555061127e565b7f455a0000000000000000000000000000000000000000000000000000000000007dffffffffffffffffffffffffffffffffffffffffffffffffffffffffffff1916847dffffffffffffffffffffffffffffffffffffffffffffffffffffffffffff191614801561104c575061104b6102bc84611d98565b5b156110b7576102bc600860008573ffffffffffffffffffffffffffffffffffffffff1673ffffffffffffffffffffffffffffffffffffffff168152602001908152602001600020600082825401925050819055506102bc60066000828254039250508190555061127d565b7f4e4d0000000000000000000000000000000000000000000000000000000000007dffffffffffffffffffffffffffffffffffffffffffffffffffffffffffff1916847dffffffffffffffffffffffffffffffffffffffffffffffffffffffffffff1916148015611130575061112f6103e884611d98565b5b1561119b576103e8600860008573ffffffffffffffffffffffffffffffffffffffff1673ffffffffffffffffffffffffffffffffffffffff168152602001908152602001600020600082825401925050819055506103e860066000828254039250508190555061127c565b7f48440000000000000000000000000000000000000000000000000000000000007dffffffffffffffffffffffffffffffffffffffffffffffffffffffffffff1916847dffffffffffffffffffffffffffffffffffffffffffffffffffffffffffff191614801561121457506112136107d084611d98565b5b1561127b576107d0600860008573ffffffffffffffffffffffffffffffffffffffff1673ffffffffffffffffffffffffffffffffffffffff168152602001908152602001600020600082825401925050819055506107d06006600082825403925050819055505b5b5b5b600190509392505050565b6000611324338461131f85600960003373ffffffffffffffffffffffffffffffffffffffff1673ffffffffffffffffffffffffffffffffffffffff16815260200190815260200160002060008973ffffffffffffffffffffffffffffffffffffffff1673ffffffffffffffffffffffffffffffffffffffff16815260200190815260200160002054611c8390919063ffffffff16565b6116d8565b6001905092915050565b600061133b338484611959565b6001905092915050565b6000600554905090565b60008060009054906101000a900473ffffffffffffffffffffffffffffffffffffffff1673ffffffffffffffffffffffffffffffffffffffff163373ffffffffffffffffffffffffffffffffffffffff1614806113f95750600160009054906101000a900473ffffffffffffffffffffffffffffffffffffffff1673ffffffffffffffffffffffffffffffffffffffff163373ffffffffffffffffffffffffffffffffffffffff16145b151561146d576040517f08c379a00000000000000000000000000000000000000000000000000000000081526004018080602001828103825260138152602001807f556e617574686f72697a65642073656e6465720000000000000000000000000081525060200191505060405180910390fd5b82600860008473ffffffffffffffffffffffffffffffffffffffff1673ffffffffffffffffffffffffffffffffffffffff1681526020019081526020016000205410151515611524576040517f08c379a00000000000000000000000000000000000000000000000000000000081526004018080602001828103825260128152602001807f4e6f7420656e6f7567682042616c616e6365000000000000000000000000000081525060200191505060405180910390fd5b61c35083101515156115c4576040517f08c379a00000000000000000000000000000000000000000000000000000000081526004018080602001828103825260268152602001807f4e6f74205265616368204d696e696d616c20436f6e646974696f6e3a2031303081526020017f3030204d4654000000000000000000000000000000000000000000000000000081525060400191505060405180910390fd5b82600860008473ffffffffffffffffffffffffffffffffffffffff1673ffffffffffffffffffffffffffffffffffffffff16815260200190815260200160002060008282540392505081905550826006600082825401925050819055506001905092915050565b6000600960008473ffffffffffffffffffffffffffffffffffffffff1673ffffffffffffffffffffffffffffffffffffffff16815260200190815260200160002060008373ffffffffffffffffffffffffffffffffffffffff1673ffffffffffffffffffffffffffffffffffffffff16815260200190815260200160002054905092915050565b600160009054906101000a900473ffffffffffffffffffffffffffffffffffffffff1681565b600073ffffffffffffffffffffffffffffffffffffffff168373ffffffffffffffffffffffffffffffffffffffff16141515156117a3576040517f08c379a00000000000000000000000000000000000000000000000000000000081526004018080602001828103825260248152602001807f45524332303a20617070726f76652066726f6d20746865207a65726f2061646481526020017f726573730000000000000000000000000000000000000000000000000000000081525060400191505060405180910390fd5b600073ffffffffffffffffffffffffffffffffffffffff168273ffffffffffffffffffffffffffffffffffffffff161415151561186e576040517f08c379a00000000000000000000000000000000000000000000000000000000081526004018080602001828103825260228152602001807f45524332303a20617070726f766520746f20746865207a65726f20616464726581526020017f737300000000000000000000000000000000000000000000000000000000000081525060400191505060405180910390fd5b80600960008573ffffffffffffffffffffffffffffffffffffffff1673ffffffffffffffffffffffffffffffffffffffff16815260200190815260200160002060008473ffffffffffffffffffffffffffffffffffffffff1673ffffffffffffffffffffffffffffffffffffffff168152602001908152602001600020819055508173ffffffffffffffffffffffffffffffffffffffff168373ffffffffffffffffffffffffffffffffffffffff167f8c5be1e5ebec7d5bd14f71427d1e84f3dd0314c0f7b2291e5b200ac8c7c3b925836040518082815260200191505060405180910390a3505050565b600073ffffffffffffffffffffffffffffffffffffffff168373ffffffffffffffffffffffffffffffffffffffff1614151515611a24576040517f08c379a00000000000000000000000000000000000000000000000000000000081526004018080602001828103825260258152602001807f45524332303a207472616e736665722066726f6d20746865207a65726f20616481526020017f647265737300000000000000000000000000000000000000000000000000000081525060400191505060405180910390fd5b600073ffffffffffffffffffffffffffffffffffffffff168273ffffffffffffffffffffffffffffffffffffffff1614151515611aef576040517f08c379a00000000000000000000000000000000000000000000000000000000081526004018080602001828103825260238152602001807f45524332303a207472616e7366657220746f20746865207a65726f206164647281526020017f657373000000000000000000000000000000000000000000000000000000000081525060400191505060405180910390fd5b611b4181600860008673ffffffffffffffffffffffffffffffffffffffff1673ffffffffffffffffffffffffffffffffffffffff16815260200190815260200160002054611c8390919063ffffffff16565b600860008573ffffffffffffffffffffffffffffffffffffffff1673ffffffffffffffffffffffffffffffffffffffff16815260200190815260200160002081905550611bd681600860008573ffffffffffffffffffffffffffffffffffffffff1673ffffffffffffffffffffffffffffffffffffffff16815260200190815260200160002054611d0e90919063ffffffff16565b600860008473ffffffffffffffffffffffffffffffffffffffff1673ffffffffffffffffffffffffffffffffffffffff168152602001908152602001600020819055508173ffffffffffffffffffffffffffffffffffffffff168373ffffffffffffffffffffffffffffffffffffffff167fddf252ad1be2c89b69c2b068fc378daa952ba7f163c4a11628f55a4df523b3ef836040518082815260200191505060405180910390a3505050565b6000828211151515611cfd576040517f08c379a000000000000000000000000000000000000000000000000000000000815260040180806020018281038252601e8152602001807f536166654d6174683a207375627472616374696f6e206f766572666c6f77000081525060200191505060405180910390fd5b600082840390508091505092915050565b6000808284019050838110151515611d8e576040517f08c379a000000000000000000000000000000000000000000000000000000000815260040180806020018281038252601b8152602001807f536166654d6174683a206164646974696f6e206f766572666c6f77000000000081525060200191505060405180910390fd5b8091505092915050565b60008260065410151515611e14576040517f08c379a000000000000000000000000000000000000000000000000000000000815260040180806020018281038252601c8152602001807f4e6f7420656e6f75676820537570706c6961626c6520546f6b656e730000000081525060200191505060405180910390fd5b600860008373ffffffffffffffffffffffffffffffffffffffff1673ffffffffffffffffffffffffffffffffffffffff1681526020019081526020016000205483600860008573ffffffffffffffffffffffffffffffffffffffff1673ffffffffffffffffffffffffffffffffffffffff168152602001908152602001600020540110151515611f0c576040517f08c379a00000000000000000000000000000000000000000000000000000000081526004018080602001828103825260108152602001807f4f766572666c6f77204f6363757265640000000000000000000000000000000081525060200191505060405180910390fd5b600190509291505056fea165627a7a7230582019e46a5c63d3c8918c9da6b6501467bd1479b0b07615a4a4f1dd35a3005f08050029",
  "source": "pragma solidity ^0.5.0;\r\n\r\nimport './Magnet.sol';\r\nimport './MagnetField.sol';\r\n\r\n// ganache-cli -l 8000000\r\ncontract GameController {\r\n\r\n    // variables\r\n    address[2] private tokensAddr;\r\n    address payable public owner;\r\n\r\n    mapping (bytes32 => UserInfo) public users;\r\n\r\n    // user DB structure\r\n    struct GameLog { // use for game log!\r\n        bytes32 gameHex; // use for transparency. (when start the game, )\r\n        bytes2 difficulty; // EZ, NM, HD - necessary?\r\n        bool isRewarded; \r\n        GameResult result; //default : LOSE ***WIN/LOSE/ 2 (NOT FOUND)\r\n        bool[3] useItem; //default: false(SHIELD), false(FirstCell), false(ShowMap)\r\n    }\r\n\r\n    struct UserInfo {\r\n        address gamerID; // User account address\r\n        uint256 totalGameCount;  // to tracking recent gameResult.\r\n        bool isPlaying; // check progress of the game\r\n        mapping (uint256 => GameLog) logs; // start from 0 to N.... (game result log)\r\n    }\r\n\r\n    constructor() public {\r\n        owner = msg.sender;\r\n        tokensAddr[0] = address(new Magnet(msg.sender));\r\n        tokensAddr[1] = address(new MagnetField(msg.sender));\r\n    }\r\n\r\n\r\n    // https://ethereum.stackexchange.com/questions/7713/how-does-mapping-work (.. mapping  )\r\n\r\n    // constants\r\n    uint8 constant internal BET_TOKEN_AMOUNT = 10;\r\n    uint256 constant internal LEAST_EXCHANGE_AMOUNT = 10000;\r\n\r\n    enum ItemLists { Shield, FirstCell, ShowMap } // check item uselist...\r\n    enum GameResult { WIN, LOSE, NOT_FOUND } // 0: WIN, 1: LOSE\r\n\r\n    // Event Lists\r\n\r\n    // when users start the game\r\n    event START(bytes2 difficulty, bytes32 gameHex, bool[3] useItem, uint256 totalGameCount); //BombHex -> keccak256(bombCoords)\r\n    // when the game is over.\r\n    event WIN();    event LOSE();    event REGISTER();\r\n\r\n    function buyMagnet() public payable returns (bool) {\r\n        uint256 amount = msg.value / Magnet(tokensAddr[0]).getTokenPrice();\r\n        Magnet(tokensAddr[0]).buyTokens(amount, msg.sender);\r\n    }\r\n\r\n    /*\r\n    function getETH() public view returns (uint256) {\r\n        return address(this).balance;\r\n    }\r\n    \r\n    //to send ETH to deployer.\r\n    function sendETH() payable public returns (bool result) {\r\n        require(msg.sender == minter);\r\n        require(getETH() > 0);\r\n        msg.sender.transfer(address(this).balance);\r\n        return true;\r\n    }\r\n    */\r\n\r\n    // 1Magnet = 0.001ETH 1000\r\n    function sellMagnet(uint sellAmount) public payable returns (bool) {\r\n        bytes32 userIdentificator = keccak256(abi.encodePacked(msg.sender));\r\n        address seller = users[userIdentificator].gamerID;\r\n        uint256 getETH = (sellAmount * 1000000000000000);\r\n\r\n        if(Magnet(tokensAddr[0]).sellTokens(sellAmount, msg.sender)) { // true\r\n        // ETH  \r\n            require(address(this).balance > getETH, \"Not enough ETH in contracts... Plz contact to Deployer\");\r\n            require(seller != address(0x0) && seller == msg.sender, \"Seller - Buyer Not Match\");\r\n            msg.sender.transfer(getETH);\r\n            return true;\r\n        } else {\r\n            return false;\r\n        }\r\n    }\r\n\r\n\r\n    function buyMagnetField() public payable returns (bool) {\r\n        MagnetField(tokensAddr[1]).getTokens(100000, msg.sender);\r\n    }\r\n\r\n    function getMagnetBalance() public view returns (uint256) {\r\n        return Magnet(tokensAddr[0]).balanceOf(msg.sender);\r\n    }\r\n\r\n    function getMagnetFieldBalance() public view returns (uint256) {\r\n        return MagnetField(tokensAddr[1]).balanceOf(msg.sender);\r\n    }\r\n    /**\r\n     * @dev         DB  .\r\n     * @param _userIdentificator userInfo Map key (keccak256 )\r\n\r\n     */\r\n    function register(bytes32 _userIdentificator) private {\r\n        UserInfo storage user = users[_userIdentificator];\r\n\r\n        user.gamerID = msg.sender;\r\n        user.totalGameCount = 0;\r\n        user.isPlaying = false;\r\n        // user.isExistUser = true;\r\n\r\n        emit REGISTER();\r\n    }\r\n\r\n    /**\r\n     * @dev        MagnetField  .\r\n     * @param _useItems        parameter\r\n     * @return    true .\r\n     */\r\n    function useItems(bool[3] memory _useItems) public returns (uint256){ // internal  \r\n        uint256 totalItemCost = 0;\r\n        if(_useItems[0]) totalItemCost += 10000;\r\n        if(_useItems[1]) totalItemCost += 20000;\r\n        if(_useItems[2]) totalItemCost += 30000;\r\n        if(totalItemCost != 0) {\r\n            MagnetField(tokensAddr[1]).buyItems(totalItemCost, msg.sender);\r\n        }\r\n        return totalItemCost;\r\n    }\r\n    /**\r\n     * @dev             START  .\r\n     * @param _difficulty   front-end .\r\n     * @param _gameCost    Magnet   front-end .\r\n     * @param _gameHex  transparency  sha256 value front-end .\r\n     * @param _gameCost    Magnet   front-end .\r\n     */\r\n    function startGame(bytes2 _difficulty, uint8 _gameCost, bytes32  _gameHex, bool[3] memory _useItem) public{\r\n        bytes32 userIdentificator = keccak256(abi.encodePacked(msg.sender));\r\n        UserInfo storage user = users[userIdentificator];\r\n\r\n        require(_gameCost == BET_TOKEN_AMOUNT, \"You Does not bet 10 Magnet Tokens\"); // Is gameCost same as the BET_TOKEN_AMOUNT\r\n        require(Magnet(tokensAddr[0]).balanceOf(msg.sender) >= BET_TOKEN_AMOUNT, \"Not Enough Magnet Tokens\"); // check Magnet balance of Users.\r\n        if(user.gamerID == address(0)) { // No User Data (Newbie)\r\n            register(userIdentificator);\r\n        }\r\n\r\n        //double check user existence\r\n        require(user.gamerID != address(0), \"No User Data : startGame\");\r\n        // change isPlaying flag and update totalGameCount\r\n        user.isPlaying = true;\r\n        user.totalGameCount += 1;\r\n\r\n        // write game log\r\n        GameLog storage log = user.logs[user.totalGameCount];\r\n        log.difficulty = _difficulty;\r\n        log.result = GameResult.LOSE;\r\n        log.isRewarded = false;\r\n        log.gameHex = _gameHex;\r\n\r\n        for (uint i = 0 ; i < 3; i++) {\r\n            log.useItem[i] = _useItem[i];\r\n        }\r\n\r\n        // decrease MagnetField (if use items)\r\n        useItems(log.useItem);\r\n\r\n        // substract 10 Magnet Tokens\r\n        Magnet(tokensAddr[0]).payToGamePlay(msg.sender);\r\n        emit START(_difficulty, _gameHex, _useItem, user.totalGameCount);\r\n    }\r\n\r\n\r\n    /**\r\n     * @dev           LOSE  ..\r\n     * @param _gameHex        .\r\n     * @param _isWinner      bool parameter\r\n     */\r\n    function endGame(bytes32 _gameHex, bool _isWinner) public {\r\n        bytes32 userIdentificator = keccak256(abi.encodePacked(msg.sender));\r\n        UserInfo storage user = users[userIdentificator];\r\n        GameLog storage log = user.logs[user.totalGameCount];\r\n\r\n        // check user is in contract's database.\r\n        require(user.gamerID != address(0), \"No User Data: endGame\");\r\n        require(user.totalGameCount != 0, \"No Game History\");\r\n\r\n        // _gameHex recheck(compare with log's hex value :: RECENT GAME!!)\r\n        require(log.gameHex == _gameHex, \"No such Game in logs: endGame\");\r\n        require(log.isRewarded != true, \"Already Rewarded Game: endGame\");\r\n\r\n        //update game result. and reward to users depending on the result of final game.\r\n       // ture : WIN, false : LOSE [get values from front-end game]\r\n       if(_isWinner){\r\n            log.result = GameResult.WIN;\r\n        } else {\r\n            log.result = GameResult.LOSE;\r\n        }\r\n\r\n        if(rewardUser(log.difficulty, _isWinner)) {\r\n            log.isRewarded = true;\r\n        }\r\n    }\r\n\r\n    /**\r\n     * @dev     \r\n     * @param  _difficulty  \r\n     * @param  _isWinner  \r\n     * @return     true .\r\n     */\r\n    function rewardUser(bytes2 _difficulty, bool _isWinner) internal returns (bool) {\r\n        if(_isWinner) {\r\n            require(Magnet(tokensAddr[0]).rewardTokens(_difficulty, msg.sender), \"Revert from Magnet : rewardUser\");\r\n            require(MagnetField(tokensAddr[1]).rewardTokens(_difficulty, msg.sender, _isWinner), \"Revert from MagnetF : rewardUser\");\r\n            emit WIN();\r\n        } else {\r\n            require(MagnetField(tokensAddr[1]).rewardTokens(_difficulty, msg.sender, _isWinner), \"Revert from MagnetF : rewardUser\");\r\n            emit LOSE();\r\n        }\r\n        return true;\r\n    }\r\n\r\n    /**\r\n     * @dev      .\r\n     * @return     .\r\n     */\r\n    function getTotalGameCount() public view returns (uint256) {\r\n        UserInfo memory user = users[keccak256(abi.encodePacked(msg.sender))];\r\n        return user.totalGameCount;\r\n    }\r\n    /**\r\n     * @dev  (index)   .\r\n     *      Solidity   mapping     index .\r\n     *      for loop front-end     .\r\n     *      getTotalGameCount()  front-end      for loop \r\n     *       .\r\n     * @param  index   \r\n     * @return    .\r\n     */\r\n    function getGameResults(uint256 index) public view returns (bytes2 difficulty, bytes32 gameHex, GameResult result) {\r\n        if (users[keccak256(abi.encodePacked(msg.sender))].gamerID == address(0) ||\r\n            users[keccak256(abi.encodePacked(msg.sender))].totalGameCount < index) {\r\n            difficulty = bytes2(\"NA\");\r\n            result = GameResult.NOT_FOUND;\r\n        } else {\r\n            UserInfo storage user = users[keccak256(abi.encodePacked(msg.sender))];\r\n            GameLog storage log = user.logs[index];\r\n\r\n            difficulty = log.difficulty;\r\n            gameHex = log.gameHex;\r\n            result = log.result;\r\n        }\r\n\r\n    }\r\n\r\n    /**\r\n     * @dev MagnetField  Magnet   .\r\n     * @param  _amount   Magnet  \r\n     * @return  transaction   true .\r\n     */\r\n     function exchangeTokens(uint256 _amount) public returns (bool) {\r\n        require(MagnetField(tokensAddr[1]).exchangeTokens(_amount, msg.sender),\"Revert from MagnetF : exchangeTokens\"); // magnetField  .\r\n        require(Magnet(tokensAddr[0]).exchangeTokens(_amount, msg.sender), \"Revert from Magnet : exchangeTokens\"); // magnet  .\r\n        return true;\r\n     }\r\n\r\n    /*\r\n     *struct UserInfo {\r\n     * address payable gamerID; // User account address\r\n     * uint256 totalGameCount;  // to tracking recent GameResult.\r\n     * mapping (uint256 => GameResult) results; // start from 0 to N.... (game result log)\r\n     * bool isPlaying;\r\n     *}\r\n     */\r\n     function getUserInfo() public view returns (address _gamerID, uint256 _totalGameCount) {\r\n        UserInfo storage user = users[keccak256(abi.encodePacked(msg.sender))];\r\n        _gamerID = user.gamerID;\r\n        _totalGameCount = user.totalGameCount;\r\n     }\r\n}",
  "sourcePath": "C:/Users/khw64/OneDrive//GitHub/MineSweeperDApp/contracts/GameController.sol",
  "compiler": {
    "name": "solc",
    "version": "0.5.0+commit.1d4f565a.Emscripten.clang"
  },
  "schemaVersion": "3.0.3",
  "updatedAt": "2019-09-18T07:35:35.439Z",
  "devdoc": {
    "methods": {
      "endGame(bytes32,bool)": {
        "details": "          LOSE  ..\r",
        "params": {
          "_gameHex": "       .\r",
          "_isWinner": "     bool parameter\r"
        }
      },
      "exchangeTokens(uint256)": {
        "details": "MagnetField  Magnet   .\r",
        "params": {
          "_amount": "  Magnet  \r"
        },
        "return": " transaction   true .\r"
      },
      "getGameResults(uint256)": {
        "details": " (index)   .\r     Solidity   mapping     index .\r     for loop front-end     .\r     getTotalGameCount()  front-end      for loop \r      .\r",
        "params": {
          "index": " \r"
        },
        "return": "   .\r"
      },
      "getTotalGameCount()": {
        "details": "     .\r",
        "return": "    .\r"
      },
      "startGame(bytes2,uint8,bytes32,bool[3])": {
        "details": "            START  .\r",
        "params": {
          "_difficulty": "  front-end .\r",
          "_gameCost": "   Magnet   front-end .\r",
          "_gameHex": " transparency  sha256 value front-end .\r"
        }
      },
      "useItems(bool[3])": {
        "details": "       MagnetField  .\r",
        "params": {
          "_useItems": "       parameter\r"
        },
        "return": "   true .\r"
      }
    }
  },
  "userdoc": {
    "methods": {}
  }
}