{
  "contractName": "GameController",
  "abi": [
    {
      "constant": true,
      "inputs": [],
      "name": "owner",
      "outputs": [
        {
          "name": "",
          "type": "address"
        }
      ],
      "payable": false,
      "stateMutability": "view",
      "type": "function",
      "signature": "0x8da5cb5b"
    },
    {
      "inputs": [],
      "payable": false,
      "stateMutability": "nonpayable",
      "type": "constructor",
      "signature": "constructor"
    },
    {
      "anonymous": false,
      "inputs": [
        {
          "indexed": false,
          "name": "difficulty",
          "type": "bytes2"
        },
        {
          "indexed": false,
          "name": "gameHex",
          "type": "bytes32"
        },
        {
          "indexed": false,
          "name": "useItem",
          "type": "bool[3]"
        },
        {
          "indexed": false,
          "name": "totalGameCount",
          "type": "uint256"
        }
      ],
      "name": "START",
      "type": "event",
      "signature": "0xc7ac18fce2161ed5213e36b291b3e1338d444d67b7fc2a53f66fb1776ff7b5ae"
    },
    {
      "anonymous": false,
      "inputs": [],
      "name": "WIN",
      "type": "event",
      "signature": "0xa9b48ba7eb46d59a96fea22bbc7e53c3af344d9c75ee09e78b0f32ca4f8c2a8f"
    },
    {
      "anonymous": false,
      "inputs": [],
      "name": "LOSE",
      "type": "event",
      "signature": "0x8fd268e19e11911908022dbdaf0fb3c386fc668c496b50cdf278bb9ea3c02712"
    },
    {
      "constant": false,
      "inputs": [
        {
          "name": "amount",
          "type": "uint256"
        }
      ],
      "name": "exchangeTokens",
      "outputs": [
        {
          "name": "",
          "type": "bool"
        }
      ],
      "payable": false,
      "stateMutability": "nonpayable",
      "type": "function",
      "signature": "0x40477126"
    }
  ],
  "bytecode": "0x608060405234801561001057600080fd5b5033600260006101000a81548173ffffffffffffffffffffffffffffffffffffffff021916908373ffffffffffffffffffffffffffffffffffffffff1602179055503361005b6101ac565b808273ffffffffffffffffffffffffffffffffffffffff1673ffffffffffffffffffffffffffffffffffffffff168152602001915050604051809103906000f0801580156100ad573d6000803e3d6000fd5b506000806002811015156100bd57fe5b0160006101000a81548173ffffffffffffffffffffffffffffffffffffffff021916908373ffffffffffffffffffffffffffffffffffffffff160217905550336101056101bc565b808273ffffffffffffffffffffffffffffffffffffffff1673ffffffffffffffffffffffffffffffffffffffff168152602001915050604051809103906000f080158015610157573d6000803e3d6000fd5b506000600160028110151561016857fe5b0160006101000a81548173ffffffffffffffffffffffffffffffffffffffff021916908373ffffffffffffffffffffffffffffffffffffffff1602179055506101cc565b60405161209e8061068383390190565b604051611ec58061272183390190565b6104a8806101db6000396000f3fe60806040526004361061004c576000357c0100000000000000000000000000000000000000000000000000000000900463ffffffff16806340477126146100515780638da5cb5b146100a4575b600080fd5b34801561005d57600080fd5b5061008a6004803603602081101561007457600080fd5b81019080803590602001909291905050506100fb565b604051808215151515815260200191505060405180910390f35b3480156100b057600080fd5b506100b9610456565b604051808273ffffffffffffffffffffffffffffffffffffffff1673ffffffffffffffffffffffffffffffffffffffff16815260200191505060405180910390f35b600080600160028110151561010c57fe5b0160009054906101000a900473ffffffffffffffffffffffffffffffffffffffff1673ffffffffffffffffffffffffffffffffffffffff1663d92dd1cb83336040518363ffffffff167c0100000000000000000000000000000000000000000000000000000000028152600401808381526020018273ffffffffffffffffffffffffffffffffffffffff1673ffffffffffffffffffffffffffffffffffffffff16815260200192505050602060405180830381600087803b1580156101d057600080fd5b505af11580156101e4573d6000803e3d6000fd5b505050506040513d60208110156101fa57600080fd5b810190808051906020019092919050505015156102a5576040517f08c379a00000000000000000000000000000000000000000000000000000000081526004018080602001828103825260248152602001807f5265766572742066726f6d204d61676e657446203a2065786368616e6765546f81526020017f6b656e730000000000000000000000000000000000000000000000000000000081525060400191505060405180910390fd5b6000806002811015156102b457fe5b0160009054906101000a900473ffffffffffffffffffffffffffffffffffffffff1673ffffffffffffffffffffffffffffffffffffffff1663d92dd1cb83336040518363ffffffff167c0100000000000000000000000000000000000000000000000000000000028152600401808381526020018273ffffffffffffffffffffffffffffffffffffffff1673ffffffffffffffffffffffffffffffffffffffff16815260200192505050602060405180830381600087803b15801561037857600080fd5b505af115801561038c573d6000803e3d6000fd5b505050506040513d60208110156103a257600080fd5b8101908080519060200190929190505050151561044d576040517f08c379a00000000000000000000000000000000000000000000000000000000081526004018080602001828103825260238152602001807f5265766572742066726f6d204d61676e6574203a2065786368616e6765546f6b81526020017f656e73000000000000000000000000000000000000000000000000000000000081525060400191505060405180910390fd5b60019050919050565b600260009054906101000a900473ffffffffffffffffffffffffffffffffffffffff168156fea165627a7a72305820674f17bf868a0ce30297f393f43a04a6c4a8d794e077e4f7073ff49cbc14d82c002960806040523480156200001157600080fd5b506040516020806200209e833981018060405260208110156200003357600080fd5b8101908080519060200190929190505050806000806101000a81548173ffffffffffffffffffffffffffffffffffffffff021916908373ffffffffffffffffffffffffffffffffffffffff16021790555033600160006101000a81548173ffffffffffffffffffffffffffffffffffffffff021916908373ffffffffffffffffffffffffffffffffffffffff1602179055506040805190810160405280600681526020017f4d61676e657400000000000000000000000000000000000000000000000000008152506002908051906020019062000112929190620001a1565b506040805190810160405280600281526020017f4d470000000000000000000000000000000000000000000000000000000000008152506003908051906020019062000160929190620001a1565b506008600481905550600454600a0a630bebc20002600581905550600454600a0a630bebc20002600681905550655af3107a40006007819055505062000250565b828054600181600116156101000203166002900490600052602060002090601f016020900481019282601f10620001e457805160ff191683800117855562000215565b8280016001018555821562000215579182015b8281111562000214578251825591602001919060010190620001f7565b5b50905062000224919062000228565b5090565b6200024d91905b80821115620002495760008160009055506001016200022f565b5090565b90565b611e3e80620002606000396000f3fe6080604052600436106100f1576000357c0100000000000000000000000000000000000000000000000000000000900463ffffffff16806306fdde03146100f6578063095ea7b31461018657806323b872dd146101f9578063313ce5671461028c57806339509351146102b757806343d2c7521461032a57806370a08231146103be5780638da5cb5b1461042357806395d89b411461047a578063a457c2d71461050a578063a5233b251461057d578063a9059cbb146105ce578063c4e41b2214610641578063d0febe4c1461066c578063d92dd1cb1461068e578063dd62ed3e14610701578063f77c479114610786575b600080fd5b34801561010257600080fd5b5061010b6107dd565b6040518080602001828103825283818151815260200191508051906020019080838360005b8381101561014b578082015181840152602081019050610130565b50505050905090810190601f1680156101785780820380516001836020036101000a031916815260200191505b509250505060405180910390f35b34801561019257600080fd5b506101df600480360360408110156101a957600080fd5b81019080803573ffffffffffffffffffffffffffffffffffffffff1690602001909291908035906020019092919050505061087b565b604051808215151515815260200191505060405180910390f35b34801561020557600080fd5b506102726004803603606081101561021c57600080fd5b81019080803573ffffffffffffffffffffffffffffffffffffffff169060200190929190803573ffffffffffffffffffffffffffffffffffffffff16906020019092919080359060200190929190505050610892565b604051808215151515815260200191505060405180910390f35b34801561029857600080fd5b506102a1610943565b6040518082815260200191505060405180910390f35b3480156102c357600080fd5b50610310600480360360408110156102da57600080fd5b81019080803573ffffffffffffffffffffffffffffffffffffffff16906020019092919080359060200190929190505050610949565b604051808215151515815260200191505060405180910390f35b34801561033657600080fd5b506103a46004803603604081101561034d57600080fd5b8101908080357dffffffffffffffffffffffffffffffffffffffffffffffffffffffffffff19169060200190929190803573ffffffffffffffffffffffffffffffffffffffff1690602001909291905050506109ee565b604051808215151515815260200191505060405180910390f35b3480156103ca57600080fd5b5061040d600480360360208110156103e157600080fd5b81019080803573ffffffffffffffffffffffffffffffffffffffff169060200190929190505050610d7d565b6040518082815260200191505060405180910390f35b34801561042f57600080fd5b50610438610dc6565b604051808273ffffffffffffffffffffffffffffffffffffffff1673ffffffffffffffffffffffffffffffffffffffff16815260200191505060405180910390f35b34801561048657600080fd5b5061048f610deb565b6040518080602001828103825283818151815260200191508051906020019080838360005b838110156104cf5780820151818401526020810190506104b4565b50505050905090810190601f1680156104fc5780820380516001836020036101000a031916815260200191505b509250505060405180910390f35b34801561051657600080fd5b506105636004803603604081101561052d57600080fd5b81019080803573ffffffffffffffffffffffffffffffffffffffff16906020019092919080359060200190929190505050610e89565b604051808215151515815260200191505060405180910390f35b34801561058957600080fd5b506105cc600480360360208110156105a057600080fd5b81019080803573ffffffffffffffffffffffffffffffffffffffff169060200190929190505050610f2e565b005b3480156105da57600080fd5b50610627600480360360408110156105f157600080fd5b81019080803573ffffffffffffffffffffffffffffffffffffffff16906020019092919080359060200190929190505050611051565b604051808215151515815260200191505060405180910390f35b34801561064d57600080fd5b50610656611068565b6040518082815260200191505060405180910390f35b610674611072565b604051808215151515815260200191505060405180910390f35b34801561069a57600080fd5b506106e7600480360360408110156106b157600080fd5b8101908080359060200190929190803573ffffffffffffffffffffffffffffffffffffffff16906020019092919050505061125c565b604051808215151515815260200191505060405180910390f35b34801561070d57600080fd5b506107706004803603604081101561072457600080fd5b81019080803573ffffffffffffffffffffffffffffffffffffffff169060200190929190803573ffffffffffffffffffffffffffffffffffffffff169060200190929190505050611528565b6040518082815260200191505060405180910390f35b34801561079257600080fd5b5061079b6115af565b604051808273ffffffffffffffffffffffffffffffffffffffff1673ffffffffffffffffffffffffffffffffffffffff16815260200191505060405180910390f35b60028054600181600116156101000203166002900480601f0160208091040260200160405190810160405280929190818152602001828054600181600116156101000203166002900480156108735780601f1061084857610100808354040283529160200191610873565b820191906000526020600020905b81548152906001019060200180831161085657829003601f168201915b505050505081565b60006108883384846115d5565b6001905092915050565b600061089f848484611856565b610938843361093385600960008a73ffffffffffffffffffffffffffffffffffffffff1673ffffffffffffffffffffffffffffffffffffffff16815260200190815260200160002060003373ffffffffffffffffffffffffffffffffffffffff1673ffffffffffffffffffffffffffffffffffffffff16815260200190815260200160002054611b8090919063ffffffff16565b6115d5565b600190509392505050565b60045481565b60006109e433846109df85600960003373ffffffffffffffffffffffffffffffffffffffff1673ffffffffffffffffffffffffffffffffffffffff16815260200190815260200160002060008973ffffffffffffffffffffffffffffffffffffffff1673ffffffffffffffffffffffffffffffffffffffff16815260200190815260200160002054611c0b90919063ffffffff16565b6115d5565b6001905092915050565b60008060009054906101000a900473ffffffffffffffffffffffffffffffffffffffff1673ffffffffffffffffffffffffffffffffffffffff163373ffffffffffffffffffffffffffffffffffffffff161480610a985750600160009054906101000a900473ffffffffffffffffffffffffffffffffffffffff1673ffffffffffffffffffffffffffffffffffffffff163373ffffffffffffffffffffffffffffffffffffffff16145b1515610b0c576040517f08c379a00000000000000000000000000000000000000000000000000000000081526004018080602001828103825260138152602001807f556e617574686f72697a65642073656e6465720000000000000000000000000081525060200191505060405180910390fd5b7f455a0000000000000000000000000000000000000000000000000000000000007dffffffffffffffffffffffffffffffffffffffffffffffffffffffffffff1916837dffffffffffffffffffffffffffffffffffffffffffffffffffffffffffff1916148015610b835750610b826007611c95565b5b15610bdb576007600860008473ffffffffffffffffffffffffffffffffffffffff1673ffffffffffffffffffffffffffffffffffffffff16815260200190815260200160002060008282540192505081905550610d77565b7f4e4d0000000000000000000000000000000000000000000000000000000000007dffffffffffffffffffffffffffffffffffffffffffffffffffffffffffff1916837dffffffffffffffffffffffffffffffffffffffffffffffffffffffffffff1916148015610c525750610c51600a611c95565b5b15610caa57600a600860008473ffffffffffffffffffffffffffffffffffffffff1673ffffffffffffffffffffffffffffffffffffffff16815260200190815260200160002060008282540192505081905550610d76565b7f48440000000000000000000000000000000000000000000000000000000000007dffffffffffffffffffffffffffffffffffffffffffffffffffffffffffff1916837dffffffffffffffffffffffffffffffffffffffffffffffffffffffffffff1916148015610d215750610d206014611c95565b5b15610d75576014600860008473ffffffffffffffffffffffffffffffffffffffff1673ffffffffffffffffffffffffffffffffffffffff168152602001908152602001600020600082825401925050819055505b5b5b92915050565b6000600860008373ffffffffffffffffffffffffffffffffffffffff1673ffffffffffffffffffffffffffffffffffffffff168152602001908152602001600020549050919050565b6000809054906101000a900473ffffffffffffffffffffffffffffffffffffffff1681565b60038054600181600116156101000203166002900480601f016020809104026020016040519081016040528092919081815260200182805460018160011615610100020316600290048015610e815780601f10610e5657610100808354040283529160200191610e81565b820191906000526020600020905b815481529060010190602001808311610e6457829003601f168201915b505050505081565b6000610f243384610f1f85600960003373ffffffffffffffffffffffffffffffffffffffff1673ffffffffffffffffffffffffffffffffffffffff16815260200190815260200160002060008973ffffffffffffffffffffffffffffffffffffffff1673ffffffffffffffffffffffffffffffffffffffff16815260200190815260200160002054611b8090919063ffffffff16565b6115d5565b6001905092915050565b600a60ff16600860008373ffffffffffffffffffffffffffffffffffffffff1673ffffffffffffffffffffffffffffffffffffffff1681526020019081526020016000205410151515610fe9576040517f08c379a00000000000000000000000000000000000000000000000000000000081526004018080602001828103825260128152602001807f4e6f7420656e6f7567682042616c616e6365000000000000000000000000000081525060200191505060405180910390fd5b600a60ff16600860008373ffffffffffffffffffffffffffffffffffffffff1673ffffffffffffffffffffffffffffffffffffffff16815260200190815260200160002060008282540392505081905550600a60ff1660066000828254019250508190555050565b600061105e338484611856565b6001905092915050565b6000600554905090565b6000806007543481151561108257fe5b049050600860003373ffffffffffffffffffffffffffffffffffffffff1673ffffffffffffffffffffffffffffffffffffffff1681526020019081526020016000205481600860003373ffffffffffffffffffffffffffffffffffffffff1673ffffffffffffffffffffffffffffffffffffffff16815260200190815260200160002054011015151561117d576040517f08c379a00000000000000000000000000000000000000000000000000000000081526004018080602001828103825260108152602001807f4f766572466c6f77204f6363757265640000000000000000000000000000000081525060200191505060405180910390fd5b80600654101515156111f7576040517f08c379a000000000000000000000000000000000000000000000000000000000815260040180806020018281038252601c8152602001807f4e6f7420656e6f75676820537570706c6961626c6520546f6b656e730000000081525060200191505060405180910390fd5b80600860003373ffffffffffffffffffffffffffffffffffffffff1673ffffffffffffffffffffffffffffffffffffffff1681526020019081526020016000206000828254019250508190555080600660008282540392505081905550600191505090565b60008060009054906101000a900473ffffffffffffffffffffffffffffffffffffffff1673ffffffffffffffffffffffffffffffffffffffff163373ffffffffffffffffffffffffffffffffffffffff1614806113065750600160009054906101000a900473ffffffffffffffffffffffffffffffffffffffff1673ffffffffffffffffffffffffffffffffffffffff163373ffffffffffffffffffffffffffffffffffffffff16145b151561137a576040517f08c379a00000000000000000000000000000000000000000000000000000000081526004018080602001828103825260138152602001807f556e617574686f72697a65642073656e6465720000000000000000000000000081525060200191505060405180910390fd5b82600860008473ffffffffffffffffffffffffffffffffffffffff1673ffffffffffffffffffffffffffffffffffffffff1681526020019081526020016000205410151515611431576040517f08c379a00000000000000000000000000000000000000000000000000000000081526004018080602001828103825260128152602001807f4e6f7420656e6f7567682042616c616e6365000000000000000000000000000081525060200191505060405180910390fd5b61271083101515156114d1576040517f08c379a00000000000000000000000000000000000000000000000000000000081526004018080602001828103825260268152602001807f4e6f74205265616368204d696e696d616c20436f6e646974696f6e3a2031303081526020017f3030204d4654000000000000000000000000000000000000000000000000000081525060400191505060405180910390fd5b82600860008473ffffffffffffffffffffffffffffffffffffffff1673ffffffffffffffffffffffffffffffffffffffff168152602001908152602001600020600082825403925050819055506001905092915050565b6000600960008473ffffffffffffffffffffffffffffffffffffffff1673ffffffffffffffffffffffffffffffffffffffff16815260200190815260200160002060008373ffffffffffffffffffffffffffffffffffffffff1673ffffffffffffffffffffffffffffffffffffffff16815260200190815260200160002054905092915050565b600160009054906101000a900473ffffffffffffffffffffffffffffffffffffffff1681565b600073ffffffffffffffffffffffffffffffffffffffff168373ffffffffffffffffffffffffffffffffffffffff16141515156116a0576040517f08c379a00000000000000000000000000000000000000000000000000000000081526004018080602001828103825260248152602001807f45524332303a20617070726f76652066726f6d20746865207a65726f2061646481526020017f726573730000000000000000000000000000000000000000000000000000000081525060400191505060405180910390fd5b600073ffffffffffffffffffffffffffffffffffffffff168273ffffffffffffffffffffffffffffffffffffffff161415151561176b576040517f08c379a00000000000000000000000000000000000000000000000000000000081526004018080602001828103825260228152602001807f45524332303a20617070726f766520746f20746865207a65726f20616464726581526020017f737300000000000000000000000000000000000000000000000000000000000081525060400191505060405180910390fd5b80600960008573ffffffffffffffffffffffffffffffffffffffff1673ffffffffffffffffffffffffffffffffffffffff16815260200190815260200160002060008473ffffffffffffffffffffffffffffffffffffffff1673ffffffffffffffffffffffffffffffffffffffff168152602001908152602001600020819055508173ffffffffffffffffffffffffffffffffffffffff168373ffffffffffffffffffffffffffffffffffffffff167f8c5be1e5ebec7d5bd14f71427d1e84f3dd0314c0f7b2291e5b200ac8c7c3b925836040518082815260200191505060405180910390a3505050565b600073ffffffffffffffffffffffffffffffffffffffff168373ffffffffffffffffffffffffffffffffffffffff1614151515611921576040517f08c379a00000000000000000000000000000000000000000000000000000000081526004018080602001828103825260258152602001807f45524332303a207472616e736665722066726f6d20746865207a65726f20616481526020017f647265737300000000000000000000000000000000000000000000000000000081525060400191505060405180910390fd5b600073ffffffffffffffffffffffffffffffffffffffff168273ffffffffffffffffffffffffffffffffffffffff16141515156119ec576040517f08c379a00000000000000000000000000000000000000000000000000000000081526004018080602001828103825260238152602001807f45524332303a207472616e7366657220746f20746865207a65726f206164647281526020017f657373000000000000000000000000000000000000000000000000000000000081525060400191505060405180910390fd5b611a3e81600860008673ffffffffffffffffffffffffffffffffffffffff1673ffffffffffffffffffffffffffffffffffffffff16815260200190815260200160002054611b8090919063ffffffff16565b600860008573ffffffffffffffffffffffffffffffffffffffff1673ffffffffffffffffffffffffffffffffffffffff16815260200190815260200160002081905550611ad381600860008573ffffffffffffffffffffffffffffffffffffffff1673ffffffffffffffffffffffffffffffffffffffff16815260200190815260200160002054611c0b90919063ffffffff16565b600860008473ffffffffffffffffffffffffffffffffffffffff1673ffffffffffffffffffffffffffffffffffffffff168152602001908152602001600020819055508173ffffffffffffffffffffffffffffffffffffffff168373ffffffffffffffffffffffffffffffffffffffff167fddf252ad1be2c89b69c2b068fc378daa952ba7f163c4a11628f55a4df523b3ef836040518082815260200191505060405180910390a3505050565b6000828211151515611bfa576040517f08c379a000000000000000000000000000000000000000000000000000000000815260040180806020018281038252601e8152602001807f536166654d6174683a207375627472616374696f6e206f766572666c6f77000081525060200191505060405180910390fd5b600082840390508091505092915050565b6000808284019050838110151515611c8b576040517f08c379a000000000000000000000000000000000000000000000000000000000815260040180806020018281038252601b8152602001807f536166654d6174683a206164646974696f6e206f766572666c6f77000000000081525060200191505060405180910390fd5b8091505092915050565b60008160065410151515611d11576040517f08c379a000000000000000000000000000000000000000000000000000000000815260040180806020018281038252601c8152602001807f4e6f7420656e6f75676820537570706c6961626c6520546f6b656e730000000081525060200191505060405180910390fd5b600860003373ffffffffffffffffffffffffffffffffffffffff1673ffffffffffffffffffffffffffffffffffffffff1681526020019081526020016000205482600860003373ffffffffffffffffffffffffffffffffffffffff1673ffffffffffffffffffffffffffffffffffffffff168152602001908152602001600020540110151515611e09576040517f08c379a00000000000000000000000000000000000000000000000000000000081526004018080602001828103825260108152602001807f4f766572666c6f77204f6363757265640000000000000000000000000000000081525060200191505060405180910390fd5b6001905091905056fea165627a7a723058200c39969886815756d68b4727ce3ba67879a8cc8aac163b540d6c1029596a0f17002960806040523480156200001157600080fd5b5060405160208062001ec5833981018060405260208110156200003357600080fd5b8101908080519060200190929190505050806000806101000a81548173ffffffffffffffffffffffffffffffffffffffff021916908373ffffffffffffffffffffffffffffffffffffffff16021790555033600160006101000a81548173ffffffffffffffffffffffffffffffffffffffff021916908373ffffffffffffffffffffffffffffffffffffffff1602179055506040805190810160405280600b81526020017f4d61676e65744669656c64000000000000000000000000000000000000000000815250600290805190602001906200011292919062000194565b506040805190810160405280600381526020017f4d47460000000000000000000000000000000000000000000000000000000000815250600390805190602001906200016092919062000194565b506008600481905550600454600a0a630bebc20002600581905550600454600a0a630bebc200026006819055505062000243565b828054600181600116156101000203166002900490600052602060002090601f016020900481019282601f10620001d757805160ff191683800117855562000208565b8280016001018555821562000208579182015b8281111562000207578251825591602001919060010190620001ea565b5b5090506200021791906200021b565b5090565b6200024091905b808211156200023c57600081600090555060010162000222565b5090565b90565b611c7280620002536000396000f3fe6080604052600436106100e6576000357c0100000000000000000000000000000000000000000000000000000000900463ffffffff16806306fdde03146100eb578063095ea7b31461017b5780631c45202d146101ee57806323b872dd14610249578063313ce567146102dc578063395093511461030757806343d2c7521461037a57806370a082311461040e5780638da5cb5b1461047357806395d89b41146104ca578063a457c2d71461055a578063a9059cbb146105cd578063c4e41b2214610640578063d92dd1cb1461066b578063dd62ed3e146106de578063f77c479114610763575b600080fd5b3480156100f757600080fd5b506101006107ba565b6040518080602001828103825283818151815260200191508051906020019080838360005b83811015610140578082015181840152602081019050610125565b50505050905090810190601f16801561016d5780820380516001836020036101000a031916815260200191505b509250505060405180910390f35b34801561018757600080fd5b506101d46004803603604081101561019e57600080fd5b81019080803573ffffffffffffffffffffffffffffffffffffffff16906020019092919080359060200190929190505050610858565b604051808215151515815260200191505060405180910390f35b3480156101fa57600080fd5b506102476004803603604081101561021157600080fd5b8101908080359060200190929190803573ffffffffffffffffffffffffffffffffffffffff16906020019092919050505061086f565b005b34801561025557600080fd5b506102c26004803603606081101561026c57600080fd5b81019080803573ffffffffffffffffffffffffffffffffffffffff169060200190929190803573ffffffffffffffffffffffffffffffffffffffff16906020019092919080359060200190929190505050610987565b604051808215151515815260200191505060405180910390f35b3480156102e857600080fd5b506102f1610a38565b6040518082815260200191505060405180910390f35b34801561031357600080fd5b506103606004803603604081101561032a57600080fd5b81019080803573ffffffffffffffffffffffffffffffffffffffff16906020019092919080359060200190929190505050610a3e565b604051808215151515815260200191505060405180910390f35b34801561038657600080fd5b506103f46004803603604081101561039d57600080fd5b8101908080357dffffffffffffffffffffffffffffffffffffffffffffffffffffffffffff19169060200190929190803573ffffffffffffffffffffffffffffffffffffffff169060200190929190505050610ae3565b604051808215151515815260200191505060405180910390f35b34801561041a57600080fd5b5061045d6004803603602081101561043157600080fd5b81019080803573ffffffffffffffffffffffffffffffffffffffff169060200190929190505050610eae565b6040518082815260200191505060405180910390f35b34801561047f57600080fd5b50610488610ef7565b604051808273ffffffffffffffffffffffffffffffffffffffff1673ffffffffffffffffffffffffffffffffffffffff16815260200191505060405180910390f35b3480156104d657600080fd5b506104df610f1c565b6040518080602001828103825283818151815260200191508051906020019080838360005b8381101561051f578082015181840152602081019050610504565b50505050905090810190601f16801561054c5780820380516001836020036101000a031916815260200191505b509250505060405180910390f35b34801561056657600080fd5b506105b36004803603604081101561057d57600080fd5b81019080803573ffffffffffffffffffffffffffffffffffffffff16906020019092919080359060200190929190505050610fba565b604051808215151515815260200191505060405180910390f35b3480156105d957600080fd5b50610626600480360360408110156105f057600080fd5b81019080803573ffffffffffffffffffffffffffffffffffffffff1690602001909291908035906020019092919050505061105f565b604051808215151515815260200191505060405180910390f35b34801561064c57600080fd5b50610655611076565b6040518082815260200191505060405180910390f35b34801561067757600080fd5b506106c46004803603604081101561068e57600080fd5b8101908080359060200190929190803573ffffffffffffffffffffffffffffffffffffffff169060200190929190505050611080565b604051808215151515815260200191505060405180910390f35b3480156106ea57600080fd5b5061074d6004803603604081101561070157600080fd5b81019080803573ffffffffffffffffffffffffffffffffffffffff169060200190929190803573ffffffffffffffffffffffffffffffffffffffff16906020019092919050505061135c565b6040518082815260200191505060405180910390f35b34801561076f57600080fd5b506107786113e3565b604051808273ffffffffffffffffffffffffffffffffffffffff1673ffffffffffffffffffffffffffffffffffffffff16815260200191505060405180910390f35b60028054600181600116156101000203166002900480601f0160208091040260200160405190810160405280929190818152602001828054600181600116156101000203166002900480156108505780601f1061082557610100808354040283529160200191610850565b820191906000526020600020905b81548152906001019060200180831161083357829003601f168201915b505050505081565b6000610865338484611409565b6001905092915050565b81600860008373ffffffffffffffffffffffffffffffffffffffff1673ffffffffffffffffffffffffffffffffffffffff1681526020019081526020016000205410151515610926576040517f08c379a00000000000000000000000000000000000000000000000000000000081526004018080602001828103825260128152602001807f4e6f7420656e6f7567682042616c616e6365000000000000000000000000000081525060200191505060405180910390fd5b81600860008373ffffffffffffffffffffffffffffffffffffffff1673ffffffffffffffffffffffffffffffffffffffff16815260200190815260200160002060008282540392505081905550816006600082825401925050819055505050565b600061099484848461168a565b610a2d8433610a2885600960008a73ffffffffffffffffffffffffffffffffffffffff1673ffffffffffffffffffffffffffffffffffffffff16815260200190815260200160002060003373ffffffffffffffffffffffffffffffffffffffff1673ffffffffffffffffffffffffffffffffffffffff168152602001908152602001600020546119b490919063ffffffff16565b611409565b600190509392505050565b60045481565b6000610ad93384610ad485600960003373ffffffffffffffffffffffffffffffffffffffff1673ffffffffffffffffffffffffffffffffffffffff16815260200190815260200160002060008973ffffffffffffffffffffffffffffffffffffffff1673ffffffffffffffffffffffffffffffffffffffff16815260200190815260200160002054611a3f90919063ffffffff16565b611409565b6001905092915050565b60008060009054906101000a900473ffffffffffffffffffffffffffffffffffffffff1673ffffffffffffffffffffffffffffffffffffffff163373ffffffffffffffffffffffffffffffffffffffff161480610b8d5750600160009054906101000a900473ffffffffffffffffffffffffffffffffffffffff1673ffffffffffffffffffffffffffffffffffffffff163373ffffffffffffffffffffffffffffffffffffffff16145b1515610c01576040517f08c379a00000000000000000000000000000000000000000000000000000000081526004018080602001828103825260138152602001807f556e617574686f72697a65642073656e6465720000000000000000000000000081525060200191505060405180910390fd5b7f455a0000000000000000000000000000000000000000000000000000000000007dffffffffffffffffffffffffffffffffffffffffffffffffffffffffffff1916837dffffffffffffffffffffffffffffffffffffffffffffffffffffffffffff1916148015610c795750610c786102bc611ac9565b5b15610ce4576102bc600860008473ffffffffffffffffffffffffffffffffffffffff1673ffffffffffffffffffffffffffffffffffffffff168152602001908152602001600020600082825401925050819055506102bc600660008282540392505081905550610ea8565b7f4e4d0000000000000000000000000000000000000000000000000000000000007dffffffffffffffffffffffffffffffffffffffffffffffffffffffffffff1916837dffffffffffffffffffffffffffffffffffffffffffffffffffffffffffff1916148015610d5c5750610d5b6103e8611ac9565b5b15610dc7576103e8600860008473ffffffffffffffffffffffffffffffffffffffff1673ffffffffffffffffffffffffffffffffffffffff168152602001908152602001600020600082825401925050819055506103e8600660008282540392505081905550610ea7565b7f48440000000000000000000000000000000000000000000000000000000000007dffffffffffffffffffffffffffffffffffffffffffffffffffffffffffff1916837dffffffffffffffffffffffffffffffffffffffffffffffffffffffffffff1916148015610e3f5750610e3e6107d0611ac9565b5b15610ea6576107d0600860008473ffffffffffffffffffffffffffffffffffffffff1673ffffffffffffffffffffffffffffffffffffffff168152602001908152602001600020600082825401925050819055506107d06006600082825403925050819055505b5b5b92915050565b6000600860008373ffffffffffffffffffffffffffffffffffffffff1673ffffffffffffffffffffffffffffffffffffffff168152602001908152602001600020549050919050565b6000809054906101000a900473ffffffffffffffffffffffffffffffffffffffff1681565b60038054600181600116156101000203166002900480601f016020809104026020016040519081016040528092919081815260200182805460018160011615610100020316600290048015610fb25780601f10610f8757610100808354040283529160200191610fb2565b820191906000526020600020905b815481529060010190602001808311610f9557829003601f168201915b505050505081565b6000611055338461105085600960003373ffffffffffffffffffffffffffffffffffffffff1673ffffffffffffffffffffffffffffffffffffffff16815260200190815260200160002060008973ffffffffffffffffffffffffffffffffffffffff1673ffffffffffffffffffffffffffffffffffffffff168152602001908152602001600020546119b490919063ffffffff16565b611409565b6001905092915050565b600061106c33848461168a565b6001905092915050565b6000600554905090565b60008060009054906101000a900473ffffffffffffffffffffffffffffffffffffffff1673ffffffffffffffffffffffffffffffffffffffff163373ffffffffffffffffffffffffffffffffffffffff16148061112a5750600160009054906101000a900473ffffffffffffffffffffffffffffffffffffffff1673ffffffffffffffffffffffffffffffffffffffff163373ffffffffffffffffffffffffffffffffffffffff16145b151561119e576040517f08c379a00000000000000000000000000000000000000000000000000000000081526004018080602001828103825260138152602001807f556e617574686f72697a65642073656e6465720000000000000000000000000081525060200191505060405180910390fd5b82600860008473ffffffffffffffffffffffffffffffffffffffff1673ffffffffffffffffffffffffffffffffffffffff1681526020019081526020016000205410151515611255576040517f08c379a00000000000000000000000000000000000000000000000000000000081526004018080602001828103825260128152602001807f4e6f7420656e6f7567682042616c616e6365000000000000000000000000000081525060200191505060405180910390fd5b61271083101515156112f5576040517f08c379a00000000000000000000000000000000000000000000000000000000081526004018080602001828103825260268152602001807f4e6f74205265616368204d696e696d616c20436f6e646974696f6e3a2031303081526020017f3030204d4654000000000000000000000000000000000000000000000000000081525060400191505060405180910390fd5b82600860008473ffffffffffffffffffffffffffffffffffffffff1673ffffffffffffffffffffffffffffffffffffffff16815260200190815260200160002060008282540392505081905550826006600082825401925050819055506001905092915050565b6000600960008473ffffffffffffffffffffffffffffffffffffffff1673ffffffffffffffffffffffffffffffffffffffff16815260200190815260200160002060008373ffffffffffffffffffffffffffffffffffffffff1673ffffffffffffffffffffffffffffffffffffffff16815260200190815260200160002054905092915050565b600160009054906101000a900473ffffffffffffffffffffffffffffffffffffffff1681565b600073ffffffffffffffffffffffffffffffffffffffff168373ffffffffffffffffffffffffffffffffffffffff16141515156114d4576040517f08c379a00000000000000000000000000000000000000000000000000000000081526004018080602001828103825260248152602001807f45524332303a20617070726f76652066726f6d20746865207a65726f2061646481526020017f726573730000000000000000000000000000000000000000000000000000000081525060400191505060405180910390fd5b600073ffffffffffffffffffffffffffffffffffffffff168273ffffffffffffffffffffffffffffffffffffffff161415151561159f576040517f08c379a00000000000000000000000000000000000000000000000000000000081526004018080602001828103825260228152602001807f45524332303a20617070726f766520746f20746865207a65726f20616464726581526020017f737300000000000000000000000000000000000000000000000000000000000081525060400191505060405180910390fd5b80600960008573ffffffffffffffffffffffffffffffffffffffff1673ffffffffffffffffffffffffffffffffffffffff16815260200190815260200160002060008473ffffffffffffffffffffffffffffffffffffffff1673ffffffffffffffffffffffffffffffffffffffff168152602001908152602001600020819055508173ffffffffffffffffffffffffffffffffffffffff168373ffffffffffffffffffffffffffffffffffffffff167f8c5be1e5ebec7d5bd14f71427d1e84f3dd0314c0f7b2291e5b200ac8c7c3b925836040518082815260200191505060405180910390a3505050565b600073ffffffffffffffffffffffffffffffffffffffff168373ffffffffffffffffffffffffffffffffffffffff1614151515611755576040517f08c379a00000000000000000000000000000000000000000000000000000000081526004018080602001828103825260258152602001807f45524332303a207472616e736665722066726f6d20746865207a65726f20616481526020017f647265737300000000000000000000000000000000000000000000000000000081525060400191505060405180910390fd5b600073ffffffffffffffffffffffffffffffffffffffff168273ffffffffffffffffffffffffffffffffffffffff1614151515611820576040517f08c379a00000000000000000000000000000000000000000000000000000000081526004018080602001828103825260238152602001807f45524332303a207472616e7366657220746f20746865207a65726f206164647281526020017f657373000000000000000000000000000000000000000000000000000000000081525060400191505060405180910390fd5b61187281600860008673ffffffffffffffffffffffffffffffffffffffff1673ffffffffffffffffffffffffffffffffffffffff168152602001908152602001600020546119b490919063ffffffff16565b600860008573ffffffffffffffffffffffffffffffffffffffff1673ffffffffffffffffffffffffffffffffffffffff1681526020019081526020016000208190555061190781600860008573ffffffffffffffffffffffffffffffffffffffff1673ffffffffffffffffffffffffffffffffffffffff16815260200190815260200160002054611a3f90919063ffffffff16565b600860008473ffffffffffffffffffffffffffffffffffffffff1673ffffffffffffffffffffffffffffffffffffffff168152602001908152602001600020819055508173ffffffffffffffffffffffffffffffffffffffff168373ffffffffffffffffffffffffffffffffffffffff167fddf252ad1be2c89b69c2b068fc378daa952ba7f163c4a11628f55a4df523b3ef836040518082815260200191505060405180910390a3505050565b6000828211151515611a2e576040517f08c379a000000000000000000000000000000000000000000000000000000000815260040180806020018281038252601e8152602001807f536166654d6174683a207375627472616374696f6e206f766572666c6f77000081525060200191505060405180910390fd5b600082840390508091505092915050565b6000808284019050838110151515611abf576040517f08c379a000000000000000000000000000000000000000000000000000000000815260040180806020018281038252601b8152602001807f536166654d6174683a206164646974696f6e206f766572666c6f77000000000081525060200191505060405180910390fd5b8091505092915050565b60008160065410151515611b45576040517f08c379a000000000000000000000000000000000000000000000000000000000815260040180806020018281038252601c8152602001807f4e6f7420656e6f75676820537570706c6961626c6520546f6b656e730000000081525060200191505060405180910390fd5b600860003373ffffffffffffffffffffffffffffffffffffffff1673ffffffffffffffffffffffffffffffffffffffff1681526020019081526020016000205482600860003373ffffffffffffffffffffffffffffffffffffffff1673ffffffffffffffffffffffffffffffffffffffff168152602001908152602001600020540110151515611c3d576040517f08c379a00000000000000000000000000000000000000000000000000000000081526004018080602001828103825260108152602001807f4f766572666c6f77204f6363757265640000000000000000000000000000000081525060200191505060405180910390fd5b6001905091905056fea165627a7a723058201dc2cf6c32bba228bcc32653933bc70529534feb8e9a540c6875085867b301460029",
  "source": "pragma solidity ^0.5.0;\r\n\r\nimport './Magnet.sol';\r\nimport './MagnetField.sol';\r\n\r\n    // 맨 처음 게임을 시작하는 사람들 (즉, 정보가 입력되어있지 않은 사람들..에 대한 처리가 필요)\r\ncontract GameController {\r\n\r\n    address[2] private tokensAddr;\r\n\r\n    // user DB structure\r\n    struct GameLog { // use for game log!\r\n        bytes32 gameHex; // use for transparency. (when start the game, )\r\n        bytes2 difficulty; // EZ, NM, HD - necessary?\r\n        GameResult result; //default : LOSE ***WIN/LOSE/ 2 (NOT FOUND)\r\n\r\n        bool[3] useItem; //default: false(SHIELD), false(FirstCell), false(ShowMap)\r\n\r\n    }\r\n\r\n    struct UserInfo {\r\n        address gamerID; // User account address\r\n        uint256 totalGameCount;  // to tracking recent gameResult.\r\n        bool isPlaying; // check progress of the game\r\n        mapping (uint256 => GameLog) logs; // start from 0 to N.... (game result log)\r\n    }\r\n\r\n    constructor() public {\r\n        owner = msg.sender;\r\n        tokensAddr[0] = address(new Magnet(msg.sender));\r\n        tokensAddr[1] = address(new MagnetField(msg.sender));\r\n    }\r\n\r\n\r\n    // https://ethereum.stackexchange.com/questions/7713/how-does-mapping-work (참고.. mapping 동작 방식)\r\n\r\n    // constants\r\n    uint8 constant internal BET_TOKEN_AMOUNT = 10;\r\n    uint256 constant internal LEAST_EXCHANGE_AMOUNT = 10000;\r\n\r\n\r\n\r\n    // variables\r\n    address payable public owner;\r\n    mapping (bytes32 => UserInfo) private users;\r\n\r\n    enum ItemLists { Shield, FirstCell, ShowMap } // check item uselist...\r\n    enum GameResult { WIN, LOSE, NOT_FOUND } // 0: WIN, 1: LOSE\r\n\r\n    // Event Lists\r\n\r\n    // when users start the game\r\n\r\n    event START(bytes2 difficulty, bytes32 gameHex, bool[3] useItem, uint256 totalGameCount); //BombHex -> keccak256(bombCoords)\r\n\r\n    // event START_ERR_ITEM();\r\n    // event START_ERR_TOKEN();\r\n\r\n    // when the game is over.\r\n    event WIN();\r\n    event LOSE();\r\n\r\n\r\n    /**\r\n     * @dev 게임 시작 전 만약 처음 게임을 하는 유저라면 게임DB에 유저정보를 등록한다.\r\n     *struct UserInfo {\r\n     * address payable gamerID; // User account address\r\n     * uint256 totalGameCount;  // to tracking recent GameResult.\r\n     * mapping (uint256 => GameResult) results; // start from 0 to N.... (game result log)\r\n     * bool isPlaying;\r\n     *}\r\n     */\r\n    function register() internal {\r\n        bytes32 userIdentificator = keccak256(abi.encodePacked(msg.sender));\r\n        users[userIdentificator].gamerID = msg.sender;\r\n        users[userIdentificator].totalGameCount = 0;\r\n        users[userIdentificator].isPlaying = false;\r\n    }\r\n\r\n    /**\r\n     * @dev 게임 시작 전 아이템 사용 여부에 따라 MagnetField 토큰을 감소시킨다.\r\n     * @param _useItems 각 아이템에 대한 선택 여부 정보를 가진 parameter\r\n     * @return 정상적으로 수행된 경우 true값을 반환한다.\r\n     */\r\n    function useItems(bool[3] memory _useItems) internal returns (bool){\r\n        uint256 totalItemCost = 0;\r\n        if(_useItems[0]) totalItemCost += 7000;\r\n        if(_useItems[1]) totalItemCost += 10000;\r\n        if(_useItems[2]) totalItemCost += 20000;\r\n        if(totalItemCost != 0) {\r\n            MagnetField(tokensAddr[1]).buyItems(totalItemCost, msg.sender);\r\n        }\r\n        return true;\r\n    }\r\n\r\n    /**\r\n     * @dev 게임 시작 시 실행되는 함수로써 유저정보 최신화 및 게임로그 기록을 한 후 START 이벤트를 발생시킨다.\r\n     *struct UserInfo {\r\n     * address payable gamerID; // User account address\r\n     * uint256 totalGameCount;  // to tracking recent GameResult.\r\n     * mapping (uint256 => GameResult) results; // start from 0 to N.... (game result log)\r\n     * bool isPlaying;\r\n     *}\r\n     *\r\n     *\r\n     *struct GameResult { // use for game log!\r\n     * bytes32 gameHex; // use for transparency. (when start the game, )\r\n     * bytes2 difficulty; // EZ, NM, HD - necessary?\r\n     * bool isWinner; //default : false ***true: win the game, false: lose the game\r\n     * bool useItem; //default: false\r\n     *}\r\n     * @param _difficulty 게임의 난이도를 front-end에서 받아온다.\r\n     * @param _gameCost 게임 시작에 사용한 Magnet 토큰 양을 front-end에서 받아온다.\r\n     * @param _gameHex 게임의 transparency를 위한 sha256 value를 front-end에서 받아온다.\r\n     * @param _gameCost 게임 시작에 사용한 Magnet 토큰 양을 front-end에서 받아온다.\r\n     */\r\n    function startGame(bytes2 _difficulty, uint8 _gameCost, bytes32 _gameHex, bool[3] memory _useItem) private {\r\n        bytes32 userIdentificator = keccak256(abi.encodePacked(msg.sender));\r\n        UserInfo storage user = users[userIdentificator];\r\n\r\n        require(_gameCost == BET_TOKEN_AMOUNT, \"You Does not bet 10 Magnet Tokens\"); // Is gameCost same as the BET_TOKEN_AMOUNT\r\n        require(Magnet(tokensAddr[0]).balanceOf(msg.sender) >= BET_TOKEN_AMOUNT, \"Not Enough Magnet Tokens\"); // check Magnet balance of Users.\r\n        if(user.gamerID == address(0)) { // No User Data (Newbie)\r\n            register();\r\n        }\r\n\r\n        require(user.gamerID != address(0), \"No User Data\");\r\n        // change isplaying flag and update totalGameCount\r\n        user.isPlaying = true;\r\n        user.totalGameCount += 1;\r\n\r\n        // write game log\r\n        GameLog storage log = user.logs[user.totalGameCount];\r\n        log.gameHex = _gameHex;\r\n        log.result = GameResult.LOSE;\r\n        log.useItem = _useItem; // 에러 날만한 부분...\r\n\r\n        // decrease MagnetField (if use items)\r\n        useItems(log.useItem);\r\n\r\n        // substract 10 Magnet Tokens\r\n        Magnet(tokensAddr[0]).payToGamePlay(msg.sender);\r\n        emit START(_difficulty, _gameHex, _useItem, user.totalGameCount);\r\n    }\r\n\r\n\r\n    /**\r\n     * @dev 게임 종료 시 실행되는 함수로써 게임 결과를 업데이트 한 후 LOSE 이벤트를 발생시킨다..\r\n     * @param _gameHex 기존 게임 로그와의 비교를 통해 조작 여부를 확인한다.\r\n     * @param _isWinner 게임 승리 여부를 확인하기 위한 bool parameter\r\n     */\r\n\r\n    function endGame(bytes32 _gameHex, bool _isWinner) private {\r\n        bytes32 userIdentificator = keccak256(abi.encodePacked(msg.sender));\r\n        UserInfo storage user = users[userIdentificator];\r\n\r\n        // check user is in contract's database.\r\n        require(user.gamerID == address(0x0), \"No User Data\");\r\n\r\n        GameLog storage log = user.logs[user.totalGameCount];\r\n        // _gameHex recheck(compare with log's hex value)\r\n\r\n        require(log.gameHex == _gameHex, \"No such Game in logs\");\r\n\r\n        //update game result. and reward to users depending on the result of final game.\r\n        if(_isWinner) { // ture : WIN, false : LOSE [get values from front-end game]\r\n            log.result = GameResult.WIN;\r\n            if(rewardWinner(log.difficulty)) emit WIN();\r\n            //보상 Magnet 과 MagnetField...\r\n\r\n        } else {\r\n            //보상 MagnetField만...\r\n            log.result = GameResult.LOSE;\r\n            if(rewardLoser(log.difficulty)) emit LOSE();\r\n        }\r\n    }\r\n\r\n    /**\r\n     * @dev 승리한 유저에게 게임 보상을 한다\r\n     * @return 성공적으로 함수가 실행된 경우 true를 반환한다.\r\n     */\r\n    function rewardWinner(bytes2 _difficulty) internal returns (bool) {\r\n\r\n        require(Magnet(tokensAddr[0]).rewardTokens(_difficulty, msg.sender), \"Revert from Magnet : rewardWinner\");\r\n        require(MagnetField(tokensAddr[1]).rewardTokens(_difficulty, msg.sender), \"Revert from MagnetF : rewardWinner\");\r\n        return true;\r\n    }\r\n\r\n    /**\r\n     * @dev 패배한 유저에게 게임 보상을 한다\r\n     * @return 성공적으로 함수가 실행된 경우 true를 반환한다.\r\n     */\r\n    function rewardLoser(bytes2 _difficulty) internal returns (bool) {\r\n        require(MagnetField(tokensAddr[1]).rewardTokens(_difficulty, msg.sender), \"Revert from MagnetF : rewardLoser\");\r\n\r\n        return true;\r\n    }\r\n\r\n\r\n    /**\r\n     * @dev 특정 유저의 총 게임 횟수를 반환한다.\r\n     * @return 특정 유저의 총 게임 횟수.\r\n     */\r\n    function getTotalGameCount() internal view returns (uint256) {\r\n        UserInfo memory user = users[keccak256(abi.encodePacked(msg.sender))];\r\n        return user.totalGameCount;\r\n    }\r\n\r\n    /**\r\n     * @dev 유저의 특정(index) 게임 결과를 보여준다.\r\n     *      Solidity 특성 상 mapping을 전체 순회할 수 없기때문에 index를 활용한다.\r\n     *      for loop는 front-end에서 돌면서 확인할 수 있도록 한다.\r\n     *      getTotalGameCount()를 이용해 front-end에서 최근 게임번호를 저장한뒤 이를 활용해 for loop를 돈다면\r\n     *      확인이 가능하다.\r\n     * @param index  알고싶은 게임번호\r\n     * @return 최근 게임의 난이도와를 반환한다.\r\n     */\r\n    function getGameResults(uint256 index) internal view returns (bytes2 difficulty, GameResult result) {\r\n        if (users[keccak256(abi.encodePacked(msg.sender))].gamerID == address(0)) {\r\n            difficulty = bytes2(\"NA\");\r\n            result = GameResult.NOT_FOUND;\r\n        }\r\n        UserInfo storage user = users[keccak256(abi.encodePacked(msg.sender))];\r\n        GameLog memory log = user.logs[index];\r\n        \r\n        difficulty = log.difficulty;\r\n        result = log.result;\r\n    }\r\n\r\n    /**\r\n     * @dev MagnetField 토큰을 Magnet 토큰으로 교환시켜주도록 요청한다.\r\n     * @return 정상적으로 transaction이 이루어진 경우 true를 반환한다.\r\n     */\r\n     function exchangeTokens(uint256 amount) public returns (bool) {\r\n        require(MagnetField(tokensAddr[1]).exchangeTokens(amount, msg.sender),\"Revert from MagnetF : exchangeTokens\"); // magnetField 토큰을 감소시킨다.\r\n        require(Magnet(tokensAddr[0]).exchangeTokens(amount, msg.sender), \"Revert from Magnet : exchangeTokens\"); // magnet 토큰을 증가시킨다.\r\n        return true;\r\n     }\r\n}",
  "sourcePath": "C:/Users/khw64/OneDrive/문서/GitHub/MineSweeperDApp/contracts/GameController.sol",
  "compiler": {
    "name": "solc",
    "version": "0.5.0+commit.1d4f565a.Emscripten.clang"
  },
  "schemaVersion": "3.0.3",
  "updatedAt": "2019-08-13T08:01:24.690Z",
  "devdoc": {
    "methods": {
      "exchangeTokens(uint256)": {
        "details": "MagnetField 토큰을 Magnet 토큰으로 교환시켜주도록 요청한다.\r",
        "return": "정상적으로 transaction이 이루어진 경우 true를 반환한다.\r"
      }
    }
  },
  "userdoc": {
    "methods": {}
  }
}