{
  "contractName": "Magnet",
  "abi": [
    {
      "constant": true,
      "inputs": [],
      "name": "name",
      "outputs": [
        {
          "name": "",
          "type": "string"
        }
      ],
      "payable": false,
      "stateMutability": "view",
      "type": "function"
    },
    {
      "constant": true,
      "inputs": [],
      "name": "decimals",
      "outputs": [
        {
          "name": "",
          "type": "uint256"
        }
      ],
      "payable": false,
      "stateMutability": "view",
      "type": "function"
    },
    {
      "constant": true,
      "inputs": [],
      "name": "owner",
      "outputs": [
        {
          "name": "",
          "type": "address"
        }
      ],
      "payable": false,
      "stateMutability": "view",
      "type": "function"
    },
    {
      "constant": true,
      "inputs": [],
      "name": "symbol",
      "outputs": [
        {
          "name": "",
          "type": "string"
        }
      ],
      "payable": false,
      "stateMutability": "view",
      "type": "function"
    },
    {
      "constant": true,
      "inputs": [],
      "name": "controller",
      "outputs": [
        {
          "name": "",
          "type": "address"
        }
      ],
      "payable": false,
      "stateMutability": "view",
      "type": "function"
    },
    {
      "inputs": [
        {
          "name": "_owner",
          "type": "address"
        }
      ],
      "payable": false,
      "stateMutability": "nonpayable",
      "type": "constructor"
    },
    {
      "anonymous": false,
      "inputs": [
        {
          "indexed": true,
          "name": "from",
          "type": "address"
        },
        {
          "indexed": true,
          "name": "to",
          "type": "address"
        },
        {
          "indexed": false,
          "name": "value",
          "type": "uint256"
        }
      ],
      "name": "Transfer",
      "type": "event"
    },
    {
      "anonymous": false,
      "inputs": [
        {
          "indexed": true,
          "name": "owner",
          "type": "address"
        },
        {
          "indexed": true,
          "name": "spender",
          "type": "address"
        },
        {
          "indexed": false,
          "name": "value",
          "type": "uint256"
        }
      ],
      "name": "Approval",
      "type": "event"
    },
    {
      "constant": true,
      "inputs": [],
      "name": "getTotalSupply",
      "outputs": [
        {
          "name": "",
          "type": "uint256"
        }
      ],
      "payable": false,
      "stateMutability": "view",
      "type": "function"
    },
    {
      "constant": true,
      "inputs": [
        {
          "name": "account",
          "type": "address"
        }
      ],
      "name": "balanceOf",
      "outputs": [
        {
          "name": "",
          "type": "uint256"
        }
      ],
      "payable": false,
      "stateMutability": "view",
      "type": "function"
    },
    {
      "constant": false,
      "inputs": [
        {
          "name": "recipient",
          "type": "address"
        },
        {
          "name": "amount",
          "type": "uint256"
        }
      ],
      "name": "transfer",
      "outputs": [
        {
          "name": "",
          "type": "bool"
        }
      ],
      "payable": false,
      "stateMutability": "nonpayable",
      "type": "function"
    },
    {
      "constant": true,
      "inputs": [
        {
          "name": "from",
          "type": "address"
        },
        {
          "name": "to",
          "type": "address"
        }
      ],
      "name": "allowance",
      "outputs": [
        {
          "name": "",
          "type": "uint256"
        }
      ],
      "payable": false,
      "stateMutability": "view",
      "type": "function"
    },
    {
      "constant": false,
      "inputs": [
        {
          "name": "spender",
          "type": "address"
        },
        {
          "name": "value",
          "type": "uint256"
        }
      ],
      "name": "approve",
      "outputs": [
        {
          "name": "",
          "type": "bool"
        }
      ],
      "payable": false,
      "stateMutability": "nonpayable",
      "type": "function"
    },
    {
      "constant": false,
      "inputs": [
        {
          "name": "sender",
          "type": "address"
        },
        {
          "name": "recipient",
          "type": "address"
        },
        {
          "name": "amount",
          "type": "uint256"
        }
      ],
      "name": "transferFrom",
      "outputs": [
        {
          "name": "",
          "type": "bool"
        }
      ],
      "payable": false,
      "stateMutability": "nonpayable",
      "type": "function"
    },
    {
      "constant": false,
      "inputs": [
        {
          "name": "spender",
          "type": "address"
        },
        {
          "name": "addedValue",
          "type": "uint256"
        }
      ],
      "name": "increaseAllowance",
      "outputs": [
        {
          "name": "",
          "type": "bool"
        }
      ],
      "payable": false,
      "stateMutability": "nonpayable",
      "type": "function"
    },
    {
      "constant": false,
      "inputs": [
        {
          "name": "spender",
          "type": "address"
        },
        {
          "name": "subtractedValue",
          "type": "uint256"
        }
      ],
      "name": "decreaseAllowance",
      "outputs": [
        {
          "name": "",
          "type": "bool"
        }
      ],
      "payable": false,
      "stateMutability": "nonpayable",
      "type": "function"
    },
    {
      "constant": false,
      "inputs": [
        {
          "name": "amount",
          "type": "uint256"
        },
        {
          "name": "user",
          "type": "address"
        }
      ],
      "name": "exchangeTokens",
      "outputs": [
        {
          "name": "",
          "type": "bool"
        }
      ],
      "payable": false,
      "stateMutability": "nonpayable",
      "type": "function"
    },
    {
      "constant": true,
      "inputs": [],
      "name": "getTokenPrice",
      "outputs": [
        {
          "name": "",
          "type": "uint256"
        }
      ],
      "payable": false,
      "stateMutability": "view",
      "type": "function"
    },
    {
      "constant": false,
      "inputs": [
        {
          "name": "tokensToBuy",
          "type": "uint256"
        },
        {
          "name": "user",
          "type": "address"
        }
      ],
      "name": "buyTokens",
      "outputs": [
        {
          "name": "",
          "type": "bool"
        }
      ],
      "payable": false,
      "stateMutability": "nonpayable",
      "type": "function"
    },
    {
      "constant": false,
      "inputs": [
        {
          "name": "user",
          "type": "address"
        }
      ],
      "name": "payToGamePlay",
      "outputs": [],
      "payable": false,
      "stateMutability": "nonpayable",
      "type": "function"
    },
    {
      "constant": false,
      "inputs": [
        {
          "name": "_difficulty",
          "type": "bytes2"
        },
        {
          "name": "user",
          "type": "address"
        }
      ],
      "name": "rewardTokens",
      "outputs": [
        {
          "name": "",
          "type": "bool"
        }
      ],
      "payable": false,
      "stateMutability": "nonpayable",
      "type": "function"
    }
  ],
  "bytecode": "0x60806040523480156200001157600080fd5b50604051602080620020b1833981018060405260208110156200003357600080fd5b8101908080519060200190929190505050806000806101000a81548173ffffffffffffffffffffffffffffffffffffffff021916908373ffffffffffffffffffffffffffffffffffffffff16021790555033600160006101000a81548173ffffffffffffffffffffffffffffffffffffffff021916908373ffffffffffffffffffffffffffffffffffffffff1602179055506040518060400160405280600681526020017f4d61676e657400000000000000000000000000000000000000000000000000008152506002908051906020019062000112929190620001a1565b506040518060400160405280600281526020017f4d470000000000000000000000000000000000000000000000000000000000008152506003908051906020019062000160929190620001a1565b506008600481905550600454600a0a630bebc20002600581905550600454600a0a630bebc20002600681905550655af3107a40006007819055505062000250565b828054600181600116156101000203166002900490600052602060002090601f016020900481019282601f10620001e457805160ff191683800117855562000215565b8280016001018555821562000215579182015b8281111562000214578251825591602001919060010190620001f7565b5b50905062000224919062000228565b5090565b6200024d91905b80821115620002495760008160009055506001016200022f565b5090565b90565b611e5180620002606000396000f3fe608060405234801561001057600080fd5b50600436106101165760003560e01c806395d89b41116100a2578063c4e41b2211610071578063c4e41b22146105e8578063c625e9b114610606578063d92dd1cb1461066c578063dd62ed3e146106d2578063f77c47911461074a57610116565b806395d89b4114610455578063a457c2d7146104d8578063a5233b251461053e578063a9059cbb1461058257610116565b806339509351116100e957806339509351146102a857806343d2c7521461030e5780634b94f50e1461039557806370a08231146103b35780638da5cb5b1461040b57610116565b806306fdde031461011b578063095ea7b31461019e57806323b872dd14610204578063313ce5671461028a575b600080fd5b610123610794565b6040518080602001828103825283818151815260200191508051906020019080838360005b83811015610163578082015181840152602081019050610148565b50505050905090810190601f1680156101905780820380516001836020036101000a031916815260200191505b509250505060405180910390f35b6101ea600480360360408110156101b457600080fd5b81019080803573ffffffffffffffffffffffffffffffffffffffff16906020019092919080359060200190929190505050610832565b604051808215151515815260200191505060405180910390f35b6102706004803603606081101561021a57600080fd5b81019080803573ffffffffffffffffffffffffffffffffffffffff169060200190929190803573ffffffffffffffffffffffffffffffffffffffff16906020019092919080359060200190929190505050610849565b604051808215151515815260200191505060405180910390f35b6102926108fa565b6040518082815260200191505060405180910390f35b6102f4600480360360408110156102be57600080fd5b81019080803573ffffffffffffffffffffffffffffffffffffffff16906020019092919080359060200190929190505050610900565b604051808215151515815260200191505060405180910390f35b61037b6004803603604081101561032457600080fd5b8101908080357dffffffffffffffffffffffffffffffffffffffffffffffffffffffffffff19169060200190929190803573ffffffffffffffffffffffffffffffffffffffff1690602001909291905050506109a5565b604051808215151515815260200191505060405180910390f35b61039d610d32565b6040518082815260200191505060405180910390f35b6103f5600480360360208110156103c957600080fd5b81019080803573ffffffffffffffffffffffffffffffffffffffff169060200190929190505050610d3c565b6040518082815260200191505060405180910390f35b610413610d85565b604051808273ffffffffffffffffffffffffffffffffffffffff1673ffffffffffffffffffffffffffffffffffffffff16815260200191505060405180910390f35b61045d610daa565b6040518080602001828103825283818151815260200191508051906020019080838360005b8381101561049d578082015181840152602081019050610482565b50505050905090810190601f1680156104ca5780820380516001836020036101000a031916815260200191505b509250505060405180910390f35b610524600480360360408110156104ee57600080fd5b81019080803573ffffffffffffffffffffffffffffffffffffffff16906020019092919080359060200190929190505050610e48565b604051808215151515815260200191505060405180910390f35b6105806004803603602081101561055457600080fd5b81019080803573ffffffffffffffffffffffffffffffffffffffff169060200190929190505050610eed565b005b6105ce6004803603604081101561059857600080fd5b81019080803573ffffffffffffffffffffffffffffffffffffffff1690602001909291908035906020019092919050505061100e565b604051808215151515815260200191505060405180910390f35b6105f0611025565b6040518082815260200191505060405180910390f35b6106526004803603604081101561061c57600080fd5b8101908080359060200190929190803573ffffffffffffffffffffffffffffffffffffffff16906020019092919050505061102f565b604051808215151515815260200191505060405180910390f35b6106b86004803603604081101561068257600080fd5b8101908080359060200190929190803573ffffffffffffffffffffffffffffffffffffffff169060200190929190505050611320565b604051808215151515815260200191505060405180910390f35b610734600480360360408110156106e857600080fd5b81019080803573ffffffffffffffffffffffffffffffffffffffff169060200190929190803573ffffffffffffffffffffffffffffffffffffffff1690602001909291905050506115a3565b6040518082815260200191505060405180910390f35b61075261162a565b604051808273ffffffffffffffffffffffffffffffffffffffff1673ffffffffffffffffffffffffffffffffffffffff16815260200191505060405180910390f35b60028054600181600116156101000203166002900480601f01602080910402602001604051908101604052809291908181526020018280546001816001161561010002031660029004801561082a5780601f106107ff5761010080835404028352916020019161082a565b820191906000526020600020905b81548152906001019060200180831161080d57829003601f168201915b505050505081565b600061083f338484611650565b6001905092915050565b6000610856848484611847565b6108ef84336108ea85600960008a73ffffffffffffffffffffffffffffffffffffffff1673ffffffffffffffffffffffffffffffffffffffff16815260200190815260200160002060003373ffffffffffffffffffffffffffffffffffffffff1673ffffffffffffffffffffffffffffffffffffffff16815260200190815260200160002054611ae790919063ffffffff16565b611650565b600190509392505050565b60045481565b600061099b338461099685600960003373ffffffffffffffffffffffffffffffffffffffff1673ffffffffffffffffffffffffffffffffffffffff16815260200190815260200160002060008973ffffffffffffffffffffffffffffffffffffffff1673ffffffffffffffffffffffffffffffffffffffff16815260200190815260200160002054611b7090919063ffffffff16565b611650565b6001905092915050565b60008060009054906101000a900473ffffffffffffffffffffffffffffffffffffffff1673ffffffffffffffffffffffffffffffffffffffff163373ffffffffffffffffffffffffffffffffffffffff161480610a4f5750600160009054906101000a900473ffffffffffffffffffffffffffffffffffffffff1673ffffffffffffffffffffffffffffffffffffffff163373ffffffffffffffffffffffffffffffffffffffff16145b610ac1576040517f08c379a00000000000000000000000000000000000000000000000000000000081526004018080602001828103825260138152602001807f556e617574686f72697a65642073656e6465720000000000000000000000000081525060200191505060405180910390fd5b7f455a0000000000000000000000000000000000000000000000000000000000007dffffffffffffffffffffffffffffffffffffffffffffffffffffffffffff1916837dffffffffffffffffffffffffffffffffffffffffffffffffffffffffffff1916148015610b385750610b376007611bf8565b5b15610b90576007600860008473ffffffffffffffffffffffffffffffffffffffff1673ffffffffffffffffffffffffffffffffffffffff16815260200190815260200160002060008282540192505081905550610d2c565b7f4e4d0000000000000000000000000000000000000000000000000000000000007dffffffffffffffffffffffffffffffffffffffffffffffffffffffffffff1916837dffffffffffffffffffffffffffffffffffffffffffffffffffffffffffff1916148015610c075750610c06600a611bf8565b5b15610c5f57600a600860008473ffffffffffffffffffffffffffffffffffffffff1673ffffffffffffffffffffffffffffffffffffffff16815260200190815260200160002060008282540192505081905550610d2b565b7f48440000000000000000000000000000000000000000000000000000000000007dffffffffffffffffffffffffffffffffffffffffffffffffffffffffffff1916837dffffffffffffffffffffffffffffffffffffffffffffffffffffffffffff1916148015610cd65750610cd56014611bf8565b5b15610d2a576014600860008473ffffffffffffffffffffffffffffffffffffffff1673ffffffffffffffffffffffffffffffffffffffff168152602001908152602001600020600082825401925050819055505b5b5b92915050565b6000600754905090565b6000600860008373ffffffffffffffffffffffffffffffffffffffff1673ffffffffffffffffffffffffffffffffffffffff168152602001908152602001600020549050919050565b6000809054906101000a900473ffffffffffffffffffffffffffffffffffffffff1681565b60038054600181600116156101000203166002900480601f016020809104026020016040519081016040528092919081815260200182805460018160011615610100020316600290048015610e405780601f10610e1557610100808354040283529160200191610e40565b820191906000526020600020905b815481529060010190602001808311610e2357829003601f168201915b505050505081565b6000610ee33384610ede85600960003373ffffffffffffffffffffffffffffffffffffffff1673ffffffffffffffffffffffffffffffffffffffff16815260200190815260200160002060008973ffffffffffffffffffffffffffffffffffffffff1673ffffffffffffffffffffffffffffffffffffffff16815260200190815260200160002054611ae790919063ffffffff16565b611650565b6001905092915050565b600a60ff16600860008373ffffffffffffffffffffffffffffffffffffffff1673ffffffffffffffffffffffffffffffffffffffff168152602001908152602001600020541015610fa6576040517f08c379a00000000000000000000000000000000000000000000000000000000081526004018080602001828103825260128152602001807f4e6f7420656e6f7567682042616c616e6365000000000000000000000000000081525060200191505060405180910390fd5b600a60ff16600860008373ffffffffffffffffffffffffffffffffffffffff1673ffffffffffffffffffffffffffffffffffffffff16815260200190815260200160002060008282540392505081905550600a60ff1660066000828254019250508190555050565b600061101b338484611847565b6001905092915050565b6000600554905090565b60008060009054906101000a900473ffffffffffffffffffffffffffffffffffffffff1673ffffffffffffffffffffffffffffffffffffffff163373ffffffffffffffffffffffffffffffffffffffff1614806110d95750600160009054906101000a900473ffffffffffffffffffffffffffffffffffffffff1673ffffffffffffffffffffffffffffffffffffffff163373ffffffffffffffffffffffffffffffffffffffff16145b61114b576040517f08c379a00000000000000000000000000000000000000000000000000000000081526004018080602001828103825260138152602001807f556e617574686f72697a65642073656e6465720000000000000000000000000081525060200191505060405180910390fd5b600860003373ffffffffffffffffffffffffffffffffffffffff1673ffffffffffffffffffffffffffffffffffffffff1681526020019081526020016000205483600860008573ffffffffffffffffffffffffffffffffffffffff1673ffffffffffffffffffffffffffffffffffffffff16815260200190815260200160002054011015611241576040517f08c379a00000000000000000000000000000000000000000000000000000000081526004018080602001828103825260108152602001807f4f766572466c6f77204f6363757265640000000000000000000000000000000081525060200191505060405180910390fd5b8260065410156112b9576040517f08c379a000000000000000000000000000000000000000000000000000000000815260040180806020018281038252601c8152602001807f4e6f7420656e6f75676820537570706c6961626c6520546f6b656e730000000081525060200191505060405180910390fd5b82600860008473ffffffffffffffffffffffffffffffffffffffff1673ffffffffffffffffffffffffffffffffffffffff16815260200190815260200160002060008282540192505081905550826006600082825403925050819055506001905092915050565b60008060009054906101000a900473ffffffffffffffffffffffffffffffffffffffff1673ffffffffffffffffffffffffffffffffffffffff163373ffffffffffffffffffffffffffffffffffffffff1614806113ca5750600160009054906101000a900473ffffffffffffffffffffffffffffffffffffffff1673ffffffffffffffffffffffffffffffffffffffff163373ffffffffffffffffffffffffffffffffffffffff16145b61143c576040517f08c379a00000000000000000000000000000000000000000000000000000000081526004018080602001828103825260138152602001807f556e617574686f72697a65642073656e6465720000000000000000000000000081525060200191505060405180910390fd5b82600860008473ffffffffffffffffffffffffffffffffffffffff1673ffffffffffffffffffffffffffffffffffffffff1681526020019081526020016000205410156114f1576040517f08c379a00000000000000000000000000000000000000000000000000000000081526004018080602001828103825260128152602001807f4e6f7420656e6f7567682042616c616e6365000000000000000000000000000081525060200191505060405180910390fd5b61271083101561154c576040517f08c379a0000000000000000000000000000000000000000000000000000000008152600401808060200182810382526026815260200180611db76026913960400191505060405180910390fd5b82600860008473ffffffffffffffffffffffffffffffffffffffff1673ffffffffffffffffffffffffffffffffffffffff168152602001908152602001600020600082825403925050819055506001905092915050565b6000600960008473ffffffffffffffffffffffffffffffffffffffff1673ffffffffffffffffffffffffffffffffffffffff16815260200190815260200160002060008373ffffffffffffffffffffffffffffffffffffffff1673ffffffffffffffffffffffffffffffffffffffff16815260200190815260200160002054905092915050565b600160009054906101000a900473ffffffffffffffffffffffffffffffffffffffff1681565b600073ffffffffffffffffffffffffffffffffffffffff168373ffffffffffffffffffffffffffffffffffffffff1614156116d6576040517f08c379a0000000000000000000000000000000000000000000000000000000008152600401808060200182810382526024815260200180611e026024913960400191505060405180910390fd5b600073ffffffffffffffffffffffffffffffffffffffff168273ffffffffffffffffffffffffffffffffffffffff16141561175c576040517f08c379a0000000000000000000000000000000000000000000000000000000008152600401808060200182810382526022815260200180611d956022913960400191505060405180910390fd5b80600960008573ffffffffffffffffffffffffffffffffffffffff1673ffffffffffffffffffffffffffffffffffffffff16815260200190815260200160002060008473ffffffffffffffffffffffffffffffffffffffff1673ffffffffffffffffffffffffffffffffffffffff168152602001908152602001600020819055508173ffffffffffffffffffffffffffffffffffffffff168373ffffffffffffffffffffffffffffffffffffffff167f8c5be1e5ebec7d5bd14f71427d1e84f3dd0314c0f7b2291e5b200ac8c7c3b925836040518082815260200191505060405180910390a3505050565b600073ffffffffffffffffffffffffffffffffffffffff168373ffffffffffffffffffffffffffffffffffffffff1614156118cd576040517f08c379a0000000000000000000000000000000000000000000000000000000008152600401808060200182810382526025815260200180611ddd6025913960400191505060405180910390fd5b600073ffffffffffffffffffffffffffffffffffffffff168273ffffffffffffffffffffffffffffffffffffffff161415611953576040517f08c379a0000000000000000000000000000000000000000000000000000000008152600401808060200182810382526023815260200180611d726023913960400191505060405180910390fd5b6119a581600860008673ffffffffffffffffffffffffffffffffffffffff1673ffffffffffffffffffffffffffffffffffffffff16815260200190815260200160002054611ae790919063ffffffff16565b600860008573ffffffffffffffffffffffffffffffffffffffff1673ffffffffffffffffffffffffffffffffffffffff16815260200190815260200160002081905550611a3a81600860008573ffffffffffffffffffffffffffffffffffffffff1673ffffffffffffffffffffffffffffffffffffffff16815260200190815260200160002054611b7090919063ffffffff16565b600860008473ffffffffffffffffffffffffffffffffffffffff1673ffffffffffffffffffffffffffffffffffffffff168152602001908152602001600020819055508173ffffffffffffffffffffffffffffffffffffffff168373ffffffffffffffffffffffffffffffffffffffff167fddf252ad1be2c89b69c2b068fc378daa952ba7f163c4a11628f55a4df523b3ef836040518082815260200191505060405180910390a3505050565b600082821115611b5f576040517f08c379a000000000000000000000000000000000000000000000000000000000815260040180806020018281038252601e8152602001807f536166654d6174683a207375627472616374696f6e206f766572666c6f77000081525060200191505060405180910390fd5b600082840390508091505092915050565b600080828401905083811015611bee576040517f08c379a000000000000000000000000000000000000000000000000000000000815260040180806020018281038252601b8152602001807f536166654d6174683a206164646974696f6e206f766572666c6f77000000000081525060200191505060405180910390fd5b8091505092915050565b6000816006541015611c72576040517f08c379a000000000000000000000000000000000000000000000000000000000815260040180806020018281038252601c8152602001807f4e6f7420656e6f75676820537570706c6961626c6520546f6b656e730000000081525060200191505060405180910390fd5b600860003373ffffffffffffffffffffffffffffffffffffffff1673ffffffffffffffffffffffffffffffffffffffff1681526020019081526020016000205482600860003373ffffffffffffffffffffffffffffffffffffffff1673ffffffffffffffffffffffffffffffffffffffff16815260200190815260200160002054011015611d68576040517f08c379a00000000000000000000000000000000000000000000000000000000081526004018080602001828103825260108152602001807f4f766572666c6f77204f6363757265640000000000000000000000000000000081525060200191505060405180910390fd5b6001905091905056fe45524332303a207472616e7366657220746f20746865207a65726f206164647265737345524332303a20617070726f766520746f20746865207a65726f20616464726573734e6f74205265616368204d696e696d616c20436f6e646974696f6e3a203130303030204d465445524332303a207472616e736665722066726f6d20746865207a65726f206164647265737345524332303a20617070726f76652066726f6d20746865207a65726f2061646472657373a165627a7a72305820fc0cef2721aed3e2a0d4a5f2424853714042dc6bb823afa1447aaaefb3ae87540029",
  "source": "pragma solidity ^0.5.0;\r\n\r\nimport './IERC20.sol';\r\nimport './IMagnet.sol';\r\nimport \"./SafeMath.sol\";\r\n\r\n// 1Magnet = 0.0001ETH\r\n\r\ncontract Magnet is IERC20, IMagnet{\r\n    using SafeMath for uint256;\r\n    // ERC20 functions are implemeted by parent contract(ERC20 by Openzeppelin)\r\n\r\n    // constant variables\r\n    uint256 constant internal INITIAL_SUPPLY = 200000000; //(2)\r\n    uint8 constant internal GAME_COST = 10;\r\n\r\n    // token information variables\r\n    address public owner;\r\n    address public controller;\r\n    string public name;\r\n    string public symbol;\r\n    uint256 public decimals;\r\n    uint256 private totalSupply;\r\n    uint256 private suppliableAmount;\r\n    uint256 private tokenPrice;\r\n\r\n    mapping (address => uint256) private balances;\r\n    mapping (address => mapping (address => uint256)) private allowances;\r\n\r\n    constructor(address _owner) public {\r\n        owner = _owner;\r\n        controller = msg.sender;\r\n        name = \"Magnet\";\r\n        symbol = \"MG\";\r\n        decimals = 8;\r\n        totalSupply = INITIAL_SUPPLY * 10 ** uint(decimals);\r\n        suppliableAmount = INITIAL_SUPPLY * 10 ** uint(decimals);\r\n        tokenPrice = 100000000000000; // 0.0001ETH = 1 MAGNET\r\n    }\r\n\r\n    // modifier definition\r\n    modifier onlyOwner() {\r\n        require(msg.sender == owner || msg.sender == controller, \"Unauthorized sender\");\r\n        _;\r\n    }\r\n\r\n\r\n\r\n    // Events are implemented in IERC20.sol\r\n    /*\r\n        event Transfer(address indexed from, address indexed to, uint256 value);\r\n        event Approval(address indexed owner, address indexed spender, uint256 value);\r\n    */\r\n    // ERC20 standard functions\r\n    // Events are implemented in IERC20.sol\r\n    /*\r\n        event Transfer(address indexed from, address indexed to, uint256 value);\r\n        event Approval(address indexed owner, address indexed spender, uint256 value);\r\n    */\r\n    // ERC20 standard functions\r\n    /**\r\n     * @dev See `IERC20.totalSupply`.\r\n     */\r\n    function getTotalSupply() public view returns (uint256) {\r\n        return totalSupply;\r\n    }\r\n\r\n    /**\r\n     * @dev See `IERC20.balanceOf`.\r\n     */\r\n    function balanceOf(address account) public view returns (uint256) {\r\n        return balances[account];\r\n    }\r\n\r\n    /**\r\n     * @dev See `IERC20.transfer`.\r\n     *\r\n     * Requirements:\r\n     *\r\n     * - `recipient` cannot be the zero address.\r\n     * - the caller must have a balance of at least `amount`.\r\n     */\r\n    function transfer(address recipient, uint256 amount) public returns (bool) {\r\n        _transfer(msg.sender, recipient, amount);\r\n        return true;\r\n    }\r\n\r\n    /**\r\n     * @dev See `IERC20.allowance`.\r\n     */\r\n    function allowance(address from, address to) public view returns (uint256) {\r\n        return allowances[from][to];\r\n    }\r\n\r\n    /**\r\n     * @dev See `IERC20.approve`.\r\n     *\r\n     * Requirements:\r\n     *\r\n     * - `spender` cannot be the zero address.\r\n     */\r\n    function approve(address spender, uint256 value) public returns (bool) {\r\n        _approve(msg.sender, spender, value);\r\n        return true;\r\n    }\r\n\r\n    /**\r\n     * @dev See `IERC20.transferFrom`.\r\n     *\r\n     * Emits an `Approval` event indicating the updated allowance. This is not\r\n     * required by the EIP. See the note at the beginning of `ERC20`;\r\n     *\r\n     * Requirements:\r\n     * - `sender` and `recipient` cannot be the zero address.\r\n     * - `sender` must have a balance of at least `value`.\r\n     * - the caller must have allowance for `sender`'s tokens of at least\r\n     * `amount`.\r\n     */\r\n    function transferFrom(address sender, address recipient, uint256 amount) public returns (bool) {\r\n        _transfer(sender, recipient, amount);\r\n        _approve(sender, msg.sender, allowances[sender][msg.sender].sub(amount));\r\n        return true;\r\n    }\r\n\r\n    /**\r\n     * @dev Atomically increases the allowance granted to `spender` by the caller.\r\n     *\r\n     * This is an alternative to `approve` that can be used as a mitigation for\r\n     * problems described in `IERC20.approve`.\r\n     *\r\n     * Emits an `Approval` event indicating the updated allowance.\r\n     *\r\n     * Requirements:\r\n     *\r\n     * - `spender` cannot be the zero address.\r\n     */\r\n    function increaseAllowance(address spender, uint256 addedValue) public returns (bool) {\r\n        _approve(msg.sender, spender, allowances[msg.sender][spender].add(addedValue));\r\n        return true;\r\n    }\r\n\r\n    /**\r\n     * @dev Atomically decreases the allowance granted to `spender` by the caller.\r\n     *\r\n     * This is an alternative to `approve` that can be used as a mitigation for\r\n     * problems described in `IERC20.approve`.\r\n     *\r\n     * Emits an `Approval` event indicating the updated allowance.\r\n     *\r\n     * Requirements:\r\n     *\r\n     * - `spender` cannot be the zero address.\r\n     * - `spender` must have allowance for the caller of at least\r\n     * `subtractedValue`.\r\n     */\r\n    function decreaseAllowance(address spender, uint256 subtractedValue) public returns (bool) {\r\n        _approve(msg.sender, spender, allowances[msg.sender][spender].sub(subtractedValue));\r\n        return true;\r\n    }\r\n\r\n    /**\r\n     * @dev Moves tokens `amount` from `sender` to `recipient`.\r\n     *\r\n     * This is internal function is equivalent to `transfer`, and can be used to\r\n     * e.g. implement automatic token fees, slashing mechanisms, etc.\r\n     *\r\n     * Emits a `Transfer` event.\r\n     *\r\n     * Requirements:\r\n     *\r\n     * - `sender` cannot be the zero address.\r\n     * - `recipient` cannot be the zero address.\r\n     * - `sender` must have a balance of at least `amount`.\r\n     */\r\n    function _transfer(address sender, address recipient, uint256 amount) internal {\r\n        require(sender != address(0), \"ERC20: transfer from the zero address\");\r\n        require(recipient != address(0), \"ERC20: transfer to the zero address\");\r\n\r\n        balances[sender] = balances[sender].sub(amount);\r\n        balances[recipient] = balances[recipient].add(amount);\r\n        emit Transfer(sender, recipient, amount);\r\n    }\r\n\r\n    /** @dev Creates `amount` tokens and assigns them to `account`, increasing\r\n     * the total supply.\r\n     *\r\n     * Emits a `Transfer` event with `from` set to the zero address.\r\n     *\r\n     * Requirements\r\n     *\r\n     * - `to` cannot be the zero address.\r\n     */\r\n    function _mint(address account, uint256 amount) internal {\r\n        require(account != address(0), \"ERC20: mint to the zero address\");\r\n\r\n        totalSupply = totalSupply.add(amount);\r\n        balances[account] = balances[account].add(amount);\r\n        emit Transfer(address(0), account, amount);\r\n    }\r\n\r\n     /**\r\n     * @dev Destoys `amount` tokens from `account`, reducing the\r\n     * total supply.\r\n     *\r\n     * Emits a `Transfer` event with `to` set to the zero address.\r\n     *\r\n     * Requirements\r\n     *\r\n     * - `account` cannot be the zero address.\r\n     * - `account` must have at least `amount` tokens.\r\n     */\r\n    function _burn(address account, uint256 value) internal {\r\n        require(account != address(0), \"ERC20: burn from the zero address\");\r\n\r\n        totalSupply = totalSupply.sub(value);\r\n        balances[account] = balances[account].sub(value);\r\n        emit Transfer(account, address(0), value);\r\n    }\r\n\r\n    /**\r\n     * @dev Sets `amount` as the allowance of `spender` over the `owner`s tokens.\r\n     *\r\n     * This is internal function is equivalent to `approve`, and can be used to\r\n     * e.g. set automatic allowances for certain subsystems, etc.\r\n     *\r\n     * Emits an `Approval` event.\r\n     *\r\n     * Requirements:\r\n     *\r\n     * - `owner` cannot be the zero address.\r\n     * - `spender` cannot be the zero address.\r\n     */\r\n    function _approve(address from, address to, uint256 value) internal {\r\n        require(from != address(0), \"ERC20: approve from the zero address\");\r\n        require(to != address(0), \"ERC20: approve to the zero address\");\r\n\r\n        allowances[from][to] = value;\r\n        emit Approval(from, to, value);\r\n    }\r\n\r\n    /**\r\n     * @dev Destoys `amount` tokens from `account`.`amount` is then deducted\r\n     * from the caller's allowance.\r\n     *\r\n     * See `_burn` and `_approve`.\r\n     */\r\n    function _burnFrom(address account, uint256 amount) internal {\r\n        _burn(account, amount);\r\n        _approve(account, msg.sender, allowances[account][msg.sender].sub(amount));\r\n    }\r\n\r\n\r\n\r\n    // Non-standard functions by OpenZeppelin\r\n    // function increaseAllowance(address spender, uint256 addedValue) public returns (bool) {\r\n    //     super(spender, addedValue);\r\n    // }\r\n\r\n\r\n    // function decreaseAllowance(address spender, uint256 subtractedValue) public returns (bool) {\r\n    //     super(spender, subtractedValue);\r\n    // }\r\n\r\n    /**\r\n     * @dev      .\r\n     * @param amount   magnetfield \r\n     * @param user   user\r\n     * @return     true \r\n     */\r\n    function exchangeTokens(uint256 amount, address user) public onlyOwner returns (bool) {\r\n        require(balances[user] >= amount, \"Not enough Balance\");\r\n        require(amount >= 10000, \"Not Reach Minimal Condition: 10000 MFT\");\r\n        balances[user] -= amount;\r\n        return true;\r\n    }\r\n\r\n\r\n    function getTokenPrice() public view returns (uint256) {\r\n        return tokenPrice;\r\n    }\r\n\r\n    /**\r\n     * @dev      .\r\n     * @return     true \r\n     */\r\n    function buyTokens(uint tokensToBuy, address user) public onlyOwner returns (bool) {\r\n        require(balances[user] + tokensToBuy >= balances[msg.sender], \"OverFlow Occured\"); // watch for overflow\r\n        require(suppliableAmount >= tokensToBuy, \"Not enough Suppliable Tokens\"); // check suppliable token amounts\r\n        balances[user] += tokensToBuy;\r\n        suppliableAmount -= tokensToBuy;\r\n        return true;\r\n    }\r\n\r\n    /**\r\n     * @dev        \r\n     */\r\n    function payToGamePlay(address user) public {\r\n        require(balances[user] >= GAME_COST, \"Not enough Balance\");\r\n        balances[user] -= GAME_COST;\r\n        suppliableAmount += GAME_COST;\r\n    }\r\n\r\n    /**\r\n     * @dev       \r\n     * @param _difficulty user   \r\n     * @param user   user\r\n     */\r\n    function rewardTokens(bytes2 _difficulty, address user) public onlyOwner returns (bool) {\r\n        if(_difficulty == bytes2(\"EZ\") && checkAmounts(7)) {\r\n            balances[user] += 7;\r\n        } else if (_difficulty == bytes2(\"NM\") && checkAmounts(10)) {\r\n            balances[user] += 10;\r\n        } else if (_difficulty == bytes2(\"HD\") && checkAmounts(20)) {\r\n            balances[user] += 20;\r\n        }\r\n    }\r\n\r\n    /**\r\n     * @dev   (suppliableAmount),  user balance overflow   \r\n     * @param _amount   \r\n     */\r\n    function checkAmounts(uint256 _amount) internal view returns (bool){\r\n        require(suppliableAmount >= _amount, \"Not enough Suppliable Tokens\");\r\n        require(balances[msg.sender] + _amount >= balances[msg.sender], \"Overflow Occured\");\r\n        return true;\r\n    }\r\n}",
  "sourcePath": "C:\\Users\\kwonHyunwoo\\Documents\\GitHub\\MineSweeperDApp\\contracts\\Magnet.sol",
  "compiler": {
    "name": "solc",
    "version": "0.5.8+commit.23d335f2.Emscripten.clang"
  },
  "schemaVersion": "3.0.11",
  "updatedAt": "2019-08-13T13:49:32.411Z",
  "devdoc": {
    "methods": {
      "allowance(address,address)": {
        "details": "See `IERC20.allowance`.\r"
      },
      "approve(address,uint256)": {
        "details": "See `IERC20.approve`.\r      * Requirements:\r      * - `spender` cannot be the zero address.\r"
      },
      "balanceOf(address)": {
        "details": "See `IERC20.balanceOf`.\r"
      },
      "buyTokens(uint256,address)": {
        "details": "     .\r",
        "return": "    true \r"
      },
      "decreaseAllowance(address,uint256)": {
        "details": "Atomically decreases the allowance granted to `spender` by the caller.\r      * This is an alternative to `approve` that can be used as a mitigation for\r problems described in `IERC20.approve`.\r      * Emits an `Approval` event indicating the updated allowance.\r      * Requirements:\r      * - `spender` cannot be the zero address.\r - `spender` must have allowance for the caller of at least\r `subtractedValue`.\r"
      },
      "exchangeTokens(uint256,address)": {
        "details": "     .\r",
        "params": {
          "amount": "  magnetfield \r",
          "user": "  user\r"
        },
        "return": "    true \r"
      },
      "getTotalSupply()": {
        "details": "See `IERC20.totalSupply`.\r"
      },
      "increaseAllowance(address,uint256)": {
        "details": "Atomically increases the allowance granted to `spender` by the caller.\r      * This is an alternative to `approve` that can be used as a mitigation for\r problems described in `IERC20.approve`.\r      * Emits an `Approval` event indicating the updated allowance.\r      * Requirements:\r      * - `spender` cannot be the zero address.\r"
      },
      "payToGamePlay(address)": {
        "details": "       \r"
      },
      "rewardTokens(bytes2,address)": {
        "details": "      \r",
        "params": {
          "_difficulty": "user   \r",
          "user": "  user\r"
        }
      },
      "transfer(address,uint256)": {
        "details": "See `IERC20.transfer`.\r      * Requirements:\r      * - `recipient` cannot be the zero address.\r - the caller must have a balance of at least `amount`.\r"
      },
      "transferFrom(address,address,uint256)": {
        "details": "See `IERC20.transferFrom`.\r      * Emits an `Approval` event indicating the updated allowance. This is not\r required by the EIP. See the note at the beginning of `ERC20`;\r      * Requirements:\r - `sender` and `recipient` cannot be the zero address.\r - `sender` must have a balance of at least `value`.\r - the caller must have allowance for `sender`'s tokens of at least\r `amount`.\r"
      }
    }
  },
  "userdoc": {
    "methods": {}
  }
}