{
  "contractName": "MagnetField",
  "abi": [
    {
      "constant": true,
      "inputs": [],
      "name": "name",
      "outputs": [
        {
          "name": "",
          "type": "string"
        }
      ],
      "payable": false,
      "stateMutability": "view",
      "type": "function"
    },
    {
      "constant": true,
      "inputs": [],
      "name": "decimals",
      "outputs": [
        {
          "name": "",
          "type": "uint256"
        }
      ],
      "payable": false,
      "stateMutability": "view",
      "type": "function"
    },
    {
      "constant": true,
      "inputs": [],
      "name": "owner",
      "outputs": [
        {
          "name": "",
          "type": "address"
        }
      ],
      "payable": false,
      "stateMutability": "view",
      "type": "function"
    },
    {
      "constant": true,
      "inputs": [],
      "name": "symbol",
      "outputs": [
        {
          "name": "",
          "type": "string"
        }
      ],
      "payable": false,
      "stateMutability": "view",
      "type": "function"
    },
    {
      "constant": true,
      "inputs": [],
      "name": "controller",
      "outputs": [
        {
          "name": "",
          "type": "address"
        }
      ],
      "payable": false,
      "stateMutability": "view",
      "type": "function"
    },
    {
      "inputs": [
        {
          "name": "_owner",
          "type": "address"
        }
      ],
      "payable": false,
      "stateMutability": "nonpayable",
      "type": "constructor"
    },
    {
      "anonymous": false,
      "inputs": [
        {
          "indexed": true,
          "name": "from",
          "type": "address"
        },
        {
          "indexed": true,
          "name": "to",
          "type": "address"
        },
        {
          "indexed": false,
          "name": "value",
          "type": "uint256"
        }
      ],
      "name": "Transfer",
      "type": "event"
    },
    {
      "anonymous": false,
      "inputs": [
        {
          "indexed": true,
          "name": "owner",
          "type": "address"
        },
        {
          "indexed": true,
          "name": "spender",
          "type": "address"
        },
        {
          "indexed": false,
          "name": "value",
          "type": "uint256"
        }
      ],
      "name": "Approval",
      "type": "event"
    },
    {
      "constant": true,
      "inputs": [],
      "name": "getTotalSupply",
      "outputs": [
        {
          "name": "",
          "type": "uint256"
        }
      ],
      "payable": false,
      "stateMutability": "view",
      "type": "function"
    },
    {
      "constant": true,
      "inputs": [
        {
          "name": "account",
          "type": "address"
        }
      ],
      "name": "balanceOf",
      "outputs": [
        {
          "name": "",
          "type": "uint256"
        }
      ],
      "payable": false,
      "stateMutability": "view",
      "type": "function"
    },
    {
      "constant": false,
      "inputs": [
        {
          "name": "recipient",
          "type": "address"
        },
        {
          "name": "amount",
          "type": "uint256"
        }
      ],
      "name": "transfer",
      "outputs": [
        {
          "name": "",
          "type": "bool"
        }
      ],
      "payable": false,
      "stateMutability": "nonpayable",
      "type": "function"
    },
    {
      "constant": true,
      "inputs": [
        {
          "name": "from",
          "type": "address"
        },
        {
          "name": "to",
          "type": "address"
        }
      ],
      "name": "allowance",
      "outputs": [
        {
          "name": "",
          "type": "uint256"
        }
      ],
      "payable": false,
      "stateMutability": "view",
      "type": "function"
    },
    {
      "constant": false,
      "inputs": [
        {
          "name": "spender",
          "type": "address"
        },
        {
          "name": "value",
          "type": "uint256"
        }
      ],
      "name": "approve",
      "outputs": [
        {
          "name": "",
          "type": "bool"
        }
      ],
      "payable": false,
      "stateMutability": "nonpayable",
      "type": "function"
    },
    {
      "constant": false,
      "inputs": [
        {
          "name": "sender",
          "type": "address"
        },
        {
          "name": "recipient",
          "type": "address"
        },
        {
          "name": "amount",
          "type": "uint256"
        }
      ],
      "name": "transferFrom",
      "outputs": [
        {
          "name": "",
          "type": "bool"
        }
      ],
      "payable": false,
      "stateMutability": "nonpayable",
      "type": "function"
    },
    {
      "constant": false,
      "inputs": [
        {
          "name": "spender",
          "type": "address"
        },
        {
          "name": "addedValue",
          "type": "uint256"
        }
      ],
      "name": "increaseAllowance",
      "outputs": [
        {
          "name": "",
          "type": "bool"
        }
      ],
      "payable": false,
      "stateMutability": "nonpayable",
      "type": "function"
    },
    {
      "constant": false,
      "inputs": [
        {
          "name": "spender",
          "type": "address"
        },
        {
          "name": "subtractedValue",
          "type": "uint256"
        }
      ],
      "name": "decreaseAllowance",
      "outputs": [
        {
          "name": "",
          "type": "bool"
        }
      ],
      "payable": false,
      "stateMutability": "nonpayable",
      "type": "function"
    },
    {
      "constant": false,
      "inputs": [
        {
          "name": "amount",
          "type": "uint256"
        },
        {
          "name": "user",
          "type": "address"
        }
      ],
      "name": "exchangeTokens",
      "outputs": [
        {
          "name": "",
          "type": "bool"
        }
      ],
      "payable": false,
      "stateMutability": "nonpayable",
      "type": "function"
    },
    {
      "constant": false,
      "inputs": [
        {
          "name": "cost",
          "type": "uint256"
        },
        {
          "name": "user",
          "type": "address"
        }
      ],
      "name": "buyItems",
      "outputs": [],
      "payable": false,
      "stateMutability": "nonpayable",
      "type": "function"
    },
    {
      "constant": false,
      "inputs": [
        {
          "name": "_difficulty",
          "type": "bytes2"
        },
        {
          "name": "user",
          "type": "address"
        }
      ],
      "name": "rewardTokens",
      "outputs": [
        {
          "name": "",
          "type": "bool"
        }
      ],
      "payable": false,
      "stateMutability": "nonpayable",
      "type": "function"
    }
  ],
  "bytecode": "0x60806040523480156200001157600080fd5b5060405160208062001ec5833981018060405260208110156200003357600080fd5b8101908080519060200190929190505050806000806101000a81548173ffffffffffffffffffffffffffffffffffffffff021916908373ffffffffffffffffffffffffffffffffffffffff16021790555033600160006101000a81548173ffffffffffffffffffffffffffffffffffffffff021916908373ffffffffffffffffffffffffffffffffffffffff1602179055506040805190810160405280600b81526020017f4d61676e65744669656c64000000000000000000000000000000000000000000815250600290805190602001906200011292919062000194565b506040805190810160405280600381526020017f4d47460000000000000000000000000000000000000000000000000000000000815250600390805190602001906200016092919062000194565b506008600481905550600454600a0a630bebc20002600581905550600454600a0a630bebc200026006819055505062000243565b828054600181600116156101000203166002900490600052602060002090601f016020900481019282601f10620001d757805160ff191683800117855562000208565b8280016001018555821562000208579182015b8281111562000207578251825591602001919060010190620001ea565b5b5090506200021791906200021b565b5090565b6200024091905b808211156200023c57600081600090555060010162000222565b5090565b90565b611c7280620002536000396000f3fe6080604052600436106100e6576000357c0100000000000000000000000000000000000000000000000000000000900463ffffffff16806306fdde03146100eb578063095ea7b31461017b5780631c45202d146101ee57806323b872dd14610249578063313ce567146102dc578063395093511461030757806343d2c7521461037a57806370a082311461040e5780638da5cb5b1461047357806395d89b41146104ca578063a457c2d71461055a578063a9059cbb146105cd578063c4e41b2214610640578063d92dd1cb1461066b578063dd62ed3e146106de578063f77c479114610763575b600080fd5b3480156100f757600080fd5b506101006107ba565b6040518080602001828103825283818151815260200191508051906020019080838360005b83811015610140578082015181840152602081019050610125565b50505050905090810190601f16801561016d5780820380516001836020036101000a031916815260200191505b509250505060405180910390f35b34801561018757600080fd5b506101d46004803603604081101561019e57600080fd5b81019080803573ffffffffffffffffffffffffffffffffffffffff16906020019092919080359060200190929190505050610858565b604051808215151515815260200191505060405180910390f35b3480156101fa57600080fd5b506102476004803603604081101561021157600080fd5b8101908080359060200190929190803573ffffffffffffffffffffffffffffffffffffffff16906020019092919050505061086f565b005b34801561025557600080fd5b506102c26004803603606081101561026c57600080fd5b81019080803573ffffffffffffffffffffffffffffffffffffffff169060200190929190803573ffffffffffffffffffffffffffffffffffffffff16906020019092919080359060200190929190505050610987565b604051808215151515815260200191505060405180910390f35b3480156102e857600080fd5b506102f1610a38565b6040518082815260200191505060405180910390f35b34801561031357600080fd5b506103606004803603604081101561032a57600080fd5b81019080803573ffffffffffffffffffffffffffffffffffffffff16906020019092919080359060200190929190505050610a3e565b604051808215151515815260200191505060405180910390f35b34801561038657600080fd5b506103f46004803603604081101561039d57600080fd5b8101908080357dffffffffffffffffffffffffffffffffffffffffffffffffffffffffffff19169060200190929190803573ffffffffffffffffffffffffffffffffffffffff169060200190929190505050610ae3565b604051808215151515815260200191505060405180910390f35b34801561041a57600080fd5b5061045d6004803603602081101561043157600080fd5b81019080803573ffffffffffffffffffffffffffffffffffffffff169060200190929190505050610eae565b6040518082815260200191505060405180910390f35b34801561047f57600080fd5b50610488610ef7565b604051808273ffffffffffffffffffffffffffffffffffffffff1673ffffffffffffffffffffffffffffffffffffffff16815260200191505060405180910390f35b3480156104d657600080fd5b506104df610f1c565b6040518080602001828103825283818151815260200191508051906020019080838360005b8381101561051f578082015181840152602081019050610504565b50505050905090810190601f16801561054c5780820380516001836020036101000a031916815260200191505b509250505060405180910390f35b34801561056657600080fd5b506105b36004803603604081101561057d57600080fd5b81019080803573ffffffffffffffffffffffffffffffffffffffff16906020019092919080359060200190929190505050610fba565b604051808215151515815260200191505060405180910390f35b3480156105d957600080fd5b50610626600480360360408110156105f057600080fd5b81019080803573ffffffffffffffffffffffffffffffffffffffff1690602001909291908035906020019092919050505061105f565b604051808215151515815260200191505060405180910390f35b34801561064c57600080fd5b50610655611076565b6040518082815260200191505060405180910390f35b34801561067757600080fd5b506106c46004803603604081101561068e57600080fd5b8101908080359060200190929190803573ffffffffffffffffffffffffffffffffffffffff169060200190929190505050611080565b604051808215151515815260200191505060405180910390f35b3480156106ea57600080fd5b5061074d6004803603604081101561070157600080fd5b81019080803573ffffffffffffffffffffffffffffffffffffffff169060200190929190803573ffffffffffffffffffffffffffffffffffffffff16906020019092919050505061135c565b6040518082815260200191505060405180910390f35b34801561076f57600080fd5b506107786113e3565b604051808273ffffffffffffffffffffffffffffffffffffffff1673ffffffffffffffffffffffffffffffffffffffff16815260200191505060405180910390f35b60028054600181600116156101000203166002900480601f0160208091040260200160405190810160405280929190818152602001828054600181600116156101000203166002900480156108505780601f1061082557610100808354040283529160200191610850565b820191906000526020600020905b81548152906001019060200180831161083357829003601f168201915b505050505081565b6000610865338484611409565b6001905092915050565b81600860008373ffffffffffffffffffffffffffffffffffffffff1673ffffffffffffffffffffffffffffffffffffffff1681526020019081526020016000205410151515610926576040517f08c379a00000000000000000000000000000000000000000000000000000000081526004018080602001828103825260128152602001807f4e6f7420656e6f7567682042616c616e6365000000000000000000000000000081525060200191505060405180910390fd5b81600860008373ffffffffffffffffffffffffffffffffffffffff1673ffffffffffffffffffffffffffffffffffffffff16815260200190815260200160002060008282540392505081905550816006600082825401925050819055505050565b600061099484848461168a565b610a2d8433610a2885600960008a73ffffffffffffffffffffffffffffffffffffffff1673ffffffffffffffffffffffffffffffffffffffff16815260200190815260200160002060003373ffffffffffffffffffffffffffffffffffffffff1673ffffffffffffffffffffffffffffffffffffffff168152602001908152602001600020546119b490919063ffffffff16565b611409565b600190509392505050565b60045481565b6000610ad93384610ad485600960003373ffffffffffffffffffffffffffffffffffffffff1673ffffffffffffffffffffffffffffffffffffffff16815260200190815260200160002060008973ffffffffffffffffffffffffffffffffffffffff1673ffffffffffffffffffffffffffffffffffffffff16815260200190815260200160002054611a3f90919063ffffffff16565b611409565b6001905092915050565b60008060009054906101000a900473ffffffffffffffffffffffffffffffffffffffff1673ffffffffffffffffffffffffffffffffffffffff163373ffffffffffffffffffffffffffffffffffffffff161480610b8d5750600160009054906101000a900473ffffffffffffffffffffffffffffffffffffffff1673ffffffffffffffffffffffffffffffffffffffff163373ffffffffffffffffffffffffffffffffffffffff16145b1515610c01576040517f08c379a00000000000000000000000000000000000000000000000000000000081526004018080602001828103825260138152602001807f556e617574686f72697a65642073656e6465720000000000000000000000000081525060200191505060405180910390fd5b7f455a0000000000000000000000000000000000000000000000000000000000007dffffffffffffffffffffffffffffffffffffffffffffffffffffffffffff1916837dffffffffffffffffffffffffffffffffffffffffffffffffffffffffffff1916148015610c795750610c786102bc611ac9565b5b15610ce4576102bc600860008473ffffffffffffffffffffffffffffffffffffffff1673ffffffffffffffffffffffffffffffffffffffff168152602001908152602001600020600082825401925050819055506102bc600660008282540392505081905550610ea8565b7f4e4d0000000000000000000000000000000000000000000000000000000000007dffffffffffffffffffffffffffffffffffffffffffffffffffffffffffff1916837dffffffffffffffffffffffffffffffffffffffffffffffffffffffffffff1916148015610d5c5750610d5b6103e8611ac9565b5b15610dc7576103e8600860008473ffffffffffffffffffffffffffffffffffffffff1673ffffffffffffffffffffffffffffffffffffffff168152602001908152602001600020600082825401925050819055506103e8600660008282540392505081905550610ea7565b7f48440000000000000000000000000000000000000000000000000000000000007dffffffffffffffffffffffffffffffffffffffffffffffffffffffffffff1916837dffffffffffffffffffffffffffffffffffffffffffffffffffffffffffff1916148015610e3f5750610e3e6107d0611ac9565b5b15610ea6576107d0600860008473ffffffffffffffffffffffffffffffffffffffff1673ffffffffffffffffffffffffffffffffffffffff168152602001908152602001600020600082825401925050819055506107d06006600082825403925050819055505b5b5b92915050565b6000600860008373ffffffffffffffffffffffffffffffffffffffff1673ffffffffffffffffffffffffffffffffffffffff168152602001908152602001600020549050919050565b6000809054906101000a900473ffffffffffffffffffffffffffffffffffffffff1681565b60038054600181600116156101000203166002900480601f016020809104026020016040519081016040528092919081815260200182805460018160011615610100020316600290048015610fb25780601f10610f8757610100808354040283529160200191610fb2565b820191906000526020600020905b815481529060010190602001808311610f9557829003601f168201915b505050505081565b6000611055338461105085600960003373ffffffffffffffffffffffffffffffffffffffff1673ffffffffffffffffffffffffffffffffffffffff16815260200190815260200160002060008973ffffffffffffffffffffffffffffffffffffffff1673ffffffffffffffffffffffffffffffffffffffff168152602001908152602001600020546119b490919063ffffffff16565b611409565b6001905092915050565b600061106c33848461168a565b6001905092915050565b6000600554905090565b60008060009054906101000a900473ffffffffffffffffffffffffffffffffffffffff1673ffffffffffffffffffffffffffffffffffffffff163373ffffffffffffffffffffffffffffffffffffffff16148061112a5750600160009054906101000a900473ffffffffffffffffffffffffffffffffffffffff1673ffffffffffffffffffffffffffffffffffffffff163373ffffffffffffffffffffffffffffffffffffffff16145b151561119e576040517f08c379a00000000000000000000000000000000000000000000000000000000081526004018080602001828103825260138152602001807f556e617574686f72697a65642073656e6465720000000000000000000000000081525060200191505060405180910390fd5b82600860008473ffffffffffffffffffffffffffffffffffffffff1673ffffffffffffffffffffffffffffffffffffffff1681526020019081526020016000205410151515611255576040517f08c379a00000000000000000000000000000000000000000000000000000000081526004018080602001828103825260128152602001807f4e6f7420656e6f7567682042616c616e6365000000000000000000000000000081525060200191505060405180910390fd5b61271083101515156112f5576040517f08c379a00000000000000000000000000000000000000000000000000000000081526004018080602001828103825260268152602001807f4e6f74205265616368204d696e696d616c20436f6e646974696f6e3a2031303081526020017f3030204d4654000000000000000000000000000000000000000000000000000081525060400191505060405180910390fd5b82600860008473ffffffffffffffffffffffffffffffffffffffff1673ffffffffffffffffffffffffffffffffffffffff16815260200190815260200160002060008282540392505081905550826006600082825401925050819055506001905092915050565b6000600960008473ffffffffffffffffffffffffffffffffffffffff1673ffffffffffffffffffffffffffffffffffffffff16815260200190815260200160002060008373ffffffffffffffffffffffffffffffffffffffff1673ffffffffffffffffffffffffffffffffffffffff16815260200190815260200160002054905092915050565b600160009054906101000a900473ffffffffffffffffffffffffffffffffffffffff1681565b600073ffffffffffffffffffffffffffffffffffffffff168373ffffffffffffffffffffffffffffffffffffffff16141515156114d4576040517f08c379a00000000000000000000000000000000000000000000000000000000081526004018080602001828103825260248152602001807f45524332303a20617070726f76652066726f6d20746865207a65726f2061646481526020017f726573730000000000000000000000000000000000000000000000000000000081525060400191505060405180910390fd5b600073ffffffffffffffffffffffffffffffffffffffff168273ffffffffffffffffffffffffffffffffffffffff161415151561159f576040517f08c379a00000000000000000000000000000000000000000000000000000000081526004018080602001828103825260228152602001807f45524332303a20617070726f766520746f20746865207a65726f20616464726581526020017f737300000000000000000000000000000000000000000000000000000000000081525060400191505060405180910390fd5b80600960008573ffffffffffffffffffffffffffffffffffffffff1673ffffffffffffffffffffffffffffffffffffffff16815260200190815260200160002060008473ffffffffffffffffffffffffffffffffffffffff1673ffffffffffffffffffffffffffffffffffffffff168152602001908152602001600020819055508173ffffffffffffffffffffffffffffffffffffffff168373ffffffffffffffffffffffffffffffffffffffff167f8c5be1e5ebec7d5bd14f71427d1e84f3dd0314c0f7b2291e5b200ac8c7c3b925836040518082815260200191505060405180910390a3505050565b600073ffffffffffffffffffffffffffffffffffffffff168373ffffffffffffffffffffffffffffffffffffffff1614151515611755576040517f08c379a00000000000000000000000000000000000000000000000000000000081526004018080602001828103825260258152602001807f45524332303a207472616e736665722066726f6d20746865207a65726f20616481526020017f647265737300000000000000000000000000000000000000000000000000000081525060400191505060405180910390fd5b600073ffffffffffffffffffffffffffffffffffffffff168273ffffffffffffffffffffffffffffffffffffffff1614151515611820576040517f08c379a00000000000000000000000000000000000000000000000000000000081526004018080602001828103825260238152602001807f45524332303a207472616e7366657220746f20746865207a65726f206164647281526020017f657373000000000000000000000000000000000000000000000000000000000081525060400191505060405180910390fd5b61187281600860008673ffffffffffffffffffffffffffffffffffffffff1673ffffffffffffffffffffffffffffffffffffffff168152602001908152602001600020546119b490919063ffffffff16565b600860008573ffffffffffffffffffffffffffffffffffffffff1673ffffffffffffffffffffffffffffffffffffffff1681526020019081526020016000208190555061190781600860008573ffffffffffffffffffffffffffffffffffffffff1673ffffffffffffffffffffffffffffffffffffffff16815260200190815260200160002054611a3f90919063ffffffff16565b600860008473ffffffffffffffffffffffffffffffffffffffff1673ffffffffffffffffffffffffffffffffffffffff168152602001908152602001600020819055508173ffffffffffffffffffffffffffffffffffffffff168373ffffffffffffffffffffffffffffffffffffffff167fddf252ad1be2c89b69c2b068fc378daa952ba7f163c4a11628f55a4df523b3ef836040518082815260200191505060405180910390a3505050565b6000828211151515611a2e576040517f08c379a000000000000000000000000000000000000000000000000000000000815260040180806020018281038252601e8152602001807f536166654d6174683a207375627472616374696f6e206f766572666c6f77000081525060200191505060405180910390fd5b600082840390508091505092915050565b6000808284019050838110151515611abf576040517f08c379a000000000000000000000000000000000000000000000000000000000815260040180806020018281038252601b8152602001807f536166654d6174683a206164646974696f6e206f766572666c6f77000000000081525060200191505060405180910390fd5b8091505092915050565b60008160065410151515611b45576040517f08c379a000000000000000000000000000000000000000000000000000000000815260040180806020018281038252601c8152602001807f4e6f7420656e6f75676820537570706c6961626c6520546f6b656e730000000081525060200191505060405180910390fd5b600860003373ffffffffffffffffffffffffffffffffffffffff1673ffffffffffffffffffffffffffffffffffffffff1681526020019081526020016000205482600860003373ffffffffffffffffffffffffffffffffffffffff1673ffffffffffffffffffffffffffffffffffffffff168152602001908152602001600020540110151515611c3d576040517f08c379a00000000000000000000000000000000000000000000000000000000081526004018080602001828103825260108152602001807f4f766572666c6f77204f6363757265640000000000000000000000000000000081525060200191505060405180910390fd5b6001905091905056fea165627a7a723058201dc2cf6c32bba228bcc32653933bc70529534feb8e9a540c6875085867b301460029",
  "source": "pragma solidity ^0.5.0;\r\n\r\nimport './IERC20.sol';\r\nimport './IMagnetField.sol';\r\nimport \"./SafeMath.sol\";\r\n\r\n// 1 Manget == 100 MagnetField\r\ncontract MagnetField is IERC20, IMagnetField{\r\n    using SafeMath for uint256;\r\n    // ERC20 functions are implemeted by parent contract(ERC20 by Openzeppelin)\r\n\r\n    // constant variables\r\n    uint256 constant internal INITIAL_SUPPLY = 200000000; //(2억)\r\n\r\n    // token information variables\r\n    address public owner;\r\n    address public controller;\r\n    string public name;\r\n    string public symbol;\r\n    uint256 public decimals;\r\n    uint256 private totalSupply;\r\n    uint256 private suppliableAmount;\r\n    uint256 private tokenPrice;\r\n\r\n\r\n    mapping (address => uint256) private balances;\r\n\r\n    mapping (address => mapping (address => uint256)) private allowances;\r\n\r\n    /**\r\n     * @dev 컨트랙트 생성시 자동으로 실행되는 일회성 생성자.\r\n     * @param _owner 상위 컨트랙트(GameController)를 생성한 deployer.\r\n     */\r\n    constructor(address _owner) public{\r\n        owner = _owner;\r\n        controller = msg.sender;\r\n        name = \"MagnetField\";\r\n        symbol = \"MGF\";\r\n        decimals = 8;\r\n        totalSupply = INITIAL_SUPPLY * 10 ** uint(decimals);\r\n        suppliableAmount = INITIAL_SUPPLY * 10 ** uint(decimals);\r\n    }\r\n\r\n    modifier onlyOwner() {\r\n        require(msg.sender == owner || msg.sender == controller, \"Unauthorized sender\");\r\n        _;\r\n    }\r\n\r\n\r\n\r\n    // Events are implemented in IERC20.sol\r\n    /*\r\n        event Transfer(address indexed from, address indexed to, uint256 value);\r\n        event Approval(address indexed owner, address indexed spender, uint256 value);\r\n    */\r\n    // ERC20 standard functions\r\n    /**\r\n     * @dev See `IERC20.totalSupply`.\r\n     */\r\n    function getTotalSupply() public view returns (uint256) {\r\n        return totalSupply;\r\n    }\r\n\r\n    /**\r\n     * @dev See `IERC20.balanceOf`.\r\n     */\r\n    function balanceOf(address account) public view returns (uint256) {\r\n        return balances[account];\r\n    }\r\n\r\n    /**\r\n     * @dev See `IERC20.transfer`.\r\n     *\r\n     * Requirements:\r\n     *\r\n     * - `recipient` cannot be the zero address.\r\n     * - the caller must have a balance of at least `amount`.\r\n     */\r\n    function transfer(address recipient, uint256 amount) public returns (bool) {\r\n        _transfer(msg.sender, recipient, amount);\r\n        return true;\r\n    }\r\n\r\n    /**\r\n     * @dev See `IERC20.allowance`.\r\n     */\r\n    function allowance(address from, address to) public view returns (uint256) {\r\n        return allowances[from][to];\r\n    }\r\n\r\n    /**\r\n     * @dev See `IERC20.approve`.\r\n     *\r\n     * Requirements:\r\n     *\r\n     * - `spender` cannot be the zero address.\r\n     */\r\n    function approve(address spender, uint256 value) public returns (bool) {\r\n        _approve(msg.sender, spender, value);\r\n        return true;\r\n    }\r\n\r\n    /**\r\n     * @dev See `IERC20.transferFrom`.\r\n     *\r\n     * Emits an `Approval` event indicating the updated allowance. This is not\r\n     * required by the EIP. See the note at the beginning of `ERC20`;\r\n     *\r\n     * Requirements:\r\n     * - `sender` and `recipient` cannot be the zero address.\r\n     * - `sender` must have a balance of at least `value`.\r\n     * - the caller must have allowance for `sender`'s tokens of at least\r\n     * `amount`.\r\n     */\r\n    function transferFrom(address sender, address recipient, uint256 amount) public returns (bool) {\r\n        _transfer(sender, recipient, amount);\r\n        _approve(sender, msg.sender, allowances[sender][msg.sender].sub(amount));\r\n        return true;\r\n    }\r\n\r\n    /**\r\n     * @dev Atomically increases the allowance granted to `spender` by the caller.\r\n     *\r\n     * This is an alternative to `approve` that can be used as a mitigation for\r\n     * problems described in `IERC20.approve`.\r\n     *\r\n     * Emits an `Approval` event indicating the updated allowance.\r\n     *\r\n     * Requirements:\r\n     *\r\n     * - `spender` cannot be the zero address.\r\n     */\r\n    function increaseAllowance(address spender, uint256 addedValue) public returns (bool) {\r\n        _approve(msg.sender, spender, allowances[msg.sender][spender].add(addedValue));\r\n        return true;\r\n    }\r\n\r\n    /**\r\n     * @dev Atomically decreases the allowance granted to `spender` by the caller.\r\n     *\r\n     * This is an alternative to `approve` that can be used as a mitigation for\r\n     * problems described in `IERC20.approve`.\r\n     *\r\n     * Emits an `Approval` event indicating the updated allowance.\r\n     *\r\n     * Requirements:\r\n     *\r\n     * - `spender` cannot be the zero address.\r\n     * - `spender` must have allowance for the caller of at least\r\n     * `subtractedValue`.\r\n     */\r\n    function decreaseAllowance(address spender, uint256 subtractedValue) public returns (bool) {\r\n        _approve(msg.sender, spender, allowances[msg.sender][spender].sub(subtractedValue));\r\n        return true;\r\n    }\r\n\r\n    /**\r\n     * @dev Moves tokens `amount` from `sender` to `recipient`.\r\n     *\r\n     * This is internal function is equivalent to `transfer`, and can be used to\r\n     * e.g. implement automatic token fees, slashing mechanisms, etc.\r\n     *\r\n     * Emits a `Transfer` event.\r\n     *\r\n     * Requirements:\r\n     *\r\n     * - `sender` cannot be the zero address.\r\n     * - `recipient` cannot be the zero address.\r\n     * - `sender` must have a balance of at least `amount`.\r\n     */\r\n    function _transfer(address sender, address recipient, uint256 amount) internal {\r\n        require(sender != address(0), \"ERC20: transfer from the zero address\");\r\n        require(recipient != address(0), \"ERC20: transfer to the zero address\");\r\n\r\n        balances[sender] = balances[sender].sub(amount);\r\n        balances[recipient] = balances[recipient].add(amount);\r\n        emit Transfer(sender, recipient, amount);\r\n    }\r\n\r\n    /** @dev Creates `amount` tokens and assigns them to `account`, increasing\r\n     * the total supply.\r\n     *\r\n     * Emits a `Transfer` event with `from` set to the zero address.\r\n     *\r\n     * Requirements\r\n     *\r\n     * - `to` cannot be the zero address.\r\n     */\r\n    function _mint(address account, uint256 amount) internal {\r\n        require(account != address(0), \"ERC20: mint to the zero address\");\r\n\r\n        totalSupply = totalSupply.add(amount);\r\n        balances[account] = balances[account].add(amount);\r\n        emit Transfer(address(0), account, amount);\r\n    }\r\n\r\n     /**\r\n     * @dev Destoys `amount` tokens from `account`, reducing the\r\n     * total supply.\r\n     *\r\n     * Emits a `Transfer` event with `to` set to the zero address.\r\n     *\r\n     * Requirements\r\n     *\r\n     * - `account` cannot be the zero address.\r\n     * - `account` must have at least `amount` tokens.\r\n     */\r\n    function _burn(address account, uint256 value) internal {\r\n        require(account != address(0), \"ERC20: burn from the zero address\");\r\n\r\n        totalSupply = totalSupply.sub(value);\r\n        balances[account] = balances[account].sub(value);\r\n        emit Transfer(account, address(0), value);\r\n    }\r\n\r\n    /**\r\n     * @dev Sets `amount` as the allowance of `spender` over the `owner`s tokens.\r\n     *\r\n     * This is internal function is equivalent to `approve`, and can be used to\r\n     * e.g. set automatic allowances for certain subsystems, etc.\r\n     *\r\n     * Emits an `Approval` event.\r\n     *\r\n     * Requirements:\r\n     *\r\n     * - `owner` cannot be the zero address.\r\n     * - `spender` cannot be the zero address.\r\n     */\r\n    function _approve(address from, address to, uint256 value) internal {\r\n        require(from != address(0), \"ERC20: approve from the zero address\");\r\n        require(to != address(0), \"ERC20: approve to the zero address\");\r\n\r\n        allowances[from][to] = value;\r\n        emit Approval(from, to, value);\r\n    }\r\n\r\n    /**\r\n     * @dev Destoys `amount` tokens from `account`.`amount` is then deducted\r\n     * from the caller's allowance.\r\n     *\r\n     * See `_burn` and `_approve`.\r\n     */\r\n    function _burnFrom(address account, uint256 amount) internal {\r\n        _burn(account, amount);\r\n        _approve(account, msg.sender, allowances[account][msg.sender].sub(amount));\r\n    }\r\n\r\n    // Non-standard functions by OpenZeppelin\r\n    // function increaseAllowance(address spender, uint256 addedValue) public returns (bool) {\r\n    //     super(spender, addedValue);\r\n    // }\r\n\r\n\r\n    // function decreaseAllowance(address spender, uint256 subtractedValue) public returns (bool) {\r\n    //     super(spender, subtractedValue);\r\n    // }\r\n\r\n    /**\r\n     * @dev 교환 요청을 받은 경우 동작하는 함수.\r\n     * @param amount 교환하고자 하는 magnetfield 양\r\n     * @param user 교환을 요청한 user\r\n     */\r\n    function exchangeTokens(uint256 amount, address user) public onlyOwner returns (bool) {\r\n        require(balances[user] >= amount, \"Not enough Balance\");\r\n        require(amount >= 10000, \"Not Reach Minimal Condition: 10000 MFT\");\r\n        balances[user] -= amount;\r\n        suppliableAmount += amount;\r\n        return true;\r\n    }\r\n\r\n    /**\r\n     * @dev 교환 요청을 받은 경우 동작하는 함수.\r\n     * @param cost 아이템을 구매하는데 사용한 총 토큰량\r\n     * @param user 아이템 구매를 요청한 user\r\n     */\r\n    function buyItems(uint256 cost, address user) public {\r\n        require(balances[user] >= cost, \"Not enough Balance\");\r\n        balances[user] -= cost;\r\n        suppliableAmount += cost;\r\n    }\r\n\r\n    /**\r\n     * @dev 게임 결과에 따른 보상을 해주기 위한 함수\r\n     * @param _difficulty user가 수행한 게임의 난이도\r\n     * @param user 보상을 주어야하는 user\r\n     */\r\n    function rewardTokens(bytes2 _difficulty, address user) public onlyOwner returns (bool) {\r\n        if(_difficulty == bytes2(\"EZ\") && checkAmounts(700)) {\r\n            balances[user] += 700;\r\n            suppliableAmount -= 700;\r\n        } else if (_difficulty == bytes2(\"NM\") && checkAmounts(1000)) {\r\n            balances[user] += 1000;\r\n            suppliableAmount -= 1000;\r\n        } else if (_difficulty == bytes2(\"HD\") && checkAmounts(2000)) {\r\n            balances[user] += 2000;\r\n            suppliableAmount -= 2000;\r\n        }\r\n    }\r\n\r\n    /**\r\n     * @dev 특정량의 토큰을 공급가능한지(suppliableAmount), 또한 user의 balance에서 overflow가 발생하지 않는지 확인\r\n     * @param _amount 체크하고 싶은 토큰량\r\n     */\r\n    function checkAmounts(uint256 _amount) internal view returns (bool){\r\n        require(suppliableAmount >= _amount, \"Not enough Suppliable Tokens\");\r\n        require(balances[msg.sender] + _amount >= balances[msg.sender], \"Overflow Occured\");\r\n        return true;\r\n    }\r\n}",
  "sourcePath": "C:\\Users\\khw64\\OneDrive\\문서\\GitHub\\MineSweeperDApp\\contracts\\MagnetField.sol",
  "compiler": {
    "name": "solc",
    "version": "0.5.0+commit.1d4f565a.Emscripten.clang"
  },
  "schemaVersion": "3.0.3",
  "updatedAt": "2019-08-13T08:01:19.372Z",
  "devdoc": {
    "methods": {
      "allowance(address,address)": {
        "details": "See `IERC20.allowance`.\r"
      },
      "approve(address,uint256)": {
        "details": "See `IERC20.approve`.\r      * Requirements:\r      * - `spender` cannot be the zero address.\r"
      },
      "balanceOf(address)": {
        "details": "See `IERC20.balanceOf`.\r"
      },
      "buyItems(uint256,address)": {
        "details": "교환 요청을 받은 경우 동작하는 함수.\r",
        "params": {
          "cost": "아이템을 구매하는데 사용한 총 토큰량\r",
          "user": "아이템 구매를 요청한 user\r"
        }
      },
      "constructor": {
        "details": "컨트랙트 생성시 자동으로 실행되는 일회성 생성자.\r",
        "params": {
          "_owner": "상위 컨트랙트(GameController)를 생성한 deployer.\r"
        }
      },
      "decreaseAllowance(address,uint256)": {
        "details": "Atomically decreases the allowance granted to `spender` by the caller.\r      * This is an alternative to `approve` that can be used as a mitigation for\r problems described in `IERC20.approve`.\r      * Emits an `Approval` event indicating the updated allowance.\r      * Requirements:\r      * - `spender` cannot be the zero address.\r - `spender` must have allowance for the caller of at least\r `subtractedValue`.\r"
      },
      "exchangeTokens(uint256,address)": {
        "details": "교환 요청을 받은 경우 동작하는 함수.\r",
        "params": {
          "amount": "교환하고자 하는 magnetfield 양\r",
          "user": "교환을 요청한 user\r"
        }
      },
      "getTotalSupply()": {
        "details": "See `IERC20.totalSupply`.\r"
      },
      "increaseAllowance(address,uint256)": {
        "details": "Atomically increases the allowance granted to `spender` by the caller.\r      * This is an alternative to `approve` that can be used as a mitigation for\r problems described in `IERC20.approve`.\r      * Emits an `Approval` event indicating the updated allowance.\r      * Requirements:\r      * - `spender` cannot be the zero address.\r"
      },
      "rewardTokens(bytes2,address)": {
        "details": "게임 결과에 따른 보상을 해주기 위한 함수\r",
        "params": {
          "_difficulty": "user가 수행한 게임의 난이도\r",
          "user": "보상을 주어야하는 user\r"
        }
      },
      "transfer(address,uint256)": {
        "details": "See `IERC20.transfer`.\r      * Requirements:\r      * - `recipient` cannot be the zero address.\r - the caller must have a balance of at least `amount`.\r"
      },
      "transferFrom(address,address,uint256)": {
        "details": "See `IERC20.transferFrom`.\r      * Emits an `Approval` event indicating the updated allowance. This is not\r required by the EIP. See the note at the beginning of `ERC20`;\r      * Requirements:\r - `sender` and `recipient` cannot be the zero address.\r - `sender` must have a balance of at least `value`.\r - the caller must have allowance for `sender`'s tokens of at least\r `amount`.\r"
      }
    }
  },
  "userdoc": {
    "methods": {}
  }
}