{
  "contractName": "MagnetField",
  "abi": [
    {
      "constant": true,
      "inputs": [],
      "name": "name",
      "outputs": [
        {
          "name": "",
          "type": "string"
        }
      ],
      "payable": false,
      "stateMutability": "view",
      "type": "function"
    },
    {
      "constant": true,
      "inputs": [],
      "name": "decimals",
      "outputs": [
        {
          "name": "",
          "type": "uint256"
        }
      ],
      "payable": false,
      "stateMutability": "view",
      "type": "function"
    },
    {
      "constant": true,
      "inputs": [],
      "name": "owner",
      "outputs": [
        {
          "name": "",
          "type": "address"
        }
      ],
      "payable": false,
      "stateMutability": "view",
      "type": "function"
    },
    {
      "constant": true,
      "inputs": [],
      "name": "symbol",
      "outputs": [
        {
          "name": "",
          "type": "string"
        }
      ],
      "payable": false,
      "stateMutability": "view",
      "type": "function"
    },
    {
      "constant": true,
      "inputs": [],
      "name": "controller",
      "outputs": [
        {
          "name": "",
          "type": "address"
        }
      ],
      "payable": false,
      "stateMutability": "view",
      "type": "function"
    },
    {
      "inputs": [
        {
          "name": "_owner",
          "type": "address"
        }
      ],
      "payable": false,
      "stateMutability": "nonpayable",
      "type": "constructor"
    },
    {
      "anonymous": false,
      "inputs": [
        {
          "indexed": true,
          "name": "from",
          "type": "address"
        },
        {
          "indexed": true,
          "name": "to",
          "type": "address"
        },
        {
          "indexed": false,
          "name": "value",
          "type": "uint256"
        }
      ],
      "name": "Transfer",
      "type": "event"
    },
    {
      "anonymous": false,
      "inputs": [
        {
          "indexed": true,
          "name": "owner",
          "type": "address"
        },
        {
          "indexed": true,
          "name": "spender",
          "type": "address"
        },
        {
          "indexed": false,
          "name": "value",
          "type": "uint256"
        }
      ],
      "name": "Approval",
      "type": "event"
    },
    {
      "constant": true,
      "inputs": [],
      "name": "getTotalSupply",
      "outputs": [
        {
          "name": "",
          "type": "uint256"
        }
      ],
      "payable": false,
      "stateMutability": "view",
      "type": "function"
    },
    {
      "constant": true,
      "inputs": [
        {
          "name": "account",
          "type": "address"
        }
      ],
      "name": "balanceOf",
      "outputs": [
        {
          "name": "",
          "type": "uint256"
        }
      ],
      "payable": false,
      "stateMutability": "view",
      "type": "function"
    },
    {
      "constant": false,
      "inputs": [
        {
          "name": "recipient",
          "type": "address"
        },
        {
          "name": "amount",
          "type": "uint256"
        }
      ],
      "name": "transfer",
      "outputs": [
        {
          "name": "",
          "type": "bool"
        }
      ],
      "payable": false,
      "stateMutability": "nonpayable",
      "type": "function"
    },
    {
      "constant": true,
      "inputs": [
        {
          "name": "from",
          "type": "address"
        },
        {
          "name": "to",
          "type": "address"
        }
      ],
      "name": "allowance",
      "outputs": [
        {
          "name": "",
          "type": "uint256"
        }
      ],
      "payable": false,
      "stateMutability": "view",
      "type": "function"
    },
    {
      "constant": false,
      "inputs": [
        {
          "name": "spender",
          "type": "address"
        },
        {
          "name": "value",
          "type": "uint256"
        }
      ],
      "name": "approve",
      "outputs": [
        {
          "name": "",
          "type": "bool"
        }
      ],
      "payable": false,
      "stateMutability": "nonpayable",
      "type": "function"
    },
    {
      "constant": false,
      "inputs": [
        {
          "name": "sender",
          "type": "address"
        },
        {
          "name": "recipient",
          "type": "address"
        },
        {
          "name": "amount",
          "type": "uint256"
        }
      ],
      "name": "transferFrom",
      "outputs": [
        {
          "name": "",
          "type": "bool"
        }
      ],
      "payable": false,
      "stateMutability": "nonpayable",
      "type": "function"
    },
    {
      "constant": false,
      "inputs": [
        {
          "name": "spender",
          "type": "address"
        },
        {
          "name": "addedValue",
          "type": "uint256"
        }
      ],
      "name": "increaseAllowance",
      "outputs": [
        {
          "name": "",
          "type": "bool"
        }
      ],
      "payable": false,
      "stateMutability": "nonpayable",
      "type": "function"
    },
    {
      "constant": false,
      "inputs": [
        {
          "name": "spender",
          "type": "address"
        },
        {
          "name": "subtractedValue",
          "type": "uint256"
        }
      ],
      "name": "decreaseAllowance",
      "outputs": [
        {
          "name": "",
          "type": "bool"
        }
      ],
      "payable": false,
      "stateMutability": "nonpayable",
      "type": "function"
    },
    {
      "constant": false,
      "inputs": [
        {
          "name": "amount",
          "type": "uint256"
        },
        {
          "name": "user",
          "type": "address"
        }
      ],
      "name": "exchangeTokens",
      "outputs": [
        {
          "name": "",
          "type": "bool"
        }
      ],
      "payable": false,
      "stateMutability": "nonpayable",
      "type": "function"
    },
    {
      "constant": false,
      "inputs": [
        {
          "name": "cost",
          "type": "uint256"
        },
        {
          "name": "user",
          "type": "address"
        }
      ],
      "name": "buyItems",
      "outputs": [],
      "payable": false,
      "stateMutability": "nonpayable",
      "type": "function"
    },
    {
      "constant": false,
      "inputs": [
        {
          "name": "_difficulty",
          "type": "bytes2"
        },
        {
          "name": "user",
          "type": "address"
        }
      ],
      "name": "rewardTokens",
      "outputs": [
        {
          "name": "",
          "type": "bool"
        }
      ],
      "payable": false,
      "stateMutability": "nonpayable",
      "type": "function"
    },
    {
      "constant": false,
      "inputs": [
        {
          "name": "_amount",
          "type": "uint256"
        },
        {
          "name": "user",
          "type": "address"
        }
      ],
      "name": "getTokens",
      "outputs": [],
      "payable": false,
      "stateMutability": "nonpayable",
      "type": "function"
    }
  ],
  "bytecode": "0x60806040523480156200001157600080fd5b5060405160208062002106833981018060405260208110156200003357600080fd5b8101908080519060200190929190505050806000806101000a81548173ffffffffffffffffffffffffffffffffffffffff021916908373ffffffffffffffffffffffffffffffffffffffff16021790555033600160006101000a81548173ffffffffffffffffffffffffffffffffffffffff021916908373ffffffffffffffffffffffffffffffffffffffff1602179055506040805190810160405280600b81526020017f4d61676e65744669656c64000000000000000000000000000000000000000000815250600290805190602001906200011292919062000194565b506040805190810160405280600381526020017f4d47460000000000000000000000000000000000000000000000000000000000815250600390805190602001906200016092919062000194565b506008600481905550600454600a0a630bebc20002600581905550600454600a0a630bebc200026006819055505062000243565b828054600181600116156101000203166002900490600052602060002090601f016020900481019282601f10620001d757805160ff191683800117855562000208565b8280016001018555821562000208579182015b8281111562000207578251825591602001919060010190620001ea565b5b5090506200021791906200021b565b5090565b6200024091905b808211156200023c57600081600090555060010162000222565b5090565b90565b611eb380620002536000396000f3fe6080604052600436106100f1576000357c0100000000000000000000000000000000000000000000000000000000900463ffffffff16806306fdde03146100f6578063095ea7b3146101865780631c45202d146101f957806323b872dd146102545780632570e31e146102e7578063313ce56714610342578063395093511461036d57806343d2c752146103e057806370a08231146104745780638da5cb5b146104d957806395d89b4114610530578063a457c2d7146105c0578063a9059cbb14610633578063c4e41b22146106a6578063d92dd1cb146106d1578063dd62ed3e14610744578063f77c4791146107c9575b600080fd5b34801561010257600080fd5b5061010b610820565b6040518080602001828103825283818151815260200191508051906020019080838360005b8381101561014b578082015181840152602081019050610130565b50505050905090810190601f1680156101785780820380516001836020036101000a031916815260200191505b509250505060405180910390f35b34801561019257600080fd5b506101df600480360360408110156101a957600080fd5b81019080803573ffffffffffffffffffffffffffffffffffffffff169060200190929190803590602001909291905050506108be565b604051808215151515815260200191505060405180910390f35b34801561020557600080fd5b506102526004803603604081101561021c57600080fd5b8101908080359060200190929190803573ffffffffffffffffffffffffffffffffffffffff1690602001909291905050506108d5565b005b34801561026057600080fd5b506102cd6004803603606081101561027757600080fd5b81019080803573ffffffffffffffffffffffffffffffffffffffff169060200190929190803573ffffffffffffffffffffffffffffffffffffffff169060200190929190803590602001909291905050506109ed565b604051808215151515815260200191505060405180910390f35b3480156102f357600080fd5b506103406004803603604081101561030a57600080fd5b8101908080359060200190929190803573ffffffffffffffffffffffffffffffffffffffff169060200190929190505050610a9e565b005b34801561034e57600080fd5b50610357610c71565b6040518082815260200191505060405180910390f35b34801561037957600080fd5b506103c66004803603604081101561039057600080fd5b81019080803573ffffffffffffffffffffffffffffffffffffffff16906020019092919080359060200190929190505050610c77565b604051808215151515815260200191505060405180910390f35b3480156103ec57600080fd5b5061045a6004803603604081101561040357600080fd5b8101908080357dffffffffffffffffffffffffffffffffffffffffffffffffffffffffffff19169060200190929190803573ffffffffffffffffffffffffffffffffffffffff169060200190929190505050610d1c565b604051808215151515815260200191505060405180910390f35b34801561048057600080fd5b506104c36004803603602081101561049757600080fd5b81019080803573ffffffffffffffffffffffffffffffffffffffff1690602001909291905050506110ee565b6040518082815260200191505060405180910390f35b3480156104e557600080fd5b506104ee611137565b604051808273ffffffffffffffffffffffffffffffffffffffff1673ffffffffffffffffffffffffffffffffffffffff16815260200191505060405180910390f35b34801561053c57600080fd5b5061054561115c565b6040518080602001828103825283818151815260200191508051906020019080838360005b8381101561058557808201518184015260208101905061056a565b50505050905090810190601f1680156105b25780820380516001836020036101000a031916815260200191505b509250505060405180910390f35b3480156105cc57600080fd5b50610619600480360360408110156105e357600080fd5b81019080803573ffffffffffffffffffffffffffffffffffffffff169060200190929190803590602001909291905050506111fa565b604051808215151515815260200191505060405180910390f35b34801561063f57600080fd5b5061068c6004803603604081101561065657600080fd5b81019080803573ffffffffffffffffffffffffffffffffffffffff1690602001909291908035906020019092919050505061129f565b604051808215151515815260200191505060405180910390f35b3480156106b257600080fd5b506106bb6112b6565b6040518082815260200191505060405180910390f35b3480156106dd57600080fd5b5061072a600480360360408110156106f457600080fd5b8101908080359060200190929190803573ffffffffffffffffffffffffffffffffffffffff1690602001909291905050506112c0565b604051808215151515815260200191505060405180910390f35b34801561075057600080fd5b506107b36004803603604081101561076757600080fd5b81019080803573ffffffffffffffffffffffffffffffffffffffff169060200190929190803573ffffffffffffffffffffffffffffffffffffffff16906020019092919050505061159c565b6040518082815260200191505060405180910390f35b3480156107d557600080fd5b506107de611623565b604051808273ffffffffffffffffffffffffffffffffffffffff1673ffffffffffffffffffffffffffffffffffffffff16815260200191505060405180910390f35b60028054600181600116156101000203166002900480601f0160208091040260200160405190810160405280929190818152602001828054600181600116156101000203166002900480156108b65780601f1061088b576101008083540402835291602001916108b6565b820191906000526020600020905b81548152906001019060200180831161089957829003601f168201915b505050505081565b60006108cb338484611649565b6001905092915050565b81600860008373ffffffffffffffffffffffffffffffffffffffff1673ffffffffffffffffffffffffffffffffffffffff168152602001908152602001600020541015151561098c576040517f08c379a00000000000000000000000000000000000000000000000000000000081526004018080602001828103825260128152602001807f4e6f7420656e6f7567682042616c616e6365000000000000000000000000000081525060200191505060405180910390fd5b81600860008373ffffffffffffffffffffffffffffffffffffffff1673ffffffffffffffffffffffffffffffffffffffff16815260200190815260200160002060008282540392505081905550816006600082825401925050819055505050565b60006109fa8484846118ca565b610a938433610a8e85600960008a73ffffffffffffffffffffffffffffffffffffffff1673ffffffffffffffffffffffffffffffffffffffff16815260200190815260200160002060003373ffffffffffffffffffffffffffffffffffffffff1673ffffffffffffffffffffffffffffffffffffffff16815260200190815260200160002054611bf490919063ffffffff16565b611649565b600190509392505050565b8160065410151515610b18576040517f08c379a000000000000000000000000000000000000000000000000000000000815260040180806020018281038252601c8152602001807f4e6f7420656e6f75676820537570706c6961626c6520546f6b656e730000000081525060200191505060405180910390fd5b600860008273ffffffffffffffffffffffffffffffffffffffff1673ffffffffffffffffffffffffffffffffffffffff1681526020019081526020016000205482600860008473ffffffffffffffffffffffffffffffffffffffff1673ffffffffffffffffffffffffffffffffffffffff168152602001908152602001600020540110151515610c10576040517f08c379a00000000000000000000000000000000000000000000000000000000081526004018080602001828103825260108152602001807f4f766572666c6f77204f6363757265640000000000000000000000000000000081525060200191505060405180910390fd5b81600860008373ffffffffffffffffffffffffffffffffffffffff1673ffffffffffffffffffffffffffffffffffffffff16815260200190815260200160002060008282540192505081905550816006600082825403925050819055505050565b60045481565b6000610d123384610d0d85600960003373ffffffffffffffffffffffffffffffffffffffff1673ffffffffffffffffffffffffffffffffffffffff16815260200190815260200160002060008973ffffffffffffffffffffffffffffffffffffffff1673ffffffffffffffffffffffffffffffffffffffff16815260200190815260200160002054611c7f90919063ffffffff16565b611649565b6001905092915050565b60008060009054906101000a900473ffffffffffffffffffffffffffffffffffffffff1673ffffffffffffffffffffffffffffffffffffffff163373ffffffffffffffffffffffffffffffffffffffff161480610dc65750600160009054906101000a900473ffffffffffffffffffffffffffffffffffffffff1673ffffffffffffffffffffffffffffffffffffffff163373ffffffffffffffffffffffffffffffffffffffff16145b1515610e3a576040517f08c379a00000000000000000000000000000000000000000000000000000000081526004018080602001828103825260138152602001807f556e617574686f72697a65642073656e6465720000000000000000000000000081525060200191505060405180910390fd5b7f455a0000000000000000000000000000000000000000000000000000000000007dffffffffffffffffffffffffffffffffffffffffffffffffffffffffffff1916837dffffffffffffffffffffffffffffffffffffffffffffffffffffffffffff1916148015610eb35750610eb26102bc83611d09565b5b15610f1e576102bc600860008473ffffffffffffffffffffffffffffffffffffffff1673ffffffffffffffffffffffffffffffffffffffff168152602001908152602001600020600082825401925050819055506102bc6006600082825403925050819055506110e4565b7f4e4d0000000000000000000000000000000000000000000000000000000000007dffffffffffffffffffffffffffffffffffffffffffffffffffffffffffff1916837dffffffffffffffffffffffffffffffffffffffffffffffffffffffffffff1916148015610f975750610f966103e883611d09565b5b15611002576103e8600860008473ffffffffffffffffffffffffffffffffffffffff1673ffffffffffffffffffffffffffffffffffffffff168152602001908152602001600020600082825401925050819055506103e86006600082825403925050819055506110e3565b7f48440000000000000000000000000000000000000000000000000000000000007dffffffffffffffffffffffffffffffffffffffffffffffffffffffffffff1916837dffffffffffffffffffffffffffffffffffffffffffffffffffffffffffff191614801561107b575061107a6107d083611d09565b5b156110e2576107d0600860008473ffffffffffffffffffffffffffffffffffffffff1673ffffffffffffffffffffffffffffffffffffffff168152602001908152602001600020600082825401925050819055506107d06006600082825403925050819055505b5b5b6001905092915050565b6000600860008373ffffffffffffffffffffffffffffffffffffffff1673ffffffffffffffffffffffffffffffffffffffff168152602001908152602001600020549050919050565b6000809054906101000a900473ffffffffffffffffffffffffffffffffffffffff1681565b60038054600181600116156101000203166002900480601f0160208091040260200160405190810160405280929190818152602001828054600181600116156101000203166002900480156111f25780601f106111c7576101008083540402835291602001916111f2565b820191906000526020600020905b8154815290600101906020018083116111d557829003601f168201915b505050505081565b6000611295338461129085600960003373ffffffffffffffffffffffffffffffffffffffff1673ffffffffffffffffffffffffffffffffffffffff16815260200190815260200160002060008973ffffffffffffffffffffffffffffffffffffffff1673ffffffffffffffffffffffffffffffffffffffff16815260200190815260200160002054611bf490919063ffffffff16565b611649565b6001905092915050565b60006112ac3384846118ca565b6001905092915050565b6000600554905090565b60008060009054906101000a900473ffffffffffffffffffffffffffffffffffffffff1673ffffffffffffffffffffffffffffffffffffffff163373ffffffffffffffffffffffffffffffffffffffff16148061136a5750600160009054906101000a900473ffffffffffffffffffffffffffffffffffffffff1673ffffffffffffffffffffffffffffffffffffffff163373ffffffffffffffffffffffffffffffffffffffff16145b15156113de576040517f08c379a00000000000000000000000000000000000000000000000000000000081526004018080602001828103825260138152602001807f556e617574686f72697a65642073656e6465720000000000000000000000000081525060200191505060405180910390fd5b82600860008473ffffffffffffffffffffffffffffffffffffffff1673ffffffffffffffffffffffffffffffffffffffff1681526020019081526020016000205410151515611495576040517f08c379a00000000000000000000000000000000000000000000000000000000081526004018080602001828103825260128152602001807f4e6f7420656e6f7567682042616c616e6365000000000000000000000000000081525060200191505060405180910390fd5b6127108310151515611535576040517f08c379a00000000000000000000000000000000000000000000000000000000081526004018080602001828103825260268152602001807f4e6f74205265616368204d696e696d616c20436f6e646974696f6e3a2031303081526020017f3030204d4654000000000000000000000000000000000000000000000000000081525060400191505060405180910390fd5b82600860008473ffffffffffffffffffffffffffffffffffffffff1673ffffffffffffffffffffffffffffffffffffffff16815260200190815260200160002060008282540392505081905550826006600082825401925050819055506001905092915050565b6000600960008473ffffffffffffffffffffffffffffffffffffffff1673ffffffffffffffffffffffffffffffffffffffff16815260200190815260200160002060008373ffffffffffffffffffffffffffffffffffffffff1673ffffffffffffffffffffffffffffffffffffffff16815260200190815260200160002054905092915050565b600160009054906101000a900473ffffffffffffffffffffffffffffffffffffffff1681565b600073ffffffffffffffffffffffffffffffffffffffff168373ffffffffffffffffffffffffffffffffffffffff1614151515611714576040517f08c379a00000000000000000000000000000000000000000000000000000000081526004018080602001828103825260248152602001807f45524332303a20617070726f76652066726f6d20746865207a65726f2061646481526020017f726573730000000000000000000000000000000000000000000000000000000081525060400191505060405180910390fd5b600073ffffffffffffffffffffffffffffffffffffffff168273ffffffffffffffffffffffffffffffffffffffff16141515156117df576040517f08c379a00000000000000000000000000000000000000000000000000000000081526004018080602001828103825260228152602001807f45524332303a20617070726f766520746f20746865207a65726f20616464726581526020017f737300000000000000000000000000000000000000000000000000000000000081525060400191505060405180910390fd5b80600960008573ffffffffffffffffffffffffffffffffffffffff1673ffffffffffffffffffffffffffffffffffffffff16815260200190815260200160002060008473ffffffffffffffffffffffffffffffffffffffff1673ffffffffffffffffffffffffffffffffffffffff168152602001908152602001600020819055508173ffffffffffffffffffffffffffffffffffffffff168373ffffffffffffffffffffffffffffffffffffffff167f8c5be1e5ebec7d5bd14f71427d1e84f3dd0314c0f7b2291e5b200ac8c7c3b925836040518082815260200191505060405180910390a3505050565b600073ffffffffffffffffffffffffffffffffffffffff168373ffffffffffffffffffffffffffffffffffffffff1614151515611995576040517f08c379a00000000000000000000000000000000000000000000000000000000081526004018080602001828103825260258152602001807f45524332303a207472616e736665722066726f6d20746865207a65726f20616481526020017f647265737300000000000000000000000000000000000000000000000000000081525060400191505060405180910390fd5b600073ffffffffffffffffffffffffffffffffffffffff168273ffffffffffffffffffffffffffffffffffffffff1614151515611a60576040517f08c379a00000000000000000000000000000000000000000000000000000000081526004018080602001828103825260238152602001807f45524332303a207472616e7366657220746f20746865207a65726f206164647281526020017f657373000000000000000000000000000000000000000000000000000000000081525060400191505060405180910390fd5b611ab281600860008673ffffffffffffffffffffffffffffffffffffffff1673ffffffffffffffffffffffffffffffffffffffff16815260200190815260200160002054611bf490919063ffffffff16565b600860008573ffffffffffffffffffffffffffffffffffffffff1673ffffffffffffffffffffffffffffffffffffffff16815260200190815260200160002081905550611b4781600860008573ffffffffffffffffffffffffffffffffffffffff1673ffffffffffffffffffffffffffffffffffffffff16815260200190815260200160002054611c7f90919063ffffffff16565b600860008473ffffffffffffffffffffffffffffffffffffffff1673ffffffffffffffffffffffffffffffffffffffff168152602001908152602001600020819055508173ffffffffffffffffffffffffffffffffffffffff168373ffffffffffffffffffffffffffffffffffffffff167fddf252ad1be2c89b69c2b068fc378daa952ba7f163c4a11628f55a4df523b3ef836040518082815260200191505060405180910390a3505050565b6000828211151515611c6e576040517f08c379a000000000000000000000000000000000000000000000000000000000815260040180806020018281038252601e8152602001807f536166654d6174683a207375627472616374696f6e206f766572666c6f77000081525060200191505060405180910390fd5b600082840390508091505092915050565b6000808284019050838110151515611cff576040517f08c379a000000000000000000000000000000000000000000000000000000000815260040180806020018281038252601b8152602001807f536166654d6174683a206164646974696f6e206f766572666c6f77000000000081525060200191505060405180910390fd5b8091505092915050565b60008260065410151515611d85576040517f08c379a000000000000000000000000000000000000000000000000000000000815260040180806020018281038252601c8152602001807f4e6f7420656e6f75676820537570706c6961626c6520546f6b656e730000000081525060200191505060405180910390fd5b600860008373ffffffffffffffffffffffffffffffffffffffff1673ffffffffffffffffffffffffffffffffffffffff1681526020019081526020016000205483600860008573ffffffffffffffffffffffffffffffffffffffff1673ffffffffffffffffffffffffffffffffffffffff168152602001908152602001600020540110151515611e7d576040517f08c379a00000000000000000000000000000000000000000000000000000000081526004018080602001828103825260108152602001807f4f766572666c6f77204f6363757265640000000000000000000000000000000081525060200191505060405180910390fd5b600190509291505056fea165627a7a7230582056af55a63e99ce89a5b9e27f7bbd9558afe96136bd07d5ba3f098c4423da4a660029",
  "source": "pragma solidity ^0.5.0;\r\n\r\nimport './IERC20.sol';\r\nimport './IMagnetField.sol';\r\nimport \"./SafeMath.sol\";\r\n\r\n// 1 Manget == 100 MagnetField\r\ncontract MagnetField is IERC20, IMagnetField{\r\n    using SafeMath for uint256;\r\n    // ERC20 functions are implemeted by parent contract(ERC20 by Openzeppelin)\r\n\r\n    // constant variables\r\n    uint256 constant internal INITIAL_SUPPLY = 200000000; //(2억)\r\n\r\n    // token information variables\r\n    address public owner;\r\n    address public controller;\r\n    string public name;\r\n    string public symbol;\r\n    uint256 public decimals;\r\n    uint256 private totalSupply;\r\n    uint256 private suppliableAmount;\r\n    uint256 private tokenPrice;\r\n\r\n\r\n    mapping (address => uint256) private balances;\r\n\r\n    mapping (address => mapping (address => uint256)) private allowances;\r\n\r\n    /**\r\n     * @dev 컨트랙트 생성시 자동으로 실행되는 일회성 생성자.\r\n     * @param _owner 상위 컨트랙트(GameController)를 생성한 deployer.\r\n     */\r\n    constructor(address _owner) public{\r\n        owner = _owner;\r\n        controller = msg.sender;\r\n        name = \"MagnetField\";\r\n        symbol = \"MGF\";\r\n        decimals = 8;\r\n        totalSupply = INITIAL_SUPPLY * 10 ** uint(decimals);\r\n        suppliableAmount = INITIAL_SUPPLY * 10 ** uint(decimals);\r\n    }\r\n\r\n    modifier onlyOwner() {\r\n        require(msg.sender == owner || msg.sender == controller, \"Unauthorized sender\");\r\n        _;\r\n    }\r\n\r\n\r\n\r\n    // Events are implemented in IERC20.sol\r\n    /*\r\n        event Transfer(address indexed from, address indexed to, uint256 value);\r\n        event Approval(address indexed owner, address indexed spender, uint256 value);\r\n    */\r\n    // ERC20 standard functions\r\n    /**\r\n     * @dev See `IERC20.totalSupply`.\r\n     */\r\n    function getTotalSupply() public view returns (uint256) {\r\n        return totalSupply;\r\n    }\r\n\r\n    /**\r\n     * @dev See `IERC20.balanceOf`.\r\n     */\r\n    function balanceOf(address account) public view returns (uint256) {\r\n        return balances[account];\r\n    }\r\n\r\n    /**\r\n     * @dev See `IERC20.transfer`.\r\n     *\r\n     * Requirements:\r\n     *\r\n     * - `recipient` cannot be the zero address.\r\n     * - the caller must have a balance of at least `amount`.\r\n     */\r\n    function transfer(address recipient, uint256 amount) public returns (bool) {\r\n        _transfer(msg.sender, recipient, amount);\r\n        return true;\r\n    }\r\n\r\n    /**\r\n     * @dev See `IERC20.allowance`.\r\n     */\r\n    function allowance(address from, address to) public view returns (uint256) {\r\n        return allowances[from][to];\r\n    }\r\n\r\n    /**\r\n     * @dev See `IERC20.approve`.\r\n     *\r\n     * Requirements:\r\n     *\r\n     * - `spender` cannot be the zero address.\r\n     */\r\n    function approve(address spender, uint256 value) public returns (bool) {\r\n        _approve(msg.sender, spender, value);\r\n        return true;\r\n    }\r\n\r\n    /**\r\n     * @dev See `IERC20.transferFrom`.\r\n     *\r\n     * Emits an `Approval` event indicating the updated allowance. This is not\r\n     * required by the EIP. See the note at the beginning of `ERC20`;\r\n     *\r\n     * Requirements:\r\n     * - `sender` and `recipient` cannot be the zero address.\r\n     * - `sender` must have a balance of at least `value`.\r\n     * - the caller must have allowance for `sender`'s tokens of at least\r\n     * `amount`.\r\n     */\r\n    function transferFrom(address sender, address recipient, uint256 amount) public returns (bool) {\r\n        _transfer(sender, recipient, amount);\r\n        _approve(sender, msg.sender, allowances[sender][msg.sender].sub(amount));\r\n        return true;\r\n    }\r\n\r\n    /**\r\n     * @dev Atomically increases the allowance granted to `spender` by the caller.\r\n     *\r\n     * This is an alternative to `approve` that can be used as a mitigation for\r\n     * problems described in `IERC20.approve`.\r\n     *\r\n     * Emits an `Approval` event indicating the updated allowance.\r\n     *\r\n     * Requirements:\r\n     *\r\n     * - `spender` cannot be the zero address.\r\n     */\r\n    function increaseAllowance(address spender, uint256 addedValue) public returns (bool) {\r\n        _approve(msg.sender, spender, allowances[msg.sender][spender].add(addedValue));\r\n        return true;\r\n    }\r\n\r\n    /**\r\n     * @dev Atomically decreases the allowance granted to `spender` by the caller.\r\n     *\r\n     * This is an alternative to `approve` that can be used as a mitigation for\r\n     * problems described in `IERC20.approve`.\r\n     *\r\n     * Emits an `Approval` event indicating the updated allowance.\r\n     *\r\n     * Requirements:\r\n     *\r\n     * - `spender` cannot be the zero address.\r\n     * - `spender` must have allowance for the caller of at least\r\n     * `subtractedValue`.\r\n     */\r\n    function decreaseAllowance(address spender, uint256 subtractedValue) public returns (bool) {\r\n        _approve(msg.sender, spender, allowances[msg.sender][spender].sub(subtractedValue));\r\n        return true;\r\n    }\r\n\r\n    /**\r\n     * @dev Moves tokens `amount` from `sender` to `recipient`.\r\n     *\r\n     * This is internal function is equivalent to `transfer`, and can be used to\r\n     * e.g. implement automatic token fees, slashing mechanisms, etc.\r\n     *\r\n     * Emits a `Transfer` event.\r\n     *\r\n     * Requirements:\r\n     *\r\n     * - `sender` cannot be the zero address.\r\n     * - `recipient` cannot be the zero address.\r\n     * - `sender` must have a balance of at least `amount`.\r\n     */\r\n    function _transfer(address sender, address recipient, uint256 amount) internal {\r\n        require(sender != address(0), \"ERC20: transfer from the zero address\");\r\n        require(recipient != address(0), \"ERC20: transfer to the zero address\");\r\n\r\n        balances[sender] = balances[sender].sub(amount);\r\n        balances[recipient] = balances[recipient].add(amount);\r\n        emit Transfer(sender, recipient, amount);\r\n    }\r\n\r\n    /** @dev Creates `amount` tokens and assigns them to `account`, increasing\r\n     * the total supply.\r\n     *\r\n     * Emits a `Transfer` event with `from` set to the zero address.\r\n     *\r\n     * Requirements\r\n     *\r\n     * - `to` cannot be the zero address.\r\n     */\r\n    function _mint(address account, uint256 amount) internal {\r\n        require(account != address(0), \"ERC20: mint to the zero address\");\r\n\r\n        totalSupply = totalSupply.add(amount);\r\n        balances[account] = balances[account].add(amount);\r\n        emit Transfer(address(0), account, amount);\r\n    }\r\n\r\n     /**\r\n     * @dev Destoys `amount` tokens from `account`, reducing the\r\n     * total supply.\r\n     *\r\n     * Emits a `Transfer` event with `to` set to the zero address.\r\n     *\r\n     * Requirements\r\n     *\r\n     * - `account` cannot be the zero address.\r\n     * - `account` must have at least `amount` tokens.\r\n     */\r\n    function _burn(address account, uint256 value) internal {\r\n        require(account != address(0), \"ERC20: burn from the zero address\");\r\n\r\n        totalSupply = totalSupply.sub(value);\r\n        balances[account] = balances[account].sub(value);\r\n        emit Transfer(account, address(0), value);\r\n    }\r\n\r\n    /**\r\n     * @dev Sets `amount` as the allowance of `spender` over the `owner`s tokens.\r\n     *\r\n     * This is internal function is equivalent to `approve`, and can be used to\r\n     * e.g. set automatic allowances for certain subsystems, etc.\r\n     *\r\n     * Emits an `Approval` event.\r\n     *\r\n     * Requirements:\r\n     *\r\n     * - `owner` cannot be the zero address.\r\n     * - `spender` cannot be the zero address.\r\n     */\r\n    function _approve(address from, address to, uint256 value) internal {\r\n        require(from != address(0), \"ERC20: approve from the zero address\");\r\n        require(to != address(0), \"ERC20: approve to the zero address\");\r\n\r\n        allowances[from][to] = value;\r\n        emit Approval(from, to, value);\r\n    }\r\n\r\n    /**\r\n     * @dev Destoys `amount` tokens from `account`.`amount` is then deducted\r\n     * from the caller's allowance.\r\n     *\r\n     * See `_burn` and `_approve`.\r\n     */\r\n    function _burnFrom(address account, uint256 amount) internal {\r\n        _burn(account, amount);\r\n        _approve(account, msg.sender, allowances[account][msg.sender].sub(amount));\r\n    }\r\n\r\n    // Non-standard functions by OpenZeppelin\r\n    // function increaseAllowance(address spender, uint256 addedValue) public returns (bool) {\r\n    //     super(spender, addedValue);\r\n    // }\r\n\r\n\r\n    // function decreaseAllowance(address spender, uint256 subtractedValue) public returns (bool) {\r\n    //     super(spender, subtractedValue);\r\n    // }\r\n\r\n    /**\r\n     * @dev 교환 요청을 받은 경우 동작하는 함수.\r\n     * @param amount 교환하고자 하는 magnetfield 양\r\n     * @param user 교환을 요청한 user\r\n     */\r\n    function exchangeTokens(uint256 amount, address user) public onlyOwner returns (bool) {\r\n        require(balances[user] >= amount, \"Not enough Balance\");\r\n        require(amount >= 10000, \"Not Reach Minimal Condition: 10000 MFT\");\r\n        balances[user] -= amount;\r\n        suppliableAmount += amount;\r\n        return true;\r\n    }\r\n\r\n    /**\r\n     * @dev 교환 요청을 받은 경우 동작하는 함수.\r\n     * @param cost 아이템을 구매하는데 사용한 총 토큰량\r\n     * @param user 아이템 구매를 요청한 user\r\n     */\r\n    function buyItems(uint256 cost, address user) public {\r\n        require(balances[user] >= cost, \"Not enough Balance\");\r\n        balances[user] -= cost;\r\n        suppliableAmount += cost;\r\n    }\r\n\r\n    /**\r\n     * @dev 게임 결과에 따른 보상을 해주기 위한 함수\r\n     * @param _difficulty user가 수행한 게임의 난이도\r\n     * @param user 보상을 주어야하는 user\r\n     */\r\n    function rewardTokens(bytes2 _difficulty, address user) public onlyOwner returns (bool) {\r\n        if(_difficulty == bytes2(\"EZ\") && checkAmounts(700, user)) {\r\n            balances[user] += 700;\r\n            suppliableAmount -= 700;\r\n        } else if (_difficulty == bytes2(\"NM\") && checkAmounts(1000, user)) {\r\n            balances[user] += 1000;\r\n            suppliableAmount -= 1000;\r\n        } else if (_difficulty == bytes2(\"HD\") && checkAmounts(2000, user)) {\r\n            balances[user] += 2000;\r\n            suppliableAmount -= 2000;\r\n        }\r\n\r\n        return true;\r\n    }\r\n\r\n    /**\r\n     * @dev 특정량의 토큰을 공급가능한지(suppliableAmount), 또한 user의 balance에서 overflow가 발생하지 않는지 확인\r\n     * @param _amount 체크하고 싶은 토큰량\r\n     */\r\n    function checkAmounts(uint256 _amount, address user) internal view returns (bool){\r\n        require(suppliableAmount >= _amount, \"Not enough Suppliable Tokens\");\r\n        require(balances[user] + _amount >= balances[user], \"Overflow Occured\");\r\n        return true;\r\n    }\r\n\r\n\r\n    //없앨 함수\r\n    function getTokens(uint256 _amount, address user) public {\r\n        require(suppliableAmount >= _amount, \"Not enough Suppliable Tokens\");\r\n        require(balances[user] + _amount >= balances[user], \"Overflow Occured\");\r\n        balances[user] += _amount;\r\n        suppliableAmount -= _amount;\r\n    }\r\n}",
  "sourcePath": "C:\\Users\\khw64\\OneDrive\\문서\\GitHub\\MineSweeperDApp\\contracts\\MagnetField.sol",
  "compiler": {
    "name": "solc",
    "version": "0.5.0+commit.1d4f565a.Emscripten.clang"
  },
  "schemaVersion": "3.0.3",
  "updatedAt": "2019-08-15T07:10:28.010Z",
  "devdoc": {
    "methods": {
      "allowance(address,address)": {
        "details": "See `IERC20.allowance`.\r"
      },
      "approve(address,uint256)": {
        "details": "See `IERC20.approve`.\r      * Requirements:\r      * - `spender` cannot be the zero address.\r"
      },
      "balanceOf(address)": {
        "details": "See `IERC20.balanceOf`.\r"
      },
      "buyItems(uint256,address)": {
        "details": "교환 요청을 받은 경우 동작하는 함수.\r",
        "params": {
          "cost": "아이템을 구매하는데 사용한 총 토큰량\r",
          "user": "아이템 구매를 요청한 user\r"
        }
      },
      "constructor": {
        "details": "컨트랙트 생성시 자동으로 실행되는 일회성 생성자.\r",
        "params": {
          "_owner": "상위 컨트랙트(GameController)를 생성한 deployer.\r"
        }
      },
      "decreaseAllowance(address,uint256)": {
        "details": "Atomically decreases the allowance granted to `spender` by the caller.\r      * This is an alternative to `approve` that can be used as a mitigation for\r problems described in `IERC20.approve`.\r      * Emits an `Approval` event indicating the updated allowance.\r      * Requirements:\r      * - `spender` cannot be the zero address.\r - `spender` must have allowance for the caller of at least\r `subtractedValue`.\r"
      },
      "exchangeTokens(uint256,address)": {
        "details": "교환 요청을 받은 경우 동작하는 함수.\r",
        "params": {
          "amount": "교환하고자 하는 magnetfield 양\r",
          "user": "교환을 요청한 user\r"
        }
      },
      "getTotalSupply()": {
        "details": "See `IERC20.totalSupply`.\r"
      },
      "increaseAllowance(address,uint256)": {
        "details": "Atomically increases the allowance granted to `spender` by the caller.\r      * This is an alternative to `approve` that can be used as a mitigation for\r problems described in `IERC20.approve`.\r      * Emits an `Approval` event indicating the updated allowance.\r      * Requirements:\r      * - `spender` cannot be the zero address.\r"
      },
      "rewardTokens(bytes2,address)": {
        "details": "게임 결과에 따른 보상을 해주기 위한 함수\r",
        "params": {
          "_difficulty": "user가 수행한 게임의 난이도\r",
          "user": "보상을 주어야하는 user\r"
        }
      },
      "transfer(address,uint256)": {
        "details": "See `IERC20.transfer`.\r      * Requirements:\r      * - `recipient` cannot be the zero address.\r - the caller must have a balance of at least `amount`.\r"
      },
      "transferFrom(address,address,uint256)": {
        "details": "See `IERC20.transferFrom`.\r      * Emits an `Approval` event indicating the updated allowance. This is not\r required by the EIP. See the note at the beginning of `ERC20`;\r      * Requirements:\r - `sender` and `recipient` cannot be the zero address.\r - `sender` must have a balance of at least `value`.\r - the caller must have allowance for `sender`'s tokens of at least\r `amount`.\r"
      }
    }
  },
  "userdoc": {
    "methods": {}
  }
}